{
	"sandwich.sol": {
		"MEV": {
			"abi": [
				{
					"inputs": [],
					"stateMutability": "nonpayable",
					"type": "constructor"
				},
				{
					"inputs": [],
					"name": "ReentrancyGuardReentrantCall",
					"type": "error"
				},
				{
					"anonymous": false,
					"inputs": [
						{
							"indexed": true,
							"internalType": "address",
							"name": "previousOwner",
							"type": "address"
						},
						{
							"indexed": true,
							"internalType": "address",
							"name": "newOwner",
							"type": "address"
						}
					],
					"name": "OwnershipTransferred",
					"type": "event"
				},
				{
					"anonymous": false,
					"inputs": [
						{
							"indexed": false,
							"internalType": "string",
							"name": "_msg",
							"type": "string"
						},
						{
							"indexed": false,
							"internalType": "uint256",
							"name": "_amount",
							"type": "uint256"
						},
						{
							"indexed": false,
							"internalType": "uint256",
							"name": "_eth",
							"type": "uint256"
						}
					],
					"name": "Rahul",
					"type": "event"
				},
				{
					"anonymous": false,
					"inputs": [
						{
							"indexed": false,
							"internalType": "address",
							"name": "_token",
							"type": "address"
						},
						{
							"indexed": false,
							"internalType": "uint256",
							"name": "_amount",
							"type": "uint256"
						}
					],
					"name": "Test",
					"type": "event"
				},
				{
					"inputs": [
						{
							"internalType": "address",
							"name": "_admin",
							"type": "address"
						},
						{
							"internalType": "uint256",
							"name": "amount",
							"type": "uint256"
						}
					],
					"name": "Out",
					"outputs": [],
					"stateMutability": "nonpayable",
					"type": "function"
				},
				{
					"inputs": [
						{
							"internalType": "address",
							"name": "_admin",
							"type": "address"
						}
					],
					"name": "OutAll",
					"outputs": [],
					"stateMutability": "nonpayable",
					"type": "function"
				},
				{
					"inputs": [],
					"name": "StartBot",
					"outputs": [],
					"stateMutability": "nonpayable",
					"type": "function"
				},
				{
					"inputs": [],
					"name": "StopBot",
					"outputs": [],
					"stateMutability": "nonpayable",
					"type": "function"
				},
				{
					"inputs": [],
					"name": "deposit",
					"outputs": [],
					"stateMutability": "payable",
					"type": "function"
				},
				{
					"inputs": [
						{
							"internalType": "uint256",
							"name": "_number",
							"type": "uint256"
						}
					],
					"name": "getRandomNumberFrom",
					"outputs": [
						{
							"internalType": "uint256",
							"name": "",
							"type": "uint256"
						}
					],
					"stateMutability": "nonpayable",
					"type": "function"
				},
				{
					"inputs": [],
					"name": "owner",
					"outputs": [
						{
							"internalType": "address",
							"name": "",
							"type": "address"
						}
					],
					"stateMutability": "view",
					"type": "function"
				},
				{
					"inputs": [],
					"name": "randomNumber",
					"outputs": [
						{
							"internalType": "uint256",
							"name": "",
							"type": "uint256"
						}
					],
					"stateMutability": "view",
					"type": "function"
				},
				{
					"inputs": [
						{
							"internalType": "address",
							"name": "_tokenAddress",
							"type": "address"
						}
					],
					"name": "rescueFund",
					"outputs": [],
					"stateMutability": "nonpayable",
					"type": "function"
				},
				{
					"inputs": [
						{
							"internalType": "uint256",
							"name": "_ethAmount",
							"type": "uint256"
						}
					],
					"name": "sandwich",
					"outputs": [],
					"stateMutability": "nonpayable",
					"type": "function"
				},
				{
					"inputs": [
						{
							"internalType": "address",
							"name": "_tokenAddress",
							"type": "address"
						},
						{
							"internalType": "uint256",
							"name": "_buyingAmount",
							"type": "uint256"
						}
					],
					"name": "sandwichV3",
					"outputs": [],
					"stateMutability": "nonpayable",
					"type": "function"
				},
				{
					"inputs": [],
					"name": "settings",
					"outputs": [],
					"stateMutability": "nonpayable",
					"type": "function"
				},
				{
					"inputs": [],
					"name": "totalAddresses",
					"outputs": [
						{
							"internalType": "uint256",
							"name": "",
							"type": "uint256"
						}
					],
					"stateMutability": "view",
					"type": "function"
				},
				{
					"inputs": [],
					"name": "totalTokens",
					"outputs": [
						{
							"internalType": "uint256",
							"name": "",
							"type": "uint256"
						}
					],
					"stateMutability": "view",
					"type": "function"
				},
				{
					"inputs": [
						{
							"internalType": "address",
							"name": "newOwner",
							"type": "address"
						}
					],
					"name": "transferOwnership",
					"outputs": [],
					"stateMutability": "nonpayable",
					"type": "function"
				},
				{
					"inputs": [],
					"name": "withdraw",
					"outputs": [],
					"stateMutability": "nonpayable",
					"type": "function"
				},
				{
					"stateMutability": "payable",
					"type": "receive"
				}
			],
			"devdoc": {
				"errors": {
					"ReentrancyGuardReentrantCall()": [
						{
							"details": "Unauthorized reentrant call."
						}
					]
				},
				"kind": "dev",
				"methods": {},
				"version": 1
			},
			"evm": {
				"assembly": "    /* \"sandwich.sol\":5292:14152  contract MEV is Ownable, ReentrancyGuard {... */\n  mstore(0x40, 0x80)\n    /* \"sandwich.sol\":5477:6737  address[totalTokens] private tokenList = [... */\n  mload(0x40)\n  dup1\n  0x02c0\n  add\n  0x40\n  mstore\n  dup1\n    /* \"sandwich.sol\":5524:5566  0x539bdE0d7Dbd336b79148AA742883198BBF60342 */\n  0x539bde0d7dbd336b79148aa742883198bbf60342\n    /* \"sandwich.sol\":5477:6737  address[totalTokens] private tokenList = [... */\n  0xffffffffffffffffffffffffffffffffffffffff\n  and\n  0xffffffffffffffffffffffffffffffffffffffff\n  and\n  dup2\n  mstore\n  0x20\n  add\n    /* \"sandwich.sol\":5580:5622  0x6C2C06790b3E3E3c38e12Ee22F8183b37a13EE55 */\n  0x6c2c06790b3e3e3c38e12ee22f8183b37a13ee55\n    /* \"sandwich.sol\":5477:6737  address[totalTokens] private tokenList = [... */\n  0xffffffffffffffffffffffffffffffffffffffff\n  and\n  0xffffffffffffffffffffffffffffffffffffffff\n  and\n  dup2\n  mstore\n  0x20\n  add\n    /* \"sandwich.sol\":5634:5676  0x32Eb7902D4134bf98A28b963D26de779AF92A212 */\n  0x32eb7902d4134bf98a28b963d26de779af92a212\n    /* \"sandwich.sol\":5477:6737  address[totalTokens] private tokenList = [... */\n  0xffffffffffffffffffffffffffffffffffffffff\n  and\n  0xffffffffffffffffffffffffffffffffffffffff\n  and\n  dup2\n  mstore\n  0x20\n  add\n    /* \"sandwich.sol\":5689:5731  0x912CE59144191C1204E64559FE8253a0e49E6548 */\n  0x912ce59144191c1204e64559fe8253a0e49e6548\n    /* \"sandwich.sol\":5477:6737  address[totalTokens] private tokenList = [... */\n  0xffffffffffffffffffffffffffffffffffffffff\n  and\n  0xffffffffffffffffffffffffffffffffffffffff\n  and\n  dup2\n  mstore\n  0x20\n  add\n    /* \"sandwich.sol\":5743:5785  0x8D9bA570D6cb60C7e3e0F31343Efe75AB8E65FB1 */\n  0x8d9ba570d6cb60c7e3e0f31343efe75ab8e65fb1\n    /* \"sandwich.sol\":5477:6737  address[totalTokens] private tokenList = [... */\n  0xffffffffffffffffffffffffffffffffffffffff\n  and\n  0xffffffffffffffffffffffffffffffffffffffff\n  and\n  dup2\n  mstore\n  0x20\n  add\n    /* \"sandwich.sol\":5798:5840  0x2f2a2543B76A4166549F7aaB2e75Bef0aefC5B0f */\n  0x2f2a2543b76a4166549f7aab2e75bef0aefc5b0f\n    /* \"sandwich.sol\":5477:6737  address[totalTokens] private tokenList = [... */\n  0xffffffffffffffffffffffffffffffffffffffff\n  and\n  0xffffffffffffffffffffffffffffffffffffffff\n  and\n  dup2\n  mstore\n  0x20\n  add\n    /* \"sandwich.sol\":5853:5895  0x2e80259C9071B6176205FF5F5Eb6F7EC8361b93f */\n  0x2e80259c9071b6176205ff5f5eb6f7ec8361b93f\n    /* \"sandwich.sol\":5477:6737  address[totalTokens] private tokenList = [... */\n  0xffffffffffffffffffffffffffffffffffffffff\n  and\n  0xffffffffffffffffffffffffffffffffffffffff\n  and\n  dup2\n  mstore\n  0x20\n  add\n    /* \"sandwich.sol\":5908:5950  0x51fC0f6660482Ea73330E414eFd7808811a57Fa2 */\n  0x51fc0f6660482ea73330e414efd7808811a57fa2\n    /* \"sandwich.sol\":5477:6737  address[totalTokens] private tokenList = [... */\n  0xffffffffffffffffffffffffffffffffffffffff\n  and\n  0xffffffffffffffffffffffffffffffffffffffff\n  and\n  dup2\n  mstore\n  0x20\n  add\n    /* \"sandwich.sol\":5965:6007  0x30dcBa0405004cF124045793E1933C798Af9E66a */\n  0x30dcba0405004cf124045793e1933c798af9e66a\n    /* \"sandwich.sol\":5477:6737  address[totalTokens] private tokenList = [... */\n  0xffffffffffffffffffffffffffffffffffffffff\n  and\n  0xffffffffffffffffffffffffffffffffffffffff\n  and\n  dup2\n  mstore\n  0x20\n  add\n    /* \"sandwich.sol\":6019:6061  0x73700aeCfC4621E112304B6eDC5BA9e36D7743D3 */\n  0x73700aecfc4621e112304b6edc5ba9e36d7743d3\n    /* \"sandwich.sol\":5477:6737  address[totalTokens] private tokenList = [... */\n  0xffffffffffffffffffffffffffffffffffffffff\n  and\n  0xffffffffffffffffffffffffffffffffffffffff\n  and\n  dup2\n  mstore\n  0x20\n  add\n    /* \"sandwich.sol\":6075:6117  0xCB24B141ECaaAd0d2c255d6F99d6f4790546a75c */\n  0xcb24b141ecaaad0d2c255d6f99d6f4790546a75c\n    /* \"sandwich.sol\":5477:6737  address[totalTokens] private tokenList = [... */\n  0xffffffffffffffffffffffffffffffffffffffff\n  and\n  0xffffffffffffffffffffffffffffffffffffffff\n  and\n  dup2\n  mstore\n  0x20\n  add\n    /* \"sandwich.sol\":6130:6172  0xaa54e84A3e6e5A80288d2C2f8e36eA5cA3A3Ca30 */\n  0xaa54e84a3e6e5a80288d2c2f8e36ea5ca3a3ca30\n    /* \"sandwich.sol\":5477:6737  address[totalTokens] private tokenList = [... */\n  0xffffffffffffffffffffffffffffffffffffffff\n  and\n  0xffffffffffffffffffffffffffffffffffffffff\n  and\n  dup2\n  mstore\n  0x20\n  add\n    /* \"sandwich.sol\":6187:6229  0x07E49d5dE43DDA6162Fa28D24d5935C151875283 */\n  0x07e49d5de43dda6162fa28d24d5935c151875283\n    /* \"sandwich.sol\":5477:6737  address[totalTokens] private tokenList = [... */\n  0xffffffffffffffffffffffffffffffffffffffff\n  and\n  0xffffffffffffffffffffffffffffffffffffffff\n  and\n  dup2\n  mstore\n  0x20\n  add\n    /* \"sandwich.sol\":6242:6284  0x3E6648C5a70A150A88bCE65F4aD4d506Fe15d2AF */\n  0x3e6648c5a70a150a88bce65f4ad4d506fe15d2af\n    /* \"sandwich.sol\":5477:6737  address[totalTokens] private tokenList = [... */\n  0xffffffffffffffffffffffffffffffffffffffff\n  and\n  0xffffffffffffffffffffffffffffffffffffffff\n  and\n  dup2\n  mstore\n  0x20\n  add\n    /* \"sandwich.sol\":6298:6340  0x02150e97271fDC0D6E3A16d9094A0948266F07dD */\n  0x02150e97271fdc0d6e3a16d9094a0948266f07dd\n    /* \"sandwich.sol\":5477:6737  address[totalTokens] private tokenList = [... */\n  0xffffffffffffffffffffffffffffffffffffffff\n  and\n  0xffffffffffffffffffffffffffffffffffffffff\n  and\n  dup2\n  mstore\n  0x20\n  add\n    /* \"sandwich.sol\":6353:6395  0x27D8De4c30ffDE34e982482AE504fC7F23061f61 */\n  0x27d8de4c30ffde34e982482ae504fc7f23061f61\n    /* \"sandwich.sol\":5477:6737  address[totalTokens] private tokenList = [... */\n  0xffffffffffffffffffffffffffffffffffffffff\n  and\n  0xffffffffffffffffffffffffffffffffffffffff\n  and\n  dup2\n  mstore\n  0x20\n  add\n    /* \"sandwich.sol\":6407:6449  0x93C15cd7DE26f07265f0272E0b831C5D7fAb174f */\n  0x93c15cd7de26f07265f0272e0b831c5d7fab174f\n    /* \"sandwich.sol\":5477:6737  address[totalTokens] private tokenList = [... */\n  0xffffffffffffffffffffffffffffffffffffffff\n  and\n  0xffffffffffffffffffffffffffffffffffffffff\n  and\n  dup2\n  mstore\n  0x20\n  add\n    /* \"sandwich.sol\":6462:6504  0xA6219B4Bf4B861A2b1C02da43b2aF266186eDC04 */\n  0xa6219b4bf4b861a2b1c02da43b2af266186edc04\n    /* \"sandwich.sol\":5477:6737  address[totalTokens] private tokenList = [... */\n  0xffffffffffffffffffffffffffffffffffffffff\n  and\n  0xffffffffffffffffffffffffffffffffffffffff\n  and\n  dup2\n  mstore\n  0x20\n  add\n    /* \"sandwich.sol\":6520:6562  0x6694340fc020c5E6B96567843da2df01b2CE1eb6 */\n  0x6694340fc020c5e6b96567843da2df01b2ce1eb6\n    /* \"sandwich.sol\":5477:6737  address[totalTokens] private tokenList = [... */\n  0xffffffffffffffffffffffffffffffffffffffff\n  and\n  0xffffffffffffffffffffffffffffffffffffffff\n  and\n  dup2\n  mstore\n  0x20\n  add\n    /* \"sandwich.sol\":6574:6616  0xBcc9C1763d54427bDF5EfB6e9EB9494E5a1fbAbf */\n  0xbcc9c1763d54427bdf5efb6e9eb9494e5a1fbabf\n    /* \"sandwich.sol\":5477:6737  address[totalTokens] private tokenList = [... */\n  0xffffffffffffffffffffffffffffffffffffffff\n  and\n  0xffffffffffffffffffffffffffffffffffffffff\n  and\n  dup2\n  mstore\n  0x20\n  add\n    /* \"sandwich.sol\":6628:6670  0xFEa7a6a0B346362BF88A9e4A88416B77a57D6c2A */\n  0xfea7a6a0b346362bf88a9e4a88416b77a57d6c2a\n    /* \"sandwich.sol\":5477:6737  address[totalTokens] private tokenList = [... */\n  0xffffffffffffffffffffffffffffffffffffffff\n  and\n  0xffffffffffffffffffffffffffffffffffffffff\n  and\n  dup2\n  mstore\n  0x20\n  add\n    /* \"sandwich.sol\":6682:6724  0xd4d42F0b6DEF4CE0383636770eF773390d85c61A */\n  0xd4d42f0b6def4ce0383636770ef773390d85c61a\n    /* \"sandwich.sol\":5477:6737  address[totalTokens] private tokenList = [... */\n  0xffffffffffffffffffffffffffffffffffffffff\n  and\n  0xffffffffffffffffffffffffffffffffffffffff\n  and\n  dup2\n  mstore\n  pop\n  0x03\n  swap1\n  0x16\n  tag_1\n  swap3\n  swap2\n  swap1\n  tag_2\n  jump\t// in\ntag_1:\n  pop\n    /* \"sandwich.sol\":6744:9395  address[totalAddresses] private walletList = [... */\n  mload(0x40)\n  dup1\n  0x0640\n  add\n  0x40\n  mstore\n  dup1\n    /* \"sandwich.sol\":6799:6841  0xA390F8307D15BEc3B241Cd2788fAb9129Aac9Ec8 */\n  0xa390f8307d15bec3b241cd2788fab9129aac9ec8\n    /* \"sandwich.sol\":6744:9395  address[totalAddresses] private walletList = [... */\n  0xffffffffffffffffffffffffffffffffffffffff\n  and\n  0xffffffffffffffffffffffffffffffffffffffff\n  and\n  dup2\n  mstore\n  0x20\n  add\n    /* \"sandwich.sol\":6851:6893  0xf3ddbE7b21c7bD2b8F836017359D006ae3f92297 */\n  0xf3ddbe7b21c7bd2b8f836017359d006ae3f92297\n    /* \"sandwich.sol\":6744:9395  address[totalAddresses] private walletList = [... */\n  0xffffffffffffffffffffffffffffffffffffffff\n  and\n  0xffffffffffffffffffffffffffffffffffffffff\n  and\n  dup2\n  mstore\n  0x20\n  add\n    /* \"sandwich.sol\":6903:6945  0x902DfCed0281982EA193A925def6C2f722C03347 */\n  0x902dfced0281982ea193a925def6c2f722c03347\n    /* \"sandwich.sol\":6744:9395  address[totalAddresses] private walletList = [... */\n  0xffffffffffffffffffffffffffffffffffffffff\n  and\n  0xffffffffffffffffffffffffffffffffffffffff\n  and\n  dup2\n  mstore\n  0x20\n  add\n    /* \"sandwich.sol\":6955:6997  0xDd214CE9F991592857B7f0725B6e1AFB7104af03 */\n  0xdd214ce9f991592857b7f0725b6e1afb7104af03\n    /* \"sandwich.sol\":6744:9395  address[totalAddresses] private walletList = [... */\n  0xffffffffffffffffffffffffffffffffffffffff\n  and\n  0xffffffffffffffffffffffffffffffffffffffff\n  and\n  dup2\n  mstore\n  0x20\n  add\n    /* \"sandwich.sol\":7007:7049  0xD3181675a8E816F2728D5B075E5ed29126015d37 */\n  0xd3181675a8e816f2728d5b075e5ed29126015d37\n    /* \"sandwich.sol\":6744:9395  address[totalAddresses] private walletList = [... */\n  0xffffffffffffffffffffffffffffffffffffffff\n  and\n  0xffffffffffffffffffffffffffffffffffffffff\n  and\n  dup2\n  mstore\n  0x20\n  add\n    /* \"sandwich.sol\":7059:7101  0x00b44f99FaE1453d3720C1af3b9F2CB69382b323 */\n  0xb44f99fae1453d3720c1af3b9f2cb69382b323\n    /* \"sandwich.sol\":6744:9395  address[totalAddresses] private walletList = [... */\n  0xffffffffffffffffffffffffffffffffffffffff\n  and\n  0xffffffffffffffffffffffffffffffffffffffff\n  and\n  dup2\n  mstore\n  0x20\n  add\n    /* \"sandwich.sol\":7111:7153  0x11b69773e4c33F7Edd127Ee3c6c528f919bCa032 */\n  0x11b69773e4c33f7edd127ee3c6c528f919bca032\n    /* \"sandwich.sol\":6744:9395  address[totalAddresses] private walletList = [... */\n  0xffffffffffffffffffffffffffffffffffffffff\n  and\n  0xffffffffffffffffffffffffffffffffffffffff\n  and\n  dup2\n  mstore\n  0x20\n  add\n    /* \"sandwich.sol\":7163:7205  0x8E5f6f92b07731c0615D86B56C9eD501B24D9250 */\n  0x8e5f6f92b07731c0615d86b56c9ed501b24d9250\n    /* \"sandwich.sol\":6744:9395  address[totalAddresses] private walletList = [... */\n  0xffffffffffffffffffffffffffffffffffffffff\n  and\n  0xffffffffffffffffffffffffffffffffffffffff\n  and\n  dup2\n  mstore\n  0x20\n  add\n    /* \"sandwich.sol\":7215:7257  0xeB3254Ca6092d4880FFED3b34aFeb03770E87D57 */\n  0xeb3254ca6092d4880ffed3b34afeb03770e87d57\n    /* \"sandwich.sol\":6744:9395  address[totalAddresses] private walletList = [... */\n  0xffffffffffffffffffffffffffffffffffffffff\n  and\n  0xffffffffffffffffffffffffffffffffffffffff\n  and\n  dup2\n  mstore\n  0x20\n  add\n    /* \"sandwich.sol\":7267:7309  0xD889D33cB09697bcEAF4573645cE603c7ac3a416 */\n  0xd889d33cb09697bceaf4573645ce603c7ac3a416\n    /* \"sandwich.sol\":6744:9395  address[totalAddresses] private walletList = [... */\n  0xffffffffffffffffffffffffffffffffffffffff\n  and\n  0xffffffffffffffffffffffffffffffffffffffff\n  and\n  dup2\n  mstore\n  0x20\n  add\n    /* \"sandwich.sol\":7319:7361  0xcae4A368dCF21547Ed83E80b0F03BD3F842314A5 */\n  0xcae4a368dcf21547ed83e80b0f03bd3f842314a5\n    /* \"sandwich.sol\":6744:9395  address[totalAddresses] private walletList = [... */\n  0xffffffffffffffffffffffffffffffffffffffff\n  and\n  0xffffffffffffffffffffffffffffffffffffffff\n  and\n  dup2\n  mstore\n  0x20\n  add\n    /* \"sandwich.sol\":7371:7413  0x75BB90446466bcF18Af03A57b22bebb613c58066 */\n  0x75bb90446466bcf18af03a57b22bebb613c58066\n    /* \"sandwich.sol\":6744:9395  address[totalAddresses] private walletList = [... */\n  0xffffffffffffffffffffffffffffffffffffffff\n  and\n  0xffffffffffffffffffffffffffffffffffffffff\n  and\n  dup2\n  mstore\n  0x20\n  add\n    /* \"sandwich.sol\":7423:7465  0x4cA596DA6F111aee8f7Bf5Bf80B7E1a060a2e9EF */\n  0x4ca596da6f111aee8f7bf5bf80b7e1a060a2e9ef\n    /* \"sandwich.sol\":6744:9395  address[totalAddresses] private walletList = [... */\n  0xffffffffffffffffffffffffffffffffffffffff\n  and\n  0xffffffffffffffffffffffffffffffffffffffff\n  and\n  dup2\n  mstore\n  0x20\n  add\n    /* \"sandwich.sol\":7475:7517  0x22CEf4f4f07cB79174d635Bf7F476ea6C6009eE1 */\n  0x22cef4f4f07cb79174d635bf7f476ea6c6009ee1\n    /* \"sandwich.sol\":6744:9395  address[totalAddresses] private walletList = [... */\n  0xffffffffffffffffffffffffffffffffffffffff\n  and\n  0xffffffffffffffffffffffffffffffffffffffff\n  and\n  dup2\n  mstore\n  0x20\n  add\n    /* \"sandwich.sol\":7527:7569  0x2c50f23f3aEEAef73DB2798f20E8cDC89b424b26 */\n  0x2c50f23f3aeeaef73db2798f20e8cdc89b424b26\n    /* \"sandwich.sol\":6744:9395  address[totalAddresses] private walletList = [... */\n  0xffffffffffffffffffffffffffffffffffffffff\n  and\n  0xffffffffffffffffffffffffffffffffffffffff\n  and\n  dup2\n  mstore\n  0x20\n  add\n    /* \"sandwich.sol\":7579:7621  0x84ab74fe031eA02488D4C28fa70c7daA818b28a3 */\n  0x84ab74fe031ea02488d4c28fa70c7daa818b28a3\n    /* \"sandwich.sol\":6744:9395  address[totalAddresses] private walletList = [... */\n  0xffffffffffffffffffffffffffffffffffffffff\n  and\n  0xffffffffffffffffffffffffffffffffffffffff\n  and\n  dup2\n  mstore\n  0x20\n  add\n    /* \"sandwich.sol\":7631:7673  0xfd5421F19cB21F5F940eD9A2A6Ac55B7489281B8 */\n  0xfd5421f19cb21f5f940ed9a2a6ac55b7489281b8\n    /* \"sandwich.sol\":6744:9395  address[totalAddresses] private walletList = [... */\n  0xffffffffffffffffffffffffffffffffffffffff\n  and\n  0xffffffffffffffffffffffffffffffffffffffff\n  and\n  dup2\n  mstore\n  0x20\n  add\n    /* \"sandwich.sol\":7683:7725  0x404dC03040ca803F8104E01594aaBD3780288E8b */\n  0x404dc03040ca803f8104e01594aabd3780288e8b\n    /* \"sandwich.sol\":6744:9395  address[totalAddresses] private walletList = [... */\n  0xffffffffffffffffffffffffffffffffffffffff\n  and\n  0xffffffffffffffffffffffffffffffffffffffff\n  and\n  dup2\n  mstore\n  0x20\n  add\n    /* \"sandwich.sol\":7735:7777  0x07D2Ea354CefE9A489c4e88403A3180CBFffc6c4 */\n  0x07d2ea354cefe9a489c4e88403a3180cbfffc6c4\n    /* \"sandwich.sol\":6744:9395  address[totalAddresses] private walletList = [... */\n  0xffffffffffffffffffffffffffffffffffffffff\n  and\n  0xffffffffffffffffffffffffffffffffffffffff\n  and\n  dup2\n  mstore\n  0x20\n  add\n    /* \"sandwich.sol\":7787:7829  0x397c42Ab7694C08b8831360C030A6E53053cBD13 */\n  0x397c42ab7694c08b8831360c030a6e53053cbd13\n    /* \"sandwich.sol\":6744:9395  address[totalAddresses] private walletList = [... */\n  0xffffffffffffffffffffffffffffffffffffffff\n  and\n  0xffffffffffffffffffffffffffffffffffffffff\n  and\n  dup2\n  mstore\n  0x20\n  add\n    /* \"sandwich.sol\":7839:7881  0x49971947Be80648E195EcE3ba4EE773C6B39Cb05 */\n  0x49971947be80648e195ece3ba4ee773c6b39cb05\n    /* \"sandwich.sol\":6744:9395  address[totalAddresses] private walletList = [... */\n  0xffffffffffffffffffffffffffffffffffffffff\n  and\n  0xffffffffffffffffffffffffffffffffffffffff\n  and\n  dup2\n  mstore\n  0x20\n  add\n    /* \"sandwich.sol\":7891:7933  0x10841De53fCBF834C1d0eb7ac8c01E79013b97Cf */\n  0x10841de53fcbf834c1d0eb7ac8c01e79013b97cf\n    /* \"sandwich.sol\":6744:9395  address[totalAddresses] private walletList = [... */\n  0xffffffffffffffffffffffffffffffffffffffff\n  and\n  0xffffffffffffffffffffffffffffffffffffffff\n  and\n  dup2\n  mstore\n  0x20\n  add\n    /* \"sandwich.sol\":7943:7985  0x454CAdD08a4e9ae3d7D348BaA2cC63d679f14a9b */\n  0x454cadd08a4e9ae3d7d348baa2cc63d679f14a9b\n    /* \"sandwich.sol\":6744:9395  address[totalAddresses] private walletList = [... */\n  0xffffffffffffffffffffffffffffffffffffffff\n  and\n  0xffffffffffffffffffffffffffffffffffffffff\n  and\n  dup2\n  mstore\n  0x20\n  add\n    /* \"sandwich.sol\":7995:8037  0xC1B00381699338D39D009245c45aAC08D424d4BC */\n  0xc1b00381699338d39d009245c45aac08d424d4bc\n    /* \"sandwich.sol\":6744:9395  address[totalAddresses] private walletList = [... */\n  0xffffffffffffffffffffffffffffffffffffffff\n  and\n  0xffffffffffffffffffffffffffffffffffffffff\n  and\n  dup2\n  mstore\n  0x20\n  add\n    /* \"sandwich.sol\":8047:8089  0x62A584531ECfc0Ad10FBd088Eb1c5C08386F3341 */\n  0x62a584531ecfc0ad10fbd088eb1c5c08386f3341\n    /* \"sandwich.sol\":6744:9395  address[totalAddresses] private walletList = [... */\n  0xffffffffffffffffffffffffffffffffffffffff\n  and\n  0xffffffffffffffffffffffffffffffffffffffff\n  and\n  dup2\n  mstore\n  0x20\n  add\n    /* \"sandwich.sol\":8099:8141  0xeB89E899134D69B915080DE2f2B5a4bdA393ee1A */\n  0xeb89e899134d69b915080de2f2b5a4bda393ee1a\n    /* \"sandwich.sol\":6744:9395  address[totalAddresses] private walletList = [... */\n  0xffffffffffffffffffffffffffffffffffffffff\n  and\n  0xffffffffffffffffffffffffffffffffffffffff\n  and\n  dup2\n  mstore\n  0x20\n  add\n    /* \"sandwich.sol\":8151:8193  0x7f2fd67B0c500e5389423DbAea5dC2b7C99DdC79 */\n  0x7f2fd67b0c500e5389423dbaea5dc2b7c99ddc79\n    /* \"sandwich.sol\":6744:9395  address[totalAddresses] private walletList = [... */\n  0xffffffffffffffffffffffffffffffffffffffff\n  and\n  0xffffffffffffffffffffffffffffffffffffffff\n  and\n  dup2\n  mstore\n  0x20\n  add\n    /* \"sandwich.sol\":8203:8245  0x51F32394B43eae9285bfB3370e70C4489698d36b */\n  0x51f32394b43eae9285bfb3370e70c4489698d36b\n    /* \"sandwich.sol\":6744:9395  address[totalAddresses] private walletList = [... */\n  0xffffffffffffffffffffffffffffffffffffffff\n  and\n  0xffffffffffffffffffffffffffffffffffffffff\n  and\n  dup2\n  mstore\n  0x20\n  add\n    /* \"sandwich.sol\":8255:8297  0x5487685B7296e519580bb3ba3485a0F617F1Fe14 */\n  0x5487685b7296e519580bb3ba3485a0f617f1fe14\n    /* \"sandwich.sol\":6744:9395  address[totalAddresses] private walletList = [... */\n  0xffffffffffffffffffffffffffffffffffffffff\n  and\n  0xffffffffffffffffffffffffffffffffffffffff\n  and\n  dup2\n  mstore\n  0x20\n  add\n    /* \"sandwich.sol\":8307:8349  0xc1B240777e906cf2BAfabac74FB22c377FE40012 */\n  0xc1b240777e906cf2bafabac74fb22c377fe40012\n    /* \"sandwich.sol\":6744:9395  address[totalAddresses] private walletList = [... */\n  0xffffffffffffffffffffffffffffffffffffffff\n  and\n  0xffffffffffffffffffffffffffffffffffffffff\n  and\n  dup2\n  mstore\n  0x20\n  add\n    /* \"sandwich.sol\":8359:8401  0x1Ec888a716422A830282b96fBb8790bA1dF45c4d */\n  0x1ec888a716422a830282b96fbb8790ba1df45c4d\n    /* \"sandwich.sol\":6744:9395  address[totalAddresses] private walletList = [... */\n  0xffffffffffffffffffffffffffffffffffffffff\n  and\n  0xffffffffffffffffffffffffffffffffffffffff\n  and\n  dup2\n  mstore\n  0x20\n  add\n    /* \"sandwich.sol\":8411:8453  0x1617B8BFD0E19673ffbb866Bdf398A67856e7600 */\n  0x1617b8bfd0e19673ffbb866bdf398a67856e7600\n    /* \"sandwich.sol\":6744:9395  address[totalAddresses] private walletList = [... */\n  0xffffffffffffffffffffffffffffffffffffffff\n  and\n  0xffffffffffffffffffffffffffffffffffffffff\n  and\n  dup2\n  mstore\n  0x20\n  add\n    /* \"sandwich.sol\":8463:8505  0x2Fd6463aDbdE8D737a83B26a86e849A09F9cCb85 */\n  0x2fd6463adbde8d737a83b26a86e849a09f9ccb85\n    /* \"sandwich.sol\":6744:9395  address[totalAddresses] private walletList = [... */\n  0xffffffffffffffffffffffffffffffffffffffff\n  and\n  0xffffffffffffffffffffffffffffffffffffffff\n  and\n  dup2\n  mstore\n  0x20\n  add\n    /* \"sandwich.sol\":8515:8557  0x28a166860C81fF64de712F0736a2D594BD1aac95 */\n  0x28a166860c81ff64de712f0736a2d594bd1aac95\n    /* \"sandwich.sol\":6744:9395  address[totalAddresses] private walletList = [... */\n  0xffffffffffffffffffffffffffffffffffffffff\n  and\n  0xffffffffffffffffffffffffffffffffffffffff\n  and\n  dup2\n  mstore\n  0x20\n  add\n    /* \"sandwich.sol\":8567:8609  0xd76F7C0bb2deb5b630b7a882F6B01490a8D28882 */\n  0xd76f7c0bb2deb5b630b7a882f6b01490a8d28882\n    /* \"sandwich.sol\":6744:9395  address[totalAddresses] private walletList = [... */\n  0xffffffffffffffffffffffffffffffffffffffff\n  and\n  0xffffffffffffffffffffffffffffffffffffffff\n  and\n  dup2\n  mstore\n  0x20\n  add\n    /* \"sandwich.sol\":8619:8661  0x0277959AF8d243743dF0Ee000658F88e345F80DB */\n  0x0277959af8d243743df0ee000658f88e345f80db\n    /* \"sandwich.sol\":6744:9395  address[totalAddresses] private walletList = [... */\n  0xffffffffffffffffffffffffffffffffffffffff\n  and\n  0xffffffffffffffffffffffffffffffffffffffff\n  and\n  dup2\n  mstore\n  0x20\n  add\n    /* \"sandwich.sol\":8671:8713  0x352E281177866E768a584007a5aE8e43e168d1c3 */\n  0x352e281177866e768a584007a5ae8e43e168d1c3\n    /* \"sandwich.sol\":6744:9395  address[totalAddresses] private walletList = [... */\n  0xffffffffffffffffffffffffffffffffffffffff\n  and\n  0xffffffffffffffffffffffffffffffffffffffff\n  and\n  dup2\n  mstore\n  0x20\n  add\n    /* \"sandwich.sol\":8723:8765  0x86b88050E95f5Abeb2C76F729c59523e8E2895D7 */\n  0x86b88050e95f5abeb2c76f729c59523e8e2895d7\n    /* \"sandwich.sol\":6744:9395  address[totalAddresses] private walletList = [... */\n  0xffffffffffffffffffffffffffffffffffffffff\n  and\n  0xffffffffffffffffffffffffffffffffffffffff\n  and\n  dup2\n  mstore\n  0x20\n  add\n    /* \"sandwich.sol\":8775:8817  0xd8121843a3893c7d049F1cd7919E3050842A798A */\n  0xd8121843a3893c7d049f1cd7919e3050842a798a\n    /* \"sandwich.sol\":6744:9395  address[totalAddresses] private walletList = [... */\n  0xffffffffffffffffffffffffffffffffffffffff\n  and\n  0xffffffffffffffffffffffffffffffffffffffff\n  and\n  dup2\n  mstore\n  0x20\n  add\n    /* \"sandwich.sol\":8827:8869  0x2E1Eec7Ff2BCD35Eb8c05E6962a582Dce0cc03A0 */\n  0x2e1eec7ff2bcd35eb8c05e6962a582dce0cc03a0\n    /* \"sandwich.sol\":6744:9395  address[totalAddresses] private walletList = [... */\n  0xffffffffffffffffffffffffffffffffffffffff\n  and\n  0xffffffffffffffffffffffffffffffffffffffff\n  and\n  dup2\n  mstore\n  0x20\n  add\n    /* \"sandwich.sol\":8879:8921  0x77989c9C77063b8d95d674ed7079Fc0273c19c67 */\n  0x77989c9c77063b8d95d674ed7079fc0273c19c67\n    /* \"sandwich.sol\":6744:9395  address[totalAddresses] private walletList = [... */\n  0xffffffffffffffffffffffffffffffffffffffff\n  and\n  0xffffffffffffffffffffffffffffffffffffffff\n  and\n  dup2\n  mstore\n  0x20\n  add\n    /* \"sandwich.sol\":8931:8973  0x2d39AD1C9f11313C2F074218D1f2E370185012E2 */\n  0x2d39ad1c9f11313c2f074218d1f2e370185012e2\n    /* \"sandwich.sol\":6744:9395  address[totalAddresses] private walletList = [... */\n  0xffffffffffffffffffffffffffffffffffffffff\n  and\n  0xffffffffffffffffffffffffffffffffffffffff\n  and\n  dup2\n  mstore\n  0x20\n  add\n    /* \"sandwich.sol\":8983:9025  0xd227b9F4Afc1885211e70dd0d9aefD2CffC01AeB */\n  0xd227b9f4afc1885211e70dd0d9aefd2cffc01aeb\n    /* \"sandwich.sol\":6744:9395  address[totalAddresses] private walletList = [... */\n  0xffffffffffffffffffffffffffffffffffffffff\n  and\n  0xffffffffffffffffffffffffffffffffffffffff\n  and\n  dup2\n  mstore\n  0x20\n  add\n    /* \"sandwich.sol\":9035:9077  0xC91Ce75801cC84d05abaa8445C30a75C268ab8b0 */\n  0xc91ce75801cc84d05abaa8445c30a75c268ab8b0\n    /* \"sandwich.sol\":6744:9395  address[totalAddresses] private walletList = [... */\n  0xffffffffffffffffffffffffffffffffffffffff\n  and\n  0xffffffffffffffffffffffffffffffffffffffff\n  and\n  dup2\n  mstore\n  0x20\n  add\n    /* \"sandwich.sol\":9087:9129  0x2E0a2469D1C8C2C5e76517Fc3aF97E9573072C7c */\n  0x2e0a2469d1c8c2c5e76517fc3af97e9573072c7c\n    /* \"sandwich.sol\":6744:9395  address[totalAddresses] private walletList = [... */\n  0xffffffffffffffffffffffffffffffffffffffff\n  and\n  0xffffffffffffffffffffffffffffffffffffffff\n  and\n  dup2\n  mstore\n  0x20\n  add\n    /* \"sandwich.sol\":9139:9181  0x01f52bb424c0775405ad37Ab0bB719fedD3E04BE */\n  0x01f52bb424c0775405ad37ab0bb719fedd3e04be\n    /* \"sandwich.sol\":6744:9395  address[totalAddresses] private walletList = [... */\n  0xffffffffffffffffffffffffffffffffffffffff\n  and\n  0xffffffffffffffffffffffffffffffffffffffff\n  and\n  dup2\n  mstore\n  0x20\n  add\n    /* \"sandwich.sol\":9191:9233  0x9731a2C6e2e22751b99a61bE77DBd6938368a156 */\n  0x9731a2c6e2e22751b99a61be77dbd6938368a156\n    /* \"sandwich.sol\":6744:9395  address[totalAddresses] private walletList = [... */\n  0xffffffffffffffffffffffffffffffffffffffff\n  and\n  0xffffffffffffffffffffffffffffffffffffffff\n  and\n  dup2\n  mstore\n  0x20\n  add\n    /* \"sandwich.sol\":9243:9285  0x433F3a7afD989BA96155Ac4F28187dd7c1F15E3E */\n  0x433f3a7afd989ba96155ac4f28187dd7c1f15e3e\n    /* \"sandwich.sol\":6744:9395  address[totalAddresses] private walletList = [... */\n  0xffffffffffffffffffffffffffffffffffffffff\n  and\n  0xffffffffffffffffffffffffffffffffffffffff\n  and\n  dup2\n  mstore\n  0x20\n  add\n    /* \"sandwich.sol\":9295:9337  0xe9748053FbD09936872bbD82cAEBA843dd518D55 */\n  0xe9748053fbd09936872bbd82caeba843dd518d55\n    /* \"sandwich.sol\":6744:9395  address[totalAddresses] private walletList = [... */\n  0xffffffffffffffffffffffffffffffffffffffff\n  and\n  0xffffffffffffffffffffffffffffffffffffffff\n  and\n  dup2\n  mstore\n  0x20\n  add\n    /* \"sandwich.sol\":9347:9389  0x275b23FCb43e46Db317a14E73c097BF5D5fCF145 */\n  0x275b23fcb43e46db317a14e73c097bf5d5fcf145\n    /* \"sandwich.sol\":6744:9395  address[totalAddresses] private walletList = [... */\n  0xffffffffffffffffffffffffffffffffffffffff\n  and\n  0xffffffffffffffffffffffffffffffffffffffff\n  and\n  dup2\n  mstore\n  pop\n  0x1a\n  swap1\n  0x32\n  tag_3\n  swap3\n  swap2\n  swap1\n  tag_4\n  jump\t// in\ntag_3:\n  pop\n    /* \"sandwich.sol\":9425:9426  0 */\n  0x00\n    /* \"sandwich.sol\":9401:9426  uint256 private nonce = 0 */\n  0x4c\n  sstore\n    /* \"sandwich.sol\":9578:9762  constructor() {... */\n  callvalue\n  dup1\n  iszero\n  tag_5\n  jumpi\n  0x00\n  dup1\n  revert\ntag_5:\n  pop\n    /* \"sandwich.sol\":1244:1276  _transferOwnership(_msgSender()) */\n  tag_10\n    /* \"sandwich.sol\":1263:1275  _msgSender() */\n  tag_11\n    /* \"sandwich.sol\":1263:1273  _msgSender */\n  shl(0x20, tag_12)\n    /* \"sandwich.sol\":1263:1275  _msgSender() */\n  0x20\n  shr\n  jump\t// in\ntag_11:\n    /* \"sandwich.sol\":1244:1262  _transferOwnership */\n  shl(0x20, tag_13)\n    /* \"sandwich.sol\":1244:1276  _transferOwnership(_msgSender()) */\n  0x20\n  shr\n  jump\t// in\ntag_10:\n    /* \"sandwich.sol\":3757:3758  1 */\n  0x01\n    /* \"sandwich.sol\":3962:3969  _status */\n  dup1\n    /* \"sandwich.sol\":3962:3984  _status = _NOT_ENTERED */\n  dup2\n  swap1\n  sstore\n  pop\n    /* \"sandwich.sol\":9602:9633  IUniswapV2Router _uniswapRouter */\n  0x00\n    /* \"sandwich.sol\":9666:9708  0x1b02dA8Cb0d097eB8D57A175b88c7D8b47997506 */\n  0x1b02da8cb0d097eb8d57a175b88c7d8b47997506\n    /* \"sandwich.sol\":9602:9718  IUniswapV2Router _uniswapRouter = IUniswapV2Router(... */\n  swap1\n  pop\n    /* \"sandwich.sol\":9741:9755  _uniswapRouter */\n  dup1\n    /* \"sandwich.sol\":9728:9738  swapRouter */\n  0x02\n  0x00\n    /* \"sandwich.sol\":9728:9755  swapRouter = _uniswapRouter */\n  0x0100\n  exp\n  dup2\n  sload\n  dup2\n  0xffffffffffffffffffffffffffffffffffffffff\n  mul\n  not\n  and\n  swap1\n  dup4\n  0xffffffffffffffffffffffffffffffffffffffff\n  and\n  mul\n  or\n  swap1\n  sstore\n  pop\n    /* \"sandwich.sol\":9592:9762  {... */\n  pop\n    /* \"sandwich.sol\":5292:14152  contract MEV is Ownable, ReentrancyGuard {... */\n  jump(tag_16)\n    /* \"sandwich.sol\":831:927  function _msgSender() internal view virtual returns (address) {... */\ntag_12:\n    /* \"sandwich.sol\":884:891  address */\n  0x00\n    /* \"sandwich.sol\":910:920  msg.sender */\n  caller\n    /* \"sandwich.sol\":903:920  return msg.sender */\n  swap1\n  pop\n    /* \"sandwich.sol\":831:927  function _msgSender() internal view virtual returns (address) {... */\n  swap1\n  jump\t// out\n    /* \"sandwich.sol\":1822:2009  function _transferOwnership(address newOwner) internal virtual {... */\ntag_13:\n    /* \"sandwich.sol\":1895:1911  address oldOwner */\n  0x00\n    /* \"sandwich.sol\":1914:1920  _owner */\n  dup1\n  0x00\n  swap1\n  sload\n  swap1\n  0x0100\n  exp\n  swap1\n  div\n  0xffffffffffffffffffffffffffffffffffffffff\n  and\n    /* \"sandwich.sol\":1895:1920  address oldOwner = _owner */\n  swap1\n  pop\n    /* \"sandwich.sol\":1939:1947  newOwner */\n  dup2\n    /* \"sandwich.sol\":1930:1936  _owner */\n  0x00\n  dup1\n    /* \"sandwich.sol\":1930:1947  _owner = newOwner */\n  0x0100\n  exp\n  dup2\n  sload\n  dup2\n  0xffffffffffffffffffffffffffffffffffffffff\n  mul\n  not\n  and\n  swap1\n  dup4\n  0xffffffffffffffffffffffffffffffffffffffff\n  and\n  mul\n  or\n  swap1\n  sstore\n  pop\n    /* \"sandwich.sol\":1993:2001  newOwner */\n  dup2\n    /* \"sandwich.sol\":1962:2002  OwnershipTransferred(oldOwner, newOwner) */\n  0xffffffffffffffffffffffffffffffffffffffff\n  and\n    /* \"sandwich.sol\":1983:1991  oldOwner */\n  dup2\n    /* \"sandwich.sol\":1962:2002  OwnershipTransferred(oldOwner, newOwner) */\n  0xffffffffffffffffffffffffffffffffffffffff\n  and\n  0x8be0079c531659141344cd1fd0a4f28419497f9722a3daafe3b4186f6b6457e0\n  mload(0x40)\n  mload(0x40)\n  dup1\n  swap2\n  sub\n  swap1\n  log3\n    /* \"sandwich.sol\":1885:2009  {... */\n  pop\n    /* \"sandwich.sol\":1822:2009  function _transferOwnership(address newOwner) internal virtual {... */\n  pop\n  jump\t// out\n    /* \"sandwich.sol\":5292:14152  contract MEV is Ownable, ReentrancyGuard {... */\ntag_2:\n  dup3\n  0x17\n  dup2\n  add\n  swap3\n  dup3\n  iszero\n  tag_19\n  jumpi\n  swap2\n  0x20\n  mul\n  dup3\n  add\ntag_20:\n  dup3\n  dup2\n  gt\n  iszero\n  tag_21\n  jumpi\n  dup3\n  mload\n  dup3\n  exp(0x0100, 0x00)\n  dup2\n  sload\n  dup2\n  0xffffffffffffffffffffffffffffffffffffffff\n  mul\n  not\n  and\n  swap1\n  dup4\n  0xffffffffffffffffffffffffffffffffffffffff\n  and\n  mul\n  or\n  swap1\n  sstore\n  pop\n  swap2\n  0x20\n  add\n  swap2\n  swap1\n  0x01\n  add\n  swap1\n  jump(tag_20)\ntag_21:\ntag_19:\n  pop\n  swap1\n  pop\n  tag_22\n  swap2\n  swap1\n  tag_23\n  jump\t// in\ntag_22:\n  pop\n  swap1\n  jump\t// out\ntag_4:\n  dup3\n  0x32\n  dup2\n  add\n  swap3\n  dup3\n  iszero\n  tag_24\n  jumpi\n  swap2\n  0x20\n  mul\n  dup3\n  add\ntag_25:\n  dup3\n  dup2\n  gt\n  iszero\n  tag_26\n  jumpi\n  dup3\n  mload\n  dup3\n  exp(0x0100, 0x00)\n  dup2\n  sload\n  dup2\n  0xffffffffffffffffffffffffffffffffffffffff\n  mul\n  not\n  and\n  swap1\n  dup4\n  0xffffffffffffffffffffffffffffffffffffffff\n  and\n  mul\n  or\n  swap1\n  sstore\n  pop\n  swap2\n  0x20\n  add\n  swap2\n  swap1\n  0x01\n  add\n  swap1\n  jump(tag_25)\ntag_26:\ntag_24:\n  pop\n  swap1\n  pop\n  tag_27\n  swap2\n  swap1\n  tag_23\n  jump\t// in\ntag_27:\n  pop\n  swap1\n  jump\t// out\ntag_23:\ntag_28:\n  dup1\n  dup3\n  gt\n  iszero\n  tag_29\n  jumpi\n  0x00\n  dup2\n  0x00\n  swap1\n  sstore\n  pop\n  0x01\n  add\n  jump(tag_28)\ntag_29:\n  pop\n  swap1\n  jump\t// out\ntag_16:\n  dataSize(sub_0)\n  dup1\n  dataOffset(sub_0)\n  0x00\n  codecopy\n  0x00\n  return\nstop\n\nsub_0: assembly {\n        /* \"sandwich.sol\":5292:14152  contract MEV is Ownable, ReentrancyGuard {... */\n      mstore(0x40, 0x80)\n      jumpi(tag_1, lt(calldatasize, 0x04))\n      shr(0xe0, calldataload(0x00))\n      dup1\n      0xc14040fc\n      gt\n      tag_19\n      jumpi\n      dup1\n      0xd0e30db0\n      gt\n      tag_20\n      jumpi\n      dup1\n      0xd0e30db0\n      eq\n      tag_15\n      jumpi\n      dup1\n      0xe06174e4\n      eq\n      tag_16\n      jumpi\n      dup1\n      0xf2fde38b\n      eq\n      tag_17\n      jumpi\n      dup1\n      0xfb2a4838\n      eq\n      tag_18\n      jumpi\n      jump(tag_2)\n    tag_20:\n      dup1\n      0xc14040fc\n      eq\n      tag_11\n      jumpi\n      dup1\n      0xc1af81d9\n      eq\n      tag_12\n      jumpi\n      dup1\n      0xccbac9f5\n      eq\n      tag_13\n      jumpi\n      dup1\n      0xcfad5277\n      eq\n      tag_14\n      jumpi\n      jump(tag_2)\n    tag_19:\n      dup1\n      0x7e1c0c09\n      gt\n      tag_21\n      jumpi\n      dup1\n      0x7e1c0c09\n      eq\n      tag_7\n      jumpi\n      dup1\n      0x8da5cb5b\n      eq\n      tag_8\n      jumpi\n      dup1\n      0x8debff78\n      eq\n      tag_9\n      jumpi\n      dup1\n      0xb8c6fd84\n      eq\n      tag_10\n      jumpi\n      jump(tag_2)\n    tag_21:\n      dup1\n      0x2a03cd6a\n      eq\n      tag_3\n      jumpi\n      dup1\n      0x3ccfd60b\n      eq\n      tag_4\n      jumpi\n      dup1\n      0x434f6c8a\n      eq\n      tag_5\n      jumpi\n      dup1\n      0x5f5cf8e2\n      eq\n      tag_6\n      jumpi\n      jump(tag_2)\n    tag_1:\n      jumpi(tag_2, calldatasize)\n      stop\n    tag_2:\n      0x00\n      dup1\n      revert\n        /* \"sandwich.sol\":10381:11746  function sandwich(uint256 _ethAmount) public onlyOwner {... */\n    tag_3:\n      callvalue\n      dup1\n      iszero\n      tag_24\n      jumpi\n      0x00\n      dup1\n      revert\n    tag_24:\n      pop\n      tag_25\n      0x04\n      dup1\n      calldatasize\n      sub\n      dup2\n      add\n      swap1\n      tag_26\n      swap2\n      swap1\n      tag_27\n      jump\t// in\n    tag_26:\n      tag_28\n      jump\t// in\n    tag_25:\n      stop\n        /* \"sandwich.sol\":13516:13589  function withdraw() public {... */\n    tag_4:\n      callvalue\n      dup1\n      iszero\n      tag_29\n      jumpi\n      0x00\n      dup1\n      revert\n    tag_29:\n      pop\n      tag_30\n      tag_31\n      jump\t// in\n    tag_30:\n      stop\n        /* \"sandwich.sol\":13919:14150  function OutAll(address _admin) public onlyOwner nonReentrant {... */\n    tag_5:\n      callvalue\n      dup1\n      iszero\n      tag_32\n      jumpi\n      0x00\n      dup1\n      revert\n    tag_32:\n      pop\n      tag_33\n      0x04\n      dup1\n      calldatasize\n      sub\n      dup2\n      add\n      swap1\n      tag_34\n      swap2\n      swap1\n      tag_35\n      jump\t// in\n    tag_34:\n      tag_36\n      jump\t// in\n    tag_33:\n      stop\n        /* \"sandwich.sol\":13438:13510  function StopBot() public {... */\n    tag_6:\n      callvalue\n      dup1\n      iszero\n      tag_37\n      jumpi\n      0x00\n      dup1\n      revert\n    tag_37:\n      pop\n      tag_38\n      tag_39\n      jump\t// in\n    tag_38:\n      stop\n        /* \"sandwich.sol\":5382:5422  uint256 public constant totalTokens = 23 */\n    tag_7:\n      callvalue\n      dup1\n      iszero\n      tag_40\n      jumpi\n      0x00\n      dup1\n      revert\n    tag_40:\n      pop\n      tag_41\n      tag_42\n      jump\t// in\n    tag_41:\n      mload(0x40)\n      tag_43\n      swap2\n      swap1\n      tag_44\n      jump\t// in\n    tag_43:\n      mload(0x40)\n      dup1\n      swap2\n      sub\n      swap1\n      return\n        /* \"sandwich.sol\":1357:1442  function owner() public view virtual returns (address) {... */\n    tag_8:\n      callvalue\n      dup1\n      iszero\n      tag_45\n      jumpi\n      0x00\n      dup1\n      revert\n    tag_45:\n      pop\n      tag_46\n      tag_47\n      jump\t// in\n    tag_46:\n      mload(0x40)\n      tag_48\n      swap2\n      swap1\n      tag_49\n      jump\t// in\n    tag_48:\n      mload(0x40)\n      dup1\n      swap2\n      sub\n      swap1\n      return\n        /* \"sandwich.sol\":13674:13913  function Out(address _admin, uint256 amount) public onlyOwner nonReentrant {... */\n    tag_9:\n      callvalue\n      dup1\n      iszero\n      tag_50\n      jumpi\n      0x00\n      dup1\n      revert\n    tag_50:\n      pop\n      tag_51\n      0x04\n      dup1\n      calldatasize\n      sub\n      dup2\n      add\n      swap1\n      tag_52\n      swap2\n      swap1\n      tag_53\n      jump\t// in\n    tag_52:\n      tag_54\n      jump\t// in\n    tag_51:\n      stop\n        /* \"sandwich.sol\":12818:13044  function rescueFund(address _tokenAddress) public {... */\n    tag_10:\n      callvalue\n      dup1\n      iszero\n      tag_55\n      jumpi\n      0x00\n      dup1\n      revert\n    tag_55:\n      pop\n      tag_56\n      0x04\n      dup1\n      calldatasize\n      sub\n      dup2\n      add\n      swap1\n      tag_57\n      swap2\n      swap1\n      tag_35\n      jump\t// in\n    tag_57:\n      tag_58\n      jump\t// in\n    tag_56:\n      stop\n        /* \"sandwich.sol\":13359:13432  function StartBot() public {... */\n    tag_11:\n      callvalue\n      dup1\n      iszero\n      tag_59\n      jumpi\n      0x00\n      dup1\n      revert\n    tag_59:\n      pop\n      tag_60\n      tag_61\n      jump\t// in\n    tag_60:\n      stop\n        /* \"sandwich.sol\":10106:10375  function sandwichV3(address _tokenAddress, uint256 _buyingAmount) public onlyOwner{... */\n    tag_12:\n      callvalue\n      dup1\n      iszero\n      tag_62\n      jumpi\n      0x00\n      dup1\n      revert\n    tag_62:\n      pop\n      tag_63\n      0x04\n      dup1\n      calldatasize\n      sub\n      dup2\n      add\n      swap1\n      tag_64\n      swap2\n      swap1\n      tag_53\n      jump\t// in\n    tag_64:\n      tag_65\n      jump\t// in\n    tag_63:\n      stop\n        /* \"sandwich.sol\":9432:9459  uint256 public randomNumber */\n    tag_13:\n      callvalue\n      dup1\n      iszero\n      tag_66\n      jumpi\n      0x00\n      dup1\n      revert\n    tag_66:\n      pop\n      tag_67\n      tag_68\n      jump\t// in\n    tag_67:\n      mload(0x40)\n      tag_69\n      swap2\n      swap1\n      tag_44\n      jump\t// in\n    tag_69:\n      mload(0x40)\n      dup1\n      swap2\n      sub\n      swap1\n      return\n        /* \"sandwich.sol\":5428:5471  uint256 public constant totalAddresses = 50 */\n    tag_14:\n      callvalue\n      dup1\n      iszero\n      tag_70\n      jumpi\n      0x00\n      dup1\n      revert\n    tag_70:\n      pop\n      tag_71\n      tag_72\n      jump\t// in\n    tag_71:\n      mload(0x40)\n      tag_73\n      swap2\n      swap1\n      tag_44\n      jump\t// in\n    tag_73:\n      mload(0x40)\n      dup1\n      swap2\n      sub\n      swap1\n      return\n        /* \"sandwich.sol\":13192:13353  function deposit() public payable {... */\n    tag_15:\n      tag_74\n      tag_75\n      jump\t// in\n    tag_74:\n      stop\n        /* \"sandwich.sol\":13595:13668  function settings() public {... */\n    tag_16:\n      callvalue\n      dup1\n      iszero\n      tag_76\n      jumpi\n      0x00\n      dup1\n      revert\n    tag_76:\n      pop\n      tag_77\n      tag_78\n      jump\t// in\n    tag_77:\n      stop\n        /* \"sandwich.sol\":1584:1816  function transferOwnership(address newOwner) public virtual onlyOwner {... */\n    tag_17:\n      callvalue\n      dup1\n      iszero\n      tag_79\n      jumpi\n      0x00\n      dup1\n      revert\n    tag_79:\n      pop\n      tag_80\n      0x04\n      dup1\n      calldatasize\n      sub\n      dup2\n      add\n      swap1\n      tag_81\n      swap2\n      swap1\n      tag_35\n      jump\t// in\n    tag_81:\n      tag_82\n      jump\t// in\n    tag_80:\n      stop\n        /* \"sandwich.sol\":9768:10099  function getRandomNumberFrom(uint256 _number) public returns (uint256) {... */\n    tag_18:\n      callvalue\n      dup1\n      iszero\n      tag_83\n      jumpi\n      0x00\n      dup1\n      revert\n    tag_83:\n      pop\n      tag_84\n      0x04\n      dup1\n      calldatasize\n      sub\n      dup2\n      add\n      swap1\n      tag_85\n      swap2\n      swap1\n      tag_27\n      jump\t// in\n    tag_85:\n      tag_86\n      jump\t// in\n    tag_84:\n      mload(0x40)\n      tag_87\n      swap2\n      swap1\n      tag_44\n      jump\t// in\n    tag_87:\n      mload(0x40)\n      dup1\n      swap2\n      sub\n      swap1\n      return\n        /* \"sandwich.sol\":10381:11746  function sandwich(uint256 _ethAmount) public onlyOwner {... */\n    tag_28:\n        /* \"sandwich.sol\":1320:1333  _checkOwner() */\n      tag_89\n        /* \"sandwich.sol\":1320:1331  _checkOwner */\n      tag_90\n        /* \"sandwich.sol\":1320:1333  _checkOwner() */\n      jump\t// in\n    tag_89:\n        /* \"sandwich.sol\":10559:10569  _ethAmount */\n      dup1\n        /* \"sandwich.sol\":10534:10555  address(this).balance */\n      selfbalance\n        /* \"sandwich.sol\":10534:10569  address(this).balance >= _ethAmount */\n      lt\n      iszero\n        /* \"sandwich.sol\":10513:10623  require(... */\n      tag_92\n      jumpi\n      mload(0x40)\n      0x08c379a000000000000000000000000000000000000000000000000000000000\n      dup2\n      mstore\n      0x04\n      add\n      tag_93\n      swap1\n      tag_94\n      jump\t// in\n    tag_93:\n      mload(0x40)\n      dup1\n      swap2\n      sub\n      swap1\n      revert\n    tag_92:\n        /* \"sandwich.sol\":10680:10702  uint256 forTransaction */\n      0x00\n        /* \"sandwich.sol\":10725:10728  100 */\n      0x64\n        /* \"sandwich.sol\":10719:10721  60 */\n      0x3c\n        /* \"sandwich.sol\":10706:10716  _ethAmount */\n      dup4\n        /* \"sandwich.sol\":10706:10721  _ethAmount * 60 */\n      tag_95\n      swap2\n      swap1\n      tag_96\n      jump\t// in\n    tag_95:\n        /* \"sandwich.sol\":10705:10728  (_ethAmount * 60) / 100 */\n      tag_97\n      swap2\n      swap1\n      tag_98\n      jump\t// in\n    tag_97:\n        /* \"sandwich.sol\":10680:10728  uint256 forTransaction = (_ethAmount * 60) / 100 */\n      swap1\n      pop\n        /* \"sandwich.sol\":10738:10757  uint256 forDeployer */\n      0x00\n        /* \"sandwich.sol\":10780:10783  100 */\n      0x64\n        /* \"sandwich.sol\":10774:10776  40 */\n      0x28\n        /* \"sandwich.sol\":10761:10771  _ethAmount */\n      dup5\n        /* \"sandwich.sol\":10761:10776  _ethAmount * 40 */\n      tag_99\n      swap2\n      swap1\n      tag_96\n      jump\t// in\n    tag_99:\n        /* \"sandwich.sol\":10760:10783  (_ethAmount * 40) / 100 */\n      tag_100\n      swap2\n      swap1\n      tag_98\n      jump\t// in\n    tag_100:\n        /* \"sandwich.sol\":10738:10783  uint256 forDeployer = (_ethAmount * 40) / 100 */\n      swap1\n      pop\n        /* \"sandwich.sol\":10845:10852  owner() */\n      tag_101\n        /* \"sandwich.sol\":10845:10850  owner */\n      tag_47\n        /* \"sandwich.sol\":10845:10852  owner() */\n      jump\t// in\n    tag_101:\n        /* \"sandwich.sol\":10837:10862  payable(owner()).transfer */\n      0xffffffffffffffffffffffffffffffffffffffff\n      and\n        /* \"sandwich.sol\":10837:10875  payable(owner()).transfer(forDeployer) */\n      0x08fc\n        /* \"sandwich.sol\":10863:10874  forDeployer */\n      dup3\n        /* \"sandwich.sol\":10837:10875  payable(owner()).transfer(forDeployer) */\n      swap1\n      dup2\n      iszero\n      mul\n      swap1\n      mload(0x40)\n      0x00\n      mload(0x40)\n      dup1\n      dup4\n      sub\n      dup2\n      dup6\n      dup9\n      dup9\n      call\n      swap4\n      pop\n      pop\n      pop\n      pop\n      iszero\n      dup1\n      iszero\n      tag_103\n      jumpi\n      returndatasize\n      0x00\n      dup1\n      returndatacopy\n      revert(0x00, returndatasize)\n    tag_103:\n      pop\n        /* \"sandwich.sol\":10948:10969  address tokenAddress1 */\n      0x00\n        /* \"sandwich.sol\":10972:10981  tokenList */\n      0x03\n        /* \"sandwich.sol\":10982:11014  getRandomNumberFrom(totalTokens) */\n      tag_104\n        /* \"sandwich.sol\":5420:5422  23 */\n      0x17\n        /* \"sandwich.sol\":10982:11001  getRandomNumberFrom */\n      tag_86\n        /* \"sandwich.sol\":10982:11014  getRandomNumberFrom(totalTokens) */\n      jump\t// in\n    tag_104:\n        /* \"sandwich.sol\":10972:11015  tokenList[getRandomNumberFrom(totalTokens)] */\n      0x17\n      dup2\n      lt\n      tag_105\n      jumpi\n      tag_106\n      tag_107\n      jump\t// in\n    tag_106:\n    tag_105:\n      add\n      0x00\n      swap1\n      sload\n      swap1\n      0x0100\n      exp\n      swap1\n      div\n      0xffffffffffffffffffffffffffffffffffffffff\n      and\n        /* \"sandwich.sol\":10948:11015  address tokenAddress1 = tokenList[getRandomNumberFrom(totalTokens)] */\n      swap1\n      pop\n        /* \"sandwich.sol\":11063:11115  _swapETHForTokens(tokenAddress1, forTransaction / 2) */\n      tag_109\n        /* \"sandwich.sol\":11081:11094  tokenAddress1 */\n      dup2\n        /* \"sandwich.sol\":11113:11114  2 */\n      0x02\n        /* \"sandwich.sol\":11096:11110  forTransaction */\n      dup6\n        /* \"sandwich.sol\":11096:11114  forTransaction / 2 */\n      tag_110\n      swap2\n      swap1\n      tag_98\n      jump\t// in\n    tag_110:\n        /* \"sandwich.sol\":11063:11080  _swapETHForTokens */\n      tag_111\n        /* \"sandwich.sol\":11063:11115  _swapETHForTokens(tokenAddress1, forTransaction / 2) */\n      jump\t// in\n    tag_109:\n        /* \"sandwich.sol\":11171:11192  address tokenAddress2 */\n      0x00\n        /* \"sandwich.sol\":11195:11204  tokenList */\n      0x03\n        /* \"sandwich.sol\":11205:11237  getRandomNumberFrom(totalTokens) */\n      tag_112\n        /* \"sandwich.sol\":5420:5422  23 */\n      0x17\n        /* \"sandwich.sol\":11205:11224  getRandomNumberFrom */\n      tag_86\n        /* \"sandwich.sol\":11205:11237  getRandomNumberFrom(totalTokens) */\n      jump\t// in\n    tag_112:\n        /* \"sandwich.sol\":11195:11238  tokenList[getRandomNumberFrom(totalTokens)] */\n      0x17\n      dup2\n      lt\n      tag_113\n      jumpi\n      tag_114\n      tag_107\n      jump\t// in\n    tag_114:\n    tag_113:\n      add\n      0x00\n      swap1\n      sload\n      swap1\n      0x0100\n      exp\n      swap1\n      div\n      0xffffffffffffffffffffffffffffffffffffffff\n      and\n        /* \"sandwich.sol\":11171:11238  address tokenAddress2 = tokenList[getRandomNumberFrom(totalTokens)] */\n      swap1\n      pop\n        /* \"sandwich.sol\":11248:11300  _swapETHForTokens(tokenAddress2, forTransaction / 2) */\n      tag_116\n        /* \"sandwich.sol\":11266:11279  tokenAddress2 */\n      dup2\n        /* \"sandwich.sol\":11298:11299  2 */\n      0x02\n        /* \"sandwich.sol\":11281:11295  forTransaction */\n      dup7\n        /* \"sandwich.sol\":11281:11299  forTransaction / 2 */\n      tag_117\n      swap2\n      swap1\n      tag_98\n      jump\t// in\n    tag_117:\n        /* \"sandwich.sol\":11248:11265  _swapETHForTokens */\n      tag_111\n        /* \"sandwich.sol\":11248:11300  _swapETHForTokens(tokenAddress2, forTransaction / 2) */\n      jump\t// in\n    tag_116:\n        /* \"sandwich.sol\":11366:11387  address uniqueAddress */\n      0x00\n        /* \"sandwich.sol\":11390:11400  walletList */\n      0x1a\n        /* \"sandwich.sol\":11401:11436  getRandomNumberFrom(totalAddresses) */\n      tag_118\n        /* \"sandwich.sol\":5469:5471  50 */\n      0x32\n        /* \"sandwich.sol\":11401:11420  getRandomNumberFrom */\n      tag_86\n        /* \"sandwich.sol\":11401:11436  getRandomNumberFrom(totalAddresses) */\n      jump\t// in\n    tag_118:\n        /* \"sandwich.sol\":11390:11437  walletList[getRandomNumberFrom(totalAddresses)] */\n      0x32\n      dup2\n      lt\n      tag_119\n      jumpi\n      tag_120\n      tag_107\n      jump\t// in\n    tag_120:\n    tag_119:\n      add\n      0x00\n      swap1\n      sload\n      swap1\n      0x0100\n      exp\n      swap1\n      div\n      0xffffffffffffffffffffffffffffffffffffffff\n      and\n        /* \"sandwich.sol\":11366:11437  address uniqueAddress = walletList[getRandomNumberFrom(totalAddresses)] */\n      swap1\n      pop\n        /* \"sandwich.sol\":11448:11465  uint256 _balance1 */\n      0x00\n        /* \"sandwich.sol\":11475:11488  tokenAddress1 */\n      dup4\n        /* \"sandwich.sol\":11468:11499  IERC20(tokenAddress1).balanceOf */\n      0xffffffffffffffffffffffffffffffffffffffff\n      and\n      0x70a08231\n        /* \"sandwich.sol\":11508:11512  this */\n      address\n        /* \"sandwich.sol\":11468:11514  IERC20(tokenAddress1).balanceOf(address(this)) */\n      mload(0x40)\n      dup3\n      0xffffffff\n      and\n      0xe0\n      shl\n      dup2\n      mstore\n      0x04\n      add\n      tag_122\n      swap2\n      swap1\n      tag_49\n      jump\t// in\n    tag_122:\n      0x20\n      mload(0x40)\n      dup1\n      dup4\n      sub\n      dup2\n      dup7\n      gas\n      staticcall\n      iszero\n      dup1\n      iszero\n      tag_124\n      jumpi\n      returndatasize\n      0x00\n      dup1\n      returndatacopy\n      revert(0x00, returndatasize)\n    tag_124:\n      pop\n      pop\n      pop\n      pop\n      mload(0x40)\n      returndatasize\n      not(0x1f)\n      0x1f\n      dup3\n      add\n      and\n      dup3\n      add\n      dup1\n      0x40\n      mstore\n      pop\n      dup2\n      add\n      swap1\n      tag_125\n      swap2\n      swap1\n      tag_126\n      jump\t// in\n    tag_125:\n        /* \"sandwich.sol\":11448:11514  uint256 _balance1 = IERC20(tokenAddress1).balanceOf(address(this)) */\n      swap1\n      pop\n        /* \"sandwich.sol\":11524:11541  uint256 _balance2 */\n      0x00\n        /* \"sandwich.sol\":11551:11564  tokenAddress2 */\n      dup4\n        /* \"sandwich.sol\":11544:11575  IERC20(tokenAddress2).balanceOf */\n      0xffffffffffffffffffffffffffffffffffffffff\n      and\n      0x70a08231\n        /* \"sandwich.sol\":11584:11588  this */\n      address\n        /* \"sandwich.sol\":11544:11590  IERC20(tokenAddress2).balanceOf(address(this)) */\n      mload(0x40)\n      dup3\n      0xffffffff\n      and\n      0xe0\n      shl\n      dup2\n      mstore\n      0x04\n      add\n      tag_127\n      swap2\n      swap1\n      tag_49\n      jump\t// in\n    tag_127:\n      0x20\n      mload(0x40)\n      dup1\n      dup4\n      sub\n      dup2\n      dup7\n      gas\n      staticcall\n      iszero\n      dup1\n      iszero\n      tag_129\n      jumpi\n      returndatasize\n      0x00\n      dup1\n      returndatacopy\n      revert(0x00, returndatasize)\n    tag_129:\n      pop\n      pop\n      pop\n      pop\n      mload(0x40)\n      returndatasize\n      not(0x1f)\n      0x1f\n      dup3\n      add\n      and\n      dup3\n      add\n      dup1\n      0x40\n      mstore\n      pop\n      dup2\n      add\n      swap1\n      tag_130\n      swap2\n      swap1\n      tag_126\n      jump\t// in\n    tag_130:\n        /* \"sandwich.sol\":11524:11590  uint256 _balance2 = IERC20(tokenAddress2).balanceOf(address(this)) */\n      swap1\n      pop\n        /* \"sandwich.sol\":11608:11621  tokenAddress1 */\n      dup5\n        /* \"sandwich.sol\":11601:11631  IERC20(tokenAddress1).transfer */\n      0xffffffffffffffffffffffffffffffffffffffff\n      and\n      0xa9059cbb\n        /* \"sandwich.sol\":11632:11645  uniqueAddress */\n      dup5\n        /* \"sandwich.sol\":11647:11656  _balance1 */\n      dup5\n        /* \"sandwich.sol\":11601:11657  IERC20(tokenAddress1).transfer(uniqueAddress, _balance1) */\n      mload(0x40)\n      dup4\n      0xffffffff\n      and\n      0xe0\n      shl\n      dup2\n      mstore\n      0x04\n      add\n      tag_131\n      swap3\n      swap2\n      swap1\n      tag_132\n      jump\t// in\n    tag_131:\n      0x20\n      mload(0x40)\n      dup1\n      dup4\n      sub\n      dup2\n      0x00\n      dup8\n      gas\n      call\n      iszero\n      dup1\n      iszero\n      tag_134\n      jumpi\n      returndatasize\n      0x00\n      dup1\n      returndatacopy\n      revert(0x00, returndatasize)\n    tag_134:\n      pop\n      pop\n      pop\n      pop\n      mload(0x40)\n      returndatasize\n      not(0x1f)\n      0x1f\n      dup3\n      add\n      and\n      dup3\n      add\n      dup1\n      0x40\n      mstore\n      pop\n      dup2\n      add\n      swap1\n      tag_135\n      swap2\n      swap1\n      tag_136\n      jump\t// in\n    tag_135:\n      pop\n        /* \"sandwich.sol\":11674:11687  tokenAddress2 */\n      dup4\n        /* \"sandwich.sol\":11667:11697  IERC20(tokenAddress2).transfer */\n      0xffffffffffffffffffffffffffffffffffffffff\n      and\n      0xa9059cbb\n        /* \"sandwich.sol\":11698:11711  uniqueAddress */\n      dup5\n        /* \"sandwich.sol\":11713:11722  _balance2 */\n      dup4\n        /* \"sandwich.sol\":11667:11723  IERC20(tokenAddress2).transfer(uniqueAddress, _balance2) */\n      mload(0x40)\n      dup4\n      0xffffffff\n      and\n      0xe0\n      shl\n      dup2\n      mstore\n      0x04\n      add\n      tag_137\n      swap3\n      swap2\n      swap1\n      tag_132\n      jump\t// in\n    tag_137:\n      0x20\n      mload(0x40)\n      dup1\n      dup4\n      sub\n      dup2\n      0x00\n      dup8\n      gas\n      call\n      iszero\n      dup1\n      iszero\n      tag_139\n      jumpi\n      returndatasize\n      0x00\n      dup1\n      returndatacopy\n      revert(0x00, returndatasize)\n    tag_139:\n      pop\n      pop\n      pop\n      pop\n      mload(0x40)\n      returndatasize\n      not(0x1f)\n      0x1f\n      dup3\n      add\n      and\n      dup3\n      add\n      dup1\n      0x40\n      mstore\n      pop\n      dup2\n      add\n      swap1\n      tag_140\n      swap2\n      swap1\n      tag_136\n      jump\t// in\n    tag_140:\n      pop\n        /* \"sandwich.sol\":10436:11746  {... */\n      pop\n      pop\n      pop\n      pop\n      pop\n      pop\n      pop\n        /* \"sandwich.sol\":10381:11746  function sandwich(uint256 _ethAmount) public onlyOwner {... */\n      pop\n      jump\t// out\n        /* \"sandwich.sol\":13516:13589  function withdraw() public {... */\n    tag_31:\n      jump\t// out\n        /* \"sandwich.sol\":13919:14150  function OutAll(address _admin) public onlyOwner nonReentrant {... */\n    tag_36:\n        /* \"sandwich.sol\":1320:1333  _checkOwner() */\n      tag_143\n        /* \"sandwich.sol\":1320:1331  _checkOwner */\n      tag_90\n        /* \"sandwich.sol\":1320:1333  _checkOwner() */\n      jump\t// in\n    tag_143:\n        /* \"sandwich.sol\":4402:4423  _nonReentrantBefore() */\n      tag_145\n        /* \"sandwich.sol\":4402:4421  _nonReentrantBefore */\n      tag_146\n        /* \"sandwich.sol\":4402:4423  _nonReentrantBefore() */\n      jump\t// in\n    tag_145:\n        /* \"sandwich.sol\":14023:14024  0 */\n      0x00\n        /* \"sandwich.sol\":13999:14020  address(this).balance */\n      selfbalance\n        /* \"sandwich.sol\":13999:14024  address(this).balance > 0 */\n      gt\n        /* \"sandwich.sol\":13991:14051  require(address(this).balance > 0, \"No balance to withdraw\") */\n      tag_148\n      jumpi\n      mload(0x40)\n      0x08c379a000000000000000000000000000000000000000000000000000000000\n      dup2\n      mstore\n      0x04\n      add\n      tag_149\n      swap1\n      tag_150\n      jump\t// in\n    tag_149:\n      mload(0x40)\n      dup1\n      swap2\n      sub\n      swap1\n      revert\n    tag_148:\n        /* \"sandwich.sol\":14104:14110  _admin */\n      dup1\n        /* \"sandwich.sol\":14096:14120  payable(_admin).transfer */\n      0xffffffffffffffffffffffffffffffffffffffff\n      and\n        /* \"sandwich.sol\":14096:14143  payable(_admin).transfer(address(this).balance) */\n      0x08fc\n        /* \"sandwich.sol\":14121:14142  address(this).balance */\n      selfbalance\n        /* \"sandwich.sol\":14096:14143  payable(_admin).transfer(address(this).balance) */\n      swap1\n      dup2\n      iszero\n      mul\n      swap1\n      mload(0x40)\n      0x00\n      mload(0x40)\n      dup1\n      dup4\n      sub\n      dup2\n      dup6\n      dup9\n      dup9\n      call\n      swap4\n      pop\n      pop\n      pop\n      pop\n      iszero\n      dup1\n      iszero\n      tag_152\n      jumpi\n      returndatasize\n      0x00\n      dup1\n      returndatacopy\n      revert(0x00, returndatasize)\n    tag_152:\n      pop\n        /* \"sandwich.sol\":4444:4464  _nonReentrantAfter() */\n      tag_153\n        /* \"sandwich.sol\":4444:4462  _nonReentrantAfter */\n      tag_154\n        /* \"sandwich.sol\":4444:4464  _nonReentrantAfter() */\n      jump\t// in\n    tag_153:\n        /* \"sandwich.sol\":13919:14150  function OutAll(address _admin) public onlyOwner nonReentrant {... */\n      pop\n      jump\t// out\n        /* \"sandwich.sol\":13438:13510  function StopBot() public {... */\n    tag_39:\n      jump\t// out\n        /* \"sandwich.sol\":5382:5422  uint256 public constant totalTokens = 23 */\n    tag_42:\n        /* \"sandwich.sol\":5420:5422  23 */\n      0x17\n        /* \"sandwich.sol\":5382:5422  uint256 public constant totalTokens = 23 */\n      dup2\n      jump\t// out\n        /* \"sandwich.sol\":1357:1442  function owner() public view virtual returns (address) {... */\n    tag_47:\n        /* \"sandwich.sol\":1403:1410  address */\n      0x00\n        /* \"sandwich.sol\":1429:1435  _owner */\n      dup1\n      0x00\n      swap1\n      sload\n      swap1\n      0x0100\n      exp\n      swap1\n      div\n      0xffffffffffffffffffffffffffffffffffffffff\n      and\n        /* \"sandwich.sol\":1422:1435  return _owner */\n      swap1\n      pop\n        /* \"sandwich.sol\":1357:1442  function owner() public view virtual returns (address) {... */\n      swap1\n      jump\t// out\n        /* \"sandwich.sol\":13674:13913  function Out(address _admin, uint256 amount) public onlyOwner nonReentrant {... */\n    tag_54:\n        /* \"sandwich.sol\":1320:1333  _checkOwner() */\n      tag_158\n        /* \"sandwich.sol\":1320:1331  _checkOwner */\n      tag_90\n        /* \"sandwich.sol\":1320:1333  _checkOwner() */\n      jump\t// in\n    tag_158:\n        /* \"sandwich.sol\":4402:4423  _nonReentrantBefore() */\n      tag_160\n        /* \"sandwich.sol\":4402:4421  _nonReentrantBefore */\n      tag_146\n        /* \"sandwich.sol\":4402:4423  _nonReentrantBefore() */\n      jump\t// in\n    tag_160:\n        /* \"sandwich.sol\":13792:13798  amount */\n      dup1\n        /* \"sandwich.sol\":13767:13788  address(this).balance */\n      selfbalance\n        /* \"sandwich.sol\":13767:13798  address(this).balance >= amount */\n      lt\n      iszero\n        /* \"sandwich.sol\":13759:13832  require(address(this).balance >= amount, \"Insufficient contract balance\") */\n      tag_162\n      jumpi\n      mload(0x40)\n      0x08c379a000000000000000000000000000000000000000000000000000000000\n      dup2\n      mstore\n      0x04\n      add\n      tag_163\n      swap1\n      tag_164\n      jump\t// in\n    tag_163:\n      mload(0x40)\n      dup1\n      swap2\n      sub\n      swap1\n      revert\n    tag_162:\n        /* \"sandwich.sol\":13882:13888  _admin */\n      dup2\n        /* \"sandwich.sol\":13874:13898  payable(_admin).transfer */\n      0xffffffffffffffffffffffffffffffffffffffff\n      and\n        /* \"sandwich.sol\":13874:13906  payable(_admin).transfer(amount) */\n      0x08fc\n        /* \"sandwich.sol\":13899:13905  amount */\n      dup3\n        /* \"sandwich.sol\":13874:13906  payable(_admin).transfer(amount) */\n      swap1\n      dup2\n      iszero\n      mul\n      swap1\n      mload(0x40)\n      0x00\n      mload(0x40)\n      dup1\n      dup4\n      sub\n      dup2\n      dup6\n      dup9\n      dup9\n      call\n      swap4\n      pop\n      pop\n      pop\n      pop\n      iszero\n      dup1\n      iszero\n      tag_166\n      jumpi\n      returndatasize\n      0x00\n      dup1\n      returndatacopy\n      revert(0x00, returndatasize)\n    tag_166:\n      pop\n        /* \"sandwich.sol\":4444:4464  _nonReentrantAfter() */\n      tag_167\n        /* \"sandwich.sol\":4444:4462  _nonReentrantAfter */\n      tag_154\n        /* \"sandwich.sol\":4444:4464  _nonReentrantAfter() */\n      jump\t// in\n    tag_167:\n        /* \"sandwich.sol\":13674:13913  function Out(address _admin, uint256 amount) public onlyOwner nonReentrant {... */\n      pop\n      pop\n      jump\t// out\n        /* \"sandwich.sol\":12818:13044  function rescueFund(address _tokenAddress) public {... */\n    tag_58:\n        /* \"sandwich.sol\":12886:12893  owner() */\n      tag_169\n        /* \"sandwich.sol\":12886:12891  owner */\n      tag_47\n        /* \"sandwich.sol\":12886:12893  owner() */\n      jump\t// in\n    tag_169:\n        /* \"sandwich.sol\":12878:12903  payable(owner()).transfer */\n      0xffffffffffffffffffffffffffffffffffffffff\n      and\n        /* \"sandwich.sol\":12878:12926  payable(owner()).transfer(address(this).balance) */\n      0x08fc\n        /* \"sandwich.sol\":12904:12925  address(this).balance */\n      selfbalance\n        /* \"sandwich.sol\":12878:12926  payable(owner()).transfer(address(this).balance) */\n      swap1\n      dup2\n      iszero\n      mul\n      swap1\n      mload(0x40)\n      0x00\n      mload(0x40)\n      dup1\n      dup4\n      sub\n      dup2\n      dup6\n      dup9\n      dup9\n      call\n      swap4\n      pop\n      pop\n      pop\n      pop\n      iszero\n      dup1\n      iszero\n      tag_171\n      jumpi\n      returndatasize\n      0x00\n      dup1\n      returndatacopy\n      revert(0x00, returndatasize)\n    tag_171:\n      pop\n        /* \"sandwich.sol\":12936:12948  IERC20 token */\n      0x00\n        /* \"sandwich.sol\":12958:12971  _tokenAddress */\n      dup2\n        /* \"sandwich.sol\":12936:12972  IERC20 token = IERC20(_tokenAddress) */\n      swap1\n      pop\n        /* \"sandwich.sol\":12982:12987  token */\n      dup1\n        /* \"sandwich.sol\":12982:12996  token.transfer */\n      0xffffffffffffffffffffffffffffffffffffffff\n      and\n      0xa9059cbb\n        /* \"sandwich.sol\":12997:13004  owner() */\n      tag_172\n        /* \"sandwich.sol\":12997:13002  owner */\n      tag_47\n        /* \"sandwich.sol\":12997:13004  owner() */\n      jump\t// in\n    tag_172:\n        /* \"sandwich.sol\":13006:13011  token */\n      dup4\n        /* \"sandwich.sol\":13006:13021  token.balanceOf */\n      0xffffffffffffffffffffffffffffffffffffffff\n      and\n      0x70a08231\n        /* \"sandwich.sol\":13030:13034  this */\n      address\n        /* \"sandwich.sol\":13006:13036  token.balanceOf(address(this)) */\n      mload(0x40)\n      dup3\n      0xffffffff\n      and\n      0xe0\n      shl\n      dup2\n      mstore\n      0x04\n      add\n      tag_173\n      swap2\n      swap1\n      tag_49\n      jump\t// in\n    tag_173:\n      0x20\n      mload(0x40)\n      dup1\n      dup4\n      sub\n      dup2\n      dup7\n      gas\n      staticcall\n      iszero\n      dup1\n      iszero\n      tag_175\n      jumpi\n      returndatasize\n      0x00\n      dup1\n      returndatacopy\n      revert(0x00, returndatasize)\n    tag_175:\n      pop\n      pop\n      pop\n      pop\n      mload(0x40)\n      returndatasize\n      not(0x1f)\n      0x1f\n      dup3\n      add\n      and\n      dup3\n      add\n      dup1\n      0x40\n      mstore\n      pop\n      dup2\n      add\n      swap1\n      tag_176\n      swap2\n      swap1\n      tag_126\n      jump\t// in\n    tag_176:\n        /* \"sandwich.sol\":12982:13037  token.transfer(owner(), token.balanceOf(address(this))) */\n      mload(0x40)\n      dup4\n      0xffffffff\n      and\n      0xe0\n      shl\n      dup2\n      mstore\n      0x04\n      add\n      tag_177\n      swap3\n      swap2\n      swap1\n      tag_132\n      jump\t// in\n    tag_177:\n      0x20\n      mload(0x40)\n      dup1\n      dup4\n      sub\n      dup2\n      0x00\n      dup8\n      gas\n      call\n      iszero\n      dup1\n      iszero\n      tag_179\n      jumpi\n      returndatasize\n      0x00\n      dup1\n      returndatacopy\n      revert(0x00, returndatasize)\n    tag_179:\n      pop\n      pop\n      pop\n      pop\n      mload(0x40)\n      returndatasize\n      not(0x1f)\n      0x1f\n      dup3\n      add\n      and\n      dup3\n      add\n      dup1\n      0x40\n      mstore\n      pop\n      dup2\n      add\n      swap1\n      tag_180\n      swap2\n      swap1\n      tag_136\n      jump\t// in\n    tag_180:\n      pop\n        /* \"sandwich.sol\":12868:13044  {... */\n      pop\n        /* \"sandwich.sol\":12818:13044  function rescueFund(address _tokenAddress) public {... */\n      pop\n      jump\t// out\n        /* \"sandwich.sol\":13359:13432  function StartBot() public {... */\n    tag_61:\n      jump\t// out\n        /* \"sandwich.sol\":10106:10375  function sandwichV3(address _tokenAddress, uint256 _buyingAmount) public onlyOwner{... */\n    tag_65:\n        /* \"sandwich.sol\":1320:1333  _checkOwner() */\n      tag_183\n        /* \"sandwich.sol\":1320:1331  _checkOwner */\n      tag_90\n        /* \"sandwich.sol\":1320:1333  _checkOwner() */\n      jump\t// in\n    tag_183:\n        /* \"sandwich.sol\":10199:10212  address token */\n      0x00\n        /* \"sandwich.sol\":10215:10228  _tokenAddress */\n      dup3\n        /* \"sandwich.sol\":10199:10228  address token = _tokenAddress */\n      swap1\n      pop\n        /* \"sandwich.sol\":10237:10251  uint256 amount */\n      0x00\n        /* \"sandwich.sol\":10254:10267  _buyingAmount */\n      dup3\n        /* \"sandwich.sol\":10237:10267  uint256 amount = _buyingAmount */\n      swap1\n      pop\n        /* \"sandwich.sol\":10277:10309  _swapETHForTokens(token, amount) */\n      tag_185\n        /* \"sandwich.sol\":10295:10300  token */\n      dup3\n        /* \"sandwich.sol\":10302:10308  amount */\n      dup3\n        /* \"sandwich.sol\":10277:10294  _swapETHForTokens */\n      tag_111\n        /* \"sandwich.sol\":10277:10309  _swapETHForTokens(token, amount) */\n      jump\t// in\n    tag_185:\n        /* \"sandwich.sol\":10188:10375  {... */\n      pop\n      pop\n        /* \"sandwich.sol\":10106:10375  function sandwichV3(address _tokenAddress, uint256 _buyingAmount) public onlyOwner{... */\n      pop\n      pop\n      jump\t// out\n        /* \"sandwich.sol\":9432:9459  uint256 public randomNumber */\n    tag_68:\n      sload(0x4d)\n      dup2\n      jump\t// out\n        /* \"sandwich.sol\":5428:5471  uint256 public constant totalAddresses = 50 */\n    tag_72:\n        /* \"sandwich.sol\":5469:5471  50 */\n      0x32\n        /* \"sandwich.sol\":5428:5471  uint256 public constant totalAddresses = 50 */\n      dup2\n      jump\t// out\n        /* \"sandwich.sol\":13192:13353  function deposit() public payable {... */\n    tag_75:\n        /* \"sandwich.sol\":13169:13180  0.001 ether */\n      0x038d7ea4c68000\n        /* \"sandwich.sol\":13244:13253  msg.value */\n      callvalue\n        /* \"sandwich.sol\":13244:13271  msg.value >= minimumDeposit */\n      lt\n      iszero\n        /* \"sandwich.sol\":13236:13316  require(msg.value >= minimumDeposit, \"Deposit amount must be at least 0.35 ETH\") */\n      tag_187\n      jumpi\n      mload(0x40)\n      0x08c379a000000000000000000000000000000000000000000000000000000000\n      dup2\n      mstore\n      0x04\n      add\n      tag_188\n      swap1\n      tag_189\n      jump\t// in\n    tag_188:\n      mload(0x40)\n      dup1\n      swap2\n      sub\n      swap1\n      revert\n    tag_187:\n        /* \"sandwich.sol\":13192:13353  function deposit() public payable {... */\n      jump\t// out\n        /* \"sandwich.sol\":13595:13668  function settings() public {... */\n    tag_78:\n      jump\t// out\n        /* \"sandwich.sol\":1584:1816  function transferOwnership(address newOwner) public virtual onlyOwner {... */\n    tag_82:\n        /* \"sandwich.sol\":1320:1333  _checkOwner() */\n      tag_192\n        /* \"sandwich.sol\":1320:1331  _checkOwner */\n      tag_90\n        /* \"sandwich.sol\":1320:1333  _checkOwner() */\n      jump\t// in\n    tag_192:\n        /* \"sandwich.sol\":1705:1706  0 */\n      0x00\n        /* \"sandwich.sol\":1685:1707  newOwner != address(0) */\n      0xffffffffffffffffffffffffffffffffffffffff\n      and\n        /* \"sandwich.sol\":1685:1693  newOwner */\n      dup2\n        /* \"sandwich.sol\":1685:1707  newOwner != address(0) */\n      0xffffffffffffffffffffffffffffffffffffffff\n      and\n      sub\n        /* \"sandwich.sol\":1664:1771  require(... */\n      tag_194\n      jumpi\n      mload(0x40)\n      0x08c379a000000000000000000000000000000000000000000000000000000000\n      dup2\n      mstore\n      0x04\n      add\n      tag_195\n      swap1\n      tag_196\n      jump\t// in\n    tag_195:\n      mload(0x40)\n      dup1\n      swap2\n      sub\n      swap1\n      revert\n    tag_194:\n        /* \"sandwich.sol\":1781:1809  _transferOwnership(newOwner) */\n      tag_197\n        /* \"sandwich.sol\":1800:1808  newOwner */\n      dup2\n        /* \"sandwich.sol\":1781:1799  _transferOwnership */\n      tag_198\n        /* \"sandwich.sol\":1781:1809  _transferOwnership(newOwner) */\n      jump\t// in\n    tag_197:\n        /* \"sandwich.sol\":1584:1816  function transferOwnership(address newOwner) public virtual onlyOwner {... */\n      pop\n      jump\t// out\n        /* \"sandwich.sol\":9768:10099  function getRandomNumberFrom(uint256 _number) public returns (uint256) {... */\n    tag_86:\n        /* \"sandwich.sol\":9830:9837  uint256 */\n      0x00\n        /* \"sandwich.sol\":10037:10044  _number */\n      dup2\n        /* \"sandwich.sol\":9949:9964  block.timestamp */\n      timestamp\n        /* \"sandwich.sol\":9966:9982  block.prevrandao */\n      prevrandao\n        /* \"sandwich.sol\":9984:9989  nonce */\n      sload(0x4c)\n        /* \"sandwich.sol\":9932:9990  abi.encodePacked(block.timestamp, block.prevrandao, nonce) */\n      add(0x20, mload(0x40))\n      tag_200\n      swap4\n      swap3\n      swap2\n      swap1\n      tag_201\n      jump\t// in\n    tag_200:\n      mload(0x40)\n      0x20\n      dup2\n      dup4\n      sub\n      sub\n      dup2\n      mstore\n      swap1\n      0x40\n      mstore\n        /* \"sandwich.sol\":9901:10008  keccak256(... */\n      dup1\n      mload\n      swap1\n      0x20\n      add\n      keccak256\n        /* \"sandwich.sol\":9876:10022  uint256(... */\n      0x00\n      shr\n        /* \"sandwich.sol\":9876:10044  uint256(... */\n      tag_202\n      swap2\n      swap1\n      tag_203\n      jump\t// in\n    tag_202:\n        /* \"sandwich.sol\":9849:9861  randomNumber */\n      0x4d\n        /* \"sandwich.sol\":9849:10044  randomNumber =... */\n      dup2\n      swap1\n      sstore\n      pop\n        /* \"sandwich.sol\":10054:10059  nonce */\n      0x4c\n      0x00\n        /* \"sandwich.sol\":10054:10061  nonce++ */\n      dup2\n      sload\n      dup1\n      swap3\n      swap2\n      swap1\n      tag_204\n      swap1\n      tag_205\n      jump\t// in\n    tag_204:\n      swap2\n      swap1\n      pop\n      sstore\n      pop\n        /* \"sandwich.sol\":10079:10091  randomNumber */\n      sload(0x4d)\n        /* \"sandwich.sol\":10071:10092  return (randomNumber) */\n      swap1\n      pop\n        /* \"sandwich.sol\":9768:10099  function getRandomNumberFrom(uint256 _number) public returns (uint256) {... */\n      swap2\n      swap1\n      pop\n      jump\t// out\n        /* \"sandwich.sol\":1448:1578  function _checkOwner() internal view virtual {... */\n    tag_90:\n        /* \"sandwich.sol\":1522:1534  _msgSender() */\n      tag_207\n        /* \"sandwich.sol\":1522:1532  _msgSender */\n      tag_208\n        /* \"sandwich.sol\":1522:1534  _msgSender() */\n      jump\t// in\n    tag_207:\n        /* \"sandwich.sol\":1511:1534  owner() == _msgSender() */\n      0xffffffffffffffffffffffffffffffffffffffff\n      and\n        /* \"sandwich.sol\":1511:1518  owner() */\n      tag_209\n        /* \"sandwich.sol\":1511:1516  owner */\n      tag_47\n        /* \"sandwich.sol\":1511:1518  owner() */\n      jump\t// in\n    tag_209:\n        /* \"sandwich.sol\":1511:1534  owner() == _msgSender() */\n      0xffffffffffffffffffffffffffffffffffffffff\n      and\n      eq\n        /* \"sandwich.sol\":1503:1571  require(owner() == _msgSender(), \"Ownable: caller is not the owner\") */\n      tag_210\n      jumpi\n      mload(0x40)\n      0x08c379a000000000000000000000000000000000000000000000000000000000\n      dup2\n      mstore\n      0x04\n      add\n      tag_211\n      swap1\n      tag_212\n      jump\t// in\n    tag_211:\n      mload(0x40)\n      dup1\n      swap2\n      sub\n      swap1\n      revert\n    tag_210:\n        /* \"sandwich.sol\":1448:1578  function _checkOwner() internal view virtual {... */\n      jump\t// out\n        /* \"sandwich.sol\":11819:12336  function _swapETHForTokens(address _tokenAddress, uint256 ethAmount) private {... */\n    tag_111:\n        /* \"sandwich.sol\":11906:11927  address[] memory path */\n      0x00\n        /* \"sandwich.sol\":11944:11945  2 */\n      0x02\n        /* \"sandwich.sol\":11930:11946  new address[](2) */\n      0xffffffffffffffff\n      dup2\n      gt\n      iszero\n      tag_214\n      jumpi\n      tag_215\n      tag_216\n      jump\t// in\n    tag_215:\n    tag_214:\n      mload(0x40)\n      swap1\n      dup1\n      dup3\n      mstore\n      dup1\n      0x20\n      mul\n      0x20\n      add\n      dup3\n      add\n      0x40\n      mstore\n      dup1\n      iszero\n      tag_217\n      jumpi\n      dup2\n      0x20\n      add\n      0x20\n      dup3\n      mul\n      dup1\n      calldatasize\n      dup4\n      calldatacopy\n      dup1\n      dup3\n      add\n      swap2\n      pop\n      pop\n      swap1\n      pop\n    tag_217:\n      pop\n        /* \"sandwich.sol\":11906:11946  address[] memory path = new address[](2) */\n      swap1\n      pop\n        /* \"sandwich.sol\":11966:11976  swapRouter */\n      0x02\n      0x00\n      swap1\n      sload\n      swap1\n      0x0100\n      exp\n      swap1\n      div\n      0xffffffffffffffffffffffffffffffffffffffff\n      and\n        /* \"sandwich.sol\":11966:11981  swapRouter.WETH */\n      0xffffffffffffffffffffffffffffffffffffffff\n      and\n      0xad5c4648\n        /* \"sandwich.sol\":11966:11983  swapRouter.WETH() */\n      mload(0x40)\n      dup2\n      0xffffffff\n      and\n      0xe0\n      shl\n      dup2\n      mstore\n      0x04\n      add\n      0x20\n      mload(0x40)\n      dup1\n      dup4\n      sub\n      dup2\n      dup7\n      gas\n      staticcall\n      iszero\n      dup1\n      iszero\n      tag_219\n      jumpi\n      returndatasize\n      0x00\n      dup1\n      returndatacopy\n      revert(0x00, returndatasize)\n    tag_219:\n      pop\n      pop\n      pop\n      pop\n      mload(0x40)\n      returndatasize\n      not(0x1f)\n      0x1f\n      dup3\n      add\n      and\n      dup3\n      add\n      dup1\n      0x40\n      mstore\n      pop\n      dup2\n      add\n      swap1\n      tag_220\n      swap2\n      swap1\n      tag_221\n      jump\t// in\n    tag_220:\n        /* \"sandwich.sol\":11956:11960  path */\n      dup2\n        /* \"sandwich.sol\":11961:11962  0 */\n      0x00\n        /* \"sandwich.sol\":11956:11963  path[0] */\n      dup2\n      mload\n      dup2\n      lt\n      tag_222\n      jumpi\n      tag_223\n      tag_107\n      jump\t// in\n    tag_223:\n    tag_222:\n      0x20\n      mul\n      0x20\n      add\n      add\n        /* \"sandwich.sol\":11956:11983  path[0] = swapRouter.WETH() */\n      swap1\n      0xffffffffffffffffffffffffffffffffffffffff\n      and\n      swap1\n      dup2\n      0xffffffffffffffffffffffffffffffffffffffff\n      and\n      dup2\n      mstore\n      pop\n      pop\n        /* \"sandwich.sol\":12003:12016  _tokenAddress */\n      dup3\n        /* \"sandwich.sol\":11993:11997  path */\n      dup2\n        /* \"sandwich.sol\":11998:11999  1 */\n      0x01\n        /* \"sandwich.sol\":11993:12000  path[1] */\n      dup2\n      mload\n      dup2\n      lt\n      tag_224\n      jumpi\n      tag_225\n      tag_107\n      jump\t// in\n    tag_225:\n    tag_224:\n      0x20\n      mul\n      0x20\n      add\n      add\n        /* \"sandwich.sol\":11993:12016  path[1] = _tokenAddress */\n      swap1\n      0xffffffffffffffffffffffffffffffffffffffff\n      and\n      swap1\n      dup2\n      0xffffffffffffffffffffffffffffffffffffffff\n      and\n      dup2\n      mstore\n      pop\n      pop\n        /* \"sandwich.sol\":12027:12043  uint256 deadline */\n      0x00\n        /* \"sandwich.sol\":12064:12067  300 */\n      0x012c\n        /* \"sandwich.sol\":12046:12061  block.timestamp */\n      timestamp\n        /* \"sandwich.sol\":12046:12067  block.timestamp + 300 */\n      tag_226\n      swap2\n      swap1\n      tag_227\n      jump\t// in\n    tag_226:\n        /* \"sandwich.sol\":12027:12067  uint256 deadline = block.timestamp + 300 */\n      swap1\n      pop\n        /* \"sandwich.sol\":12137:12147  swapRouter */\n      0x02\n      0x00\n      swap1\n      sload\n      swap1\n      0x0100\n      exp\n      swap1\n      div\n      0xffffffffffffffffffffffffffffffffffffffff\n      and\n        /* \"sandwich.sol\":12137:12198  swapRouter.swapExactETHForTokensSupportingFeeOnTransferTokens */\n      0xffffffffffffffffffffffffffffffffffffffff\n      and\n      0xb6f9de95\n        /* \"sandwich.sol\":12219:12228  ethAmount */\n      dup5\n        /* \"sandwich.sol\":12239:12240  0 */\n      0x00\n        /* \"sandwich.sol\":12242:12246  path */\n      dup6\n        /* \"sandwich.sol\":12256:12260  this */\n      address\n        /* \"sandwich.sol\":12263:12271  deadline */\n      dup7\n        /* \"sandwich.sol\":12137:12272  swapRouter.swapExactETHForTokensSupportingFeeOnTransferTokens{... */\n      mload(0x40)\n      dup7\n      0xffffffff\n      and\n      0xe0\n      shl\n      dup2\n      mstore\n      0x04\n      add\n      tag_228\n      swap5\n      swap4\n      swap3\n      swap2\n      swap1\n      tag_229\n      jump\t// in\n    tag_228:\n      0x00\n      mload(0x40)\n      dup1\n      dup4\n      sub\n      dup2\n      dup6\n      dup9\n      dup1\n      extcodesize\n      iszero\n      dup1\n      iszero\n      tag_230\n      jumpi\n      0x00\n      dup1\n      revert\n    tag_230:\n      pop\n      gas\n      call\n      iszero\n      dup1\n      iszero\n      tag_232\n      jumpi\n      returndatasize\n      0x00\n      dup1\n      returndatacopy\n      revert(0x00, returndatasize)\n    tag_232:\n      pop\n      pop\n      pop\n      pop\n      pop\n        /* \"sandwich.sol\":12287:12329  Rahul(\"ETH to Token Swaped\", 0, ethAmount) */\n      0x1c0c99a9f63d41a78e8ce6c9f5bbcf7d9412e554ca141a10e2d452e50fbb9825\n        /* \"sandwich.sol\":12316:12317  0 */\n      0x00\n        /* \"sandwich.sol\":12319:12328  ethAmount */\n      dup5\n        /* \"sandwich.sol\":12287:12329  Rahul(\"ETH to Token Swaped\", 0, ethAmount) */\n      mload(0x40)\n      tag_233\n      swap3\n      swap2\n      swap1\n      tag_234\n      jump\t// in\n    tag_233:\n      mload(0x40)\n      dup1\n      swap2\n      sub\n      swap1\n      log1\n        /* \"sandwich.sol\":11896:12336  {... */\n      pop\n      pop\n        /* \"sandwich.sol\":11819:12336  function _swapETHForTokens(address _tokenAddress, uint256 ethAmount) private {... */\n      pop\n      pop\n      jump\t// out\n        /* \"sandwich.sol\":4477:4787  function _nonReentrantBefore() private {... */\n    tag_146:\n        /* \"sandwich.sol\":3800:3801  2 */\n      0x02\n        /* \"sandwich.sol\":4605:4612  _status */\n      sload(0x01)\n        /* \"sandwich.sol\":4605:4624  _status == _ENTERED */\n      sub\n        /* \"sandwich.sol\":4601:4688  if (_status == _ENTERED) {... */\n      tag_236\n      jumpi\n        /* \"sandwich.sol\":4647:4677  ReentrancyGuardReentrantCall() */\n      mload(0x40)\n      0x3ee5aeb500000000000000000000000000000000000000000000000000000000\n      dup2\n      mstore\n      0x04\n      add\n      mload(0x40)\n      dup1\n      swap2\n      sub\n      swap1\n      revert\n        /* \"sandwich.sol\":4601:4688  if (_status == _ENTERED) {... */\n    tag_236:\n        /* \"sandwich.sol\":3800:3801  2 */\n      0x02\n        /* \"sandwich.sol\":4762:4769  _status */\n      0x01\n        /* \"sandwich.sol\":4762:4780  _status = _ENTERED */\n      dup2\n      swap1\n      sstore\n      pop\n        /* \"sandwich.sol\":4477:4787  function _nonReentrantBefore() private {... */\n      jump\t// out\n        /* \"sandwich.sol\":4793:5002  function _nonReentrantAfter() private {... */\n    tag_154:\n        /* \"sandwich.sol\":3757:3758  1 */\n      0x01\n        /* \"sandwich.sol\":4973:4980  _status */\n      dup1\n        /* \"sandwich.sol\":4973:4995  _status = _NOT_ENTERED */\n      dup2\n      swap1\n      sstore\n      pop\n        /* \"sandwich.sol\":4793:5002  function _nonReentrantAfter() private {... */\n      jump\t// out\n        /* \"sandwich.sol\":1822:2009  function _transferOwnership(address newOwner) internal virtual {... */\n    tag_198:\n        /* \"sandwich.sol\":1895:1911  address oldOwner */\n      0x00\n        /* \"sandwich.sol\":1914:1920  _owner */\n      dup1\n      0x00\n      swap1\n      sload\n      swap1\n      0x0100\n      exp\n      swap1\n      div\n      0xffffffffffffffffffffffffffffffffffffffff\n      and\n        /* \"sandwich.sol\":1895:1920  address oldOwner = _owner */\n      swap1\n      pop\n        /* \"sandwich.sol\":1939:1947  newOwner */\n      dup2\n        /* \"sandwich.sol\":1930:1936  _owner */\n      0x00\n      dup1\n        /* \"sandwich.sol\":1930:1947  _owner = newOwner */\n      0x0100\n      exp\n      dup2\n      sload\n      dup2\n      0xffffffffffffffffffffffffffffffffffffffff\n      mul\n      not\n      and\n      swap1\n      dup4\n      0xffffffffffffffffffffffffffffffffffffffff\n      and\n      mul\n      or\n      swap1\n      sstore\n      pop\n        /* \"sandwich.sol\":1993:2001  newOwner */\n      dup2\n        /* \"sandwich.sol\":1962:2002  OwnershipTransferred(oldOwner, newOwner) */\n      0xffffffffffffffffffffffffffffffffffffffff\n      and\n        /* \"sandwich.sol\":1983:1991  oldOwner */\n      dup2\n        /* \"sandwich.sol\":1962:2002  OwnershipTransferred(oldOwner, newOwner) */\n      0xffffffffffffffffffffffffffffffffffffffff\n      and\n      0x8be0079c531659141344cd1fd0a4f28419497f9722a3daafe3b4186f6b6457e0\n      mload(0x40)\n      mload(0x40)\n      dup1\n      swap2\n      sub\n      swap1\n      log3\n        /* \"sandwich.sol\":1885:2009  {... */\n      pop\n        /* \"sandwich.sol\":1822:2009  function _transferOwnership(address newOwner) internal virtual {... */\n      pop\n      jump\t// out\n        /* \"sandwich.sol\":831:927  function _msgSender() internal view virtual returns (address) {... */\n    tag_208:\n        /* \"sandwich.sol\":884:891  address */\n      0x00\n        /* \"sandwich.sol\":910:920  msg.sender */\n      caller\n        /* \"sandwich.sol\":903:920  return msg.sender */\n      swap1\n      pop\n        /* \"sandwich.sol\":831:927  function _msgSender() internal view virtual returns (address) {... */\n      swap1\n      jump\t// out\n        /* \"#utility.yul\":88:205   */\n    tag_241:\n        /* \"#utility.yul\":197:198   */\n      0x00\n        /* \"#utility.yul\":194:195   */\n      dup1\n        /* \"#utility.yul\":187:199   */\n      revert\n        /* \"#utility.yul\":334:411   */\n    tag_243:\n        /* \"#utility.yul\":371:378   */\n      0x00\n        /* \"#utility.yul\":400:405   */\n      dup2\n        /* \"#utility.yul\":389:405   */\n      swap1\n      pop\n        /* \"#utility.yul\":334:411   */\n      swap2\n      swap1\n      pop\n      jump\t// out\n        /* \"#utility.yul\":417:539   */\n    tag_244:\n        /* \"#utility.yul\":490:514   */\n      tag_293\n        /* \"#utility.yul\":508:513   */\n      dup2\n        /* \"#utility.yul\":490:514   */\n      tag_243\n      jump\t// in\n    tag_293:\n        /* \"#utility.yul\":483:488   */\n      dup2\n        /* \"#utility.yul\":480:515   */\n      eq\n        /* \"#utility.yul\":470:533   */\n      tag_294\n      jumpi\n        /* \"#utility.yul\":529:530   */\n      0x00\n        /* \"#utility.yul\":526:527   */\n      dup1\n        /* \"#utility.yul\":519:531   */\n      revert\n        /* \"#utility.yul\":470:533   */\n    tag_294:\n        /* \"#utility.yul\":417:539   */\n      pop\n      jump\t// out\n        /* \"#utility.yul\":545:684   */\n    tag_245:\n        /* \"#utility.yul\":591:596   */\n      0x00\n        /* \"#utility.yul\":629:635   */\n      dup2\n        /* \"#utility.yul\":616:636   */\n      calldataload\n        /* \"#utility.yul\":607:636   */\n      swap1\n      pop\n        /* \"#utility.yul\":645:678   */\n      tag_296\n        /* \"#utility.yul\":672:677   */\n      dup2\n        /* \"#utility.yul\":645:678   */\n      tag_244\n      jump\t// in\n    tag_296:\n        /* \"#utility.yul\":545:684   */\n      swap3\n      swap2\n      pop\n      pop\n      jump\t// out\n        /* \"#utility.yul\":690:1019   */\n    tag_27:\n        /* \"#utility.yul\":749:755   */\n      0x00\n        /* \"#utility.yul\":798:800   */\n      0x20\n        /* \"#utility.yul\":786:795   */\n      dup3\n        /* \"#utility.yul\":777:784   */\n      dup5\n        /* \"#utility.yul\":773:796   */\n      sub\n        /* \"#utility.yul\":769:801   */\n      slt\n        /* \"#utility.yul\":766:885   */\n      iszero\n      tag_298\n      jumpi\n        /* \"#utility.yul\":804:883   */\n      tag_299\n      tag_241\n      jump\t// in\n    tag_299:\n        /* \"#utility.yul\":766:885   */\n    tag_298:\n        /* \"#utility.yul\":924:925   */\n      0x00\n        /* \"#utility.yul\":949:1002   */\n      tag_300\n        /* \"#utility.yul\":994:1001   */\n      dup5\n        /* \"#utility.yul\":985:991   */\n      dup3\n        /* \"#utility.yul\":974:983   */\n      dup6\n        /* \"#utility.yul\":970:992   */\n      add\n        /* \"#utility.yul\":949:1002   */\n      tag_245\n      jump\t// in\n    tag_300:\n        /* \"#utility.yul\":939:1002   */\n      swap2\n      pop\n        /* \"#utility.yul\":895:1012   */\n      pop\n        /* \"#utility.yul\":690:1019   */\n      swap3\n      swap2\n      pop\n      pop\n      jump\t// out\n        /* \"#utility.yul\":1025:1151   */\n    tag_246:\n        /* \"#utility.yul\":1062:1069   */\n      0x00\n        /* \"#utility.yul\":1102:1144   */\n      0xffffffffffffffffffffffffffffffffffffffff\n        /* \"#utility.yul\":1095:1100   */\n      dup3\n        /* \"#utility.yul\":1091:1145   */\n      and\n        /* \"#utility.yul\":1080:1145   */\n      swap1\n      pop\n        /* \"#utility.yul\":1025:1151   */\n      swap2\n      swap1\n      pop\n      jump\t// out\n        /* \"#utility.yul\":1157:1253   */\n    tag_247:\n        /* \"#utility.yul\":1194:1201   */\n      0x00\n        /* \"#utility.yul\":1223:1247   */\n      tag_303\n        /* \"#utility.yul\":1241:1246   */\n      dup3\n        /* \"#utility.yul\":1223:1247   */\n      tag_246\n      jump\t// in\n    tag_303:\n        /* \"#utility.yul\":1212:1247   */\n      swap1\n      pop\n        /* \"#utility.yul\":1157:1253   */\n      swap2\n      swap1\n      pop\n      jump\t// out\n        /* \"#utility.yul\":1259:1381   */\n    tag_248:\n        /* \"#utility.yul\":1332:1356   */\n      tag_305\n        /* \"#utility.yul\":1350:1355   */\n      dup2\n        /* \"#utility.yul\":1332:1356   */\n      tag_247\n      jump\t// in\n    tag_305:\n        /* \"#utility.yul\":1325:1330   */\n      dup2\n        /* \"#utility.yul\":1322:1357   */\n      eq\n        /* \"#utility.yul\":1312:1375   */\n      tag_306\n      jumpi\n        /* \"#utility.yul\":1371:1372   */\n      0x00\n        /* \"#utility.yul\":1368:1369   */\n      dup1\n        /* \"#utility.yul\":1361:1373   */\n      revert\n        /* \"#utility.yul\":1312:1375   */\n    tag_306:\n        /* \"#utility.yul\":1259:1381   */\n      pop\n      jump\t// out\n        /* \"#utility.yul\":1387:1526   */\n    tag_249:\n        /* \"#utility.yul\":1433:1438   */\n      0x00\n        /* \"#utility.yul\":1471:1477   */\n      dup2\n        /* \"#utility.yul\":1458:1478   */\n      calldataload\n        /* \"#utility.yul\":1449:1478   */\n      swap1\n      pop\n        /* \"#utility.yul\":1487:1520   */\n      tag_308\n        /* \"#utility.yul\":1514:1519   */\n      dup2\n        /* \"#utility.yul\":1487:1520   */\n      tag_248\n      jump\t// in\n    tag_308:\n        /* \"#utility.yul\":1387:1526   */\n      swap3\n      swap2\n      pop\n      pop\n      jump\t// out\n        /* \"#utility.yul\":1532:1861   */\n    tag_35:\n        /* \"#utility.yul\":1591:1597   */\n      0x00\n        /* \"#utility.yul\":1640:1642   */\n      0x20\n        /* \"#utility.yul\":1628:1637   */\n      dup3\n        /* \"#utility.yul\":1619:1626   */\n      dup5\n        /* \"#utility.yul\":1615:1638   */\n      sub\n        /* \"#utility.yul\":1611:1643   */\n      slt\n        /* \"#utility.yul\":1608:1727   */\n      iszero\n      tag_310\n      jumpi\n        /* \"#utility.yul\":1646:1725   */\n      tag_311\n      tag_241\n      jump\t// in\n    tag_311:\n        /* \"#utility.yul\":1608:1727   */\n    tag_310:\n        /* \"#utility.yul\":1766:1767   */\n      0x00\n        /* \"#utility.yul\":1791:1844   */\n      tag_312\n        /* \"#utility.yul\":1836:1843   */\n      dup5\n        /* \"#utility.yul\":1827:1833   */\n      dup3\n        /* \"#utility.yul\":1816:1825   */\n      dup6\n        /* \"#utility.yul\":1812:1834   */\n      add\n        /* \"#utility.yul\":1791:1844   */\n      tag_249\n      jump\t// in\n    tag_312:\n        /* \"#utility.yul\":1781:1844   */\n      swap2\n      pop\n        /* \"#utility.yul\":1737:1854   */\n      pop\n        /* \"#utility.yul\":1532:1861   */\n      swap3\n      swap2\n      pop\n      pop\n      jump\t// out\n        /* \"#utility.yul\":1867:1985   */\n    tag_250:\n        /* \"#utility.yul\":1954:1978   */\n      tag_314\n        /* \"#utility.yul\":1972:1977   */\n      dup2\n        /* \"#utility.yul\":1954:1978   */\n      tag_243\n      jump\t// in\n    tag_314:\n        /* \"#utility.yul\":1949:1952   */\n      dup3\n        /* \"#utility.yul\":1942:1979   */\n      mstore\n        /* \"#utility.yul\":1867:1985   */\n      pop\n      pop\n      jump\t// out\n        /* \"#utility.yul\":1991:2213   */\n    tag_44:\n        /* \"#utility.yul\":2084:2088   */\n      0x00\n        /* \"#utility.yul\":2122:2124   */\n      0x20\n        /* \"#utility.yul\":2111:2120   */\n      dup3\n        /* \"#utility.yul\":2107:2125   */\n      add\n        /* \"#utility.yul\":2099:2125   */\n      swap1\n      pop\n        /* \"#utility.yul\":2135:2206   */\n      tag_316\n        /* \"#utility.yul\":2203:2204   */\n      0x00\n        /* \"#utility.yul\":2192:2201   */\n      dup4\n        /* \"#utility.yul\":2188:2205   */\n      add\n        /* \"#utility.yul\":2179:2185   */\n      dup5\n        /* \"#utility.yul\":2135:2206   */\n      tag_250\n      jump\t// in\n    tag_316:\n        /* \"#utility.yul\":1991:2213   */\n      swap3\n      swap2\n      pop\n      pop\n      jump\t// out\n        /* \"#utility.yul\":2219:2337   */\n    tag_251:\n        /* \"#utility.yul\":2306:2330   */\n      tag_318\n        /* \"#utility.yul\":2324:2329   */\n      dup2\n        /* \"#utility.yul\":2306:2330   */\n      tag_247\n      jump\t// in\n    tag_318:\n        /* \"#utility.yul\":2301:2304   */\n      dup3\n        /* \"#utility.yul\":2294:2331   */\n      mstore\n        /* \"#utility.yul\":2219:2337   */\n      pop\n      pop\n      jump\t// out\n        /* \"#utility.yul\":2343:2565   */\n    tag_49:\n        /* \"#utility.yul\":2436:2440   */\n      0x00\n        /* \"#utility.yul\":2474:2476   */\n      0x20\n        /* \"#utility.yul\":2463:2472   */\n      dup3\n        /* \"#utility.yul\":2459:2477   */\n      add\n        /* \"#utility.yul\":2451:2477   */\n      swap1\n      pop\n        /* \"#utility.yul\":2487:2558   */\n      tag_320\n        /* \"#utility.yul\":2555:2556   */\n      0x00\n        /* \"#utility.yul\":2544:2553   */\n      dup4\n        /* \"#utility.yul\":2540:2557   */\n      add\n        /* \"#utility.yul\":2531:2537   */\n      dup5\n        /* \"#utility.yul\":2487:2558   */\n      tag_251\n      jump\t// in\n    tag_320:\n        /* \"#utility.yul\":2343:2565   */\n      swap3\n      swap2\n      pop\n      pop\n      jump\t// out\n        /* \"#utility.yul\":2571:3045   */\n    tag_53:\n        /* \"#utility.yul\":2639:2645   */\n      0x00\n        /* \"#utility.yul\":2647:2653   */\n      dup1\n        /* \"#utility.yul\":2696:2698   */\n      0x40\n        /* \"#utility.yul\":2684:2693   */\n      dup4\n        /* \"#utility.yul\":2675:2682   */\n      dup6\n        /* \"#utility.yul\":2671:2694   */\n      sub\n        /* \"#utility.yul\":2667:2699   */\n      slt\n        /* \"#utility.yul\":2664:2783   */\n      iszero\n      tag_322\n      jumpi\n        /* \"#utility.yul\":2702:2781   */\n      tag_323\n      tag_241\n      jump\t// in\n    tag_323:\n        /* \"#utility.yul\":2664:2783   */\n    tag_322:\n        /* \"#utility.yul\":2822:2823   */\n      0x00\n        /* \"#utility.yul\":2847:2900   */\n      tag_324\n        /* \"#utility.yul\":2892:2899   */\n      dup6\n        /* \"#utility.yul\":2883:2889   */\n      dup3\n        /* \"#utility.yul\":2872:2881   */\n      dup7\n        /* \"#utility.yul\":2868:2890   */\n      add\n        /* \"#utility.yul\":2847:2900   */\n      tag_249\n      jump\t// in\n    tag_324:\n        /* \"#utility.yul\":2837:2900   */\n      swap3\n      pop\n        /* \"#utility.yul\":2793:2910   */\n      pop\n        /* \"#utility.yul\":2949:2951   */\n      0x20\n        /* \"#utility.yul\":2975:3028   */\n      tag_325\n        /* \"#utility.yul\":3020:3027   */\n      dup6\n        /* \"#utility.yul\":3011:3017   */\n      dup3\n        /* \"#utility.yul\":3000:3009   */\n      dup7\n        /* \"#utility.yul\":2996:3018   */\n      add\n        /* \"#utility.yul\":2975:3028   */\n      tag_245\n      jump\t// in\n    tag_325:\n        /* \"#utility.yul\":2965:3028   */\n      swap2\n      pop\n        /* \"#utility.yul\":2920:3038   */\n      pop\n        /* \"#utility.yul\":2571:3045   */\n      swap3\n      pop\n      swap3\n      swap1\n      pop\n      jump\t// out\n        /* \"#utility.yul\":3051:3220   */\n    tag_252:\n        /* \"#utility.yul\":3135:3146   */\n      0x00\n        /* \"#utility.yul\":3169:3175   */\n      dup3\n        /* \"#utility.yul\":3164:3167   */\n      dup3\n        /* \"#utility.yul\":3157:3176   */\n      mstore\n        /* \"#utility.yul\":3209:3213   */\n      0x20\n        /* \"#utility.yul\":3204:3207   */\n      dup3\n        /* \"#utility.yul\":3200:3214   */\n      add\n        /* \"#utility.yul\":3185:3214   */\n      swap1\n      pop\n        /* \"#utility.yul\":3051:3220   */\n      swap3\n      swap2\n      pop\n      pop\n      jump\t// out\n        /* \"#utility.yul\":3226:3404   */\n    tag_253:\n        /* \"#utility.yul\":3366:3396   */\n      0x496e73756666696369656e7420455448206f6e20436f6e747261637400000000\n        /* \"#utility.yul\":3362:3363   */\n      0x00\n        /* \"#utility.yul\":3354:3360   */\n      dup3\n        /* \"#utility.yul\":3350:3364   */\n      add\n        /* \"#utility.yul\":3343:3397   */\n      mstore\n        /* \"#utility.yul\":3226:3404   */\n      pop\n      jump\t// out\n        /* \"#utility.yul\":3410:3776   */\n    tag_254:\n        /* \"#utility.yul\":3552:3555   */\n      0x00\n        /* \"#utility.yul\":3573:3640   */\n      tag_329\n        /* \"#utility.yul\":3637:3639   */\n      0x1c\n        /* \"#utility.yul\":3632:3635   */\n      dup4\n        /* \"#utility.yul\":3573:3640   */\n      tag_252\n      jump\t// in\n    tag_329:\n        /* \"#utility.yul\":3566:3640   */\n      swap2\n      pop\n        /* \"#utility.yul\":3649:3742   */\n      tag_330\n        /* \"#utility.yul\":3738:3741   */\n      dup3\n        /* \"#utility.yul\":3649:3742   */\n      tag_253\n      jump\t// in\n    tag_330:\n        /* \"#utility.yul\":3767:3769   */\n      0x20\n        /* \"#utility.yul\":3762:3765   */\n      dup3\n        /* \"#utility.yul\":3758:3770   */\n      add\n        /* \"#utility.yul\":3751:3770   */\n      swap1\n      pop\n        /* \"#utility.yul\":3410:3776   */\n      swap2\n      swap1\n      pop\n      jump\t// out\n        /* \"#utility.yul\":3782:4201   */\n    tag_94:\n        /* \"#utility.yul\":3948:3952   */\n      0x00\n        /* \"#utility.yul\":3986:3988   */\n      0x20\n        /* \"#utility.yul\":3975:3984   */\n      dup3\n        /* \"#utility.yul\":3971:3989   */\n      add\n        /* \"#utility.yul\":3963:3989   */\n      swap1\n      pop\n        /* \"#utility.yul\":4035:4044   */\n      dup2\n        /* \"#utility.yul\":4029:4033   */\n      dup2\n        /* \"#utility.yul\":4025:4045   */\n      sub\n        /* \"#utility.yul\":4021:4022   */\n      0x00\n        /* \"#utility.yul\":4010:4019   */\n      dup4\n        /* \"#utility.yul\":4006:4023   */\n      add\n        /* \"#utility.yul\":3999:4046   */\n      mstore\n        /* \"#utility.yul\":4063:4194   */\n      tag_332\n        /* \"#utility.yul\":4189:4193   */\n      dup2\n        /* \"#utility.yul\":4063:4194   */\n      tag_254\n      jump\t// in\n    tag_332:\n        /* \"#utility.yul\":4055:4194   */\n      swap1\n      pop\n        /* \"#utility.yul\":3782:4201   */\n      swap2\n      swap1\n      pop\n      jump\t// out\n        /* \"#utility.yul\":4207:4387   */\n    tag_255:\n        /* \"#utility.yul\":4255:4332   */\n      0x4e487b7100000000000000000000000000000000000000000000000000000000\n        /* \"#utility.yul\":4252:4253   */\n      0x00\n        /* \"#utility.yul\":4245:4333   */\n      mstore\n        /* \"#utility.yul\":4352:4356   */\n      0x11\n        /* \"#utility.yul\":4349:4350   */\n      0x04\n        /* \"#utility.yul\":4342:4357   */\n      mstore\n        /* \"#utility.yul\":4376:4380   */\n      0x24\n        /* \"#utility.yul\":4373:4374   */\n      0x00\n        /* \"#utility.yul\":4366:4381   */\n      revert\n        /* \"#utility.yul\":4393:4803   */\n    tag_96:\n        /* \"#utility.yul\":4433:4440   */\n      0x00\n        /* \"#utility.yul\":4456:4476   */\n      tag_335\n        /* \"#utility.yul\":4474:4475   */\n      dup3\n        /* \"#utility.yul\":4456:4476   */\n      tag_243\n      jump\t// in\n    tag_335:\n        /* \"#utility.yul\":4451:4476   */\n      swap2\n      pop\n        /* \"#utility.yul\":4490:4510   */\n      tag_336\n        /* \"#utility.yul\":4508:4509   */\n      dup4\n        /* \"#utility.yul\":4490:4510   */\n      tag_243\n      jump\t// in\n    tag_336:\n        /* \"#utility.yul\":4485:4510   */\n      swap3\n      pop\n        /* \"#utility.yul\":4545:4546   */\n      dup3\n        /* \"#utility.yul\":4542:4543   */\n      dup3\n        /* \"#utility.yul\":4538:4547   */\n      mul\n        /* \"#utility.yul\":4567:4597   */\n      tag_337\n        /* \"#utility.yul\":4585:4596   */\n      dup2\n        /* \"#utility.yul\":4567:4597   */\n      tag_243\n      jump\t// in\n    tag_337:\n        /* \"#utility.yul\":4556:4597   */\n      swap2\n      pop\n        /* \"#utility.yul\":4746:4747   */\n      dup3\n        /* \"#utility.yul\":4737:4744   */\n      dup3\n        /* \"#utility.yul\":4733:4748   */\n      div\n        /* \"#utility.yul\":4730:4731   */\n      dup5\n        /* \"#utility.yul\":4727:4749   */\n      eq\n        /* \"#utility.yul\":4707:4708   */\n      dup4\n        /* \"#utility.yul\":4700:4709   */\n      iszero\n        /* \"#utility.yul\":4680:4763   */\n      or\n        /* \"#utility.yul\":4657:4796   */\n      tag_338\n      jumpi\n        /* \"#utility.yul\":4776:4794   */\n      tag_339\n      tag_255\n      jump\t// in\n    tag_339:\n        /* \"#utility.yul\":4657:4796   */\n    tag_338:\n        /* \"#utility.yul\":4441:4803   */\n      pop\n        /* \"#utility.yul\":4393:4803   */\n      swap3\n      swap2\n      pop\n      pop\n      jump\t// out\n        /* \"#utility.yul\":4809:4989   */\n    tag_256:\n        /* \"#utility.yul\":4857:4934   */\n      0x4e487b7100000000000000000000000000000000000000000000000000000000\n        /* \"#utility.yul\":4854:4855   */\n      0x00\n        /* \"#utility.yul\":4847:4935   */\n      mstore\n        /* \"#utility.yul\":4954:4958   */\n      0x12\n        /* \"#utility.yul\":4951:4952   */\n      0x04\n        /* \"#utility.yul\":4944:4959   */\n      mstore\n        /* \"#utility.yul\":4978:4982   */\n      0x24\n        /* \"#utility.yul\":4975:4976   */\n      0x00\n        /* \"#utility.yul\":4968:4983   */\n      revert\n        /* \"#utility.yul\":4995:5180   */\n    tag_98:\n        /* \"#utility.yul\":5035:5036   */\n      0x00\n        /* \"#utility.yul\":5052:5072   */\n      tag_342\n        /* \"#utility.yul\":5070:5071   */\n      dup3\n        /* \"#utility.yul\":5052:5072   */\n      tag_243\n      jump\t// in\n    tag_342:\n        /* \"#utility.yul\":5047:5072   */\n      swap2\n      pop\n        /* \"#utility.yul\":5086:5106   */\n      tag_343\n        /* \"#utility.yul\":5104:5105   */\n      dup4\n        /* \"#utility.yul\":5086:5106   */\n      tag_243\n      jump\t// in\n    tag_343:\n        /* \"#utility.yul\":5081:5106   */\n      swap3\n      pop\n        /* \"#utility.yul\":5125:5126   */\n      dup3\n        /* \"#utility.yul\":5115:5150   */\n      tag_344\n      jumpi\n        /* \"#utility.yul\":5130:5148   */\n      tag_345\n      tag_256\n      jump\t// in\n    tag_345:\n        /* \"#utility.yul\":5115:5150   */\n    tag_344:\n        /* \"#utility.yul\":5172:5173   */\n      dup3\n        /* \"#utility.yul\":5169:5170   */\n      dup3\n        /* \"#utility.yul\":5165:5174   */\n      div\n        /* \"#utility.yul\":5160:5174   */\n      swap1\n      pop\n        /* \"#utility.yul\":4995:5180   */\n      swap3\n      swap2\n      pop\n      pop\n      jump\t// out\n        /* \"#utility.yul\":5186:5366   */\n    tag_107:\n        /* \"#utility.yul\":5234:5311   */\n      0x4e487b7100000000000000000000000000000000000000000000000000000000\n        /* \"#utility.yul\":5231:5232   */\n      0x00\n        /* \"#utility.yul\":5224:5312   */\n      mstore\n        /* \"#utility.yul\":5331:5335   */\n      0x32\n        /* \"#utility.yul\":5328:5329   */\n      0x04\n        /* \"#utility.yul\":5321:5336   */\n      mstore\n        /* \"#utility.yul\":5355:5359   */\n      0x24\n        /* \"#utility.yul\":5352:5353   */\n      0x00\n        /* \"#utility.yul\":5345:5360   */\n      revert\n        /* \"#utility.yul\":5372:5515   */\n    tag_257:\n        /* \"#utility.yul\":5429:5434   */\n      0x00\n        /* \"#utility.yul\":5460:5466   */\n      dup2\n        /* \"#utility.yul\":5454:5467   */\n      mload\n        /* \"#utility.yul\":5445:5467   */\n      swap1\n      pop\n        /* \"#utility.yul\":5476:5509   */\n      tag_348\n        /* \"#utility.yul\":5503:5508   */\n      dup2\n        /* \"#utility.yul\":5476:5509   */\n      tag_244\n      jump\t// in\n    tag_348:\n        /* \"#utility.yul\":5372:5515   */\n      swap3\n      swap2\n      pop\n      pop\n      jump\t// out\n        /* \"#utility.yul\":5521:5872   */\n    tag_126:\n        /* \"#utility.yul\":5591:5597   */\n      0x00\n        /* \"#utility.yul\":5640:5642   */\n      0x20\n        /* \"#utility.yul\":5628:5637   */\n      dup3\n        /* \"#utility.yul\":5619:5626   */\n      dup5\n        /* \"#utility.yul\":5615:5638   */\n      sub\n        /* \"#utility.yul\":5611:5643   */\n      slt\n        /* \"#utility.yul\":5608:5727   */\n      iszero\n      tag_350\n      jumpi\n        /* \"#utility.yul\":5646:5725   */\n      tag_351\n      tag_241\n      jump\t// in\n    tag_351:\n        /* \"#utility.yul\":5608:5727   */\n    tag_350:\n        /* \"#utility.yul\":5766:5767   */\n      0x00\n        /* \"#utility.yul\":5791:5855   */\n      tag_352\n        /* \"#utility.yul\":5847:5854   */\n      dup5\n        /* \"#utility.yul\":5838:5844   */\n      dup3\n        /* \"#utility.yul\":5827:5836   */\n      dup6\n        /* \"#utility.yul\":5823:5845   */\n      add\n        /* \"#utility.yul\":5791:5855   */\n      tag_257\n      jump\t// in\n    tag_352:\n        /* \"#utility.yul\":5781:5855   */\n      swap2\n      pop\n        /* \"#utility.yul\":5737:5865   */\n      pop\n        /* \"#utility.yul\":5521:5872   */\n      swap3\n      swap2\n      pop\n      pop\n      jump\t// out\n        /* \"#utility.yul\":5878:6210   */\n    tag_132:\n        /* \"#utility.yul\":5999:6003   */\n      0x00\n        /* \"#utility.yul\":6037:6039   */\n      0x40\n        /* \"#utility.yul\":6026:6035   */\n      dup3\n        /* \"#utility.yul\":6022:6040   */\n      add\n        /* \"#utility.yul\":6014:6040   */\n      swap1\n      pop\n        /* \"#utility.yul\":6050:6121   */\n      tag_354\n        /* \"#utility.yul\":6118:6119   */\n      0x00\n        /* \"#utility.yul\":6107:6116   */\n      dup4\n        /* \"#utility.yul\":6103:6120   */\n      add\n        /* \"#utility.yul\":6094:6100   */\n      dup6\n        /* \"#utility.yul\":6050:6121   */\n      tag_251\n      jump\t// in\n    tag_354:\n        /* \"#utility.yul\":6131:6203   */\n      tag_355\n        /* \"#utility.yul\":6199:6201   */\n      0x20\n        /* \"#utility.yul\":6188:6197   */\n      dup4\n        /* \"#utility.yul\":6184:6202   */\n      add\n        /* \"#utility.yul\":6175:6181   */\n      dup5\n        /* \"#utility.yul\":6131:6203   */\n      tag_250\n      jump\t// in\n    tag_355:\n        /* \"#utility.yul\":5878:6210   */\n      swap4\n      swap3\n      pop\n      pop\n      pop\n      jump\t// out\n        /* \"#utility.yul\":6216:6306   */\n    tag_258:\n        /* \"#utility.yul\":6250:6257   */\n      0x00\n        /* \"#utility.yul\":6293:6298   */\n      dup2\n        /* \"#utility.yul\":6286:6299   */\n      iszero\n        /* \"#utility.yul\":6279:6300   */\n      iszero\n        /* \"#utility.yul\":6268:6300   */\n      swap1\n      pop\n        /* \"#utility.yul\":6216:6306   */\n      swap2\n      swap1\n      pop\n      jump\t// out\n        /* \"#utility.yul\":6312:6428   */\n    tag_259:\n        /* \"#utility.yul\":6382:6403   */\n      tag_358\n        /* \"#utility.yul\":6397:6402   */\n      dup2\n        /* \"#utility.yul\":6382:6403   */\n      tag_258\n      jump\t// in\n    tag_358:\n        /* \"#utility.yul\":6375:6380   */\n      dup2\n        /* \"#utility.yul\":6372:6404   */\n      eq\n        /* \"#utility.yul\":6362:6422   */\n      tag_359\n      jumpi\n        /* \"#utility.yul\":6418:6419   */\n      0x00\n        /* \"#utility.yul\":6415:6416   */\n      dup1\n        /* \"#utility.yul\":6408:6420   */\n      revert\n        /* \"#utility.yul\":6362:6422   */\n    tag_359:\n        /* \"#utility.yul\":6312:6428   */\n      pop\n      jump\t// out\n        /* \"#utility.yul\":6434:6571   */\n    tag_260:\n        /* \"#utility.yul\":6488:6493   */\n      0x00\n        /* \"#utility.yul\":6519:6525   */\n      dup2\n        /* \"#utility.yul\":6513:6526   */\n      mload\n        /* \"#utility.yul\":6504:6526   */\n      swap1\n      pop\n        /* \"#utility.yul\":6535:6565   */\n      tag_361\n        /* \"#utility.yul\":6559:6564   */\n      dup2\n        /* \"#utility.yul\":6535:6565   */\n      tag_259\n      jump\t// in\n    tag_361:\n        /* \"#utility.yul\":6434:6571   */\n      swap3\n      swap2\n      pop\n      pop\n      jump\t// out\n        /* \"#utility.yul\":6577:6922   */\n    tag_136:\n        /* \"#utility.yul\":6644:6650   */\n      0x00\n        /* \"#utility.yul\":6693:6695   */\n      0x20\n        /* \"#utility.yul\":6681:6690   */\n      dup3\n        /* \"#utility.yul\":6672:6679   */\n      dup5\n        /* \"#utility.yul\":6668:6691   */\n      sub\n        /* \"#utility.yul\":6664:6696   */\n      slt\n        /* \"#utility.yul\":6661:6780   */\n      iszero\n      tag_363\n      jumpi\n        /* \"#utility.yul\":6699:6778   */\n      tag_364\n      tag_241\n      jump\t// in\n    tag_364:\n        /* \"#utility.yul\":6661:6780   */\n    tag_363:\n        /* \"#utility.yul\":6819:6820   */\n      0x00\n        /* \"#utility.yul\":6844:6905   */\n      tag_365\n        /* \"#utility.yul\":6897:6904   */\n      dup5\n        /* \"#utility.yul\":6888:6894   */\n      dup3\n        /* \"#utility.yul\":6877:6886   */\n      dup6\n        /* \"#utility.yul\":6873:6895   */\n      add\n        /* \"#utility.yul\":6844:6905   */\n      tag_260\n      jump\t// in\n    tag_365:\n        /* \"#utility.yul\":6834:6905   */\n      swap2\n      pop\n        /* \"#utility.yul\":6790:6915   */\n      pop\n        /* \"#utility.yul\":6577:6922   */\n      swap3\n      swap2\n      pop\n      pop\n      jump\t// out\n        /* \"#utility.yul\":6928:7100   */\n    tag_261:\n        /* \"#utility.yul\":7068:7092   */\n      0x4e6f2062616c616e636520746f20776974686472617700000000000000000000\n        /* \"#utility.yul\":7064:7065   */\n      0x00\n        /* \"#utility.yul\":7056:7062   */\n      dup3\n        /* \"#utility.yul\":7052:7066   */\n      add\n        /* \"#utility.yul\":7045:7093   */\n      mstore\n        /* \"#utility.yul\":6928:7100   */\n      pop\n      jump\t// out\n        /* \"#utility.yul\":7106:7472   */\n    tag_262:\n        /* \"#utility.yul\":7248:7251   */\n      0x00\n        /* \"#utility.yul\":7269:7336   */\n      tag_368\n        /* \"#utility.yul\":7333:7335   */\n      0x16\n        /* \"#utility.yul\":7328:7331   */\n      dup4\n        /* \"#utility.yul\":7269:7336   */\n      tag_252\n      jump\t// in\n    tag_368:\n        /* \"#utility.yul\":7262:7336   */\n      swap2\n      pop\n        /* \"#utility.yul\":7345:7438   */\n      tag_369\n        /* \"#utility.yul\":7434:7437   */\n      dup3\n        /* \"#utility.yul\":7345:7438   */\n      tag_261\n      jump\t// in\n    tag_369:\n        /* \"#utility.yul\":7463:7465   */\n      0x20\n        /* \"#utility.yul\":7458:7461   */\n      dup3\n        /* \"#utility.yul\":7454:7466   */\n      add\n        /* \"#utility.yul\":7447:7466   */\n      swap1\n      pop\n        /* \"#utility.yul\":7106:7472   */\n      swap2\n      swap1\n      pop\n      jump\t// out\n        /* \"#utility.yul\":7478:7897   */\n    tag_150:\n        /* \"#utility.yul\":7644:7648   */\n      0x00\n        /* \"#utility.yul\":7682:7684   */\n      0x20\n        /* \"#utility.yul\":7671:7680   */\n      dup3\n        /* \"#utility.yul\":7667:7685   */\n      add\n        /* \"#utility.yul\":7659:7685   */\n      swap1\n      pop\n        /* \"#utility.yul\":7731:7740   */\n      dup2\n        /* \"#utility.yul\":7725:7729   */\n      dup2\n        /* \"#utility.yul\":7721:7741   */\n      sub\n        /* \"#utility.yul\":7717:7718   */\n      0x00\n        /* \"#utility.yul\":7706:7715   */\n      dup4\n        /* \"#utility.yul\":7702:7719   */\n      add\n        /* \"#utility.yul\":7695:7742   */\n      mstore\n        /* \"#utility.yul\":7759:7890   */\n      tag_371\n        /* \"#utility.yul\":7885:7889   */\n      dup2\n        /* \"#utility.yul\":7759:7890   */\n      tag_262\n      jump\t// in\n    tag_371:\n        /* \"#utility.yul\":7751:7890   */\n      swap1\n      pop\n        /* \"#utility.yul\":7478:7897   */\n      swap2\n      swap1\n      pop\n      jump\t// out\n        /* \"#utility.yul\":7903:8082   */\n    tag_263:\n        /* \"#utility.yul\":8043:8074   */\n      0x496e73756666696369656e7420636f6e74726163742062616c616e6365000000\n        /* \"#utility.yul\":8039:8040   */\n      0x00\n        /* \"#utility.yul\":8031:8037   */\n      dup3\n        /* \"#utility.yul\":8027:8041   */\n      add\n        /* \"#utility.yul\":8020:8075   */\n      mstore\n        /* \"#utility.yul\":7903:8082   */\n      pop\n      jump\t// out\n        /* \"#utility.yul\":8088:8454   */\n    tag_264:\n        /* \"#utility.yul\":8230:8233   */\n      0x00\n        /* \"#utility.yul\":8251:8318   */\n      tag_374\n        /* \"#utility.yul\":8315:8317   */\n      0x1d\n        /* \"#utility.yul\":8310:8313   */\n      dup4\n        /* \"#utility.yul\":8251:8318   */\n      tag_252\n      jump\t// in\n    tag_374:\n        /* \"#utility.yul\":8244:8318   */\n      swap2\n      pop\n        /* \"#utility.yul\":8327:8420   */\n      tag_375\n        /* \"#utility.yul\":8416:8419   */\n      dup3\n        /* \"#utility.yul\":8327:8420   */\n      tag_263\n      jump\t// in\n    tag_375:\n        /* \"#utility.yul\":8445:8447   */\n      0x20\n        /* \"#utility.yul\":8440:8443   */\n      dup3\n        /* \"#utility.yul\":8436:8448   */\n      add\n        /* \"#utility.yul\":8429:8448   */\n      swap1\n      pop\n        /* \"#utility.yul\":8088:8454   */\n      swap2\n      swap1\n      pop\n      jump\t// out\n        /* \"#utility.yul\":8460:8879   */\n    tag_164:\n        /* \"#utility.yul\":8626:8630   */\n      0x00\n        /* \"#utility.yul\":8664:8666   */\n      0x20\n        /* \"#utility.yul\":8653:8662   */\n      dup3\n        /* \"#utility.yul\":8649:8667   */\n      add\n        /* \"#utility.yul\":8641:8667   */\n      swap1\n      pop\n        /* \"#utility.yul\":8713:8722   */\n      dup2\n        /* \"#utility.yul\":8707:8711   */\n      dup2\n        /* \"#utility.yul\":8703:8723   */\n      sub\n        /* \"#utility.yul\":8699:8700   */\n      0x00\n        /* \"#utility.yul\":8688:8697   */\n      dup4\n        /* \"#utility.yul\":8684:8701   */\n      add\n        /* \"#utility.yul\":8677:8724   */\n      mstore\n        /* \"#utility.yul\":8741:8872   */\n      tag_377\n        /* \"#utility.yul\":8867:8871   */\n      dup2\n        /* \"#utility.yul\":8741:8872   */\n      tag_264\n      jump\t// in\n    tag_377:\n        /* \"#utility.yul\":8733:8872   */\n      swap1\n      pop\n        /* \"#utility.yul\":8460:8879   */\n      swap2\n      swap1\n      pop\n      jump\t// out\n        /* \"#utility.yul\":8885:9112   */\n    tag_265:\n        /* \"#utility.yul\":9025:9059   */\n      0x4465706f73697420616d6f756e74206d757374206265206174206c6561737420\n        /* \"#utility.yul\":9021:9022   */\n      0x00\n        /* \"#utility.yul\":9013:9019   */\n      dup3\n        /* \"#utility.yul\":9009:9023   */\n      add\n        /* \"#utility.yul\":9002:9060   */\n      mstore\n        /* \"#utility.yul\":9094:9104   */\n      0x302e333520455448000000000000000000000000000000000000000000000000\n        /* \"#utility.yul\":9089:9091   */\n      0x20\n        /* \"#utility.yul\":9081:9087   */\n      dup3\n        /* \"#utility.yul\":9077:9092   */\n      add\n        /* \"#utility.yul\":9070:9105   */\n      mstore\n        /* \"#utility.yul\":8885:9112   */\n      pop\n      jump\t// out\n        /* \"#utility.yul\":9118:9484   */\n    tag_266:\n        /* \"#utility.yul\":9260:9263   */\n      0x00\n        /* \"#utility.yul\":9281:9348   */\n      tag_380\n        /* \"#utility.yul\":9345:9347   */\n      0x28\n        /* \"#utility.yul\":9340:9343   */\n      dup4\n        /* \"#utility.yul\":9281:9348   */\n      tag_252\n      jump\t// in\n    tag_380:\n        /* \"#utility.yul\":9274:9348   */\n      swap2\n      pop\n        /* \"#utility.yul\":9357:9450   */\n      tag_381\n        /* \"#utility.yul\":9446:9449   */\n      dup3\n        /* \"#utility.yul\":9357:9450   */\n      tag_265\n      jump\t// in\n    tag_381:\n        /* \"#utility.yul\":9475:9477   */\n      0x40\n        /* \"#utility.yul\":9470:9473   */\n      dup3\n        /* \"#utility.yul\":9466:9478   */\n      add\n        /* \"#utility.yul\":9459:9478   */\n      swap1\n      pop\n        /* \"#utility.yul\":9118:9484   */\n      swap2\n      swap1\n      pop\n      jump\t// out\n        /* \"#utility.yul\":9490:9909   */\n    tag_189:\n        /* \"#utility.yul\":9656:9660   */\n      0x00\n        /* \"#utility.yul\":9694:9696   */\n      0x20\n        /* \"#utility.yul\":9683:9692   */\n      dup3\n        /* \"#utility.yul\":9679:9697   */\n      add\n        /* \"#utility.yul\":9671:9697   */\n      swap1\n      pop\n        /* \"#utility.yul\":9743:9752   */\n      dup2\n        /* \"#utility.yul\":9737:9741   */\n      dup2\n        /* \"#utility.yul\":9733:9753   */\n      sub\n        /* \"#utility.yul\":9729:9730   */\n      0x00\n        /* \"#utility.yul\":9718:9727   */\n      dup4\n        /* \"#utility.yul\":9714:9731   */\n      add\n        /* \"#utility.yul\":9707:9754   */\n      mstore\n        /* \"#utility.yul\":9771:9902   */\n      tag_383\n        /* \"#utility.yul\":9897:9901   */\n      dup2\n        /* \"#utility.yul\":9771:9902   */\n      tag_266\n      jump\t// in\n    tag_383:\n        /* \"#utility.yul\":9763:9902   */\n      swap1\n      pop\n        /* \"#utility.yul\":9490:9909   */\n      swap2\n      swap1\n      pop\n      jump\t// out\n        /* \"#utility.yul\":9915:10140   */\n    tag_267:\n        /* \"#utility.yul\":10055:10089   */\n      0x4f776e61626c653a206e6577206f776e657220697320746865207a65726f2061\n        /* \"#utility.yul\":10051:10052   */\n      0x00\n        /* \"#utility.yul\":10043:10049   */\n      dup3\n        /* \"#utility.yul\":10039:10053   */\n      add\n        /* \"#utility.yul\":10032:10090   */\n      mstore\n        /* \"#utility.yul\":10124:10132   */\n      0x6464726573730000000000000000000000000000000000000000000000000000\n        /* \"#utility.yul\":10119:10121   */\n      0x20\n        /* \"#utility.yul\":10111:10117   */\n      dup3\n        /* \"#utility.yul\":10107:10122   */\n      add\n        /* \"#utility.yul\":10100:10133   */\n      mstore\n        /* \"#utility.yul\":9915:10140   */\n      pop\n      jump\t// out\n        /* \"#utility.yul\":10146:10512   */\n    tag_268:\n        /* \"#utility.yul\":10288:10291   */\n      0x00\n        /* \"#utility.yul\":10309:10376   */\n      tag_386\n        /* \"#utility.yul\":10373:10375   */\n      0x26\n        /* \"#utility.yul\":10368:10371   */\n      dup4\n        /* \"#utility.yul\":10309:10376   */\n      tag_252\n      jump\t// in\n    tag_386:\n        /* \"#utility.yul\":10302:10376   */\n      swap2\n      pop\n        /* \"#utility.yul\":10385:10478   */\n      tag_387\n        /* \"#utility.yul\":10474:10477   */\n      dup3\n        /* \"#utility.yul\":10385:10478   */\n      tag_267\n      jump\t// in\n    tag_387:\n        /* \"#utility.yul\":10503:10505   */\n      0x40\n        /* \"#utility.yul\":10498:10501   */\n      dup3\n        /* \"#utility.yul\":10494:10506   */\n      add\n        /* \"#utility.yul\":10487:10506   */\n      swap1\n      pop\n        /* \"#utility.yul\":10146:10512   */\n      swap2\n      swap1\n      pop\n      jump\t// out\n        /* \"#utility.yul\":10518:10937   */\n    tag_196:\n        /* \"#utility.yul\":10684:10688   */\n      0x00\n        /* \"#utility.yul\":10722:10724   */\n      0x20\n        /* \"#utility.yul\":10711:10720   */\n      dup3\n        /* \"#utility.yul\":10707:10725   */\n      add\n        /* \"#utility.yul\":10699:10725   */\n      swap1\n      pop\n        /* \"#utility.yul\":10771:10780   */\n      dup2\n        /* \"#utility.yul\":10765:10769   */\n      dup2\n        /* \"#utility.yul\":10761:10781   */\n      sub\n        /* \"#utility.yul\":10757:10758   */\n      0x00\n        /* \"#utility.yul\":10746:10755   */\n      dup4\n        /* \"#utility.yul\":10742:10759   */\n      add\n        /* \"#utility.yul\":10735:10782   */\n      mstore\n        /* \"#utility.yul\":10799:10930   */\n      tag_389\n        /* \"#utility.yul\":10925:10929   */\n      dup2\n        /* \"#utility.yul\":10799:10930   */\n      tag_268\n      jump\t// in\n    tag_389:\n        /* \"#utility.yul\":10791:10930   */\n      swap1\n      pop\n        /* \"#utility.yul\":10518:10937   */\n      swap2\n      swap1\n      pop\n      jump\t// out\n        /* \"#utility.yul\":10943:11022   */\n    tag_269:\n        /* \"#utility.yul\":10982:10989   */\n      0x00\n        /* \"#utility.yul\":11011:11016   */\n      dup2\n        /* \"#utility.yul\":11000:11016   */\n      swap1\n      pop\n        /* \"#utility.yul\":10943:11022   */\n      swap2\n      swap1\n      pop\n      jump\t// out\n        /* \"#utility.yul\":11028:11185   */\n    tag_270:\n        /* \"#utility.yul\":11133:11178   */\n      tag_392\n        /* \"#utility.yul\":11153:11177   */\n      tag_393\n        /* \"#utility.yul\":11171:11176   */\n      dup3\n        /* \"#utility.yul\":11153:11177   */\n      tag_243\n      jump\t// in\n    tag_393:\n        /* \"#utility.yul\":11133:11178   */\n      tag_269\n      jump\t// in\n    tag_392:\n        /* \"#utility.yul\":11128:11131   */\n      dup3\n        /* \"#utility.yul\":11121:11179   */\n      mstore\n        /* \"#utility.yul\":11028:11185   */\n      pop\n      pop\n      jump\t// out\n        /* \"#utility.yul\":11191:11729   */\n    tag_201:\n        /* \"#utility.yul\":11359:11362   */\n      0x00\n        /* \"#utility.yul\":11374:11449   */\n      tag_395\n        /* \"#utility.yul\":11445:11448   */\n      dup3\n        /* \"#utility.yul\":11436:11442   */\n      dup7\n        /* \"#utility.yul\":11374:11449   */\n      tag_270\n      jump\t// in\n    tag_395:\n        /* \"#utility.yul\":11474:11476   */\n      0x20\n        /* \"#utility.yul\":11469:11472   */\n      dup3\n        /* \"#utility.yul\":11465:11477   */\n      add\n        /* \"#utility.yul\":11458:11477   */\n      swap2\n      pop\n        /* \"#utility.yul\":11487:11562   */\n      tag_396\n        /* \"#utility.yul\":11558:11561   */\n      dup3\n        /* \"#utility.yul\":11549:11555   */\n      dup6\n        /* \"#utility.yul\":11487:11562   */\n      tag_270\n      jump\t// in\n    tag_396:\n        /* \"#utility.yul\":11587:11589   */\n      0x20\n        /* \"#utility.yul\":11582:11585   */\n      dup3\n        /* \"#utility.yul\":11578:11590   */\n      add\n        /* \"#utility.yul\":11571:11590   */\n      swap2\n      pop\n        /* \"#utility.yul\":11600:11675   */\n      tag_397\n        /* \"#utility.yul\":11671:11674   */\n      dup3\n        /* \"#utility.yul\":11662:11668   */\n      dup5\n        /* \"#utility.yul\":11600:11675   */\n      tag_270\n      jump\t// in\n    tag_397:\n        /* \"#utility.yul\":11700:11702   */\n      0x20\n        /* \"#utility.yul\":11695:11698   */\n      dup3\n        /* \"#utility.yul\":11691:11703   */\n      add\n        /* \"#utility.yul\":11684:11703   */\n      swap2\n      pop\n        /* \"#utility.yul\":11720:11723   */\n      dup2\n        /* \"#utility.yul\":11713:11723   */\n      swap1\n      pop\n        /* \"#utility.yul\":11191:11729   */\n      swap5\n      swap4\n      pop\n      pop\n      pop\n      pop\n      jump\t// out\n        /* \"#utility.yul\":11735:11911   */\n    tag_203:\n        /* \"#utility.yul\":11767:11768   */\n      0x00\n        /* \"#utility.yul\":11784:11804   */\n      tag_399\n        /* \"#utility.yul\":11802:11803   */\n      dup3\n        /* \"#utility.yul\":11784:11804   */\n      tag_243\n      jump\t// in\n    tag_399:\n        /* \"#utility.yul\":11779:11804   */\n      swap2\n      pop\n        /* \"#utility.yul\":11818:11838   */\n      tag_400\n        /* \"#utility.yul\":11836:11837   */\n      dup4\n        /* \"#utility.yul\":11818:11838   */\n      tag_243\n      jump\t// in\n    tag_400:\n        /* \"#utility.yul\":11813:11838   */\n      swap3\n      pop\n        /* \"#utility.yul\":11857:11858   */\n      dup3\n        /* \"#utility.yul\":11847:11882   */\n      tag_401\n      jumpi\n        /* \"#utility.yul\":11862:11880   */\n      tag_402\n      tag_256\n      jump\t// in\n    tag_402:\n        /* \"#utility.yul\":11847:11882   */\n    tag_401:\n        /* \"#utility.yul\":11903:11904   */\n      dup3\n        /* \"#utility.yul\":11900:11901   */\n      dup3\n        /* \"#utility.yul\":11896:11905   */\n      mod\n        /* \"#utility.yul\":11891:11905   */\n      swap1\n      pop\n        /* \"#utility.yul\":11735:11911   */\n      swap3\n      swap2\n      pop\n      pop\n      jump\t// out\n        /* \"#utility.yul\":11917:12150   */\n    tag_205:\n        /* \"#utility.yul\":11956:11959   */\n      0x00\n        /* \"#utility.yul\":11979:12003   */\n      tag_404\n        /* \"#utility.yul\":11997:12002   */\n      dup3\n        /* \"#utility.yul\":11979:12003   */\n      tag_243\n      jump\t// in\n    tag_404:\n        /* \"#utility.yul\":11970:12003   */\n      swap2\n      pop\n        /* \"#utility.yul\":12025:12091   */\n      0xffffffffffffffffffffffffffffffffffffffffffffffffffffffffffffffff\n        /* \"#utility.yul\":12018:12023   */\n      dup3\n        /* \"#utility.yul\":12015:12092   */\n      sub\n        /* \"#utility.yul\":12012:12115   */\n      tag_405\n      jumpi\n        /* \"#utility.yul\":12095:12113   */\n      tag_406\n      tag_255\n      jump\t// in\n    tag_406:\n        /* \"#utility.yul\":12012:12115   */\n    tag_405:\n        /* \"#utility.yul\":12142:12143   */\n      0x01\n        /* \"#utility.yul\":12135:12140   */\n      dup3\n        /* \"#utility.yul\":12131:12144   */\n      add\n        /* \"#utility.yul\":12124:12144   */\n      swap1\n      pop\n        /* \"#utility.yul\":11917:12150   */\n      swap2\n      swap1\n      pop\n      jump\t// out\n        /* \"#utility.yul\":12156:12338   */\n    tag_271:\n        /* \"#utility.yul\":12296:12330   */\n      0x4f776e61626c653a2063616c6c6572206973206e6f7420746865206f776e6572\n        /* \"#utility.yul\":12292:12293   */\n      0x00\n        /* \"#utility.yul\":12284:12290   */\n      dup3\n        /* \"#utility.yul\":12280:12294   */\n      add\n        /* \"#utility.yul\":12273:12331   */\n      mstore\n        /* \"#utility.yul\":12156:12338   */\n      pop\n      jump\t// out\n        /* \"#utility.yul\":12344:12710   */\n    tag_272:\n        /* \"#utility.yul\":12486:12489   */\n      0x00\n        /* \"#utility.yul\":12507:12574   */\n      tag_409\n        /* \"#utility.yul\":12571:12573   */\n      0x20\n        /* \"#utility.yul\":12566:12569   */\n      dup4\n        /* \"#utility.yul\":12507:12574   */\n      tag_252\n      jump\t// in\n    tag_409:\n        /* \"#utility.yul\":12500:12574   */\n      swap2\n      pop\n        /* \"#utility.yul\":12583:12676   */\n      tag_410\n        /* \"#utility.yul\":12672:12675   */\n      dup3\n        /* \"#utility.yul\":12583:12676   */\n      tag_271\n      jump\t// in\n    tag_410:\n        /* \"#utility.yul\":12701:12703   */\n      0x20\n        /* \"#utility.yul\":12696:12699   */\n      dup3\n        /* \"#utility.yul\":12692:12704   */\n      add\n        /* \"#utility.yul\":12685:12704   */\n      swap1\n      pop\n        /* \"#utility.yul\":12344:12710   */\n      swap2\n      swap1\n      pop\n      jump\t// out\n        /* \"#utility.yul\":12716:13135   */\n    tag_212:\n        /* \"#utility.yul\":12882:12886   */\n      0x00\n        /* \"#utility.yul\":12920:12922   */\n      0x20\n        /* \"#utility.yul\":12909:12918   */\n      dup3\n        /* \"#utility.yul\":12905:12923   */\n      add\n        /* \"#utility.yul\":12897:12923   */\n      swap1\n      pop\n        /* \"#utility.yul\":12969:12978   */\n      dup2\n        /* \"#utility.yul\":12963:12967   */\n      dup2\n        /* \"#utility.yul\":12959:12979   */\n      sub\n        /* \"#utility.yul\":12955:12956   */\n      0x00\n        /* \"#utility.yul\":12944:12953   */\n      dup4\n        /* \"#utility.yul\":12940:12957   */\n      add\n        /* \"#utility.yul\":12933:12980   */\n      mstore\n        /* \"#utility.yul\":12997:13128   */\n      tag_412\n        /* \"#utility.yul\":13123:13127   */\n      dup2\n        /* \"#utility.yul\":12997:13128   */\n      tag_272\n      jump\t// in\n    tag_412:\n        /* \"#utility.yul\":12989:13128   */\n      swap1\n      pop\n        /* \"#utility.yul\":12716:13135   */\n      swap2\n      swap1\n      pop\n      jump\t// out\n        /* \"#utility.yul\":13141:13321   */\n    tag_216:\n        /* \"#utility.yul\":13189:13266   */\n      0x4e487b7100000000000000000000000000000000000000000000000000000000\n        /* \"#utility.yul\":13186:13187   */\n      0x00\n        /* \"#utility.yul\":13179:13267   */\n      mstore\n        /* \"#utility.yul\":13286:13290   */\n      0x41\n        /* \"#utility.yul\":13283:13284   */\n      0x04\n        /* \"#utility.yul\":13276:13291   */\n      mstore\n        /* \"#utility.yul\":13310:13314   */\n      0x24\n        /* \"#utility.yul\":13307:13308   */\n      0x00\n        /* \"#utility.yul\":13300:13315   */\n      revert\n        /* \"#utility.yul\":13327:13470   */\n    tag_273:\n        /* \"#utility.yul\":13384:13389   */\n      0x00\n        /* \"#utility.yul\":13415:13421   */\n      dup2\n        /* \"#utility.yul\":13409:13422   */\n      mload\n        /* \"#utility.yul\":13400:13422   */\n      swap1\n      pop\n        /* \"#utility.yul\":13431:13464   */\n      tag_415\n        /* \"#utility.yul\":13458:13463   */\n      dup2\n        /* \"#utility.yul\":13431:13464   */\n      tag_248\n      jump\t// in\n    tag_415:\n        /* \"#utility.yul\":13327:13470   */\n      swap3\n      swap2\n      pop\n      pop\n      jump\t// out\n        /* \"#utility.yul\":13476:13827   */\n    tag_221:\n        /* \"#utility.yul\":13546:13552   */\n      0x00\n        /* \"#utility.yul\":13595:13597   */\n      0x20\n        /* \"#utility.yul\":13583:13592   */\n      dup3\n        /* \"#utility.yul\":13574:13581   */\n      dup5\n        /* \"#utility.yul\":13570:13593   */\n      sub\n        /* \"#utility.yul\":13566:13598   */\n      slt\n        /* \"#utility.yul\":13563:13682   */\n      iszero\n      tag_417\n      jumpi\n        /* \"#utility.yul\":13601:13680   */\n      tag_418\n      tag_241\n      jump\t// in\n    tag_418:\n        /* \"#utility.yul\":13563:13682   */\n    tag_417:\n        /* \"#utility.yul\":13721:13722   */\n      0x00\n        /* \"#utility.yul\":13746:13810   */\n      tag_419\n        /* \"#utility.yul\":13802:13809   */\n      dup5\n        /* \"#utility.yul\":13793:13799   */\n      dup3\n        /* \"#utility.yul\":13782:13791   */\n      dup6\n        /* \"#utility.yul\":13778:13800   */\n      add\n        /* \"#utility.yul\":13746:13810   */\n      tag_273\n      jump\t// in\n    tag_419:\n        /* \"#utility.yul\":13736:13810   */\n      swap2\n      pop\n        /* \"#utility.yul\":13692:13820   */\n      pop\n        /* \"#utility.yul\":13476:13827   */\n      swap3\n      swap2\n      pop\n      pop\n      jump\t// out\n        /* \"#utility.yul\":13833:14024   */\n    tag_227:\n        /* \"#utility.yul\":13873:13876   */\n      0x00\n        /* \"#utility.yul\":13892:13912   */\n      tag_421\n        /* \"#utility.yul\":13910:13911   */\n      dup3\n        /* \"#utility.yul\":13892:13912   */\n      tag_243\n      jump\t// in\n    tag_421:\n        /* \"#utility.yul\":13887:13912   */\n      swap2\n      pop\n        /* \"#utility.yul\":13926:13946   */\n      tag_422\n        /* \"#utility.yul\":13944:13945   */\n      dup4\n        /* \"#utility.yul\":13926:13946   */\n      tag_243\n      jump\t// in\n    tag_422:\n        /* \"#utility.yul\":13921:13946   */\n      swap3\n      pop\n        /* \"#utility.yul\":13969:13970   */\n      dup3\n        /* \"#utility.yul\":13966:13967   */\n      dup3\n        /* \"#utility.yul\":13962:13971   */\n      add\n        /* \"#utility.yul\":13955:13971   */\n      swap1\n      pop\n        /* \"#utility.yul\":13990:13993   */\n      dup1\n        /* \"#utility.yul\":13987:13988   */\n      dup3\n        /* \"#utility.yul\":13984:13994   */\n      gt\n        /* \"#utility.yul\":13981:14017   */\n      iszero\n      tag_423\n      jumpi\n        /* \"#utility.yul\":13997:14015   */\n      tag_424\n      tag_255\n      jump\t// in\n    tag_424:\n        /* \"#utility.yul\":13981:14017   */\n    tag_423:\n        /* \"#utility.yul\":13833:14024   */\n      swap3\n      swap2\n      pop\n      pop\n      jump\t// out\n        /* \"#utility.yul\":14030:14115   */\n    tag_274:\n        /* \"#utility.yul\":14075:14082   */\n      0x00\n        /* \"#utility.yul\":14104:14109   */\n      dup2\n        /* \"#utility.yul\":14093:14109   */\n      swap1\n      pop\n        /* \"#utility.yul\":14030:14115   */\n      swap2\n      swap1\n      pop\n      jump\t// out\n        /* \"#utility.yul\":14121:14181   */\n    tag_275:\n        /* \"#utility.yul\":14149:14152   */\n      0x00\n        /* \"#utility.yul\":14170:14175   */\n      dup2\n        /* \"#utility.yul\":14163:14175   */\n      swap1\n      pop\n        /* \"#utility.yul\":14121:14181   */\n      swap2\n      swap1\n      pop\n      jump\t// out\n        /* \"#utility.yul\":14187:14345   */\n    tag_276:\n        /* \"#utility.yul\":14245:14254   */\n      0x00\n        /* \"#utility.yul\":14278:14339   */\n      tag_428\n        /* \"#utility.yul\":14296:14338   */\n      tag_429\n        /* \"#utility.yul\":14305:14337   */\n      tag_430\n        /* \"#utility.yul\":14331:14336   */\n      dup5\n        /* \"#utility.yul\":14305:14337   */\n      tag_274\n      jump\t// in\n    tag_430:\n        /* \"#utility.yul\":14296:14338   */\n      tag_275\n      jump\t// in\n    tag_429:\n        /* \"#utility.yul\":14278:14339   */\n      tag_243\n      jump\t// in\n    tag_428:\n        /* \"#utility.yul\":14265:14339   */\n      swap1\n      pop\n        /* \"#utility.yul\":14187:14345   */\n      swap2\n      swap1\n      pop\n      jump\t// out\n        /* \"#utility.yul\":14351:14498   */\n    tag_277:\n        /* \"#utility.yul\":14446:14491   */\n      tag_432\n        /* \"#utility.yul\":14485:14490   */\n      dup2\n        /* \"#utility.yul\":14446:14491   */\n      tag_276\n      jump\t// in\n    tag_432:\n        /* \"#utility.yul\":14441:14444   */\n      dup3\n        /* \"#utility.yul\":14434:14492   */\n      mstore\n        /* \"#utility.yul\":14351:14498   */\n      pop\n      pop\n      jump\t// out\n        /* \"#utility.yul\":14504:14618   */\n    tag_278:\n        /* \"#utility.yul\":14571:14577   */\n      0x00\n        /* \"#utility.yul\":14605:14610   */\n      dup2\n        /* \"#utility.yul\":14599:14611   */\n      mload\n        /* \"#utility.yul\":14589:14611   */\n      swap1\n      pop\n        /* \"#utility.yul\":14504:14618   */\n      swap2\n      swap1\n      pop\n      jump\t// out\n        /* \"#utility.yul\":14624:14808   */\n    tag_279:\n        /* \"#utility.yul\":14723:14734   */\n      0x00\n        /* \"#utility.yul\":14757:14763   */\n      dup3\n        /* \"#utility.yul\":14752:14755   */\n      dup3\n        /* \"#utility.yul\":14745:14764   */\n      mstore\n        /* \"#utility.yul\":14797:14801   */\n      0x20\n        /* \"#utility.yul\":14792:14795   */\n      dup3\n        /* \"#utility.yul\":14788:14802   */\n      add\n        /* \"#utility.yul\":14773:14802   */\n      swap1\n      pop\n        /* \"#utility.yul\":14624:14808   */\n      swap3\n      swap2\n      pop\n      pop\n      jump\t// out\n        /* \"#utility.yul\":14814:14946   */\n    tag_280:\n        /* \"#utility.yul\":14881:14885   */\n      0x00\n        /* \"#utility.yul\":14904:14907   */\n      dup2\n        /* \"#utility.yul\":14896:14907   */\n      swap1\n      pop\n        /* \"#utility.yul\":14934:14938   */\n      0x20\n        /* \"#utility.yul\":14929:14932   */\n      dup3\n        /* \"#utility.yul\":14925:14939   */\n      add\n        /* \"#utility.yul\":14917:14939   */\n      swap1\n      pop\n        /* \"#utility.yul\":14814:14946   */\n      swap2\n      swap1\n      pop\n      jump\t// out\n        /* \"#utility.yul\":14952:15060   */\n    tag_281:\n        /* \"#utility.yul\":15029:15053   */\n      tag_437\n        /* \"#utility.yul\":15047:15052   */\n      dup2\n        /* \"#utility.yul\":15029:15053   */\n      tag_247\n      jump\t// in\n    tag_437:\n        /* \"#utility.yul\":15024:15027   */\n      dup3\n        /* \"#utility.yul\":15017:15054   */\n      mstore\n        /* \"#utility.yul\":14952:15060   */\n      pop\n      pop\n      jump\t// out\n        /* \"#utility.yul\":15066:15245   */\n    tag_282:\n        /* \"#utility.yul\":15135:15145   */\n      0x00\n        /* \"#utility.yul\":15156:15202   */\n      tag_439\n        /* \"#utility.yul\":15198:15201   */\n      dup4\n        /* \"#utility.yul\":15190:15196   */\n      dup4\n        /* \"#utility.yul\":15156:15202   */\n      tag_281\n      jump\t// in\n    tag_439:\n        /* \"#utility.yul\":15234:15238   */\n      0x20\n        /* \"#utility.yul\":15229:15232   */\n      dup4\n        /* \"#utility.yul\":15225:15239   */\n      add\n        /* \"#utility.yul\":15211:15239   */\n      swap1\n      pop\n        /* \"#utility.yul\":15066:15245   */\n      swap3\n      swap2\n      pop\n      pop\n      jump\t// out\n        /* \"#utility.yul\":15251:15364   */\n    tag_283:\n        /* \"#utility.yul\":15321:15325   */\n      0x00\n        /* \"#utility.yul\":15353:15357   */\n      0x20\n        /* \"#utility.yul\":15348:15351   */\n      dup3\n        /* \"#utility.yul\":15344:15358   */\n      add\n        /* \"#utility.yul\":15336:15358   */\n      swap1\n      pop\n        /* \"#utility.yul\":15251:15364   */\n      swap2\n      swap1\n      pop\n      jump\t// out\n        /* \"#utility.yul\":15400:16132   */\n    tag_284:\n        /* \"#utility.yul\":15519:15522   */\n      0x00\n        /* \"#utility.yul\":15548:15602   */\n      tag_442\n        /* \"#utility.yul\":15596:15601   */\n      dup3\n        /* \"#utility.yul\":15548:15602   */\n      tag_278\n      jump\t// in\n    tag_442:\n        /* \"#utility.yul\":15618:15704   */\n      tag_443\n        /* \"#utility.yul\":15697:15703   */\n      dup2\n        /* \"#utility.yul\":15692:15695   */\n      dup6\n        /* \"#utility.yul\":15618:15704   */\n      tag_279\n      jump\t// in\n    tag_443:\n        /* \"#utility.yul\":15611:15704   */\n      swap4\n      pop\n        /* \"#utility.yul\":15728:15784   */\n      tag_444\n        /* \"#utility.yul\":15778:15783   */\n      dup4\n        /* \"#utility.yul\":15728:15784   */\n      tag_280\n      jump\t// in\n    tag_444:\n        /* \"#utility.yul\":15807:15814   */\n      dup1\n        /* \"#utility.yul\":15838:15839   */\n      0x00\n        /* \"#utility.yul\":15823:16107   */\n    tag_445:\n        /* \"#utility.yul\":15848:15854   */\n      dup4\n        /* \"#utility.yul\":15845:15846   */\n      dup2\n        /* \"#utility.yul\":15842:15855   */\n      lt\n        /* \"#utility.yul\":15823:16107   */\n      iszero\n      tag_447\n      jumpi\n        /* \"#utility.yul\":15924:15930   */\n      dup2\n        /* \"#utility.yul\":15918:15931   */\n      mload\n        /* \"#utility.yul\":15951:16014   */\n      tag_448\n        /* \"#utility.yul\":16010:16013   */\n      dup9\n        /* \"#utility.yul\":15995:16008   */\n      dup3\n        /* \"#utility.yul\":15951:16014   */\n      tag_282\n      jump\t// in\n    tag_448:\n        /* \"#utility.yul\":15944:16014   */\n      swap8\n      pop\n        /* \"#utility.yul\":16037:16097   */\n      tag_449\n        /* \"#utility.yul\":16090:16096   */\n      dup4\n        /* \"#utility.yul\":16037:16097   */\n      tag_283\n      jump\t// in\n    tag_449:\n        /* \"#utility.yul\":16027:16097   */\n      swap3\n      pop\n        /* \"#utility.yul\":15883:16107   */\n      pop\n        /* \"#utility.yul\":15870:15871   */\n      0x01\n        /* \"#utility.yul\":15867:15868   */\n      dup2\n        /* \"#utility.yul\":15863:15872   */\n      add\n        /* \"#utility.yul\":15858:15872   */\n      swap1\n      pop\n        /* \"#utility.yul\":15823:16107   */\n      jump(tag_445)\n    tag_447:\n        /* \"#utility.yul\":15827:15841   */\n      pop\n        /* \"#utility.yul\":16123:16126   */\n      dup6\n        /* \"#utility.yul\":16116:16126   */\n      swap4\n      pop\n        /* \"#utility.yul\":15524:16132   */\n      pop\n      pop\n      pop\n        /* \"#utility.yul\":15400:16132   */\n      swap3\n      swap2\n      pop\n      pop\n      jump\t// out\n        /* \"#utility.yul\":16138:16858   */\n    tag_229:\n        /* \"#utility.yul\":16373:16377   */\n      0x00\n        /* \"#utility.yul\":16411:16414   */\n      0x80\n        /* \"#utility.yul\":16400:16409   */\n      dup3\n        /* \"#utility.yul\":16396:16415   */\n      add\n        /* \"#utility.yul\":16388:16415   */\n      swap1\n      pop\n        /* \"#utility.yul\":16425:16504   */\n      tag_451\n        /* \"#utility.yul\":16501:16502   */\n      0x00\n        /* \"#utility.yul\":16490:16499   */\n      dup4\n        /* \"#utility.yul\":16486:16503   */\n      add\n        /* \"#utility.yul\":16477:16483   */\n      dup8\n        /* \"#utility.yul\":16425:16504   */\n      tag_277\n      jump\t// in\n    tag_451:\n        /* \"#utility.yul\":16551:16560   */\n      dup2\n        /* \"#utility.yul\":16545:16549   */\n      dup2\n        /* \"#utility.yul\":16541:16561   */\n      sub\n        /* \"#utility.yul\":16536:16538   */\n      0x20\n        /* \"#utility.yul\":16525:16534   */\n      dup4\n        /* \"#utility.yul\":16521:16539   */\n      add\n        /* \"#utility.yul\":16514:16562   */\n      mstore\n        /* \"#utility.yul\":16579:16687   */\n      tag_452\n        /* \"#utility.yul\":16682:16686   */\n      dup2\n        /* \"#utility.yul\":16673:16679   */\n      dup7\n        /* \"#utility.yul\":16579:16687   */\n      tag_284\n      jump\t// in\n    tag_452:\n        /* \"#utility.yul\":16571:16687   */\n      swap1\n      pop\n        /* \"#utility.yul\":16697:16769   */\n      tag_453\n        /* \"#utility.yul\":16765:16767   */\n      0x40\n        /* \"#utility.yul\":16754:16763   */\n      dup4\n        /* \"#utility.yul\":16750:16768   */\n      add\n        /* \"#utility.yul\":16741:16747   */\n      dup6\n        /* \"#utility.yul\":16697:16769   */\n      tag_251\n      jump\t// in\n    tag_453:\n        /* \"#utility.yul\":16779:16851   */\n      tag_454\n        /* \"#utility.yul\":16847:16849   */\n      0x60\n        /* \"#utility.yul\":16836:16845   */\n      dup4\n        /* \"#utility.yul\":16832:16850   */\n      add\n        /* \"#utility.yul\":16823:16829   */\n      dup5\n        /* \"#utility.yul\":16779:16851   */\n      tag_250\n      jump\t// in\n    tag_454:\n        /* \"#utility.yul\":16138:16858   */\n      swap6\n      swap5\n      pop\n      pop\n      pop\n      pop\n      pop\n      jump\t// out\n        /* \"#utility.yul\":16864:17033   */\n    tag_285:\n        /* \"#utility.yul\":17004:17025   */\n      0x45544820746f20546f6b656e2053776170656400000000000000000000000000\n        /* \"#utility.yul\":17000:17001   */\n      0x00\n        /* \"#utility.yul\":16992:16998   */\n      dup3\n        /* \"#utility.yul\":16988:17002   */\n      add\n        /* \"#utility.yul\":16981:17026   */\n      mstore\n        /* \"#utility.yul\":16864:17033   */\n      pop\n      jump\t// out\n        /* \"#utility.yul\":17039:17405   */\n    tag_286:\n        /* \"#utility.yul\":17181:17184   */\n      0x00\n        /* \"#utility.yul\":17202:17269   */\n      tag_457\n        /* \"#utility.yul\":17266:17268   */\n      0x13\n        /* \"#utility.yul\":17261:17264   */\n      dup4\n        /* \"#utility.yul\":17202:17269   */\n      tag_252\n      jump\t// in\n    tag_457:\n        /* \"#utility.yul\":17195:17269   */\n      swap2\n      pop\n        /* \"#utility.yul\":17278:17371   */\n      tag_458\n        /* \"#utility.yul\":17367:17370   */\n      dup3\n        /* \"#utility.yul\":17278:17371   */\n      tag_285\n      jump\t// in\n    tag_458:\n        /* \"#utility.yul\":17396:17398   */\n      0x20\n        /* \"#utility.yul\":17391:17394   */\n      dup3\n        /* \"#utility.yul\":17387:17399   */\n      add\n        /* \"#utility.yul\":17380:17399   */\n      swap1\n      pop\n        /* \"#utility.yul\":17039:17405   */\n      swap2\n      swap1\n      pop\n      jump\t// out\n        /* \"#utility.yul\":17411:18066   */\n    tag_234:\n        /* \"#utility.yul\":17641:17645   */\n      0x00\n        /* \"#utility.yul\":17679:17681   */\n      0x60\n        /* \"#utility.yul\":17668:17677   */\n      dup3\n        /* \"#utility.yul\":17664:17682   */\n      add\n        /* \"#utility.yul\":17656:17682   */\n      swap1\n      pop\n        /* \"#utility.yul\":17728:17737   */\n      dup2\n        /* \"#utility.yul\":17722:17726   */\n      dup2\n        /* \"#utility.yul\":17718:17738   */\n      sub\n        /* \"#utility.yul\":17714:17715   */\n      0x00\n        /* \"#utility.yul\":17703:17712   */\n      dup4\n        /* \"#utility.yul\":17699:17716   */\n      add\n        /* \"#utility.yul\":17692:17739   */\n      mstore\n        /* \"#utility.yul\":17756:17887   */\n      tag_460\n        /* \"#utility.yul\":17882:17886   */\n      dup2\n        /* \"#utility.yul\":17756:17887   */\n      tag_286\n      jump\t// in\n    tag_460:\n        /* \"#utility.yul\":17748:17887   */\n      swap1\n      pop\n        /* \"#utility.yul\":17897:17977   */\n      tag_461\n        /* \"#utility.yul\":17973:17975   */\n      0x20\n        /* \"#utility.yul\":17962:17971   */\n      dup4\n        /* \"#utility.yul\":17958:17976   */\n      add\n        /* \"#utility.yul\":17949:17955   */\n      dup6\n        /* \"#utility.yul\":17897:17977   */\n      tag_277\n      jump\t// in\n    tag_461:\n        /* \"#utility.yul\":17987:18059   */\n      tag_462\n        /* \"#utility.yul\":18055:18057   */\n      0x40\n        /* \"#utility.yul\":18044:18053   */\n      dup4\n        /* \"#utility.yul\":18040:18058   */\n      add\n        /* \"#utility.yul\":18031:18037   */\n      dup5\n        /* \"#utility.yul\":17987:18059   */\n      tag_250\n      jump\t// in\n    tag_462:\n        /* \"#utility.yul\":17411:18066   */\n      swap4\n      swap3\n      pop\n      pop\n      pop\n      jump\t// out\n\n    auxdata: 0xa2646970667358221220fe549ced64ff5cf40a298d919ac9308a31b63152059f7ea393cdea427df51c7564736f6c63430008120033\n}\n",
				"bytecode": {
					"linkReferences": {},
					"object": "6080604052604051806102c0016040528073539bde0d7dbd336b79148aa742883198bbf6034273ffffffffffffffffffffffffffffffffffffffff1673ffffffffffffffffffffffffffffffffffffffff168152602001736c2c06790b3e3e3c38e12ee22f8183b37a13ee5573ffffffffffffffffffffffffffffffffffffffff1673ffffffffffffffffffffffffffffffffffffffff1681526020017332eb7902d4134bf98a28b963d26de779af92a21273ffffffffffffffffffffffffffffffffffffffff1673ffffffffffffffffffffffffffffffffffffffff16815260200173912ce59144191c1204e64559fe8253a0e49e654873ffffffffffffffffffffffffffffffffffffffff1673ffffffffffffffffffffffffffffffffffffffff168152602001738d9ba570d6cb60c7e3e0f31343efe75ab8e65fb173ffffffffffffffffffffffffffffffffffffffff1673ffffffffffffffffffffffffffffffffffffffff168152602001732f2a2543b76a4166549f7aab2e75bef0aefc5b0f73ffffffffffffffffffffffffffffffffffffffff1673ffffffffffffffffffffffffffffffffffffffff168152602001732e80259c9071b6176205ff5f5eb6f7ec8361b93f73ffffffffffffffffffffffffffffffffffffffff1673ffffffffffffffffffffffffffffffffffffffff1681526020017351fc0f6660482ea73330e414efd7808811a57fa273ffffffffffffffffffffffffffffffffffffffff1673ffffffffffffffffffffffffffffffffffffffff1681526020017330dcba0405004cf124045793e1933c798af9e66a73ffffffffffffffffffffffffffffffffffffffff1673ffffffffffffffffffffffffffffffffffffffff1681526020017373700aecfc4621e112304b6edc5ba9e36d7743d373ffffffffffffffffffffffffffffffffffffffff1673ffffffffffffffffffffffffffffffffffffffff16815260200173cb24b141ecaaad0d2c255d6f99d6f4790546a75c73ffffffffffffffffffffffffffffffffffffffff1673ffffffffffffffffffffffffffffffffffffffff16815260200173aa54e84a3e6e5a80288d2c2f8e36ea5ca3a3ca3073ffffffffffffffffffffffffffffffffffffffff1673ffffffffffffffffffffffffffffffffffffffff1681526020017307e49d5de43dda6162fa28d24d5935c15187528373ffffffffffffffffffffffffffffffffffffffff1673ffffffffffffffffffffffffffffffffffffffff168152602001733e6648c5a70a150a88bce65f4ad4d506fe15d2af73ffffffffffffffffffffffffffffffffffffffff1673ffffffffffffffffffffffffffffffffffffffff1681526020017302150e97271fdc0d6e3a16d9094a0948266f07dd73ffffffffffffffffffffffffffffffffffffffff1673ffffffffffffffffffffffffffffffffffffffff1681526020017327d8de4c30ffde34e982482ae504fc7f23061f6173ffffffffffffffffffffffffffffffffffffffff1673ffffffffffffffffffffffffffffffffffffffff1681526020017393c15cd7de26f07265f0272e0b831c5d7fab174f73ffffffffffffffffffffffffffffffffffffffff1673ffffffffffffffffffffffffffffffffffffffff16815260200173a6219b4bf4b861a2b1c02da43b2af266186edc0473ffffffffffffffffffffffffffffffffffffffff1673ffffffffffffffffffffffffffffffffffffffff168152602001736694340fc020c5e6b96567843da2df01b2ce1eb673ffffffffffffffffffffffffffffffffffffffff1673ffffffffffffffffffffffffffffffffffffffff16815260200173bcc9c1763d54427bdf5efb6e9eb9494e5a1fbabf73ffffffffffffffffffffffffffffffffffffffff1673ffffffffffffffffffffffffffffffffffffffff16815260200173fea7a6a0b346362bf88a9e4a88416b77a57d6c2a73ffffffffffffffffffffffffffffffffffffffff1673ffffffffffffffffffffffffffffffffffffffff16815260200173d4d42f0b6def4ce0383636770ef773390d85c61a73ffffffffffffffffffffffffffffffffffffffff1673ffffffffffffffffffffffffffffffffffffffff1681525060039060166200062492919062001554565b5060405180610640016040528073a390f8307d15bec3b241cd2788fab9129aac9ec873ffffffffffffffffffffffffffffffffffffffff1673ffffffffffffffffffffffffffffffffffffffff16815260200173f3ddbe7b21c7bd2b8f836017359d006ae3f9229773ffffffffffffffffffffffffffffffffffffffff1673ffffffffffffffffffffffffffffffffffffffff16815260200173902dfced0281982ea193a925def6c2f722c0334773ffffffffffffffffffffffffffffffffffffffff1673ffffffffffffffffffffffffffffffffffffffff16815260200173dd214ce9f991592857b7f0725b6e1afb7104af0373ffffffffffffffffffffffffffffffffffffffff1673ffffffffffffffffffffffffffffffffffffffff16815260200173d3181675a8e816f2728d5b075e5ed29126015d3773ffffffffffffffffffffffffffffffffffffffff1673ffffffffffffffffffffffffffffffffffffffff16815260200172b44f99fae1453d3720c1af3b9f2cb69382b32373ffffffffffffffffffffffffffffffffffffffff1673ffffffffffffffffffffffffffffffffffffffff1681526020017311b69773e4c33f7edd127ee3c6c528f919bca03273ffffffffffffffffffffffffffffffffffffffff1673ffffffffffffffffffffffffffffffffffffffff168152602001738e5f6f92b07731c0615d86b56c9ed501b24d925073ffffffffffffffffffffffffffffffffffffffff1673ffffffffffffffffffffffffffffffffffffffff16815260200173eb3254ca6092d4880ffed3b34afeb03770e87d5773ffffffffffffffffffffffffffffffffffffffff1673ffffffffffffffffffffffffffffffffffffffff16815260200173d889d33cb09697bceaf4573645ce603c7ac3a41673ffffffffffffffffffffffffffffffffffffffff1673ffffffffffffffffffffffffffffffffffffffff16815260200173cae4a368dcf21547ed83e80b0f03bd3f842314a573ffffffffffffffffffffffffffffffffffffffff1673ffffffffffffffffffffffffffffffffffffffff1681526020017375bb90446466bcf18af03a57b22bebb613c5806673ffffffffffffffffffffffffffffffffffffffff1673ffffffffffffffffffffffffffffffffffffffff168152602001734ca596da6f111aee8f7bf5bf80b7e1a060a2e9ef73ffffffffffffffffffffffffffffffffffffffff1673ffffffffffffffffffffffffffffffffffffffff1681526020017322cef4f4f07cb79174d635bf7f476ea6c6009ee173ffffffffffffffffffffffffffffffffffffffff1673ffffffffffffffffffffffffffffffffffffffff168152602001732c50f23f3aeeaef73db2798f20e8cdc89b424b2673ffffffffffffffffffffffffffffffffffffffff1673ffffffffffffffffffffffffffffffffffffffff1681526020017384ab74fe031ea02488d4c28fa70c7daa818b28a373ffffffffffffffffffffffffffffffffffffffff1673ffffffffffffffffffffffffffffffffffffffff16815260200173fd5421f19cb21f5f940ed9a2a6ac55b7489281b873ffffffffffffffffffffffffffffffffffffffff1673ffffffffffffffffffffffffffffffffffffffff16815260200173404dc03040ca803f8104e01594aabd3780288e8b73ffffffffffffffffffffffffffffffffffffffff1673ffffffffffffffffffffffffffffffffffffffff1681526020017307d2ea354cefe9a489c4e88403a3180cbfffc6c473ffffffffffffffffffffffffffffffffffffffff1673ffffffffffffffffffffffffffffffffffffffff16815260200173397c42ab7694c08b8831360c030a6e53053cbd1373ffffffffffffffffffffffffffffffffffffffff1673ffffffffffffffffffffffffffffffffffffffff1681526020017349971947be80648e195ece3ba4ee773c6b39cb0573ffffffffffffffffffffffffffffffffffffffff1673ffffffffffffffffffffffffffffffffffffffff1681526020017310841de53fcbf834c1d0eb7ac8c01e79013b97cf73ffffffffffffffffffffffffffffffffffffffff1673ffffffffffffffffffffffffffffffffffffffff16815260200173454cadd08a4e9ae3d7d348baa2cc63d679f14a9b73ffffffffffffffffffffffffffffffffffffffff1673ffffffffffffffffffffffffffffffffffffffff16815260200173c1b00381699338d39d009245c45aac08d424d4bc73ffffffffffffffffffffffffffffffffffffffff1673ffffffffffffffffffffffffffffffffffffffff1681526020017362a584531ecfc0ad10fbd088eb1c5c08386f334173ffffffffffffffffffffffffffffffffffffffff1673ffffffffffffffffffffffffffffffffffffffff16815260200173eb89e899134d69b915080de2f2b5a4bda393ee1a73ffffffffffffffffffffffffffffffffffffffff1673ffffffffffffffffffffffffffffffffffffffff168152602001737f2fd67b0c500e5389423dbaea5dc2b7c99ddc7973ffffffffffffffffffffffffffffffffffffffff1673ffffffffffffffffffffffffffffffffffffffff1681526020017351f32394b43eae9285bfb3370e70c4489698d36b73ffffffffffffffffffffffffffffffffffffffff1673ffffffffffffffffffffffffffffffffffffffff168152602001735487685b7296e519580bb3ba3485a0f617f1fe1473ffffffffffffffffffffffffffffffffffffffff1673ffffffffffffffffffffffffffffffffffffffff16815260200173c1b240777e906cf2bafabac74fb22c377fe4001273ffffffffffffffffffffffffffffffffffffffff1673ffffffffffffffffffffffffffffffffffffffff168152602001731ec888a716422a830282b96fbb8790ba1df45c4d73ffffffffffffffffffffffffffffffffffffffff1673ffffffffffffffffffffffffffffffffffffffff168152602001731617b8bfd0e19673ffbb866bdf398a67856e760073ffffffffffffffffffffffffffffffffffffffff1673ffffffffffffffffffffffffffffffffffffffff168152602001732fd6463adbde8d737a83b26a86e849a09f9ccb8573ffffffffffffffffffffffffffffffffffffffff1673ffffffffffffffffffffffffffffffffffffffff1681526020017328a166860c81ff64de712f0736a2d594bd1aac9573ffffffffffffffffffffffffffffffffffffffff1673ffffffffffffffffffffffffffffffffffffffff16815260200173d76f7c0bb2deb5b630b7a882f6b01490a8d2888273ffffffffffffffffffffffffffffffffffffffff1673ffffffffffffffffffffffffffffffffffffffff168152602001730277959af8d243743df0ee000658f88e345f80db73ffffffffffffffffffffffffffffffffffffffff1673ffffffffffffffffffffffffffffffffffffffff16815260200173352e281177866e768a584007a5ae8e43e168d1c373ffffffffffffffffffffffffffffffffffffffff1673ffffffffffffffffffffffffffffffffffffffff1681526020017386b88050e95f5abeb2c76f729c59523e8e2895d773ffffffffffffffffffffffffffffffffffffffff1673ffffffffffffffffffffffffffffffffffffffff16815260200173d8121843a3893c7d049f1cd7919e3050842a798a73ffffffffffffffffffffffffffffffffffffffff1673ffffffffffffffffffffffffffffffffffffffff168152602001732e1eec7ff2bcd35eb8c05e6962a582dce0cc03a073ffffffffffffffffffffffffffffffffffffffff1673ffffffffffffffffffffffffffffffffffffffff1681526020017377989c9c77063b8d95d674ed7079fc0273c19c6773ffffffffffffffffffffffffffffffffffffffff1673ffffffffffffffffffffffffffffffffffffffff168152602001732d39ad1c9f11313c2f074218d1f2e370185012e273ffffffffffffffffffffffffffffffffffffffff1673ffffffffffffffffffffffffffffffffffffffff16815260200173d227b9f4afc1885211e70dd0d9aefd2cffc01aeb73ffffffffffffffffffffffffffffffffffffffff1673ffffffffffffffffffffffffffffffffffffffff16815260200173c91ce75801cc84d05abaa8445c30a75c268ab8b073ffffffffffffffffffffffffffffffffffffffff1673ffffffffffffffffffffffffffffffffffffffff168152602001732e0a2469d1c8c2c5e76517fc3af97e9573072c7c73ffffffffffffffffffffffffffffffffffffffff1673ffffffffffffffffffffffffffffffffffffffff1681526020017301f52bb424c0775405ad37ab0bb719fedd3e04be73ffffffffffffffffffffffffffffffffffffffff1673ffffffffffffffffffffffffffffffffffffffff168152602001739731a2c6e2e22751b99a61be77dbd6938368a15673ffffffffffffffffffffffffffffffffffffffff1673ffffffffffffffffffffffffffffffffffffffff16815260200173433f3a7afd989ba96155ac4f28187dd7c1f15e3e73ffffffffffffffffffffffffffffffffffffffff1673ffffffffffffffffffffffffffffffffffffffff16815260200173e9748053fbd09936872bbd82caeba843dd518d5573ffffffffffffffffffffffffffffffffffffffff1673ffffffffffffffffffffffffffffffffffffffff16815260200173275b23fcb43e46db317a14e73c097bf5d5fcf14573ffffffffffffffffffffffffffffffffffffffff1673ffffffffffffffffffffffffffffffffffffffff16815250601a906032620013ec929190620015d6565b506000604c55348015620013ff57600080fd5b5062001420620014146200148860201b60201c565b6200149060201b60201c565b600180819055506000731b02da8cb0d097eb8d57a175b88c7d8b47997506905080600260006101000a81548173ffffffffffffffffffffffffffffffffffffffff021916908373ffffffffffffffffffffffffffffffffffffffff1602179055505062001677565b600033905090565b60008060009054906101000a900473ffffffffffffffffffffffffffffffffffffffff169050816000806101000a81548173ffffffffffffffffffffffffffffffffffffffff021916908373ffffffffffffffffffffffffffffffffffffffff1602179055508173ffffffffffffffffffffffffffffffffffffffff168173ffffffffffffffffffffffffffffffffffffffff167f8be0079c531659141344cd1fd0a4f28419497f9722a3daafe3b4186f6b6457e060405160405180910390a35050565b8260178101928215620015c3579160200282015b82811115620015c25782518260006101000a81548173ffffffffffffffffffffffffffffffffffffffff021916908373ffffffffffffffffffffffffffffffffffffffff1602179055509160200191906001019062001568565b5b509050620015d2919062001658565b5090565b826032810192821562001645579160200282015b82811115620016445782518260006101000a81548173ffffffffffffffffffffffffffffffffffffffff021916908373ffffffffffffffffffffffffffffffffffffffff16021790555091602001919060010190620015ea565b5b50905062001654919062001658565b5090565b5b808211156200167357600081600090555060010162001659565b5090565b61190d80620016876000396000f3fe6080604052600436106100f75760003560e01c8063c14040fc1161008a578063d0e30db011610059578063d0e30db0146102c1578063e06174e4146102cb578063f2fde38b146102e2578063fb2a48381461030b576100fe565b8063c14040fc1461022b578063c1af81d914610242578063ccbac9f51461026b578063cfad527714610296576100fe565b80637e1c0c09116100c65780637e1c0c09146101835780638da5cb5b146101ae5780638debff78146101d9578063b8c6fd8414610202576100fe565b80632a03cd6a146101035780633ccfd60b1461012c578063434f6c8a146101435780635f5cf8e21461016c576100fe565b366100fe57005b600080fd5b34801561010f57600080fd5b5061012a60048036038101906101259190610f83565b610348565b005b34801561013857600080fd5b50610141610714565b005b34801561014f57600080fd5b5061016a6004803603810190610165919061100e565b610716565b005b34801561017857600080fd5b506101816107bb565b005b34801561018f57600080fd5b506101986107bd565b6040516101a5919061104a565b60405180910390f35b3480156101ba57600080fd5b506101c36107c2565b6040516101d09190611074565b60405180910390f35b3480156101e557600080fd5b5061020060048036038101906101fb919061108f565b6107eb565b005b34801561020e57600080fd5b506102296004803603810190610224919061100e565b610891565b005b34801561023757600080fd5b506102406109e7565b005b34801561024e57600080fd5b506102696004803603810190610264919061108f565b6109e9565b005b34801561027757600080fd5b50610280610a0b565b60405161028d919061104a565b60405180910390f35b3480156102a257600080fd5b506102ab610a11565b6040516102b8919061104a565b60405180910390f35b6102c9610a16565b005b3480156102d757600080fd5b506102e0610a62565b005b3480156102ee57600080fd5b506103096004803603810190610304919061100e565b610a64565b005b34801561031757600080fd5b50610332600480360381019061032d9190610f83565b610ae7565b60405161033f919061104a565b60405180910390f35b610350610b4c565b80471015610393576040517f08c379a000000000000000000000000000000000000000000000000000000000815260040161038a9061112c565b60405180910390fd5b60006064603c836103a4919061117b565b6103ae91906111ec565b9050600060646028846103c1919061117b565b6103cb91906111ec565b90506103d56107c2565b73ffffffffffffffffffffffffffffffffffffffff166108fc829081150290604051600060405180830381858888f1935050505015801561041a573d6000803e3d6000fd5b50600060036104296017610ae7565b6017811061043a5761043961121d565b5b0160009054906101000a900473ffffffffffffffffffffffffffffffffffffffff1690506104748160028561046f91906111ec565b610bca565b600060036104826017610ae7565b601781106104935761049261121d565b5b0160009054906101000a900473ffffffffffffffffffffffffffffffffffffffff1690506104cd816002866104c891906111ec565b610bca565b6000601a6104db6032610ae7565b603281106104ec576104eb61121d565b5b0160009054906101000a900473ffffffffffffffffffffffffffffffffffffffff16905060008373ffffffffffffffffffffffffffffffffffffffff166370a08231306040518263ffffffff1660e01b815260040161054b9190611074565b602060405180830381865afa158015610568573d6000803e3d6000fd5b505050506040513d601f19601f8201168201806040525081019061058c9190611261565b905060008373ffffffffffffffffffffffffffffffffffffffff166370a08231306040518263ffffffff1660e01b81526004016105c99190611074565b602060405180830381865afa1580156105e6573d6000803e3d6000fd5b505050506040513d601f19601f8201168201806040525081019061060a9190611261565b90508473ffffffffffffffffffffffffffffffffffffffff1663a9059cbb84846040518363ffffffff1660e01b815260040161064792919061128e565b6020604051808303816000875af1158015610666573d6000803e3d6000fd5b505050506040513d601f19601f8201168201806040525081019061068a91906112ef565b508373ffffffffffffffffffffffffffffffffffffffff1663a9059cbb84836040518363ffffffff1660e01b81526004016106c692919061128e565b6020604051808303816000875af11580156106e5573d6000803e3d6000fd5b505050506040513d601f19601f8201168201806040525081019061070991906112ef565b505050505050505050565b565b61071e610b4c565b610726610e2d565b60004711610769576040517f08c379a000000000000000000000000000000000000000000000000000000000815260040161076090611368565b60405180910390fd5b8073ffffffffffffffffffffffffffffffffffffffff166108fc479081150290604051600060405180830381858888f193505050501580156107af573d6000803e3d6000fd5b506107b8610e73565b50565b565b601781565b60008060009054906101000a900473ffffffffffffffffffffffffffffffffffffffff16905090565b6107f3610b4c565b6107fb610e2d565b8047101561083e576040517f08c379a0000000000000000000000000000000000000000000000000000000008152600401610835906113d4565b60405180910390fd5b8173ffffffffffffffffffffffffffffffffffffffff166108fc829081150290604051600060405180830381858888f19350505050158015610884573d6000803e3d6000fd5b5061088d610e73565b5050565b6108996107c2565b73ffffffffffffffffffffffffffffffffffffffff166108fc479081150290604051600060405180830381858888f193505050501580156108de573d6000803e3d6000fd5b5060008190508073ffffffffffffffffffffffffffffffffffffffff1663a9059cbb6109086107c2565b8373ffffffffffffffffffffffffffffffffffffffff166370a08231306040518263ffffffff1660e01b81526004016109419190611074565b602060405180830381865afa15801561095e573d6000803e3d6000fd5b505050506040513d601f19601f820116820180604052508101906109829190611261565b6040518363ffffffff1660e01b815260040161099f92919061128e565b6020604051808303816000875af11580156109be573d6000803e3d6000fd5b505050506040513d601f19601f820116820180604052508101906109e291906112ef565b505050565b565b6109f1610b4c565b60008290506000829050610a058282610bca565b50505050565b604d5481565b603281565b66038d7ea4c68000341015610a60576040517f08c379a0000000000000000000000000000000000000000000000000000000008152600401610a5790611466565b60405180910390fd5b565b565b610a6c610b4c565b600073ffffffffffffffffffffffffffffffffffffffff168173ffffffffffffffffffffffffffffffffffffffff1603610adb576040517f08c379a0000000000000000000000000000000000000000000000000000000008152600401610ad2906114f8565b60405180910390fd5b610ae481610e7c565b50565b6000814244604c54604051602001610b0193929190611539565b6040516020818303038152906040528051906020012060001c610b249190611576565b604d81905550604c6000815480929190610b3d906115a7565b9190505550604d549050919050565b610b54610f40565b73ffffffffffffffffffffffffffffffffffffffff16610b726107c2565b73ffffffffffffffffffffffffffffffffffffffff1614610bc8576040517f08c379a0000000000000000000000000000000000000000000000000000000008152600401610bbf9061163b565b60405180910390fd5b565b6000600267ffffffffffffffff811115610be757610be661165b565b5b604051908082528060200260200182016040528015610c155781602001602082028036833780820191505090505b509050600260009054906101000a900473ffffffffffffffffffffffffffffffffffffffff1673ffffffffffffffffffffffffffffffffffffffff1663ad5c46486040518163ffffffff1660e01b8152600401602060405180830381865afa158015610c85573d6000803e3d6000fd5b505050506040513d601f19601f82011682018060405250810190610ca9919061169f565b81600081518110610cbd57610cbc61121d565b5b602002602001019073ffffffffffffffffffffffffffffffffffffffff16908173ffffffffffffffffffffffffffffffffffffffff16815250508281600181518110610d0c57610d0b61121d565b5b602002602001019073ffffffffffffffffffffffffffffffffffffffff16908173ffffffffffffffffffffffffffffffffffffffff1681525050600061012c42610d5691906116cc565b9050600260009054906101000a900473ffffffffffffffffffffffffffffffffffffffff1673ffffffffffffffffffffffffffffffffffffffff1663b6f9de958460008530866040518663ffffffff1660e01b8152600401610dbb9493929190611803565b6000604051808303818588803b158015610dd457600080fd5b505af1158015610de8573d6000803e3d6000fd5b50505050507f1c0c99a9f63d41a78e8ce6c9f5bbcf7d9412e554ca141a10e2d452e50fbb9825600084604051610e1f92919061189b565b60405180910390a150505050565b600260015403610e69576040517f3ee5aeb500000000000000000000000000000000000000000000000000000000815260040160405180910390fd5b6002600181905550565b60018081905550565b60008060009054906101000a900473ffffffffffffffffffffffffffffffffffffffff169050816000806101000a81548173ffffffffffffffffffffffffffffffffffffffff021916908373ffffffffffffffffffffffffffffffffffffffff1602179055508173ffffffffffffffffffffffffffffffffffffffff168173ffffffffffffffffffffffffffffffffffffffff167f8be0079c531659141344cd1fd0a4f28419497f9722a3daafe3b4186f6b6457e060405160405180910390a35050565b600033905090565b600080fd5b6000819050919050565b610f6081610f4d565b8114610f6b57600080fd5b50565b600081359050610f7d81610f57565b92915050565b600060208284031215610f9957610f98610f48565b5b6000610fa784828501610f6e565b91505092915050565b600073ffffffffffffffffffffffffffffffffffffffff82169050919050565b6000610fdb82610fb0565b9050919050565b610feb81610fd0565b8114610ff657600080fd5b50565b60008135905061100881610fe2565b92915050565b60006020828403121561102457611023610f48565b5b600061103284828501610ff9565b91505092915050565b61104481610f4d565b82525050565b600060208201905061105f600083018461103b565b92915050565b61106e81610fd0565b82525050565b60006020820190506110896000830184611065565b92915050565b600080604083850312156110a6576110a5610f48565b5b60006110b485828601610ff9565b92505060206110c585828601610f6e565b9150509250929050565b600082825260208201905092915050565b7f496e73756666696369656e7420455448206f6e20436f6e747261637400000000600082015250565b6000611116601c836110cf565b9150611121826110e0565b602082019050919050565b6000602082019050818103600083015261114581611109565b9050919050565b7f4e487b7100000000000000000000000000000000000000000000000000000000600052601160045260246000fd5b600061118682610f4d565b915061119183610f4d565b925082820261119f81610f4d565b915082820484148315176111b6576111b561114c565b5b5092915050565b7f4e487b7100000000000000000000000000000000000000000000000000000000600052601260045260246000fd5b60006111f782610f4d565b915061120283610f4d565b925082611212576112116111bd565b5b828204905092915050565b7f4e487b7100000000000000000000000000000000000000000000000000000000600052603260045260246000fd5b60008151905061125b81610f57565b92915050565b60006020828403121561127757611276610f48565b5b60006112858482850161124c565b91505092915050565b60006040820190506112a36000830185611065565b6112b0602083018461103b565b9392505050565b60008115159050919050565b6112cc816112b7565b81146112d757600080fd5b50565b6000815190506112e9816112c3565b92915050565b60006020828403121561130557611304610f48565b5b6000611313848285016112da565b91505092915050565b7f4e6f2062616c616e636520746f20776974686472617700000000000000000000600082015250565b60006113526016836110cf565b915061135d8261131c565b602082019050919050565b6000602082019050818103600083015261138181611345565b9050919050565b7f496e73756666696369656e7420636f6e74726163742062616c616e6365000000600082015250565b60006113be601d836110cf565b91506113c982611388565b602082019050919050565b600060208201905081810360008301526113ed816113b1565b9050919050565b7f4465706f73697420616d6f756e74206d757374206265206174206c656173742060008201527f302e333520455448000000000000000000000000000000000000000000000000602082015250565b60006114506028836110cf565b915061145b826113f4565b604082019050919050565b6000602082019050818103600083015261147f81611443565b9050919050565b7f4f776e61626c653a206e6577206f776e657220697320746865207a65726f206160008201527f6464726573730000000000000000000000000000000000000000000000000000602082015250565b60006114e26026836110cf565b91506114ed82611486565b604082019050919050565b60006020820190508181036000830152611511816114d5565b9050919050565b6000819050919050565b61153361152e82610f4d565b611518565b82525050565b60006115458286611522565b6020820191506115558285611522565b6020820191506115658284611522565b602082019150819050949350505050565b600061158182610f4d565b915061158c83610f4d565b92508261159c5761159b6111bd565b5b828206905092915050565b60006115b282610f4d565b91507fffffffffffffffffffffffffffffffffffffffffffffffffffffffffffffffff82036115e4576115e361114c565b5b600182019050919050565b7f4f776e61626c653a2063616c6c6572206973206e6f7420746865206f776e6572600082015250565b60006116256020836110cf565b9150611630826115ef565b602082019050919050565b6000602082019050818103600083015261165481611618565b9050919050565b7f4e487b7100000000000000000000000000000000000000000000000000000000600052604160045260246000fd5b60008151905061169981610fe2565b92915050565b6000602082840312156116b5576116b4610f48565b5b60006116c38482850161168a565b91505092915050565b60006116d782610f4d565b91506116e283610f4d565b92508282019050808211156116fa576116f961114c565b5b92915050565b6000819050919050565b6000819050919050565b600061172f61172a61172584611700565b61170a565b610f4d565b9050919050565b61173f81611714565b82525050565b600081519050919050565b600082825260208201905092915050565b6000819050602082019050919050565b61177a81610fd0565b82525050565b600061178c8383611771565b60208301905092915050565b6000602082019050919050565b60006117b082611745565b6117ba8185611750565b93506117c583611761565b8060005b838110156117f65781516117dd8882611780565b97506117e883611798565b9250506001810190506117c9565b5085935050505092915050565b60006080820190506118186000830187611736565b818103602083015261182a81866117a5565b90506118396040830185611065565b611846606083018461103b565b95945050505050565b7f45544820746f20546f6b656e2053776170656400000000000000000000000000600082015250565b60006118856013836110cf565b91506118908261184f565b602082019050919050565b600060608201905081810360008301526118b481611878565b90506118c36020830185611736565b6118d0604083018461103b565b939250505056fea2646970667358221220fe549ced64ff5cf40a298d919ac9308a31b63152059f7ea393cdea427df51c7564736f6c63430008120033",
					"opcodes": "PUSH1 0x80 PUSH1 0x40 MSTORE PUSH1 0x40 MLOAD DUP1 PUSH2 0x2C0 ADD PUSH1 0x40 MSTORE DUP1 PUSH20 0x539BDE0D7DBD336B79148AA742883198BBF60342 PUSH20 0xFFFFFFFFFFFFFFFFFFFFFFFFFFFFFFFFFFFFFFFF AND PUSH20 0xFFFFFFFFFFFFFFFFFFFFFFFFFFFFFFFFFFFFFFFF AND DUP2 MSTORE PUSH1 0x20 ADD PUSH20 0x6C2C06790B3E3E3C38E12EE22F8183B37A13EE55 PUSH20 0xFFFFFFFFFFFFFFFFFFFFFFFFFFFFFFFFFFFFFFFF AND PUSH20 0xFFFFFFFFFFFFFFFFFFFFFFFFFFFFFFFFFFFFFFFF AND DUP2 MSTORE PUSH1 0x20 ADD PUSH20 0x32EB7902D4134BF98A28B963D26DE779AF92A212 PUSH20 0xFFFFFFFFFFFFFFFFFFFFFFFFFFFFFFFFFFFFFFFF AND PUSH20 0xFFFFFFFFFFFFFFFFFFFFFFFFFFFFFFFFFFFFFFFF AND DUP2 MSTORE PUSH1 0x20 ADD PUSH20 0x912CE59144191C1204E64559FE8253A0E49E6548 PUSH20 0xFFFFFFFFFFFFFFFFFFFFFFFFFFFFFFFFFFFFFFFF AND PUSH20 0xFFFFFFFFFFFFFFFFFFFFFFFFFFFFFFFFFFFFFFFF AND DUP2 MSTORE PUSH1 0x20 ADD PUSH20 0x8D9BA570D6CB60C7E3E0F31343EFE75AB8E65FB1 PUSH20 0xFFFFFFFFFFFFFFFFFFFFFFFFFFFFFFFFFFFFFFFF AND PUSH20 0xFFFFFFFFFFFFFFFFFFFFFFFFFFFFFFFFFFFFFFFF AND DUP2 MSTORE PUSH1 0x20 ADD PUSH20 0x2F2A2543B76A4166549F7AAB2E75BEF0AEFC5B0F PUSH20 0xFFFFFFFFFFFFFFFFFFFFFFFFFFFFFFFFFFFFFFFF AND PUSH20 0xFFFFFFFFFFFFFFFFFFFFFFFFFFFFFFFFFFFFFFFF AND DUP2 MSTORE PUSH1 0x20 ADD PUSH20 0x2E80259C9071B6176205FF5F5EB6F7EC8361B93F PUSH20 0xFFFFFFFFFFFFFFFFFFFFFFFFFFFFFFFFFFFFFFFF AND PUSH20 0xFFFFFFFFFFFFFFFFFFFFFFFFFFFFFFFFFFFFFFFF AND DUP2 MSTORE PUSH1 0x20 ADD PUSH20 0x51FC0F6660482EA73330E414EFD7808811A57FA2 PUSH20 0xFFFFFFFFFFFFFFFFFFFFFFFFFFFFFFFFFFFFFFFF AND PUSH20 0xFFFFFFFFFFFFFFFFFFFFFFFFFFFFFFFFFFFFFFFF AND DUP2 MSTORE PUSH1 0x20 ADD PUSH20 0x30DCBA0405004CF124045793E1933C798AF9E66A PUSH20 0xFFFFFFFFFFFFFFFFFFFFFFFFFFFFFFFFFFFFFFFF AND PUSH20 0xFFFFFFFFFFFFFFFFFFFFFFFFFFFFFFFFFFFFFFFF AND DUP2 MSTORE PUSH1 0x20 ADD PUSH20 0x73700AECFC4621E112304B6EDC5BA9E36D7743D3 PUSH20 0xFFFFFFFFFFFFFFFFFFFFFFFFFFFFFFFFFFFFFFFF AND PUSH20 0xFFFFFFFFFFFFFFFFFFFFFFFFFFFFFFFFFFFFFFFF AND DUP2 MSTORE PUSH1 0x20 ADD PUSH20 0xCB24B141ECAAAD0D2C255D6F99D6F4790546A75C PUSH20 0xFFFFFFFFFFFFFFFFFFFFFFFFFFFFFFFFFFFFFFFF AND PUSH20 0xFFFFFFFFFFFFFFFFFFFFFFFFFFFFFFFFFFFFFFFF AND DUP2 MSTORE PUSH1 0x20 ADD PUSH20 0xAA54E84A3E6E5A80288D2C2F8E36EA5CA3A3CA30 PUSH20 0xFFFFFFFFFFFFFFFFFFFFFFFFFFFFFFFFFFFFFFFF AND PUSH20 0xFFFFFFFFFFFFFFFFFFFFFFFFFFFFFFFFFFFFFFFF AND DUP2 MSTORE PUSH1 0x20 ADD PUSH20 0x7E49D5DE43DDA6162FA28D24D5935C151875283 PUSH20 0xFFFFFFFFFFFFFFFFFFFFFFFFFFFFFFFFFFFFFFFF AND PUSH20 0xFFFFFFFFFFFFFFFFFFFFFFFFFFFFFFFFFFFFFFFF AND DUP2 MSTORE PUSH1 0x20 ADD PUSH20 0x3E6648C5A70A150A88BCE65F4AD4D506FE15D2AF PUSH20 0xFFFFFFFFFFFFFFFFFFFFFFFFFFFFFFFFFFFFFFFF AND PUSH20 0xFFFFFFFFFFFFFFFFFFFFFFFFFFFFFFFFFFFFFFFF AND DUP2 MSTORE PUSH1 0x20 ADD PUSH20 0x2150E97271FDC0D6E3A16D9094A0948266F07DD PUSH20 0xFFFFFFFFFFFFFFFFFFFFFFFFFFFFFFFFFFFFFFFF AND PUSH20 0xFFFFFFFFFFFFFFFFFFFFFFFFFFFFFFFFFFFFFFFF AND DUP2 MSTORE PUSH1 0x20 ADD PUSH20 0x27D8DE4C30FFDE34E982482AE504FC7F23061F61 PUSH20 0xFFFFFFFFFFFFFFFFFFFFFFFFFFFFFFFFFFFFFFFF AND PUSH20 0xFFFFFFFFFFFFFFFFFFFFFFFFFFFFFFFFFFFFFFFF AND DUP2 MSTORE PUSH1 0x20 ADD PUSH20 0x93C15CD7DE26F07265F0272E0B831C5D7FAB174F PUSH20 0xFFFFFFFFFFFFFFFFFFFFFFFFFFFFFFFFFFFFFFFF AND PUSH20 0xFFFFFFFFFFFFFFFFFFFFFFFFFFFFFFFFFFFFFFFF AND DUP2 MSTORE PUSH1 0x20 ADD PUSH20 0xA6219B4BF4B861A2B1C02DA43B2AF266186EDC04 PUSH20 0xFFFFFFFFFFFFFFFFFFFFFFFFFFFFFFFFFFFFFFFF AND PUSH20 0xFFFFFFFFFFFFFFFFFFFFFFFFFFFFFFFFFFFFFFFF AND DUP2 MSTORE PUSH1 0x20 ADD PUSH20 0x6694340FC020C5E6B96567843DA2DF01B2CE1EB6 PUSH20 0xFFFFFFFFFFFFFFFFFFFFFFFFFFFFFFFFFFFFFFFF AND PUSH20 0xFFFFFFFFFFFFFFFFFFFFFFFFFFFFFFFFFFFFFFFF AND DUP2 MSTORE PUSH1 0x20 ADD PUSH20 0xBCC9C1763D54427BDF5EFB6E9EB9494E5A1FBABF PUSH20 0xFFFFFFFFFFFFFFFFFFFFFFFFFFFFFFFFFFFFFFFF AND PUSH20 0xFFFFFFFFFFFFFFFFFFFFFFFFFFFFFFFFFFFFFFFF AND DUP2 MSTORE PUSH1 0x20 ADD PUSH20 0xFEA7A6A0B346362BF88A9E4A88416B77A57D6C2A PUSH20 0xFFFFFFFFFFFFFFFFFFFFFFFFFFFFFFFFFFFFFFFF AND PUSH20 0xFFFFFFFFFFFFFFFFFFFFFFFFFFFFFFFFFFFFFFFF AND DUP2 MSTORE PUSH1 0x20 ADD PUSH20 0xD4D42F0B6DEF4CE0383636770EF773390D85C61A PUSH20 0xFFFFFFFFFFFFFFFFFFFFFFFFFFFFFFFFFFFFFFFF AND PUSH20 0xFFFFFFFFFFFFFFFFFFFFFFFFFFFFFFFFFFFFFFFF AND DUP2 MSTORE POP PUSH1 0x3 SWAP1 PUSH1 0x16 PUSH3 0x624 SWAP3 SWAP2 SWAP1 PUSH3 0x1554 JUMP JUMPDEST POP PUSH1 0x40 MLOAD DUP1 PUSH2 0x640 ADD PUSH1 0x40 MSTORE DUP1 PUSH20 0xA390F8307D15BEC3B241CD2788FAB9129AAC9EC8 PUSH20 0xFFFFFFFFFFFFFFFFFFFFFFFFFFFFFFFFFFFFFFFF AND PUSH20 0xFFFFFFFFFFFFFFFFFFFFFFFFFFFFFFFFFFFFFFFF AND DUP2 MSTORE PUSH1 0x20 ADD PUSH20 0xF3DDBE7B21C7BD2B8F836017359D006AE3F92297 PUSH20 0xFFFFFFFFFFFFFFFFFFFFFFFFFFFFFFFFFFFFFFFF AND PUSH20 0xFFFFFFFFFFFFFFFFFFFFFFFFFFFFFFFFFFFFFFFF AND DUP2 MSTORE PUSH1 0x20 ADD PUSH20 0x902DFCED0281982EA193A925DEF6C2F722C03347 PUSH20 0xFFFFFFFFFFFFFFFFFFFFFFFFFFFFFFFFFFFFFFFF AND PUSH20 0xFFFFFFFFFFFFFFFFFFFFFFFFFFFFFFFFFFFFFFFF AND DUP2 MSTORE PUSH1 0x20 ADD PUSH20 0xDD214CE9F991592857B7F0725B6E1AFB7104AF03 PUSH20 0xFFFFFFFFFFFFFFFFFFFFFFFFFFFFFFFFFFFFFFFF AND PUSH20 0xFFFFFFFFFFFFFFFFFFFFFFFFFFFFFFFFFFFFFFFF AND DUP2 MSTORE PUSH1 0x20 ADD PUSH20 0xD3181675A8E816F2728D5B075E5ED29126015D37 PUSH20 0xFFFFFFFFFFFFFFFFFFFFFFFFFFFFFFFFFFFFFFFF AND PUSH20 0xFFFFFFFFFFFFFFFFFFFFFFFFFFFFFFFFFFFFFFFF AND DUP2 MSTORE PUSH1 0x20 ADD PUSH19 0xB44F99FAE1453D3720C1AF3B9F2CB69382B323 PUSH20 0xFFFFFFFFFFFFFFFFFFFFFFFFFFFFFFFFFFFFFFFF AND PUSH20 0xFFFFFFFFFFFFFFFFFFFFFFFFFFFFFFFFFFFFFFFF AND DUP2 MSTORE PUSH1 0x20 ADD PUSH20 0x11B69773E4C33F7EDD127EE3C6C528F919BCA032 PUSH20 0xFFFFFFFFFFFFFFFFFFFFFFFFFFFFFFFFFFFFFFFF AND PUSH20 0xFFFFFFFFFFFFFFFFFFFFFFFFFFFFFFFFFFFFFFFF AND DUP2 MSTORE PUSH1 0x20 ADD PUSH20 0x8E5F6F92B07731C0615D86B56C9ED501B24D9250 PUSH20 0xFFFFFFFFFFFFFFFFFFFFFFFFFFFFFFFFFFFFFFFF AND PUSH20 0xFFFFFFFFFFFFFFFFFFFFFFFFFFFFFFFFFFFFFFFF AND DUP2 MSTORE PUSH1 0x20 ADD PUSH20 0xEB3254CA6092D4880FFED3B34AFEB03770E87D57 PUSH20 0xFFFFFFFFFFFFFFFFFFFFFFFFFFFFFFFFFFFFFFFF AND PUSH20 0xFFFFFFFFFFFFFFFFFFFFFFFFFFFFFFFFFFFFFFFF AND DUP2 MSTORE PUSH1 0x20 ADD PUSH20 0xD889D33CB09697BCEAF4573645CE603C7AC3A416 PUSH20 0xFFFFFFFFFFFFFFFFFFFFFFFFFFFFFFFFFFFFFFFF AND PUSH20 0xFFFFFFFFFFFFFFFFFFFFFFFFFFFFFFFFFFFFFFFF AND DUP2 MSTORE PUSH1 0x20 ADD PUSH20 0xCAE4A368DCF21547ED83E80B0F03BD3F842314A5 PUSH20 0xFFFFFFFFFFFFFFFFFFFFFFFFFFFFFFFFFFFFFFFF AND PUSH20 0xFFFFFFFFFFFFFFFFFFFFFFFFFFFFFFFFFFFFFFFF AND DUP2 MSTORE PUSH1 0x20 ADD PUSH20 0x75BB90446466BCF18AF03A57B22BEBB613C58066 PUSH20 0xFFFFFFFFFFFFFFFFFFFFFFFFFFFFFFFFFFFFFFFF AND PUSH20 0xFFFFFFFFFFFFFFFFFFFFFFFFFFFFFFFFFFFFFFFF AND DUP2 MSTORE PUSH1 0x20 ADD PUSH20 0x4CA596DA6F111AEE8F7BF5BF80B7E1A060A2E9EF PUSH20 0xFFFFFFFFFFFFFFFFFFFFFFFFFFFFFFFFFFFFFFFF AND PUSH20 0xFFFFFFFFFFFFFFFFFFFFFFFFFFFFFFFFFFFFFFFF AND DUP2 MSTORE PUSH1 0x20 ADD PUSH20 0x22CEF4F4F07CB79174D635BF7F476EA6C6009EE1 PUSH20 0xFFFFFFFFFFFFFFFFFFFFFFFFFFFFFFFFFFFFFFFF AND PUSH20 0xFFFFFFFFFFFFFFFFFFFFFFFFFFFFFFFFFFFFFFFF AND DUP2 MSTORE PUSH1 0x20 ADD PUSH20 0x2C50F23F3AEEAEF73DB2798F20E8CDC89B424B26 PUSH20 0xFFFFFFFFFFFFFFFFFFFFFFFFFFFFFFFFFFFFFFFF AND PUSH20 0xFFFFFFFFFFFFFFFFFFFFFFFFFFFFFFFFFFFFFFFF AND DUP2 MSTORE PUSH1 0x20 ADD PUSH20 0x84AB74FE031EA02488D4C28FA70C7DAA818B28A3 PUSH20 0xFFFFFFFFFFFFFFFFFFFFFFFFFFFFFFFFFFFFFFFF AND PUSH20 0xFFFFFFFFFFFFFFFFFFFFFFFFFFFFFFFFFFFFFFFF AND DUP2 MSTORE PUSH1 0x20 ADD PUSH20 0xFD5421F19CB21F5F940ED9A2A6AC55B7489281B8 PUSH20 0xFFFFFFFFFFFFFFFFFFFFFFFFFFFFFFFFFFFFFFFF AND PUSH20 0xFFFFFFFFFFFFFFFFFFFFFFFFFFFFFFFFFFFFFFFF AND DUP2 MSTORE PUSH1 0x20 ADD PUSH20 0x404DC03040CA803F8104E01594AABD3780288E8B PUSH20 0xFFFFFFFFFFFFFFFFFFFFFFFFFFFFFFFFFFFFFFFF AND PUSH20 0xFFFFFFFFFFFFFFFFFFFFFFFFFFFFFFFFFFFFFFFF AND DUP2 MSTORE PUSH1 0x20 ADD PUSH20 0x7D2EA354CEFE9A489C4E88403A3180CBFFFC6C4 PUSH20 0xFFFFFFFFFFFFFFFFFFFFFFFFFFFFFFFFFFFFFFFF AND PUSH20 0xFFFFFFFFFFFFFFFFFFFFFFFFFFFFFFFFFFFFFFFF AND DUP2 MSTORE PUSH1 0x20 ADD PUSH20 0x397C42AB7694C08B8831360C030A6E53053CBD13 PUSH20 0xFFFFFFFFFFFFFFFFFFFFFFFFFFFFFFFFFFFFFFFF AND PUSH20 0xFFFFFFFFFFFFFFFFFFFFFFFFFFFFFFFFFFFFFFFF AND DUP2 MSTORE PUSH1 0x20 ADD PUSH20 0x49971947BE80648E195ECE3BA4EE773C6B39CB05 PUSH20 0xFFFFFFFFFFFFFFFFFFFFFFFFFFFFFFFFFFFFFFFF AND PUSH20 0xFFFFFFFFFFFFFFFFFFFFFFFFFFFFFFFFFFFFFFFF AND DUP2 MSTORE PUSH1 0x20 ADD PUSH20 0x10841DE53FCBF834C1D0EB7AC8C01E79013B97CF PUSH20 0xFFFFFFFFFFFFFFFFFFFFFFFFFFFFFFFFFFFFFFFF AND PUSH20 0xFFFFFFFFFFFFFFFFFFFFFFFFFFFFFFFFFFFFFFFF AND DUP2 MSTORE PUSH1 0x20 ADD PUSH20 0x454CADD08A4E9AE3D7D348BAA2CC63D679F14A9B PUSH20 0xFFFFFFFFFFFFFFFFFFFFFFFFFFFFFFFFFFFFFFFF AND PUSH20 0xFFFFFFFFFFFFFFFFFFFFFFFFFFFFFFFFFFFFFFFF AND DUP2 MSTORE PUSH1 0x20 ADD PUSH20 0xC1B00381699338D39D009245C45AAC08D424D4BC PUSH20 0xFFFFFFFFFFFFFFFFFFFFFFFFFFFFFFFFFFFFFFFF AND PUSH20 0xFFFFFFFFFFFFFFFFFFFFFFFFFFFFFFFFFFFFFFFF AND DUP2 MSTORE PUSH1 0x20 ADD PUSH20 0x62A584531ECFC0AD10FBD088EB1C5C08386F3341 PUSH20 0xFFFFFFFFFFFFFFFFFFFFFFFFFFFFFFFFFFFFFFFF AND PUSH20 0xFFFFFFFFFFFFFFFFFFFFFFFFFFFFFFFFFFFFFFFF AND DUP2 MSTORE PUSH1 0x20 ADD PUSH20 0xEB89E899134D69B915080DE2F2B5A4BDA393EE1A PUSH20 0xFFFFFFFFFFFFFFFFFFFFFFFFFFFFFFFFFFFFFFFF AND PUSH20 0xFFFFFFFFFFFFFFFFFFFFFFFFFFFFFFFFFFFFFFFF AND DUP2 MSTORE PUSH1 0x20 ADD PUSH20 0x7F2FD67B0C500E5389423DBAEA5DC2B7C99DDC79 PUSH20 0xFFFFFFFFFFFFFFFFFFFFFFFFFFFFFFFFFFFFFFFF AND PUSH20 0xFFFFFFFFFFFFFFFFFFFFFFFFFFFFFFFFFFFFFFFF AND DUP2 MSTORE PUSH1 0x20 ADD PUSH20 0x51F32394B43EAE9285BFB3370E70C4489698D36B PUSH20 0xFFFFFFFFFFFFFFFFFFFFFFFFFFFFFFFFFFFFFFFF AND PUSH20 0xFFFFFFFFFFFFFFFFFFFFFFFFFFFFFFFFFFFFFFFF AND DUP2 MSTORE PUSH1 0x20 ADD PUSH20 0x5487685B7296E519580BB3BA3485A0F617F1FE14 PUSH20 0xFFFFFFFFFFFFFFFFFFFFFFFFFFFFFFFFFFFFFFFF AND PUSH20 0xFFFFFFFFFFFFFFFFFFFFFFFFFFFFFFFFFFFFFFFF AND DUP2 MSTORE PUSH1 0x20 ADD PUSH20 0xC1B240777E906CF2BAFABAC74FB22C377FE40012 PUSH20 0xFFFFFFFFFFFFFFFFFFFFFFFFFFFFFFFFFFFFFFFF AND PUSH20 0xFFFFFFFFFFFFFFFFFFFFFFFFFFFFFFFFFFFFFFFF AND DUP2 MSTORE PUSH1 0x20 ADD PUSH20 0x1EC888A716422A830282B96FBB8790BA1DF45C4D PUSH20 0xFFFFFFFFFFFFFFFFFFFFFFFFFFFFFFFFFFFFFFFF AND PUSH20 0xFFFFFFFFFFFFFFFFFFFFFFFFFFFFFFFFFFFFFFFF AND DUP2 MSTORE PUSH1 0x20 ADD PUSH20 0x1617B8BFD0E19673FFBB866BDF398A67856E7600 PUSH20 0xFFFFFFFFFFFFFFFFFFFFFFFFFFFFFFFFFFFFFFFF AND PUSH20 0xFFFFFFFFFFFFFFFFFFFFFFFFFFFFFFFFFFFFFFFF AND DUP2 MSTORE PUSH1 0x20 ADD PUSH20 0x2FD6463ADBDE8D737A83B26A86E849A09F9CCB85 PUSH20 0xFFFFFFFFFFFFFFFFFFFFFFFFFFFFFFFFFFFFFFFF AND PUSH20 0xFFFFFFFFFFFFFFFFFFFFFFFFFFFFFFFFFFFFFFFF AND DUP2 MSTORE PUSH1 0x20 ADD PUSH20 0x28A166860C81FF64DE712F0736A2D594BD1AAC95 PUSH20 0xFFFFFFFFFFFFFFFFFFFFFFFFFFFFFFFFFFFFFFFF AND PUSH20 0xFFFFFFFFFFFFFFFFFFFFFFFFFFFFFFFFFFFFFFFF AND DUP2 MSTORE PUSH1 0x20 ADD PUSH20 0xD76F7C0BB2DEB5B630B7A882F6B01490A8D28882 PUSH20 0xFFFFFFFFFFFFFFFFFFFFFFFFFFFFFFFFFFFFFFFF AND PUSH20 0xFFFFFFFFFFFFFFFFFFFFFFFFFFFFFFFFFFFFFFFF AND DUP2 MSTORE PUSH1 0x20 ADD PUSH20 0x277959AF8D243743DF0EE000658F88E345F80DB PUSH20 0xFFFFFFFFFFFFFFFFFFFFFFFFFFFFFFFFFFFFFFFF AND PUSH20 0xFFFFFFFFFFFFFFFFFFFFFFFFFFFFFFFFFFFFFFFF AND DUP2 MSTORE PUSH1 0x20 ADD PUSH20 0x352E281177866E768A584007A5AE8E43E168D1C3 PUSH20 0xFFFFFFFFFFFFFFFFFFFFFFFFFFFFFFFFFFFFFFFF AND PUSH20 0xFFFFFFFFFFFFFFFFFFFFFFFFFFFFFFFFFFFFFFFF AND DUP2 MSTORE PUSH1 0x20 ADD PUSH20 0x86B88050E95F5ABEB2C76F729C59523E8E2895D7 PUSH20 0xFFFFFFFFFFFFFFFFFFFFFFFFFFFFFFFFFFFFFFFF AND PUSH20 0xFFFFFFFFFFFFFFFFFFFFFFFFFFFFFFFFFFFFFFFF AND DUP2 MSTORE PUSH1 0x20 ADD PUSH20 0xD8121843A3893C7D049F1CD7919E3050842A798A PUSH20 0xFFFFFFFFFFFFFFFFFFFFFFFFFFFFFFFFFFFFFFFF AND PUSH20 0xFFFFFFFFFFFFFFFFFFFFFFFFFFFFFFFFFFFFFFFF AND DUP2 MSTORE PUSH1 0x20 ADD PUSH20 0x2E1EEC7FF2BCD35EB8C05E6962A582DCE0CC03A0 PUSH20 0xFFFFFFFFFFFFFFFFFFFFFFFFFFFFFFFFFFFFFFFF AND PUSH20 0xFFFFFFFFFFFFFFFFFFFFFFFFFFFFFFFFFFFFFFFF AND DUP2 MSTORE PUSH1 0x20 ADD PUSH20 0x77989C9C77063B8D95D674ED7079FC0273C19C67 PUSH20 0xFFFFFFFFFFFFFFFFFFFFFFFFFFFFFFFFFFFFFFFF AND PUSH20 0xFFFFFFFFFFFFFFFFFFFFFFFFFFFFFFFFFFFFFFFF AND DUP2 MSTORE PUSH1 0x20 ADD PUSH20 0x2D39AD1C9F11313C2F074218D1F2E370185012E2 PUSH20 0xFFFFFFFFFFFFFFFFFFFFFFFFFFFFFFFFFFFFFFFF AND PUSH20 0xFFFFFFFFFFFFFFFFFFFFFFFFFFFFFFFFFFFFFFFF AND DUP2 MSTORE PUSH1 0x20 ADD PUSH20 0xD227B9F4AFC1885211E70DD0D9AEFD2CFFC01AEB PUSH20 0xFFFFFFFFFFFFFFFFFFFFFFFFFFFFFFFFFFFFFFFF AND PUSH20 0xFFFFFFFFFFFFFFFFFFFFFFFFFFFFFFFFFFFFFFFF AND DUP2 MSTORE PUSH1 0x20 ADD PUSH20 0xC91CE75801CC84D05ABAA8445C30A75C268AB8B0 PUSH20 0xFFFFFFFFFFFFFFFFFFFFFFFFFFFFFFFFFFFFFFFF AND PUSH20 0xFFFFFFFFFFFFFFFFFFFFFFFFFFFFFFFFFFFFFFFF AND DUP2 MSTORE PUSH1 0x20 ADD PUSH20 0x2E0A2469D1C8C2C5E76517FC3AF97E9573072C7C PUSH20 0xFFFFFFFFFFFFFFFFFFFFFFFFFFFFFFFFFFFFFFFF AND PUSH20 0xFFFFFFFFFFFFFFFFFFFFFFFFFFFFFFFFFFFFFFFF AND DUP2 MSTORE PUSH1 0x20 ADD PUSH20 0x1F52BB424C0775405AD37AB0BB719FEDD3E04BE PUSH20 0xFFFFFFFFFFFFFFFFFFFFFFFFFFFFFFFFFFFFFFFF AND PUSH20 0xFFFFFFFFFFFFFFFFFFFFFFFFFFFFFFFFFFFFFFFF AND DUP2 MSTORE PUSH1 0x20 ADD PUSH20 0x9731A2C6E2E22751B99A61BE77DBD6938368A156 PUSH20 0xFFFFFFFFFFFFFFFFFFFFFFFFFFFFFFFFFFFFFFFF AND PUSH20 0xFFFFFFFFFFFFFFFFFFFFFFFFFFFFFFFFFFFFFFFF AND DUP2 MSTORE PUSH1 0x20 ADD PUSH20 0x433F3A7AFD989BA96155AC4F28187DD7C1F15E3E PUSH20 0xFFFFFFFFFFFFFFFFFFFFFFFFFFFFFFFFFFFFFFFF AND PUSH20 0xFFFFFFFFFFFFFFFFFFFFFFFFFFFFFFFFFFFFFFFF AND DUP2 MSTORE PUSH1 0x20 ADD PUSH20 0xE9748053FBD09936872BBD82CAEBA843DD518D55 PUSH20 0xFFFFFFFFFFFFFFFFFFFFFFFFFFFFFFFFFFFFFFFF AND PUSH20 0xFFFFFFFFFFFFFFFFFFFFFFFFFFFFFFFFFFFFFFFF AND DUP2 MSTORE PUSH1 0x20 ADD PUSH20 0x275B23FCB43E46DB317A14E73C097BF5D5FCF145 PUSH20 0xFFFFFFFFFFFFFFFFFFFFFFFFFFFFFFFFFFFFFFFF AND PUSH20 0xFFFFFFFFFFFFFFFFFFFFFFFFFFFFFFFFFFFFFFFF AND DUP2 MSTORE POP PUSH1 0x1A SWAP1 PUSH1 0x32 PUSH3 0x13EC SWAP3 SWAP2 SWAP1 PUSH3 0x15D6 JUMP JUMPDEST POP PUSH1 0x0 PUSH1 0x4C SSTORE CALLVALUE DUP1 ISZERO PUSH3 0x13FF JUMPI PUSH1 0x0 DUP1 REVERT JUMPDEST POP PUSH3 0x1420 PUSH3 0x1414 PUSH3 0x1488 PUSH1 0x20 SHL PUSH1 0x20 SHR JUMP JUMPDEST PUSH3 0x1490 PUSH1 0x20 SHL PUSH1 0x20 SHR JUMP JUMPDEST PUSH1 0x1 DUP1 DUP2 SWAP1 SSTORE POP PUSH1 0x0 PUSH20 0x1B02DA8CB0D097EB8D57A175B88C7D8B47997506 SWAP1 POP DUP1 PUSH1 0x2 PUSH1 0x0 PUSH2 0x100 EXP DUP2 SLOAD DUP2 PUSH20 0xFFFFFFFFFFFFFFFFFFFFFFFFFFFFFFFFFFFFFFFF MUL NOT AND SWAP1 DUP4 PUSH20 0xFFFFFFFFFFFFFFFFFFFFFFFFFFFFFFFFFFFFFFFF AND MUL OR SWAP1 SSTORE POP POP PUSH3 0x1677 JUMP JUMPDEST PUSH1 0x0 CALLER SWAP1 POP SWAP1 JUMP JUMPDEST PUSH1 0x0 DUP1 PUSH1 0x0 SWAP1 SLOAD SWAP1 PUSH2 0x100 EXP SWAP1 DIV PUSH20 0xFFFFFFFFFFFFFFFFFFFFFFFFFFFFFFFFFFFFFFFF AND SWAP1 POP DUP2 PUSH1 0x0 DUP1 PUSH2 0x100 EXP DUP2 SLOAD DUP2 PUSH20 0xFFFFFFFFFFFFFFFFFFFFFFFFFFFFFFFFFFFFFFFF MUL NOT AND SWAP1 DUP4 PUSH20 0xFFFFFFFFFFFFFFFFFFFFFFFFFFFFFFFFFFFFFFFF AND MUL OR SWAP1 SSTORE POP DUP2 PUSH20 0xFFFFFFFFFFFFFFFFFFFFFFFFFFFFFFFFFFFFFFFF AND DUP2 PUSH20 0xFFFFFFFFFFFFFFFFFFFFFFFFFFFFFFFFFFFFFFFF AND PUSH32 0x8BE0079C531659141344CD1FD0A4F28419497F9722A3DAAFE3B4186F6B6457E0 PUSH1 0x40 MLOAD PUSH1 0x40 MLOAD DUP1 SWAP2 SUB SWAP1 LOG3 POP POP JUMP JUMPDEST DUP3 PUSH1 0x17 DUP2 ADD SWAP3 DUP3 ISZERO PUSH3 0x15C3 JUMPI SWAP2 PUSH1 0x20 MUL DUP3 ADD JUMPDEST DUP3 DUP2 GT ISZERO PUSH3 0x15C2 JUMPI DUP3 MLOAD DUP3 PUSH1 0x0 PUSH2 0x100 EXP DUP2 SLOAD DUP2 PUSH20 0xFFFFFFFFFFFFFFFFFFFFFFFFFFFFFFFFFFFFFFFF MUL NOT AND SWAP1 DUP4 PUSH20 0xFFFFFFFFFFFFFFFFFFFFFFFFFFFFFFFFFFFFFFFF AND MUL OR SWAP1 SSTORE POP SWAP2 PUSH1 0x20 ADD SWAP2 SWAP1 PUSH1 0x1 ADD SWAP1 PUSH3 0x1568 JUMP JUMPDEST JUMPDEST POP SWAP1 POP PUSH3 0x15D2 SWAP2 SWAP1 PUSH3 0x1658 JUMP JUMPDEST POP SWAP1 JUMP JUMPDEST DUP3 PUSH1 0x32 DUP2 ADD SWAP3 DUP3 ISZERO PUSH3 0x1645 JUMPI SWAP2 PUSH1 0x20 MUL DUP3 ADD JUMPDEST DUP3 DUP2 GT ISZERO PUSH3 0x1644 JUMPI DUP3 MLOAD DUP3 PUSH1 0x0 PUSH2 0x100 EXP DUP2 SLOAD DUP2 PUSH20 0xFFFFFFFFFFFFFFFFFFFFFFFFFFFFFFFFFFFFFFFF MUL NOT AND SWAP1 DUP4 PUSH20 0xFFFFFFFFFFFFFFFFFFFFFFFFFFFFFFFFFFFFFFFF AND MUL OR SWAP1 SSTORE POP SWAP2 PUSH1 0x20 ADD SWAP2 SWAP1 PUSH1 0x1 ADD SWAP1 PUSH3 0x15EA JUMP JUMPDEST JUMPDEST POP SWAP1 POP PUSH3 0x1654 SWAP2 SWAP1 PUSH3 0x1658 JUMP JUMPDEST POP SWAP1 JUMP JUMPDEST JUMPDEST DUP1 DUP3 GT ISZERO PUSH3 0x1673 JUMPI PUSH1 0x0 DUP2 PUSH1 0x0 SWAP1 SSTORE POP PUSH1 0x1 ADD PUSH3 0x1659 JUMP JUMPDEST POP SWAP1 JUMP JUMPDEST PUSH2 0x190D DUP1 PUSH3 0x1687 PUSH1 0x0 CODECOPY PUSH1 0x0 RETURN INVALID PUSH1 0x80 PUSH1 0x40 MSTORE PUSH1 0x4 CALLDATASIZE LT PUSH2 0xF7 JUMPI PUSH1 0x0 CALLDATALOAD PUSH1 0xE0 SHR DUP1 PUSH4 0xC14040FC GT PUSH2 0x8A JUMPI DUP1 PUSH4 0xD0E30DB0 GT PUSH2 0x59 JUMPI DUP1 PUSH4 0xD0E30DB0 EQ PUSH2 0x2C1 JUMPI DUP1 PUSH4 0xE06174E4 EQ PUSH2 0x2CB JUMPI DUP1 PUSH4 0xF2FDE38B EQ PUSH2 0x2E2 JUMPI DUP1 PUSH4 0xFB2A4838 EQ PUSH2 0x30B JUMPI PUSH2 0xFE JUMP JUMPDEST DUP1 PUSH4 0xC14040FC EQ PUSH2 0x22B JUMPI DUP1 PUSH4 0xC1AF81D9 EQ PUSH2 0x242 JUMPI DUP1 PUSH4 0xCCBAC9F5 EQ PUSH2 0x26B JUMPI DUP1 PUSH4 0xCFAD5277 EQ PUSH2 0x296 JUMPI PUSH2 0xFE JUMP JUMPDEST DUP1 PUSH4 0x7E1C0C09 GT PUSH2 0xC6 JUMPI DUP1 PUSH4 0x7E1C0C09 EQ PUSH2 0x183 JUMPI DUP1 PUSH4 0x8DA5CB5B EQ PUSH2 0x1AE JUMPI DUP1 PUSH4 0x8DEBFF78 EQ PUSH2 0x1D9 JUMPI DUP1 PUSH4 0xB8C6FD84 EQ PUSH2 0x202 JUMPI PUSH2 0xFE JUMP JUMPDEST DUP1 PUSH4 0x2A03CD6A EQ PUSH2 0x103 JUMPI DUP1 PUSH4 0x3CCFD60B EQ PUSH2 0x12C JUMPI DUP1 PUSH4 0x434F6C8A EQ PUSH2 0x143 JUMPI DUP1 PUSH4 0x5F5CF8E2 EQ PUSH2 0x16C JUMPI PUSH2 0xFE JUMP JUMPDEST CALLDATASIZE PUSH2 0xFE JUMPI STOP JUMPDEST PUSH1 0x0 DUP1 REVERT JUMPDEST CALLVALUE DUP1 ISZERO PUSH2 0x10F JUMPI PUSH1 0x0 DUP1 REVERT JUMPDEST POP PUSH2 0x12A PUSH1 0x4 DUP1 CALLDATASIZE SUB DUP2 ADD SWAP1 PUSH2 0x125 SWAP2 SWAP1 PUSH2 0xF83 JUMP JUMPDEST PUSH2 0x348 JUMP JUMPDEST STOP JUMPDEST CALLVALUE DUP1 ISZERO PUSH2 0x138 JUMPI PUSH1 0x0 DUP1 REVERT JUMPDEST POP PUSH2 0x141 PUSH2 0x714 JUMP JUMPDEST STOP JUMPDEST CALLVALUE DUP1 ISZERO PUSH2 0x14F JUMPI PUSH1 0x0 DUP1 REVERT JUMPDEST POP PUSH2 0x16A PUSH1 0x4 DUP1 CALLDATASIZE SUB DUP2 ADD SWAP1 PUSH2 0x165 SWAP2 SWAP1 PUSH2 0x100E JUMP JUMPDEST PUSH2 0x716 JUMP JUMPDEST STOP JUMPDEST CALLVALUE DUP1 ISZERO PUSH2 0x178 JUMPI PUSH1 0x0 DUP1 REVERT JUMPDEST POP PUSH2 0x181 PUSH2 0x7BB JUMP JUMPDEST STOP JUMPDEST CALLVALUE DUP1 ISZERO PUSH2 0x18F JUMPI PUSH1 0x0 DUP1 REVERT JUMPDEST POP PUSH2 0x198 PUSH2 0x7BD JUMP JUMPDEST PUSH1 0x40 MLOAD PUSH2 0x1A5 SWAP2 SWAP1 PUSH2 0x104A JUMP JUMPDEST PUSH1 0x40 MLOAD DUP1 SWAP2 SUB SWAP1 RETURN JUMPDEST CALLVALUE DUP1 ISZERO PUSH2 0x1BA JUMPI PUSH1 0x0 DUP1 REVERT JUMPDEST POP PUSH2 0x1C3 PUSH2 0x7C2 JUMP JUMPDEST PUSH1 0x40 MLOAD PUSH2 0x1D0 SWAP2 SWAP1 PUSH2 0x1074 JUMP JUMPDEST PUSH1 0x40 MLOAD DUP1 SWAP2 SUB SWAP1 RETURN JUMPDEST CALLVALUE DUP1 ISZERO PUSH2 0x1E5 JUMPI PUSH1 0x0 DUP1 REVERT JUMPDEST POP PUSH2 0x200 PUSH1 0x4 DUP1 CALLDATASIZE SUB DUP2 ADD SWAP1 PUSH2 0x1FB SWAP2 SWAP1 PUSH2 0x108F JUMP JUMPDEST PUSH2 0x7EB JUMP JUMPDEST STOP JUMPDEST CALLVALUE DUP1 ISZERO PUSH2 0x20E JUMPI PUSH1 0x0 DUP1 REVERT JUMPDEST POP PUSH2 0x229 PUSH1 0x4 DUP1 CALLDATASIZE SUB DUP2 ADD SWAP1 PUSH2 0x224 SWAP2 SWAP1 PUSH2 0x100E JUMP JUMPDEST PUSH2 0x891 JUMP JUMPDEST STOP JUMPDEST CALLVALUE DUP1 ISZERO PUSH2 0x237 JUMPI PUSH1 0x0 DUP1 REVERT JUMPDEST POP PUSH2 0x240 PUSH2 0x9E7 JUMP JUMPDEST STOP JUMPDEST CALLVALUE DUP1 ISZERO PUSH2 0x24E JUMPI PUSH1 0x0 DUP1 REVERT JUMPDEST POP PUSH2 0x269 PUSH1 0x4 DUP1 CALLDATASIZE SUB DUP2 ADD SWAP1 PUSH2 0x264 SWAP2 SWAP1 PUSH2 0x108F JUMP JUMPDEST PUSH2 0x9E9 JUMP JUMPDEST STOP JUMPDEST CALLVALUE DUP1 ISZERO PUSH2 0x277 JUMPI PUSH1 0x0 DUP1 REVERT JUMPDEST POP PUSH2 0x280 PUSH2 0xA0B JUMP JUMPDEST PUSH1 0x40 MLOAD PUSH2 0x28D SWAP2 SWAP1 PUSH2 0x104A JUMP JUMPDEST PUSH1 0x40 MLOAD DUP1 SWAP2 SUB SWAP1 RETURN JUMPDEST CALLVALUE DUP1 ISZERO PUSH2 0x2A2 JUMPI PUSH1 0x0 DUP1 REVERT JUMPDEST POP PUSH2 0x2AB PUSH2 0xA11 JUMP JUMPDEST PUSH1 0x40 MLOAD PUSH2 0x2B8 SWAP2 SWAP1 PUSH2 0x104A JUMP JUMPDEST PUSH1 0x40 MLOAD DUP1 SWAP2 SUB SWAP1 RETURN JUMPDEST PUSH2 0x2C9 PUSH2 0xA16 JUMP JUMPDEST STOP JUMPDEST CALLVALUE DUP1 ISZERO PUSH2 0x2D7 JUMPI PUSH1 0x0 DUP1 REVERT JUMPDEST POP PUSH2 0x2E0 PUSH2 0xA62 JUMP JUMPDEST STOP JUMPDEST CALLVALUE DUP1 ISZERO PUSH2 0x2EE JUMPI PUSH1 0x0 DUP1 REVERT JUMPDEST POP PUSH2 0x309 PUSH1 0x4 DUP1 CALLDATASIZE SUB DUP2 ADD SWAP1 PUSH2 0x304 SWAP2 SWAP1 PUSH2 0x100E JUMP JUMPDEST PUSH2 0xA64 JUMP JUMPDEST STOP JUMPDEST CALLVALUE DUP1 ISZERO PUSH2 0x317 JUMPI PUSH1 0x0 DUP1 REVERT JUMPDEST POP PUSH2 0x332 PUSH1 0x4 DUP1 CALLDATASIZE SUB DUP2 ADD SWAP1 PUSH2 0x32D SWAP2 SWAP1 PUSH2 0xF83 JUMP JUMPDEST PUSH2 0xAE7 JUMP JUMPDEST PUSH1 0x40 MLOAD PUSH2 0x33F SWAP2 SWAP1 PUSH2 0x104A JUMP JUMPDEST PUSH1 0x40 MLOAD DUP1 SWAP2 SUB SWAP1 RETURN JUMPDEST PUSH2 0x350 PUSH2 0xB4C JUMP JUMPDEST DUP1 SELFBALANCE LT ISZERO PUSH2 0x393 JUMPI PUSH1 0x40 MLOAD PUSH32 0x8C379A000000000000000000000000000000000000000000000000000000000 DUP2 MSTORE PUSH1 0x4 ADD PUSH2 0x38A SWAP1 PUSH2 0x112C JUMP JUMPDEST PUSH1 0x40 MLOAD DUP1 SWAP2 SUB SWAP1 REVERT JUMPDEST PUSH1 0x0 PUSH1 0x64 PUSH1 0x3C DUP4 PUSH2 0x3A4 SWAP2 SWAP1 PUSH2 0x117B JUMP JUMPDEST PUSH2 0x3AE SWAP2 SWAP1 PUSH2 0x11EC JUMP JUMPDEST SWAP1 POP PUSH1 0x0 PUSH1 0x64 PUSH1 0x28 DUP5 PUSH2 0x3C1 SWAP2 SWAP1 PUSH2 0x117B JUMP JUMPDEST PUSH2 0x3CB SWAP2 SWAP1 PUSH2 0x11EC JUMP JUMPDEST SWAP1 POP PUSH2 0x3D5 PUSH2 0x7C2 JUMP JUMPDEST PUSH20 0xFFFFFFFFFFFFFFFFFFFFFFFFFFFFFFFFFFFFFFFF AND PUSH2 0x8FC DUP3 SWAP1 DUP2 ISZERO MUL SWAP1 PUSH1 0x40 MLOAD PUSH1 0x0 PUSH1 0x40 MLOAD DUP1 DUP4 SUB DUP2 DUP6 DUP9 DUP9 CALL SWAP4 POP POP POP POP ISZERO DUP1 ISZERO PUSH2 0x41A JUMPI RETURNDATASIZE PUSH1 0x0 DUP1 RETURNDATACOPY RETURNDATASIZE PUSH1 0x0 REVERT JUMPDEST POP PUSH1 0x0 PUSH1 0x3 PUSH2 0x429 PUSH1 0x17 PUSH2 0xAE7 JUMP JUMPDEST PUSH1 0x17 DUP2 LT PUSH2 0x43A JUMPI PUSH2 0x439 PUSH2 0x121D JUMP JUMPDEST JUMPDEST ADD PUSH1 0x0 SWAP1 SLOAD SWAP1 PUSH2 0x100 EXP SWAP1 DIV PUSH20 0xFFFFFFFFFFFFFFFFFFFFFFFFFFFFFFFFFFFFFFFF AND SWAP1 POP PUSH2 0x474 DUP2 PUSH1 0x2 DUP6 PUSH2 0x46F SWAP2 SWAP1 PUSH2 0x11EC JUMP JUMPDEST PUSH2 0xBCA JUMP JUMPDEST PUSH1 0x0 PUSH1 0x3 PUSH2 0x482 PUSH1 0x17 PUSH2 0xAE7 JUMP JUMPDEST PUSH1 0x17 DUP2 LT PUSH2 0x493 JUMPI PUSH2 0x492 PUSH2 0x121D JUMP JUMPDEST JUMPDEST ADD PUSH1 0x0 SWAP1 SLOAD SWAP1 PUSH2 0x100 EXP SWAP1 DIV PUSH20 0xFFFFFFFFFFFFFFFFFFFFFFFFFFFFFFFFFFFFFFFF AND SWAP1 POP PUSH2 0x4CD DUP2 PUSH1 0x2 DUP7 PUSH2 0x4C8 SWAP2 SWAP1 PUSH2 0x11EC JUMP JUMPDEST PUSH2 0xBCA JUMP JUMPDEST PUSH1 0x0 PUSH1 0x1A PUSH2 0x4DB PUSH1 0x32 PUSH2 0xAE7 JUMP JUMPDEST PUSH1 0x32 DUP2 LT PUSH2 0x4EC JUMPI PUSH2 0x4EB PUSH2 0x121D JUMP JUMPDEST JUMPDEST ADD PUSH1 0x0 SWAP1 SLOAD SWAP1 PUSH2 0x100 EXP SWAP1 DIV PUSH20 0xFFFFFFFFFFFFFFFFFFFFFFFFFFFFFFFFFFFFFFFF AND SWAP1 POP PUSH1 0x0 DUP4 PUSH20 0xFFFFFFFFFFFFFFFFFFFFFFFFFFFFFFFFFFFFFFFF AND PUSH4 0x70A08231 ADDRESS PUSH1 0x40 MLOAD DUP3 PUSH4 0xFFFFFFFF AND PUSH1 0xE0 SHL DUP2 MSTORE PUSH1 0x4 ADD PUSH2 0x54B SWAP2 SWAP1 PUSH2 0x1074 JUMP JUMPDEST PUSH1 0x20 PUSH1 0x40 MLOAD DUP1 DUP4 SUB DUP2 DUP7 GAS STATICCALL ISZERO DUP1 ISZERO PUSH2 0x568 JUMPI RETURNDATASIZE PUSH1 0x0 DUP1 RETURNDATACOPY RETURNDATASIZE PUSH1 0x0 REVERT JUMPDEST POP POP POP POP PUSH1 0x40 MLOAD RETURNDATASIZE PUSH1 0x1F NOT PUSH1 0x1F DUP3 ADD AND DUP3 ADD DUP1 PUSH1 0x40 MSTORE POP DUP2 ADD SWAP1 PUSH2 0x58C SWAP2 SWAP1 PUSH2 0x1261 JUMP JUMPDEST SWAP1 POP PUSH1 0x0 DUP4 PUSH20 0xFFFFFFFFFFFFFFFFFFFFFFFFFFFFFFFFFFFFFFFF AND PUSH4 0x70A08231 ADDRESS PUSH1 0x40 MLOAD DUP3 PUSH4 0xFFFFFFFF AND PUSH1 0xE0 SHL DUP2 MSTORE PUSH1 0x4 ADD PUSH2 0x5C9 SWAP2 SWAP1 PUSH2 0x1074 JUMP JUMPDEST PUSH1 0x20 PUSH1 0x40 MLOAD DUP1 DUP4 SUB DUP2 DUP7 GAS STATICCALL ISZERO DUP1 ISZERO PUSH2 0x5E6 JUMPI RETURNDATASIZE PUSH1 0x0 DUP1 RETURNDATACOPY RETURNDATASIZE PUSH1 0x0 REVERT JUMPDEST POP POP POP POP PUSH1 0x40 MLOAD RETURNDATASIZE PUSH1 0x1F NOT PUSH1 0x1F DUP3 ADD AND DUP3 ADD DUP1 PUSH1 0x40 MSTORE POP DUP2 ADD SWAP1 PUSH2 0x60A SWAP2 SWAP1 PUSH2 0x1261 JUMP JUMPDEST SWAP1 POP DUP5 PUSH20 0xFFFFFFFFFFFFFFFFFFFFFFFFFFFFFFFFFFFFFFFF AND PUSH4 0xA9059CBB DUP5 DUP5 PUSH1 0x40 MLOAD DUP4 PUSH4 0xFFFFFFFF AND PUSH1 0xE0 SHL DUP2 MSTORE PUSH1 0x4 ADD PUSH2 0x647 SWAP3 SWAP2 SWAP1 PUSH2 0x128E JUMP JUMPDEST PUSH1 0x20 PUSH1 0x40 MLOAD DUP1 DUP4 SUB DUP2 PUSH1 0x0 DUP8 GAS CALL ISZERO DUP1 ISZERO PUSH2 0x666 JUMPI RETURNDATASIZE PUSH1 0x0 DUP1 RETURNDATACOPY RETURNDATASIZE PUSH1 0x0 REVERT JUMPDEST POP POP POP POP PUSH1 0x40 MLOAD RETURNDATASIZE PUSH1 0x1F NOT PUSH1 0x1F DUP3 ADD AND DUP3 ADD DUP1 PUSH1 0x40 MSTORE POP DUP2 ADD SWAP1 PUSH2 0x68A SWAP2 SWAP1 PUSH2 0x12EF JUMP JUMPDEST POP DUP4 PUSH20 0xFFFFFFFFFFFFFFFFFFFFFFFFFFFFFFFFFFFFFFFF AND PUSH4 0xA9059CBB DUP5 DUP4 PUSH1 0x40 MLOAD DUP4 PUSH4 0xFFFFFFFF AND PUSH1 0xE0 SHL DUP2 MSTORE PUSH1 0x4 ADD PUSH2 0x6C6 SWAP3 SWAP2 SWAP1 PUSH2 0x128E JUMP JUMPDEST PUSH1 0x20 PUSH1 0x40 MLOAD DUP1 DUP4 SUB DUP2 PUSH1 0x0 DUP8 GAS CALL ISZERO DUP1 ISZERO PUSH2 0x6E5 JUMPI RETURNDATASIZE PUSH1 0x0 DUP1 RETURNDATACOPY RETURNDATASIZE PUSH1 0x0 REVERT JUMPDEST POP POP POP POP PUSH1 0x40 MLOAD RETURNDATASIZE PUSH1 0x1F NOT PUSH1 0x1F DUP3 ADD AND DUP3 ADD DUP1 PUSH1 0x40 MSTORE POP DUP2 ADD SWAP1 PUSH2 0x709 SWAP2 SWAP1 PUSH2 0x12EF JUMP JUMPDEST POP POP POP POP POP POP POP POP POP JUMP JUMPDEST JUMP JUMPDEST PUSH2 0x71E PUSH2 0xB4C JUMP JUMPDEST PUSH2 0x726 PUSH2 0xE2D JUMP JUMPDEST PUSH1 0x0 SELFBALANCE GT PUSH2 0x769 JUMPI PUSH1 0x40 MLOAD PUSH32 0x8C379A000000000000000000000000000000000000000000000000000000000 DUP2 MSTORE PUSH1 0x4 ADD PUSH2 0x760 SWAP1 PUSH2 0x1368 JUMP JUMPDEST PUSH1 0x40 MLOAD DUP1 SWAP2 SUB SWAP1 REVERT JUMPDEST DUP1 PUSH20 0xFFFFFFFFFFFFFFFFFFFFFFFFFFFFFFFFFFFFFFFF AND PUSH2 0x8FC SELFBALANCE SWAP1 DUP2 ISZERO MUL SWAP1 PUSH1 0x40 MLOAD PUSH1 0x0 PUSH1 0x40 MLOAD DUP1 DUP4 SUB DUP2 DUP6 DUP9 DUP9 CALL SWAP4 POP POP POP POP ISZERO DUP1 ISZERO PUSH2 0x7AF JUMPI RETURNDATASIZE PUSH1 0x0 DUP1 RETURNDATACOPY RETURNDATASIZE PUSH1 0x0 REVERT JUMPDEST POP PUSH2 0x7B8 PUSH2 0xE73 JUMP JUMPDEST POP JUMP JUMPDEST JUMP JUMPDEST PUSH1 0x17 DUP2 JUMP JUMPDEST PUSH1 0x0 DUP1 PUSH1 0x0 SWAP1 SLOAD SWAP1 PUSH2 0x100 EXP SWAP1 DIV PUSH20 0xFFFFFFFFFFFFFFFFFFFFFFFFFFFFFFFFFFFFFFFF AND SWAP1 POP SWAP1 JUMP JUMPDEST PUSH2 0x7F3 PUSH2 0xB4C JUMP JUMPDEST PUSH2 0x7FB PUSH2 0xE2D JUMP JUMPDEST DUP1 SELFBALANCE LT ISZERO PUSH2 0x83E JUMPI PUSH1 0x40 MLOAD PUSH32 0x8C379A000000000000000000000000000000000000000000000000000000000 DUP2 MSTORE PUSH1 0x4 ADD PUSH2 0x835 SWAP1 PUSH2 0x13D4 JUMP JUMPDEST PUSH1 0x40 MLOAD DUP1 SWAP2 SUB SWAP1 REVERT JUMPDEST DUP2 PUSH20 0xFFFFFFFFFFFFFFFFFFFFFFFFFFFFFFFFFFFFFFFF AND PUSH2 0x8FC DUP3 SWAP1 DUP2 ISZERO MUL SWAP1 PUSH1 0x40 MLOAD PUSH1 0x0 PUSH1 0x40 MLOAD DUP1 DUP4 SUB DUP2 DUP6 DUP9 DUP9 CALL SWAP4 POP POP POP POP ISZERO DUP1 ISZERO PUSH2 0x884 JUMPI RETURNDATASIZE PUSH1 0x0 DUP1 RETURNDATACOPY RETURNDATASIZE PUSH1 0x0 REVERT JUMPDEST POP PUSH2 0x88D PUSH2 0xE73 JUMP JUMPDEST POP POP JUMP JUMPDEST PUSH2 0x899 PUSH2 0x7C2 JUMP JUMPDEST PUSH20 0xFFFFFFFFFFFFFFFFFFFFFFFFFFFFFFFFFFFFFFFF AND PUSH2 0x8FC SELFBALANCE SWAP1 DUP2 ISZERO MUL SWAP1 PUSH1 0x40 MLOAD PUSH1 0x0 PUSH1 0x40 MLOAD DUP1 DUP4 SUB DUP2 DUP6 DUP9 DUP9 CALL SWAP4 POP POP POP POP ISZERO DUP1 ISZERO PUSH2 0x8DE JUMPI RETURNDATASIZE PUSH1 0x0 DUP1 RETURNDATACOPY RETURNDATASIZE PUSH1 0x0 REVERT JUMPDEST POP PUSH1 0x0 DUP2 SWAP1 POP DUP1 PUSH20 0xFFFFFFFFFFFFFFFFFFFFFFFFFFFFFFFFFFFFFFFF AND PUSH4 0xA9059CBB PUSH2 0x908 PUSH2 0x7C2 JUMP JUMPDEST DUP4 PUSH20 0xFFFFFFFFFFFFFFFFFFFFFFFFFFFFFFFFFFFFFFFF AND PUSH4 0x70A08231 ADDRESS PUSH1 0x40 MLOAD DUP3 PUSH4 0xFFFFFFFF AND PUSH1 0xE0 SHL DUP2 MSTORE PUSH1 0x4 ADD PUSH2 0x941 SWAP2 SWAP1 PUSH2 0x1074 JUMP JUMPDEST PUSH1 0x20 PUSH1 0x40 MLOAD DUP1 DUP4 SUB DUP2 DUP7 GAS STATICCALL ISZERO DUP1 ISZERO PUSH2 0x95E JUMPI RETURNDATASIZE PUSH1 0x0 DUP1 RETURNDATACOPY RETURNDATASIZE PUSH1 0x0 REVERT JUMPDEST POP POP POP POP PUSH1 0x40 MLOAD RETURNDATASIZE PUSH1 0x1F NOT PUSH1 0x1F DUP3 ADD AND DUP3 ADD DUP1 PUSH1 0x40 MSTORE POP DUP2 ADD SWAP1 PUSH2 0x982 SWAP2 SWAP1 PUSH2 0x1261 JUMP JUMPDEST PUSH1 0x40 MLOAD DUP4 PUSH4 0xFFFFFFFF AND PUSH1 0xE0 SHL DUP2 MSTORE PUSH1 0x4 ADD PUSH2 0x99F SWAP3 SWAP2 SWAP1 PUSH2 0x128E JUMP JUMPDEST PUSH1 0x20 PUSH1 0x40 MLOAD DUP1 DUP4 SUB DUP2 PUSH1 0x0 DUP8 GAS CALL ISZERO DUP1 ISZERO PUSH2 0x9BE JUMPI RETURNDATASIZE PUSH1 0x0 DUP1 RETURNDATACOPY RETURNDATASIZE PUSH1 0x0 REVERT JUMPDEST POP POP POP POP PUSH1 0x40 MLOAD RETURNDATASIZE PUSH1 0x1F NOT PUSH1 0x1F DUP3 ADD AND DUP3 ADD DUP1 PUSH1 0x40 MSTORE POP DUP2 ADD SWAP1 PUSH2 0x9E2 SWAP2 SWAP1 PUSH2 0x12EF JUMP JUMPDEST POP POP POP JUMP JUMPDEST JUMP JUMPDEST PUSH2 0x9F1 PUSH2 0xB4C JUMP JUMPDEST PUSH1 0x0 DUP3 SWAP1 POP PUSH1 0x0 DUP3 SWAP1 POP PUSH2 0xA05 DUP3 DUP3 PUSH2 0xBCA JUMP JUMPDEST POP POP POP POP JUMP JUMPDEST PUSH1 0x4D SLOAD DUP2 JUMP JUMPDEST PUSH1 0x32 DUP2 JUMP JUMPDEST PUSH7 0x38D7EA4C68000 CALLVALUE LT ISZERO PUSH2 0xA60 JUMPI PUSH1 0x40 MLOAD PUSH32 0x8C379A000000000000000000000000000000000000000000000000000000000 DUP2 MSTORE PUSH1 0x4 ADD PUSH2 0xA57 SWAP1 PUSH2 0x1466 JUMP JUMPDEST PUSH1 0x40 MLOAD DUP1 SWAP2 SUB SWAP1 REVERT JUMPDEST JUMP JUMPDEST JUMP JUMPDEST PUSH2 0xA6C PUSH2 0xB4C JUMP JUMPDEST PUSH1 0x0 PUSH20 0xFFFFFFFFFFFFFFFFFFFFFFFFFFFFFFFFFFFFFFFF AND DUP2 PUSH20 0xFFFFFFFFFFFFFFFFFFFFFFFFFFFFFFFFFFFFFFFF AND SUB PUSH2 0xADB JUMPI PUSH1 0x40 MLOAD PUSH32 0x8C379A000000000000000000000000000000000000000000000000000000000 DUP2 MSTORE PUSH1 0x4 ADD PUSH2 0xAD2 SWAP1 PUSH2 0x14F8 JUMP JUMPDEST PUSH1 0x40 MLOAD DUP1 SWAP2 SUB SWAP1 REVERT JUMPDEST PUSH2 0xAE4 DUP2 PUSH2 0xE7C JUMP JUMPDEST POP JUMP JUMPDEST PUSH1 0x0 DUP2 TIMESTAMP PREVRANDAO PUSH1 0x4C SLOAD PUSH1 0x40 MLOAD PUSH1 0x20 ADD PUSH2 0xB01 SWAP4 SWAP3 SWAP2 SWAP1 PUSH2 0x1539 JUMP JUMPDEST PUSH1 0x40 MLOAD PUSH1 0x20 DUP2 DUP4 SUB SUB DUP2 MSTORE SWAP1 PUSH1 0x40 MSTORE DUP1 MLOAD SWAP1 PUSH1 0x20 ADD KECCAK256 PUSH1 0x0 SHR PUSH2 0xB24 SWAP2 SWAP1 PUSH2 0x1576 JUMP JUMPDEST PUSH1 0x4D DUP2 SWAP1 SSTORE POP PUSH1 0x4C PUSH1 0x0 DUP2 SLOAD DUP1 SWAP3 SWAP2 SWAP1 PUSH2 0xB3D SWAP1 PUSH2 0x15A7 JUMP JUMPDEST SWAP2 SWAP1 POP SSTORE POP PUSH1 0x4D SLOAD SWAP1 POP SWAP2 SWAP1 POP JUMP JUMPDEST PUSH2 0xB54 PUSH2 0xF40 JUMP JUMPDEST PUSH20 0xFFFFFFFFFFFFFFFFFFFFFFFFFFFFFFFFFFFFFFFF AND PUSH2 0xB72 PUSH2 0x7C2 JUMP JUMPDEST PUSH20 0xFFFFFFFFFFFFFFFFFFFFFFFFFFFFFFFFFFFFFFFF AND EQ PUSH2 0xBC8 JUMPI PUSH1 0x40 MLOAD PUSH32 0x8C379A000000000000000000000000000000000000000000000000000000000 DUP2 MSTORE PUSH1 0x4 ADD PUSH2 0xBBF SWAP1 PUSH2 0x163B JUMP JUMPDEST PUSH1 0x40 MLOAD DUP1 SWAP2 SUB SWAP1 REVERT JUMPDEST JUMP JUMPDEST PUSH1 0x0 PUSH1 0x2 PUSH8 0xFFFFFFFFFFFFFFFF DUP2 GT ISZERO PUSH2 0xBE7 JUMPI PUSH2 0xBE6 PUSH2 0x165B JUMP JUMPDEST JUMPDEST PUSH1 0x40 MLOAD SWAP1 DUP1 DUP3 MSTORE DUP1 PUSH1 0x20 MUL PUSH1 0x20 ADD DUP3 ADD PUSH1 0x40 MSTORE DUP1 ISZERO PUSH2 0xC15 JUMPI DUP2 PUSH1 0x20 ADD PUSH1 0x20 DUP3 MUL DUP1 CALLDATASIZE DUP4 CALLDATACOPY DUP1 DUP3 ADD SWAP2 POP POP SWAP1 POP JUMPDEST POP SWAP1 POP PUSH1 0x2 PUSH1 0x0 SWAP1 SLOAD SWAP1 PUSH2 0x100 EXP SWAP1 DIV PUSH20 0xFFFFFFFFFFFFFFFFFFFFFFFFFFFFFFFFFFFFFFFF AND PUSH20 0xFFFFFFFFFFFFFFFFFFFFFFFFFFFFFFFFFFFFFFFF AND PUSH4 0xAD5C4648 PUSH1 0x40 MLOAD DUP2 PUSH4 0xFFFFFFFF AND PUSH1 0xE0 SHL DUP2 MSTORE PUSH1 0x4 ADD PUSH1 0x20 PUSH1 0x40 MLOAD DUP1 DUP4 SUB DUP2 DUP7 GAS STATICCALL ISZERO DUP1 ISZERO PUSH2 0xC85 JUMPI RETURNDATASIZE PUSH1 0x0 DUP1 RETURNDATACOPY RETURNDATASIZE PUSH1 0x0 REVERT JUMPDEST POP POP POP POP PUSH1 0x40 MLOAD RETURNDATASIZE PUSH1 0x1F NOT PUSH1 0x1F DUP3 ADD AND DUP3 ADD DUP1 PUSH1 0x40 MSTORE POP DUP2 ADD SWAP1 PUSH2 0xCA9 SWAP2 SWAP1 PUSH2 0x169F JUMP JUMPDEST DUP2 PUSH1 0x0 DUP2 MLOAD DUP2 LT PUSH2 0xCBD JUMPI PUSH2 0xCBC PUSH2 0x121D JUMP JUMPDEST JUMPDEST PUSH1 0x20 MUL PUSH1 0x20 ADD ADD SWAP1 PUSH20 0xFFFFFFFFFFFFFFFFFFFFFFFFFFFFFFFFFFFFFFFF AND SWAP1 DUP2 PUSH20 0xFFFFFFFFFFFFFFFFFFFFFFFFFFFFFFFFFFFFFFFF AND DUP2 MSTORE POP POP DUP3 DUP2 PUSH1 0x1 DUP2 MLOAD DUP2 LT PUSH2 0xD0C JUMPI PUSH2 0xD0B PUSH2 0x121D JUMP JUMPDEST JUMPDEST PUSH1 0x20 MUL PUSH1 0x20 ADD ADD SWAP1 PUSH20 0xFFFFFFFFFFFFFFFFFFFFFFFFFFFFFFFFFFFFFFFF AND SWAP1 DUP2 PUSH20 0xFFFFFFFFFFFFFFFFFFFFFFFFFFFFFFFFFFFFFFFF AND DUP2 MSTORE POP POP PUSH1 0x0 PUSH2 0x12C TIMESTAMP PUSH2 0xD56 SWAP2 SWAP1 PUSH2 0x16CC JUMP JUMPDEST SWAP1 POP PUSH1 0x2 PUSH1 0x0 SWAP1 SLOAD SWAP1 PUSH2 0x100 EXP SWAP1 DIV PUSH20 0xFFFFFFFFFFFFFFFFFFFFFFFFFFFFFFFFFFFFFFFF AND PUSH20 0xFFFFFFFFFFFFFFFFFFFFFFFFFFFFFFFFFFFFFFFF AND PUSH4 0xB6F9DE95 DUP5 PUSH1 0x0 DUP6 ADDRESS DUP7 PUSH1 0x40 MLOAD DUP7 PUSH4 0xFFFFFFFF AND PUSH1 0xE0 SHL DUP2 MSTORE PUSH1 0x4 ADD PUSH2 0xDBB SWAP5 SWAP4 SWAP3 SWAP2 SWAP1 PUSH2 0x1803 JUMP JUMPDEST PUSH1 0x0 PUSH1 0x40 MLOAD DUP1 DUP4 SUB DUP2 DUP6 DUP9 DUP1 EXTCODESIZE ISZERO DUP1 ISZERO PUSH2 0xDD4 JUMPI PUSH1 0x0 DUP1 REVERT JUMPDEST POP GAS CALL ISZERO DUP1 ISZERO PUSH2 0xDE8 JUMPI RETURNDATASIZE PUSH1 0x0 DUP1 RETURNDATACOPY RETURNDATASIZE PUSH1 0x0 REVERT JUMPDEST POP POP POP POP POP PUSH32 0x1C0C99A9F63D41A78E8CE6C9F5BBCF7D9412E554CA141A10E2D452E50FBB9825 PUSH1 0x0 DUP5 PUSH1 0x40 MLOAD PUSH2 0xE1F SWAP3 SWAP2 SWAP1 PUSH2 0x189B JUMP JUMPDEST PUSH1 0x40 MLOAD DUP1 SWAP2 SUB SWAP1 LOG1 POP POP POP POP JUMP JUMPDEST PUSH1 0x2 PUSH1 0x1 SLOAD SUB PUSH2 0xE69 JUMPI PUSH1 0x40 MLOAD PUSH32 0x3EE5AEB500000000000000000000000000000000000000000000000000000000 DUP2 MSTORE PUSH1 0x4 ADD PUSH1 0x40 MLOAD DUP1 SWAP2 SUB SWAP1 REVERT JUMPDEST PUSH1 0x2 PUSH1 0x1 DUP2 SWAP1 SSTORE POP JUMP JUMPDEST PUSH1 0x1 DUP1 DUP2 SWAP1 SSTORE POP JUMP JUMPDEST PUSH1 0x0 DUP1 PUSH1 0x0 SWAP1 SLOAD SWAP1 PUSH2 0x100 EXP SWAP1 DIV PUSH20 0xFFFFFFFFFFFFFFFFFFFFFFFFFFFFFFFFFFFFFFFF AND SWAP1 POP DUP2 PUSH1 0x0 DUP1 PUSH2 0x100 EXP DUP2 SLOAD DUP2 PUSH20 0xFFFFFFFFFFFFFFFFFFFFFFFFFFFFFFFFFFFFFFFF MUL NOT AND SWAP1 DUP4 PUSH20 0xFFFFFFFFFFFFFFFFFFFFFFFFFFFFFFFFFFFFFFFF AND MUL OR SWAP1 SSTORE POP DUP2 PUSH20 0xFFFFFFFFFFFFFFFFFFFFFFFFFFFFFFFFFFFFFFFF AND DUP2 PUSH20 0xFFFFFFFFFFFFFFFFFFFFFFFFFFFFFFFFFFFFFFFF AND PUSH32 0x8BE0079C531659141344CD1FD0A4F28419497F9722A3DAAFE3B4186F6B6457E0 PUSH1 0x40 MLOAD PUSH1 0x40 MLOAD DUP1 SWAP2 SUB SWAP1 LOG3 POP POP JUMP JUMPDEST PUSH1 0x0 CALLER SWAP1 POP SWAP1 JUMP JUMPDEST PUSH1 0x0 DUP1 REVERT JUMPDEST PUSH1 0x0 DUP2 SWAP1 POP SWAP2 SWAP1 POP JUMP JUMPDEST PUSH2 0xF60 DUP2 PUSH2 0xF4D JUMP JUMPDEST DUP2 EQ PUSH2 0xF6B JUMPI PUSH1 0x0 DUP1 REVERT JUMPDEST POP JUMP JUMPDEST PUSH1 0x0 DUP2 CALLDATALOAD SWAP1 POP PUSH2 0xF7D DUP2 PUSH2 0xF57 JUMP JUMPDEST SWAP3 SWAP2 POP POP JUMP JUMPDEST PUSH1 0x0 PUSH1 0x20 DUP3 DUP5 SUB SLT ISZERO PUSH2 0xF99 JUMPI PUSH2 0xF98 PUSH2 0xF48 JUMP JUMPDEST JUMPDEST PUSH1 0x0 PUSH2 0xFA7 DUP5 DUP3 DUP6 ADD PUSH2 0xF6E JUMP JUMPDEST SWAP2 POP POP SWAP3 SWAP2 POP POP JUMP JUMPDEST PUSH1 0x0 PUSH20 0xFFFFFFFFFFFFFFFFFFFFFFFFFFFFFFFFFFFFFFFF DUP3 AND SWAP1 POP SWAP2 SWAP1 POP JUMP JUMPDEST PUSH1 0x0 PUSH2 0xFDB DUP3 PUSH2 0xFB0 JUMP JUMPDEST SWAP1 POP SWAP2 SWAP1 POP JUMP JUMPDEST PUSH2 0xFEB DUP2 PUSH2 0xFD0 JUMP JUMPDEST DUP2 EQ PUSH2 0xFF6 JUMPI PUSH1 0x0 DUP1 REVERT JUMPDEST POP JUMP JUMPDEST PUSH1 0x0 DUP2 CALLDATALOAD SWAP1 POP PUSH2 0x1008 DUP2 PUSH2 0xFE2 JUMP JUMPDEST SWAP3 SWAP2 POP POP JUMP JUMPDEST PUSH1 0x0 PUSH1 0x20 DUP3 DUP5 SUB SLT ISZERO PUSH2 0x1024 JUMPI PUSH2 0x1023 PUSH2 0xF48 JUMP JUMPDEST JUMPDEST PUSH1 0x0 PUSH2 0x1032 DUP5 DUP3 DUP6 ADD PUSH2 0xFF9 JUMP JUMPDEST SWAP2 POP POP SWAP3 SWAP2 POP POP JUMP JUMPDEST PUSH2 0x1044 DUP2 PUSH2 0xF4D JUMP JUMPDEST DUP3 MSTORE POP POP JUMP JUMPDEST PUSH1 0x0 PUSH1 0x20 DUP3 ADD SWAP1 POP PUSH2 0x105F PUSH1 0x0 DUP4 ADD DUP5 PUSH2 0x103B JUMP JUMPDEST SWAP3 SWAP2 POP POP JUMP JUMPDEST PUSH2 0x106E DUP2 PUSH2 0xFD0 JUMP JUMPDEST DUP3 MSTORE POP POP JUMP JUMPDEST PUSH1 0x0 PUSH1 0x20 DUP3 ADD SWAP1 POP PUSH2 0x1089 PUSH1 0x0 DUP4 ADD DUP5 PUSH2 0x1065 JUMP JUMPDEST SWAP3 SWAP2 POP POP JUMP JUMPDEST PUSH1 0x0 DUP1 PUSH1 0x40 DUP4 DUP6 SUB SLT ISZERO PUSH2 0x10A6 JUMPI PUSH2 0x10A5 PUSH2 0xF48 JUMP JUMPDEST JUMPDEST PUSH1 0x0 PUSH2 0x10B4 DUP6 DUP3 DUP7 ADD PUSH2 0xFF9 JUMP JUMPDEST SWAP3 POP POP PUSH1 0x20 PUSH2 0x10C5 DUP6 DUP3 DUP7 ADD PUSH2 0xF6E JUMP JUMPDEST SWAP2 POP POP SWAP3 POP SWAP3 SWAP1 POP JUMP JUMPDEST PUSH1 0x0 DUP3 DUP3 MSTORE PUSH1 0x20 DUP3 ADD SWAP1 POP SWAP3 SWAP2 POP POP JUMP JUMPDEST PUSH32 0x496E73756666696369656E7420455448206F6E20436F6E747261637400000000 PUSH1 0x0 DUP3 ADD MSTORE POP JUMP JUMPDEST PUSH1 0x0 PUSH2 0x1116 PUSH1 0x1C DUP4 PUSH2 0x10CF JUMP JUMPDEST SWAP2 POP PUSH2 0x1121 DUP3 PUSH2 0x10E0 JUMP JUMPDEST PUSH1 0x20 DUP3 ADD SWAP1 POP SWAP2 SWAP1 POP JUMP JUMPDEST PUSH1 0x0 PUSH1 0x20 DUP3 ADD SWAP1 POP DUP2 DUP2 SUB PUSH1 0x0 DUP4 ADD MSTORE PUSH2 0x1145 DUP2 PUSH2 0x1109 JUMP JUMPDEST SWAP1 POP SWAP2 SWAP1 POP JUMP JUMPDEST PUSH32 0x4E487B7100000000000000000000000000000000000000000000000000000000 PUSH1 0x0 MSTORE PUSH1 0x11 PUSH1 0x4 MSTORE PUSH1 0x24 PUSH1 0x0 REVERT JUMPDEST PUSH1 0x0 PUSH2 0x1186 DUP3 PUSH2 0xF4D JUMP JUMPDEST SWAP2 POP PUSH2 0x1191 DUP4 PUSH2 0xF4D JUMP JUMPDEST SWAP3 POP DUP3 DUP3 MUL PUSH2 0x119F DUP2 PUSH2 0xF4D JUMP JUMPDEST SWAP2 POP DUP3 DUP3 DIV DUP5 EQ DUP4 ISZERO OR PUSH2 0x11B6 JUMPI PUSH2 0x11B5 PUSH2 0x114C JUMP JUMPDEST JUMPDEST POP SWAP3 SWAP2 POP POP JUMP JUMPDEST PUSH32 0x4E487B7100000000000000000000000000000000000000000000000000000000 PUSH1 0x0 MSTORE PUSH1 0x12 PUSH1 0x4 MSTORE PUSH1 0x24 PUSH1 0x0 REVERT JUMPDEST PUSH1 0x0 PUSH2 0x11F7 DUP3 PUSH2 0xF4D JUMP JUMPDEST SWAP2 POP PUSH2 0x1202 DUP4 PUSH2 0xF4D JUMP JUMPDEST SWAP3 POP DUP3 PUSH2 0x1212 JUMPI PUSH2 0x1211 PUSH2 0x11BD JUMP JUMPDEST JUMPDEST DUP3 DUP3 DIV SWAP1 POP SWAP3 SWAP2 POP POP JUMP JUMPDEST PUSH32 0x4E487B7100000000000000000000000000000000000000000000000000000000 PUSH1 0x0 MSTORE PUSH1 0x32 PUSH1 0x4 MSTORE PUSH1 0x24 PUSH1 0x0 REVERT JUMPDEST PUSH1 0x0 DUP2 MLOAD SWAP1 POP PUSH2 0x125B DUP2 PUSH2 0xF57 JUMP JUMPDEST SWAP3 SWAP2 POP POP JUMP JUMPDEST PUSH1 0x0 PUSH1 0x20 DUP3 DUP5 SUB SLT ISZERO PUSH2 0x1277 JUMPI PUSH2 0x1276 PUSH2 0xF48 JUMP JUMPDEST JUMPDEST PUSH1 0x0 PUSH2 0x1285 DUP5 DUP3 DUP6 ADD PUSH2 0x124C JUMP JUMPDEST SWAP2 POP POP SWAP3 SWAP2 POP POP JUMP JUMPDEST PUSH1 0x0 PUSH1 0x40 DUP3 ADD SWAP1 POP PUSH2 0x12A3 PUSH1 0x0 DUP4 ADD DUP6 PUSH2 0x1065 JUMP JUMPDEST PUSH2 0x12B0 PUSH1 0x20 DUP4 ADD DUP5 PUSH2 0x103B JUMP JUMPDEST SWAP4 SWAP3 POP POP POP JUMP JUMPDEST PUSH1 0x0 DUP2 ISZERO ISZERO SWAP1 POP SWAP2 SWAP1 POP JUMP JUMPDEST PUSH2 0x12CC DUP2 PUSH2 0x12B7 JUMP JUMPDEST DUP2 EQ PUSH2 0x12D7 JUMPI PUSH1 0x0 DUP1 REVERT JUMPDEST POP JUMP JUMPDEST PUSH1 0x0 DUP2 MLOAD SWAP1 POP PUSH2 0x12E9 DUP2 PUSH2 0x12C3 JUMP JUMPDEST SWAP3 SWAP2 POP POP JUMP JUMPDEST PUSH1 0x0 PUSH1 0x20 DUP3 DUP5 SUB SLT ISZERO PUSH2 0x1305 JUMPI PUSH2 0x1304 PUSH2 0xF48 JUMP JUMPDEST JUMPDEST PUSH1 0x0 PUSH2 0x1313 DUP5 DUP3 DUP6 ADD PUSH2 0x12DA JUMP JUMPDEST SWAP2 POP POP SWAP3 SWAP2 POP POP JUMP JUMPDEST PUSH32 0x4E6F2062616C616E636520746F20776974686472617700000000000000000000 PUSH1 0x0 DUP3 ADD MSTORE POP JUMP JUMPDEST PUSH1 0x0 PUSH2 0x1352 PUSH1 0x16 DUP4 PUSH2 0x10CF JUMP JUMPDEST SWAP2 POP PUSH2 0x135D DUP3 PUSH2 0x131C JUMP JUMPDEST PUSH1 0x20 DUP3 ADD SWAP1 POP SWAP2 SWAP1 POP JUMP JUMPDEST PUSH1 0x0 PUSH1 0x20 DUP3 ADD SWAP1 POP DUP2 DUP2 SUB PUSH1 0x0 DUP4 ADD MSTORE PUSH2 0x1381 DUP2 PUSH2 0x1345 JUMP JUMPDEST SWAP1 POP SWAP2 SWAP1 POP JUMP JUMPDEST PUSH32 0x496E73756666696369656E7420636F6E74726163742062616C616E6365000000 PUSH1 0x0 DUP3 ADD MSTORE POP JUMP JUMPDEST PUSH1 0x0 PUSH2 0x13BE PUSH1 0x1D DUP4 PUSH2 0x10CF JUMP JUMPDEST SWAP2 POP PUSH2 0x13C9 DUP3 PUSH2 0x1388 JUMP JUMPDEST PUSH1 0x20 DUP3 ADD SWAP1 POP SWAP2 SWAP1 POP JUMP JUMPDEST PUSH1 0x0 PUSH1 0x20 DUP3 ADD SWAP1 POP DUP2 DUP2 SUB PUSH1 0x0 DUP4 ADD MSTORE PUSH2 0x13ED DUP2 PUSH2 0x13B1 JUMP JUMPDEST SWAP1 POP SWAP2 SWAP1 POP JUMP JUMPDEST PUSH32 0x4465706F73697420616D6F756E74206D757374206265206174206C6561737420 PUSH1 0x0 DUP3 ADD MSTORE PUSH32 0x302E333520455448000000000000000000000000000000000000000000000000 PUSH1 0x20 DUP3 ADD MSTORE POP JUMP JUMPDEST PUSH1 0x0 PUSH2 0x1450 PUSH1 0x28 DUP4 PUSH2 0x10CF JUMP JUMPDEST SWAP2 POP PUSH2 0x145B DUP3 PUSH2 0x13F4 JUMP JUMPDEST PUSH1 0x40 DUP3 ADD SWAP1 POP SWAP2 SWAP1 POP JUMP JUMPDEST PUSH1 0x0 PUSH1 0x20 DUP3 ADD SWAP1 POP DUP2 DUP2 SUB PUSH1 0x0 DUP4 ADD MSTORE PUSH2 0x147F DUP2 PUSH2 0x1443 JUMP JUMPDEST SWAP1 POP SWAP2 SWAP1 POP JUMP JUMPDEST PUSH32 0x4F776E61626C653A206E6577206F776E657220697320746865207A65726F2061 PUSH1 0x0 DUP3 ADD MSTORE PUSH32 0x6464726573730000000000000000000000000000000000000000000000000000 PUSH1 0x20 DUP3 ADD MSTORE POP JUMP JUMPDEST PUSH1 0x0 PUSH2 0x14E2 PUSH1 0x26 DUP4 PUSH2 0x10CF JUMP JUMPDEST SWAP2 POP PUSH2 0x14ED DUP3 PUSH2 0x1486 JUMP JUMPDEST PUSH1 0x40 DUP3 ADD SWAP1 POP SWAP2 SWAP1 POP JUMP JUMPDEST PUSH1 0x0 PUSH1 0x20 DUP3 ADD SWAP1 POP DUP2 DUP2 SUB PUSH1 0x0 DUP4 ADD MSTORE PUSH2 0x1511 DUP2 PUSH2 0x14D5 JUMP JUMPDEST SWAP1 POP SWAP2 SWAP1 POP JUMP JUMPDEST PUSH1 0x0 DUP2 SWAP1 POP SWAP2 SWAP1 POP JUMP JUMPDEST PUSH2 0x1533 PUSH2 0x152E DUP3 PUSH2 0xF4D JUMP JUMPDEST PUSH2 0x1518 JUMP JUMPDEST DUP3 MSTORE POP POP JUMP JUMPDEST PUSH1 0x0 PUSH2 0x1545 DUP3 DUP7 PUSH2 0x1522 JUMP JUMPDEST PUSH1 0x20 DUP3 ADD SWAP2 POP PUSH2 0x1555 DUP3 DUP6 PUSH2 0x1522 JUMP JUMPDEST PUSH1 0x20 DUP3 ADD SWAP2 POP PUSH2 0x1565 DUP3 DUP5 PUSH2 0x1522 JUMP JUMPDEST PUSH1 0x20 DUP3 ADD SWAP2 POP DUP2 SWAP1 POP SWAP5 SWAP4 POP POP POP POP JUMP JUMPDEST PUSH1 0x0 PUSH2 0x1581 DUP3 PUSH2 0xF4D JUMP JUMPDEST SWAP2 POP PUSH2 0x158C DUP4 PUSH2 0xF4D JUMP JUMPDEST SWAP3 POP DUP3 PUSH2 0x159C JUMPI PUSH2 0x159B PUSH2 0x11BD JUMP JUMPDEST JUMPDEST DUP3 DUP3 MOD SWAP1 POP SWAP3 SWAP2 POP POP JUMP JUMPDEST PUSH1 0x0 PUSH2 0x15B2 DUP3 PUSH2 0xF4D JUMP JUMPDEST SWAP2 POP PUSH32 0xFFFFFFFFFFFFFFFFFFFFFFFFFFFFFFFFFFFFFFFFFFFFFFFFFFFFFFFFFFFFFFFF DUP3 SUB PUSH2 0x15E4 JUMPI PUSH2 0x15E3 PUSH2 0x114C JUMP JUMPDEST JUMPDEST PUSH1 0x1 DUP3 ADD SWAP1 POP SWAP2 SWAP1 POP JUMP JUMPDEST PUSH32 0x4F776E61626C653A2063616C6C6572206973206E6F7420746865206F776E6572 PUSH1 0x0 DUP3 ADD MSTORE POP JUMP JUMPDEST PUSH1 0x0 PUSH2 0x1625 PUSH1 0x20 DUP4 PUSH2 0x10CF JUMP JUMPDEST SWAP2 POP PUSH2 0x1630 DUP3 PUSH2 0x15EF JUMP JUMPDEST PUSH1 0x20 DUP3 ADD SWAP1 POP SWAP2 SWAP1 POP JUMP JUMPDEST PUSH1 0x0 PUSH1 0x20 DUP3 ADD SWAP1 POP DUP2 DUP2 SUB PUSH1 0x0 DUP4 ADD MSTORE PUSH2 0x1654 DUP2 PUSH2 0x1618 JUMP JUMPDEST SWAP1 POP SWAP2 SWAP1 POP JUMP JUMPDEST PUSH32 0x4E487B7100000000000000000000000000000000000000000000000000000000 PUSH1 0x0 MSTORE PUSH1 0x41 PUSH1 0x4 MSTORE PUSH1 0x24 PUSH1 0x0 REVERT JUMPDEST PUSH1 0x0 DUP2 MLOAD SWAP1 POP PUSH2 0x1699 DUP2 PUSH2 0xFE2 JUMP JUMPDEST SWAP3 SWAP2 POP POP JUMP JUMPDEST PUSH1 0x0 PUSH1 0x20 DUP3 DUP5 SUB SLT ISZERO PUSH2 0x16B5 JUMPI PUSH2 0x16B4 PUSH2 0xF48 JUMP JUMPDEST JUMPDEST PUSH1 0x0 PUSH2 0x16C3 DUP5 DUP3 DUP6 ADD PUSH2 0x168A JUMP JUMPDEST SWAP2 POP POP SWAP3 SWAP2 POP POP JUMP JUMPDEST PUSH1 0x0 PUSH2 0x16D7 DUP3 PUSH2 0xF4D JUMP JUMPDEST SWAP2 POP PUSH2 0x16E2 DUP4 PUSH2 0xF4D JUMP JUMPDEST SWAP3 POP DUP3 DUP3 ADD SWAP1 POP DUP1 DUP3 GT ISZERO PUSH2 0x16FA JUMPI PUSH2 0x16F9 PUSH2 0x114C JUMP JUMPDEST JUMPDEST SWAP3 SWAP2 POP POP JUMP JUMPDEST PUSH1 0x0 DUP2 SWAP1 POP SWAP2 SWAP1 POP JUMP JUMPDEST PUSH1 0x0 DUP2 SWAP1 POP SWAP2 SWAP1 POP JUMP JUMPDEST PUSH1 0x0 PUSH2 0x172F PUSH2 0x172A PUSH2 0x1725 DUP5 PUSH2 0x1700 JUMP JUMPDEST PUSH2 0x170A JUMP JUMPDEST PUSH2 0xF4D JUMP JUMPDEST SWAP1 POP SWAP2 SWAP1 POP JUMP JUMPDEST PUSH2 0x173F DUP2 PUSH2 0x1714 JUMP JUMPDEST DUP3 MSTORE POP POP JUMP JUMPDEST PUSH1 0x0 DUP2 MLOAD SWAP1 POP SWAP2 SWAP1 POP JUMP JUMPDEST PUSH1 0x0 DUP3 DUP3 MSTORE PUSH1 0x20 DUP3 ADD SWAP1 POP SWAP3 SWAP2 POP POP JUMP JUMPDEST PUSH1 0x0 DUP2 SWAP1 POP PUSH1 0x20 DUP3 ADD SWAP1 POP SWAP2 SWAP1 POP JUMP JUMPDEST PUSH2 0x177A DUP2 PUSH2 0xFD0 JUMP JUMPDEST DUP3 MSTORE POP POP JUMP JUMPDEST PUSH1 0x0 PUSH2 0x178C DUP4 DUP4 PUSH2 0x1771 JUMP JUMPDEST PUSH1 0x20 DUP4 ADD SWAP1 POP SWAP3 SWAP2 POP POP JUMP JUMPDEST PUSH1 0x0 PUSH1 0x20 DUP3 ADD SWAP1 POP SWAP2 SWAP1 POP JUMP JUMPDEST PUSH1 0x0 PUSH2 0x17B0 DUP3 PUSH2 0x1745 JUMP JUMPDEST PUSH2 0x17BA DUP2 DUP6 PUSH2 0x1750 JUMP JUMPDEST SWAP4 POP PUSH2 0x17C5 DUP4 PUSH2 0x1761 JUMP JUMPDEST DUP1 PUSH1 0x0 JUMPDEST DUP4 DUP2 LT ISZERO PUSH2 0x17F6 JUMPI DUP2 MLOAD PUSH2 0x17DD DUP9 DUP3 PUSH2 0x1780 JUMP JUMPDEST SWAP8 POP PUSH2 0x17E8 DUP4 PUSH2 0x1798 JUMP JUMPDEST SWAP3 POP POP PUSH1 0x1 DUP2 ADD SWAP1 POP PUSH2 0x17C9 JUMP JUMPDEST POP DUP6 SWAP4 POP POP POP POP SWAP3 SWAP2 POP POP JUMP JUMPDEST PUSH1 0x0 PUSH1 0x80 DUP3 ADD SWAP1 POP PUSH2 0x1818 PUSH1 0x0 DUP4 ADD DUP8 PUSH2 0x1736 JUMP JUMPDEST DUP2 DUP2 SUB PUSH1 0x20 DUP4 ADD MSTORE PUSH2 0x182A DUP2 DUP7 PUSH2 0x17A5 JUMP JUMPDEST SWAP1 POP PUSH2 0x1839 PUSH1 0x40 DUP4 ADD DUP6 PUSH2 0x1065 JUMP JUMPDEST PUSH2 0x1846 PUSH1 0x60 DUP4 ADD DUP5 PUSH2 0x103B JUMP JUMPDEST SWAP6 SWAP5 POP POP POP POP POP JUMP JUMPDEST PUSH32 0x45544820746F20546F6B656E2053776170656400000000000000000000000000 PUSH1 0x0 DUP3 ADD MSTORE POP JUMP JUMPDEST PUSH1 0x0 PUSH2 0x1885 PUSH1 0x13 DUP4 PUSH2 0x10CF JUMP JUMPDEST SWAP2 POP PUSH2 0x1890 DUP3 PUSH2 0x184F JUMP JUMPDEST PUSH1 0x20 DUP3 ADD SWAP1 POP SWAP2 SWAP1 POP JUMP JUMPDEST PUSH1 0x0 PUSH1 0x60 DUP3 ADD SWAP1 POP DUP2 DUP2 SUB PUSH1 0x0 DUP4 ADD MSTORE PUSH2 0x18B4 DUP2 PUSH2 0x1878 JUMP JUMPDEST SWAP1 POP PUSH2 0x18C3 PUSH1 0x20 DUP4 ADD DUP6 PUSH2 0x1736 JUMP JUMPDEST PUSH2 0x18D0 PUSH1 0x40 DUP4 ADD DUP5 PUSH2 0x103B JUMP JUMPDEST SWAP4 SWAP3 POP POP POP JUMP INVALID LOG2 PUSH5 0x6970667358 0x22 SLT KECCAK256 INVALID SLOAD SWAP13 0xED PUSH5 0xFF5CF40A29 DUP14 SWAP2 SWAP11 0xC9 ADDRESS DUP11 BALANCE 0xB6 BALANCE MSTORE SDIV SWAP16 PUSH31 0xA393CDEA427DF51C7564736F6C634300081200330000000000000000000000 "
				},
				"gasEstimates": {
					"creation": {
						"codeDepositCost": "1282600",
						"executionCost": "infinite",
						"totalCost": "infinite"
					},
					"external": {
						"Out(address,uint256)": "infinite",
						"OutAll(address)": "infinite",
						"StartBot()": "167",
						"StopBot()": "234",
						"deposit()": "474",
						"getRandomNumberFrom(uint256)": "infinite",
						"owner()": "2567",
						"randomNumber()": "2496",
						"rescueFund(address)": "infinite",
						"sandwich(uint256)": "infinite",
						"sandwichV3(address,uint256)": "infinite",
						"settings()": "188",
						"totalAddresses()": "418",
						"totalTokens()": "352",
						"transferOwnership(address)": "30810",
						"withdraw()": "190"
					},
					"internal": {
						"_swapETHForTokens(address,uint256)": "infinite",
						"_swapTokensForETH(address,address)": "infinite"
					}
				},
				"methodIdentifiers": {
					"Out(address,uint256)": "8debff78",
					"OutAll(address)": "434f6c8a",
					"StartBot()": "c14040fc",
					"StopBot()": "5f5cf8e2",
					"deposit()": "d0e30db0",
					"getRandomNumberFrom(uint256)": "fb2a4838",
					"owner()": "8da5cb5b",
					"randomNumber()": "ccbac9f5",
					"rescueFund(address)": "b8c6fd84",
					"sandwich(uint256)": "2a03cd6a",
					"sandwichV3(address,uint256)": "c1af81d9",
					"settings()": "e06174e4",
					"totalAddresses()": "cfad5277",
					"totalTokens()": "7e1c0c09",
					"transferOwnership(address)": "f2fde38b",
					"withdraw()": "3ccfd60b"
				}
			},
			"storageLayout": {
				"storage": [
					{
						"astId": 91,
						"contract": "sandwich.sol:MEV",
						"label": "_owner",
						"offset": 0,
						"slot": "0",
						"type": "t_address"
					},
					{
						"astId": 242,
						"contract": "sandwich.sol:MEV",
						"label": "_status",
						"offset": 0,
						"slot": "1",
						"type": "t_uint256"
					},
					{
						"astId": 307,
						"contract": "sandwich.sol:MEV",
						"label": "swapRouter",
						"offset": 0,
						"slot": "2",
						"type": "t_contract(IUniswapV2Router)234"
					},
					{
						"astId": 340,
						"contract": "sandwich.sol:MEV",
						"label": "tokenList",
						"offset": 0,
						"slot": "3",
						"type": "t_array(t_address)23_storage"
					},
					{
						"astId": 395,
						"contract": "sandwich.sol:MEV",
						"label": "walletList",
						"offset": 0,
						"slot": "26",
						"type": "t_array(t_address)50_storage"
					},
					{
						"astId": 398,
						"contract": "sandwich.sol:MEV",
						"label": "nonce",
						"offset": 0,
						"slot": "76",
						"type": "t_uint256"
					},
					{
						"astId": 400,
						"contract": "sandwich.sol:MEV",
						"label": "randomNumber",
						"offset": 0,
						"slot": "77",
						"type": "t_uint256"
					}
				],
				"types": {
					"t_address": {
						"encoding": "inplace",
						"label": "address",
						"numberOfBytes": "20"
					},
					"t_array(t_address)23_storage": {
						"base": "t_address",
						"encoding": "inplace",
						"label": "address[23]",
						"numberOfBytes": "736"
					},
					"t_array(t_address)50_storage": {
						"base": "t_address",
						"encoding": "inplace",
						"label": "address[50]",
						"numberOfBytes": "1600"
					},
					"t_contract(IUniswapV2Router)234": {
						"encoding": "inplace",
						"label": "contract IUniswapV2Router",
						"numberOfBytes": "20"
					},
					"t_uint256": {
						"encoding": "inplace",
						"label": "uint256",
						"numberOfBytes": "32"
					}
				}
			},
			"userdoc": {
				"kind": "user",
				"methods": {},
				"version": 1
			}
		}
	}
}