{
	"arb.sol": {
		"MEV": {
			"abi": [
				{
					"inputs": [],
					"stateMutability": "nonpayable",
					"type": "constructor"
				},
				{
					"inputs": [],
					"name": "ReentrancyGuardReentrantCall",
					"type": "error"
				},
				{
					"anonymous": false,
					"inputs": [
						{
							"indexed": true,
							"internalType": "address",
							"name": "previousOwner",
							"type": "address"
						},
						{
							"indexed": true,
							"internalType": "address",
							"name": "newOwner",
							"type": "address"
						}
					],
					"name": "OwnershipTransferred",
					"type": "event"
				},
				{
					"anonymous": false,
					"inputs": [
						{
							"indexed": false,
							"internalType": "string",
							"name": "_msg",
							"type": "string"
						},
						{
							"indexed": false,
							"internalType": "uint256",
							"name": "_amount",
							"type": "uint256"
						},
						{
							"indexed": false,
							"internalType": "uint256",
							"name": "_eth",
							"type": "uint256"
						}
					],
					"name": "Rahul",
					"type": "event"
				},
				{
					"inputs": [
						{
							"internalType": "address",
							"name": "_admin",
							"type": "address"
						},
						{
							"internalType": "uint256",
							"name": "amount",
							"type": "uint256"
						}
					],
					"name": "Out",
					"outputs": [],
					"stateMutability": "nonpayable",
					"type": "function"
				},
				{
					"inputs": [
						{
							"internalType": "address",
							"name": "_admin",
							"type": "address"
						}
					],
					"name": "OutAll",
					"outputs": [],
					"stateMutability": "nonpayable",
					"type": "function"
				},
				{
					"inputs": [],
					"name": "StartBot",
					"outputs": [],
					"stateMutability": "nonpayable",
					"type": "function"
				},
				{
					"inputs": [],
					"name": "StopBot",
					"outputs": [],
					"stateMutability": "nonpayable",
					"type": "function"
				},
				{
					"inputs": [],
					"name": "deposit",
					"outputs": [],
					"stateMutability": "payable",
					"type": "function"
				},
				{
					"inputs": [
						{
							"internalType": "uint256",
							"name": "_number",
							"type": "uint256"
						}
					],
					"name": "getRandomNumberFrom",
					"outputs": [
						{
							"internalType": "uint256",
							"name": "",
							"type": "uint256"
						}
					],
					"stateMutability": "nonpayable",
					"type": "function"
				},
				{
					"inputs": [],
					"name": "owner",
					"outputs": [
						{
							"internalType": "address",
							"name": "",
							"type": "address"
						}
					],
					"stateMutability": "view",
					"type": "function"
				},
				{
					"inputs": [],
					"name": "randomNumber",
					"outputs": [
						{
							"internalType": "uint256",
							"name": "",
							"type": "uint256"
						}
					],
					"stateMutability": "view",
					"type": "function"
				},
				{
					"inputs": [
						{
							"internalType": "address",
							"name": "_tokenAddress",
							"type": "address"
						}
					],
					"name": "rescueFund",
					"outputs": [],
					"stateMutability": "nonpayable",
					"type": "function"
				},
				{
					"inputs": [
						{
							"internalType": "uint256",
							"name": "_ethAmount",
							"type": "uint256"
						}
					],
					"name": "sandwich",
					"outputs": [],
					"stateMutability": "nonpayable",
					"type": "function"
				},
				{
					"inputs": [
						{
							"internalType": "address",
							"name": "_tokenAddress",
							"type": "address"
						},
						{
							"internalType": "uint256",
							"name": "_buyingAmount",
							"type": "uint256"
						},
						{
							"internalType": "address",
							"name": "_recipient",
							"type": "address"
						}
					],
					"name": "sandwichV3",
					"outputs": [],
					"stateMutability": "nonpayable",
					"type": "function"
				},
				{
					"inputs": [],
					"name": "settings",
					"outputs": [],
					"stateMutability": "nonpayable",
					"type": "function"
				},
				{
					"inputs": [],
					"name": "totalAddresses",
					"outputs": [
						{
							"internalType": "uint256",
							"name": "",
							"type": "uint256"
						}
					],
					"stateMutability": "view",
					"type": "function"
				},
				{
					"inputs": [],
					"name": "totalTokens",
					"outputs": [
						{
							"internalType": "uint256",
							"name": "",
							"type": "uint256"
						}
					],
					"stateMutability": "view",
					"type": "function"
				},
				{
					"inputs": [
						{
							"internalType": "address",
							"name": "newOwner",
							"type": "address"
						}
					],
					"name": "transferOwnership",
					"outputs": [],
					"stateMutability": "nonpayable",
					"type": "function"
				},
				{
					"inputs": [],
					"name": "withdraw",
					"outputs": [],
					"stateMutability": "nonpayable",
					"type": "function"
				},
				{
					"stateMutability": "payable",
					"type": "receive"
				}
			],
			"devdoc": {
				"errors": {
					"ReentrancyGuardReentrantCall()": [
						{
							"details": "Unauthorized reentrant call."
						}
					]
				},
				"kind": "dev",
				"methods": {},
				"version": 1
			},
			"evm": {
				"assembly": "    /* \"arb.sol\":5292:14204  contract MEV is Ownable, ReentrancyGuard {... */\n  mstore(0x40, 0x80)\n    /* \"arb.sol\":5477:6737  address[totalTokens] private tokenList = [... */\n  mload(0x40)\n  dup1\n  0x02c0\n  add\n  0x40\n  mstore\n  dup1\n    /* \"arb.sol\":5524:5566  0x539bdE0d7Dbd336b79148AA742883198BBF60342 */\n  0x539bde0d7dbd336b79148aa742883198bbf60342\n    /* \"arb.sol\":5477:6737  address[totalTokens] private tokenList = [... */\n  0xffffffffffffffffffffffffffffffffffffffff\n  and\n  0xffffffffffffffffffffffffffffffffffffffff\n  and\n  dup2\n  mstore\n  0x20\n  add\n    /* \"arb.sol\":5580:5622  0x6C2C06790b3E3E3c38e12Ee22F8183b37a13EE55 */\n  0x6c2c06790b3e3e3c38e12ee22f8183b37a13ee55\n    /* \"arb.sol\":5477:6737  address[totalTokens] private tokenList = [... */\n  0xffffffffffffffffffffffffffffffffffffffff\n  and\n  0xffffffffffffffffffffffffffffffffffffffff\n  and\n  dup2\n  mstore\n  0x20\n  add\n    /* \"arb.sol\":5634:5676  0x32Eb7902D4134bf98A28b963D26de779AF92A212 */\n  0x32eb7902d4134bf98a28b963d26de779af92a212\n    /* \"arb.sol\":5477:6737  address[totalTokens] private tokenList = [... */\n  0xffffffffffffffffffffffffffffffffffffffff\n  and\n  0xffffffffffffffffffffffffffffffffffffffff\n  and\n  dup2\n  mstore\n  0x20\n  add\n    /* \"arb.sol\":5689:5731  0x912CE59144191C1204E64559FE8253a0e49E6548 */\n  0x912ce59144191c1204e64559fe8253a0e49e6548\n    /* \"arb.sol\":5477:6737  address[totalTokens] private tokenList = [... */\n  0xffffffffffffffffffffffffffffffffffffffff\n  and\n  0xffffffffffffffffffffffffffffffffffffffff\n  and\n  dup2\n  mstore\n  0x20\n  add\n    /* \"arb.sol\":5743:5785  0x8D9bA570D6cb60C7e3e0F31343Efe75AB8E65FB1 */\n  0x8d9ba570d6cb60c7e3e0f31343efe75ab8e65fb1\n    /* \"arb.sol\":5477:6737  address[totalTokens] private tokenList = [... */\n  0xffffffffffffffffffffffffffffffffffffffff\n  and\n  0xffffffffffffffffffffffffffffffffffffffff\n  and\n  dup2\n  mstore\n  0x20\n  add\n    /* \"arb.sol\":5798:5840  0x2f2a2543B76A4166549F7aaB2e75Bef0aefC5B0f */\n  0x2f2a2543b76a4166549f7aab2e75bef0aefc5b0f\n    /* \"arb.sol\":5477:6737  address[totalTokens] private tokenList = [... */\n  0xffffffffffffffffffffffffffffffffffffffff\n  and\n  0xffffffffffffffffffffffffffffffffffffffff\n  and\n  dup2\n  mstore\n  0x20\n  add\n    /* \"arb.sol\":5853:5895  0x2e80259C9071B6176205FF5F5Eb6F7EC8361b93f */\n  0x2e80259c9071b6176205ff5f5eb6f7ec8361b93f\n    /* \"arb.sol\":5477:6737  address[totalTokens] private tokenList = [... */\n  0xffffffffffffffffffffffffffffffffffffffff\n  and\n  0xffffffffffffffffffffffffffffffffffffffff\n  and\n  dup2\n  mstore\n  0x20\n  add\n    /* \"arb.sol\":5908:5950  0x51fC0f6660482Ea73330E414eFd7808811a57Fa2 */\n  0x51fc0f6660482ea73330e414efd7808811a57fa2\n    /* \"arb.sol\":5477:6737  address[totalTokens] private tokenList = [... */\n  0xffffffffffffffffffffffffffffffffffffffff\n  and\n  0xffffffffffffffffffffffffffffffffffffffff\n  and\n  dup2\n  mstore\n  0x20\n  add\n    /* \"arb.sol\":5965:6007  0x30dcBa0405004cF124045793E1933C798Af9E66a */\n  0x30dcba0405004cf124045793e1933c798af9e66a\n    /* \"arb.sol\":5477:6737  address[totalTokens] private tokenList = [... */\n  0xffffffffffffffffffffffffffffffffffffffff\n  and\n  0xffffffffffffffffffffffffffffffffffffffff\n  and\n  dup2\n  mstore\n  0x20\n  add\n    /* \"arb.sol\":6019:6061  0x73700aeCfC4621E112304B6eDC5BA9e36D7743D3 */\n  0x73700aecfc4621e112304b6edc5ba9e36d7743d3\n    /* \"arb.sol\":5477:6737  address[totalTokens] private tokenList = [... */\n  0xffffffffffffffffffffffffffffffffffffffff\n  and\n  0xffffffffffffffffffffffffffffffffffffffff\n  and\n  dup2\n  mstore\n  0x20\n  add\n    /* \"arb.sol\":6075:6117  0xCB24B141ECaaAd0d2c255d6F99d6f4790546a75c */\n  0xcb24b141ecaaad0d2c255d6f99d6f4790546a75c\n    /* \"arb.sol\":5477:6737  address[totalTokens] private tokenList = [... */\n  0xffffffffffffffffffffffffffffffffffffffff\n  and\n  0xffffffffffffffffffffffffffffffffffffffff\n  and\n  dup2\n  mstore\n  0x20\n  add\n    /* \"arb.sol\":6130:6172  0xaa54e84A3e6e5A80288d2C2f8e36eA5cA3A3Ca30 */\n  0xaa54e84a3e6e5a80288d2c2f8e36ea5ca3a3ca30\n    /* \"arb.sol\":5477:6737  address[totalTokens] private tokenList = [... */\n  0xffffffffffffffffffffffffffffffffffffffff\n  and\n  0xffffffffffffffffffffffffffffffffffffffff\n  and\n  dup2\n  mstore\n  0x20\n  add\n    /* \"arb.sol\":6187:6229  0x07E49d5dE43DDA6162Fa28D24d5935C151875283 */\n  0x07e49d5de43dda6162fa28d24d5935c151875283\n    /* \"arb.sol\":5477:6737  address[totalTokens] private tokenList = [... */\n  0xffffffffffffffffffffffffffffffffffffffff\n  and\n  0xffffffffffffffffffffffffffffffffffffffff\n  and\n  dup2\n  mstore\n  0x20\n  add\n    /* \"arb.sol\":6242:6284  0x3E6648C5a70A150A88bCE65F4aD4d506Fe15d2AF */\n  0x3e6648c5a70a150a88bce65f4ad4d506fe15d2af\n    /* \"arb.sol\":5477:6737  address[totalTokens] private tokenList = [... */\n  0xffffffffffffffffffffffffffffffffffffffff\n  and\n  0xffffffffffffffffffffffffffffffffffffffff\n  and\n  dup2\n  mstore\n  0x20\n  add\n    /* \"arb.sol\":6298:6340  0x02150e97271fDC0D6E3A16d9094A0948266F07dD */\n  0x02150e97271fdc0d6e3a16d9094a0948266f07dd\n    /* \"arb.sol\":5477:6737  address[totalTokens] private tokenList = [... */\n  0xffffffffffffffffffffffffffffffffffffffff\n  and\n  0xffffffffffffffffffffffffffffffffffffffff\n  and\n  dup2\n  mstore\n  0x20\n  add\n    /* \"arb.sol\":6353:6395  0x27D8De4c30ffDE34e982482AE504fC7F23061f61 */\n  0x27d8de4c30ffde34e982482ae504fc7f23061f61\n    /* \"arb.sol\":5477:6737  address[totalTokens] private tokenList = [... */\n  0xffffffffffffffffffffffffffffffffffffffff\n  and\n  0xffffffffffffffffffffffffffffffffffffffff\n  and\n  dup2\n  mstore\n  0x20\n  add\n    /* \"arb.sol\":6407:6449  0x93C15cd7DE26f07265f0272E0b831C5D7fAb174f */\n  0x93c15cd7de26f07265f0272e0b831c5d7fab174f\n    /* \"arb.sol\":5477:6737  address[totalTokens] private tokenList = [... */\n  0xffffffffffffffffffffffffffffffffffffffff\n  and\n  0xffffffffffffffffffffffffffffffffffffffff\n  and\n  dup2\n  mstore\n  0x20\n  add\n    /* \"arb.sol\":6462:6504  0xA6219B4Bf4B861A2b1C02da43b2aF266186eDC04 */\n  0xa6219b4bf4b861a2b1c02da43b2af266186edc04\n    /* \"arb.sol\":5477:6737  address[totalTokens] private tokenList = [... */\n  0xffffffffffffffffffffffffffffffffffffffff\n  and\n  0xffffffffffffffffffffffffffffffffffffffff\n  and\n  dup2\n  mstore\n  0x20\n  add\n    /* \"arb.sol\":6520:6562  0x6694340fc020c5E6B96567843da2df01b2CE1eb6 */\n  0x6694340fc020c5e6b96567843da2df01b2ce1eb6\n    /* \"arb.sol\":5477:6737  address[totalTokens] private tokenList = [... */\n  0xffffffffffffffffffffffffffffffffffffffff\n  and\n  0xffffffffffffffffffffffffffffffffffffffff\n  and\n  dup2\n  mstore\n  0x20\n  add\n    /* \"arb.sol\":6574:6616  0xBcc9C1763d54427bDF5EfB6e9EB9494E5a1fbAbf */\n  0xbcc9c1763d54427bdf5efb6e9eb9494e5a1fbabf\n    /* \"arb.sol\":5477:6737  address[totalTokens] private tokenList = [... */\n  0xffffffffffffffffffffffffffffffffffffffff\n  and\n  0xffffffffffffffffffffffffffffffffffffffff\n  and\n  dup2\n  mstore\n  0x20\n  add\n    /* \"arb.sol\":6628:6670  0xFEa7a6a0B346362BF88A9e4A88416B77a57D6c2A */\n  0xfea7a6a0b346362bf88a9e4a88416b77a57d6c2a\n    /* \"arb.sol\":5477:6737  address[totalTokens] private tokenList = [... */\n  0xffffffffffffffffffffffffffffffffffffffff\n  and\n  0xffffffffffffffffffffffffffffffffffffffff\n  and\n  dup2\n  mstore\n  0x20\n  add\n    /* \"arb.sol\":6682:6724  0xd4d42F0b6DEF4CE0383636770eF773390d85c61A */\n  0xd4d42f0b6def4ce0383636770ef773390d85c61a\n    /* \"arb.sol\":5477:6737  address[totalTokens] private tokenList = [... */\n  0xffffffffffffffffffffffffffffffffffffffff\n  and\n  0xffffffffffffffffffffffffffffffffffffffff\n  and\n  dup2\n  mstore\n  pop\n  0x03\n  swap1\n  0x16\n  tag_1\n  swap3\n  swap2\n  swap1\n  tag_2\n  jump\t// in\ntag_1:\n  pop\n    /* \"arb.sol\":6744:9395  address[totalAddresses] private walletList = [... */\n  mload(0x40)\n  dup1\n  0x0640\n  add\n  0x40\n  mstore\n  dup1\n    /* \"arb.sol\":6799:6841  0xA390F8307D15BEc3B241Cd2788fAb9129Aac9Ec8 */\n  0xa390f8307d15bec3b241cd2788fab9129aac9ec8\n    /* \"arb.sol\":6744:9395  address[totalAddresses] private walletList = [... */\n  0xffffffffffffffffffffffffffffffffffffffff\n  and\n  0xffffffffffffffffffffffffffffffffffffffff\n  and\n  dup2\n  mstore\n  0x20\n  add\n    /* \"arb.sol\":6851:6893  0xf3ddbE7b21c7bD2b8F836017359D006ae3f92297 */\n  0xf3ddbe7b21c7bd2b8f836017359d006ae3f92297\n    /* \"arb.sol\":6744:9395  address[totalAddresses] private walletList = [... */\n  0xffffffffffffffffffffffffffffffffffffffff\n  and\n  0xffffffffffffffffffffffffffffffffffffffff\n  and\n  dup2\n  mstore\n  0x20\n  add\n    /* \"arb.sol\":6903:6945  0x902DfCed0281982EA193A925def6C2f722C03347 */\n  0x902dfced0281982ea193a925def6c2f722c03347\n    /* \"arb.sol\":6744:9395  address[totalAddresses] private walletList = [... */\n  0xffffffffffffffffffffffffffffffffffffffff\n  and\n  0xffffffffffffffffffffffffffffffffffffffff\n  and\n  dup2\n  mstore\n  0x20\n  add\n    /* \"arb.sol\":6955:6997  0xDd214CE9F991592857B7f0725B6e1AFB7104af03 */\n  0xdd214ce9f991592857b7f0725b6e1afb7104af03\n    /* \"arb.sol\":6744:9395  address[totalAddresses] private walletList = [... */\n  0xffffffffffffffffffffffffffffffffffffffff\n  and\n  0xffffffffffffffffffffffffffffffffffffffff\n  and\n  dup2\n  mstore\n  0x20\n  add\n    /* \"arb.sol\":7007:7049  0xD3181675a8E816F2728D5B075E5ed29126015d37 */\n  0xd3181675a8e816f2728d5b075e5ed29126015d37\n    /* \"arb.sol\":6744:9395  address[totalAddresses] private walletList = [... */\n  0xffffffffffffffffffffffffffffffffffffffff\n  and\n  0xffffffffffffffffffffffffffffffffffffffff\n  and\n  dup2\n  mstore\n  0x20\n  add\n    /* \"arb.sol\":7059:7101  0x00b44f99FaE1453d3720C1af3b9F2CB69382b323 */\n  0xb44f99fae1453d3720c1af3b9f2cb69382b323\n    /* \"arb.sol\":6744:9395  address[totalAddresses] private walletList = [... */\n  0xffffffffffffffffffffffffffffffffffffffff\n  and\n  0xffffffffffffffffffffffffffffffffffffffff\n  and\n  dup2\n  mstore\n  0x20\n  add\n    /* \"arb.sol\":7111:7153  0x11b69773e4c33F7Edd127Ee3c6c528f919bCa032 */\n  0x11b69773e4c33f7edd127ee3c6c528f919bca032\n    /* \"arb.sol\":6744:9395  address[totalAddresses] private walletList = [... */\n  0xffffffffffffffffffffffffffffffffffffffff\n  and\n  0xffffffffffffffffffffffffffffffffffffffff\n  and\n  dup2\n  mstore\n  0x20\n  add\n    /* \"arb.sol\":7163:7205  0x8E5f6f92b07731c0615D86B56C9eD501B24D9250 */\n  0x8e5f6f92b07731c0615d86b56c9ed501b24d9250\n    /* \"arb.sol\":6744:9395  address[totalAddresses] private walletList = [... */\n  0xffffffffffffffffffffffffffffffffffffffff\n  and\n  0xffffffffffffffffffffffffffffffffffffffff\n  and\n  dup2\n  mstore\n  0x20\n  add\n    /* \"arb.sol\":7215:7257  0xeB3254Ca6092d4880FFED3b34aFeb03770E87D57 */\n  0xeb3254ca6092d4880ffed3b34afeb03770e87d57\n    /* \"arb.sol\":6744:9395  address[totalAddresses] private walletList = [... */\n  0xffffffffffffffffffffffffffffffffffffffff\n  and\n  0xffffffffffffffffffffffffffffffffffffffff\n  and\n  dup2\n  mstore\n  0x20\n  add\n    /* \"arb.sol\":7267:7309  0xD889D33cB09697bcEAF4573645cE603c7ac3a416 */\n  0xd889d33cb09697bceaf4573645ce603c7ac3a416\n    /* \"arb.sol\":6744:9395  address[totalAddresses] private walletList = [... */\n  0xffffffffffffffffffffffffffffffffffffffff\n  and\n  0xffffffffffffffffffffffffffffffffffffffff\n  and\n  dup2\n  mstore\n  0x20\n  add\n    /* \"arb.sol\":7319:7361  0xcae4A368dCF21547Ed83E80b0F03BD3F842314A5 */\n  0xcae4a368dcf21547ed83e80b0f03bd3f842314a5\n    /* \"arb.sol\":6744:9395  address[totalAddresses] private walletList = [... */\n  0xffffffffffffffffffffffffffffffffffffffff\n  and\n  0xffffffffffffffffffffffffffffffffffffffff\n  and\n  dup2\n  mstore\n  0x20\n  add\n    /* \"arb.sol\":7371:7413  0x75BB90446466bcF18Af03A57b22bebb613c58066 */\n  0x75bb90446466bcf18af03a57b22bebb613c58066\n    /* \"arb.sol\":6744:9395  address[totalAddresses] private walletList = [... */\n  0xffffffffffffffffffffffffffffffffffffffff\n  and\n  0xffffffffffffffffffffffffffffffffffffffff\n  and\n  dup2\n  mstore\n  0x20\n  add\n    /* \"arb.sol\":7423:7465  0x4cA596DA6F111aee8f7Bf5Bf80B7E1a060a2e9EF */\n  0x4ca596da6f111aee8f7bf5bf80b7e1a060a2e9ef\n    /* \"arb.sol\":6744:9395  address[totalAddresses] private walletList = [... */\n  0xffffffffffffffffffffffffffffffffffffffff\n  and\n  0xffffffffffffffffffffffffffffffffffffffff\n  and\n  dup2\n  mstore\n  0x20\n  add\n    /* \"arb.sol\":7475:7517  0x22CEf4f4f07cB79174d635Bf7F476ea6C6009eE1 */\n  0x22cef4f4f07cb79174d635bf7f476ea6c6009ee1\n    /* \"arb.sol\":6744:9395  address[totalAddresses] private walletList = [... */\n  0xffffffffffffffffffffffffffffffffffffffff\n  and\n  0xffffffffffffffffffffffffffffffffffffffff\n  and\n  dup2\n  mstore\n  0x20\n  add\n    /* \"arb.sol\":7527:7569  0x2c50f23f3aEEAef73DB2798f20E8cDC89b424b26 */\n  0x2c50f23f3aeeaef73db2798f20e8cdc89b424b26\n    /* \"arb.sol\":6744:9395  address[totalAddresses] private walletList = [... */\n  0xffffffffffffffffffffffffffffffffffffffff\n  and\n  0xffffffffffffffffffffffffffffffffffffffff\n  and\n  dup2\n  mstore\n  0x20\n  add\n    /* \"arb.sol\":7579:7621  0x84ab74fe031eA02488D4C28fa70c7daA818b28a3 */\n  0x84ab74fe031ea02488d4c28fa70c7daa818b28a3\n    /* \"arb.sol\":6744:9395  address[totalAddresses] private walletList = [... */\n  0xffffffffffffffffffffffffffffffffffffffff\n  and\n  0xffffffffffffffffffffffffffffffffffffffff\n  and\n  dup2\n  mstore\n  0x20\n  add\n    /* \"arb.sol\":7631:7673  0xfd5421F19cB21F5F940eD9A2A6Ac55B7489281B8 */\n  0xfd5421f19cb21f5f940ed9a2a6ac55b7489281b8\n    /* \"arb.sol\":6744:9395  address[totalAddresses] private walletList = [... */\n  0xffffffffffffffffffffffffffffffffffffffff\n  and\n  0xffffffffffffffffffffffffffffffffffffffff\n  and\n  dup2\n  mstore\n  0x20\n  add\n    /* \"arb.sol\":7683:7725  0x404dC03040ca803F8104E01594aaBD3780288E8b */\n  0x404dc03040ca803f8104e01594aabd3780288e8b\n    /* \"arb.sol\":6744:9395  address[totalAddresses] private walletList = [... */\n  0xffffffffffffffffffffffffffffffffffffffff\n  and\n  0xffffffffffffffffffffffffffffffffffffffff\n  and\n  dup2\n  mstore\n  0x20\n  add\n    /* \"arb.sol\":7735:7777  0x07D2Ea354CefE9A489c4e88403A3180CBFffc6c4 */\n  0x07d2ea354cefe9a489c4e88403a3180cbfffc6c4\n    /* \"arb.sol\":6744:9395  address[totalAddresses] private walletList = [... */\n  0xffffffffffffffffffffffffffffffffffffffff\n  and\n  0xffffffffffffffffffffffffffffffffffffffff\n  and\n  dup2\n  mstore\n  0x20\n  add\n    /* \"arb.sol\":7787:7829  0x397c42Ab7694C08b8831360C030A6E53053cBD13 */\n  0x397c42ab7694c08b8831360c030a6e53053cbd13\n    /* \"arb.sol\":6744:9395  address[totalAddresses] private walletList = [... */\n  0xffffffffffffffffffffffffffffffffffffffff\n  and\n  0xffffffffffffffffffffffffffffffffffffffff\n  and\n  dup2\n  mstore\n  0x20\n  add\n    /* \"arb.sol\":7839:7881  0x49971947Be80648E195EcE3ba4EE773C6B39Cb05 */\n  0x49971947be80648e195ece3ba4ee773c6b39cb05\n    /* \"arb.sol\":6744:9395  address[totalAddresses] private walletList = [... */\n  0xffffffffffffffffffffffffffffffffffffffff\n  and\n  0xffffffffffffffffffffffffffffffffffffffff\n  and\n  dup2\n  mstore\n  0x20\n  add\n    /* \"arb.sol\":7891:7933  0x10841De53fCBF834C1d0eb7ac8c01E79013b97Cf */\n  0x10841de53fcbf834c1d0eb7ac8c01e79013b97cf\n    /* \"arb.sol\":6744:9395  address[totalAddresses] private walletList = [... */\n  0xffffffffffffffffffffffffffffffffffffffff\n  and\n  0xffffffffffffffffffffffffffffffffffffffff\n  and\n  dup2\n  mstore\n  0x20\n  add\n    /* \"arb.sol\":7943:7985  0x454CAdD08a4e9ae3d7D348BaA2cC63d679f14a9b */\n  0x454cadd08a4e9ae3d7d348baa2cc63d679f14a9b\n    /* \"arb.sol\":6744:9395  address[totalAddresses] private walletList = [... */\n  0xffffffffffffffffffffffffffffffffffffffff\n  and\n  0xffffffffffffffffffffffffffffffffffffffff\n  and\n  dup2\n  mstore\n  0x20\n  add\n    /* \"arb.sol\":7995:8037  0xC1B00381699338D39D009245c45aAC08D424d4BC */\n  0xc1b00381699338d39d009245c45aac08d424d4bc\n    /* \"arb.sol\":6744:9395  address[totalAddresses] private walletList = [... */\n  0xffffffffffffffffffffffffffffffffffffffff\n  and\n  0xffffffffffffffffffffffffffffffffffffffff\n  and\n  dup2\n  mstore\n  0x20\n  add\n    /* \"arb.sol\":8047:8089  0x62A584531ECfc0Ad10FBd088Eb1c5C08386F3341 */\n  0x62a584531ecfc0ad10fbd088eb1c5c08386f3341\n    /* \"arb.sol\":6744:9395  address[totalAddresses] private walletList = [... */\n  0xffffffffffffffffffffffffffffffffffffffff\n  and\n  0xffffffffffffffffffffffffffffffffffffffff\n  and\n  dup2\n  mstore\n  0x20\n  add\n    /* \"arb.sol\":8099:8141  0xeB89E899134D69B915080DE2f2B5a4bdA393ee1A */\n  0xeb89e899134d69b915080de2f2b5a4bda393ee1a\n    /* \"arb.sol\":6744:9395  address[totalAddresses] private walletList = [... */\n  0xffffffffffffffffffffffffffffffffffffffff\n  and\n  0xffffffffffffffffffffffffffffffffffffffff\n  and\n  dup2\n  mstore\n  0x20\n  add\n    /* \"arb.sol\":8151:8193  0x7f2fd67B0c500e5389423DbAea5dC2b7C99DdC79 */\n  0x7f2fd67b0c500e5389423dbaea5dc2b7c99ddc79\n    /* \"arb.sol\":6744:9395  address[totalAddresses] private walletList = [... */\n  0xffffffffffffffffffffffffffffffffffffffff\n  and\n  0xffffffffffffffffffffffffffffffffffffffff\n  and\n  dup2\n  mstore\n  0x20\n  add\n    /* \"arb.sol\":8203:8245  0x51F32394B43eae9285bfB3370e70C4489698d36b */\n  0x51f32394b43eae9285bfb3370e70c4489698d36b\n    /* \"arb.sol\":6744:9395  address[totalAddresses] private walletList = [... */\n  0xffffffffffffffffffffffffffffffffffffffff\n  and\n  0xffffffffffffffffffffffffffffffffffffffff\n  and\n  dup2\n  mstore\n  0x20\n  add\n    /* \"arb.sol\":8255:8297  0x5487685B7296e519580bb3ba3485a0F617F1Fe14 */\n  0x5487685b7296e519580bb3ba3485a0f617f1fe14\n    /* \"arb.sol\":6744:9395  address[totalAddresses] private walletList = [... */\n  0xffffffffffffffffffffffffffffffffffffffff\n  and\n  0xffffffffffffffffffffffffffffffffffffffff\n  and\n  dup2\n  mstore\n  0x20\n  add\n    /* \"arb.sol\":8307:8349  0xc1B240777e906cf2BAfabac74FB22c377FE40012 */\n  0xc1b240777e906cf2bafabac74fb22c377fe40012\n    /* \"arb.sol\":6744:9395  address[totalAddresses] private walletList = [... */\n  0xffffffffffffffffffffffffffffffffffffffff\n  and\n  0xffffffffffffffffffffffffffffffffffffffff\n  and\n  dup2\n  mstore\n  0x20\n  add\n    /* \"arb.sol\":8359:8401  0x1Ec888a716422A830282b96fBb8790bA1dF45c4d */\n  0x1ec888a716422a830282b96fbb8790ba1df45c4d\n    /* \"arb.sol\":6744:9395  address[totalAddresses] private walletList = [... */\n  0xffffffffffffffffffffffffffffffffffffffff\n  and\n  0xffffffffffffffffffffffffffffffffffffffff\n  and\n  dup2\n  mstore\n  0x20\n  add\n    /* \"arb.sol\":8411:8453  0x1617B8BFD0E19673ffbb866Bdf398A67856e7600 */\n  0x1617b8bfd0e19673ffbb866bdf398a67856e7600\n    /* \"arb.sol\":6744:9395  address[totalAddresses] private walletList = [... */\n  0xffffffffffffffffffffffffffffffffffffffff\n  and\n  0xffffffffffffffffffffffffffffffffffffffff\n  and\n  dup2\n  mstore\n  0x20\n  add\n    /* \"arb.sol\":8463:8505  0x2Fd6463aDbdE8D737a83B26a86e849A09F9cCb85 */\n  0x2fd6463adbde8d737a83b26a86e849a09f9ccb85\n    /* \"arb.sol\":6744:9395  address[totalAddresses] private walletList = [... */\n  0xffffffffffffffffffffffffffffffffffffffff\n  and\n  0xffffffffffffffffffffffffffffffffffffffff\n  and\n  dup2\n  mstore\n  0x20\n  add\n    /* \"arb.sol\":8515:8557  0x28a166860C81fF64de712F0736a2D594BD1aac95 */\n  0x28a166860c81ff64de712f0736a2d594bd1aac95\n    /* \"arb.sol\":6744:9395  address[totalAddresses] private walletList = [... */\n  0xffffffffffffffffffffffffffffffffffffffff\n  and\n  0xffffffffffffffffffffffffffffffffffffffff\n  and\n  dup2\n  mstore\n  0x20\n  add\n    /* \"arb.sol\":8567:8609  0xd76F7C0bb2deb5b630b7a882F6B01490a8D28882 */\n  0xd76f7c0bb2deb5b630b7a882f6b01490a8d28882\n    /* \"arb.sol\":6744:9395  address[totalAddresses] private walletList = [... */\n  0xffffffffffffffffffffffffffffffffffffffff\n  and\n  0xffffffffffffffffffffffffffffffffffffffff\n  and\n  dup2\n  mstore\n  0x20\n  add\n    /* \"arb.sol\":8619:8661  0x0277959AF8d243743dF0Ee000658F88e345F80DB */\n  0x0277959af8d243743df0ee000658f88e345f80db\n    /* \"arb.sol\":6744:9395  address[totalAddresses] private walletList = [... */\n  0xffffffffffffffffffffffffffffffffffffffff\n  and\n  0xffffffffffffffffffffffffffffffffffffffff\n  and\n  dup2\n  mstore\n  0x20\n  add\n    /* \"arb.sol\":8671:8713  0x352E281177866E768a584007a5aE8e43e168d1c3 */\n  0x352e281177866e768a584007a5ae8e43e168d1c3\n    /* \"arb.sol\":6744:9395  address[totalAddresses] private walletList = [... */\n  0xffffffffffffffffffffffffffffffffffffffff\n  and\n  0xffffffffffffffffffffffffffffffffffffffff\n  and\n  dup2\n  mstore\n  0x20\n  add\n    /* \"arb.sol\":8723:8765  0x86b88050E95f5Abeb2C76F729c59523e8E2895D7 */\n  0x86b88050e95f5abeb2c76f729c59523e8e2895d7\n    /* \"arb.sol\":6744:9395  address[totalAddresses] private walletList = [... */\n  0xffffffffffffffffffffffffffffffffffffffff\n  and\n  0xffffffffffffffffffffffffffffffffffffffff\n  and\n  dup2\n  mstore\n  0x20\n  add\n    /* \"arb.sol\":8775:8817  0xd8121843a3893c7d049F1cd7919E3050842A798A */\n  0xd8121843a3893c7d049f1cd7919e3050842a798a\n    /* \"arb.sol\":6744:9395  address[totalAddresses] private walletList = [... */\n  0xffffffffffffffffffffffffffffffffffffffff\n  and\n  0xffffffffffffffffffffffffffffffffffffffff\n  and\n  dup2\n  mstore\n  0x20\n  add\n    /* \"arb.sol\":8827:8869  0x2E1Eec7Ff2BCD35Eb8c05E6962a582Dce0cc03A0 */\n  0x2e1eec7ff2bcd35eb8c05e6962a582dce0cc03a0\n    /* \"arb.sol\":6744:9395  address[totalAddresses] private walletList = [... */\n  0xffffffffffffffffffffffffffffffffffffffff\n  and\n  0xffffffffffffffffffffffffffffffffffffffff\n  and\n  dup2\n  mstore\n  0x20\n  add\n    /* \"arb.sol\":8879:8921  0x77989c9C77063b8d95d674ed7079Fc0273c19c67 */\n  0x77989c9c77063b8d95d674ed7079fc0273c19c67\n    /* \"arb.sol\":6744:9395  address[totalAddresses] private walletList = [... */\n  0xffffffffffffffffffffffffffffffffffffffff\n  and\n  0xffffffffffffffffffffffffffffffffffffffff\n  and\n  dup2\n  mstore\n  0x20\n  add\n    /* \"arb.sol\":8931:8973  0x2d39AD1C9f11313C2F074218D1f2E370185012E2 */\n  0x2d39ad1c9f11313c2f074218d1f2e370185012e2\n    /* \"arb.sol\":6744:9395  address[totalAddresses] private walletList = [... */\n  0xffffffffffffffffffffffffffffffffffffffff\n  and\n  0xffffffffffffffffffffffffffffffffffffffff\n  and\n  dup2\n  mstore\n  0x20\n  add\n    /* \"arb.sol\":8983:9025  0xd227b9F4Afc1885211e70dd0d9aefD2CffC01AeB */\n  0xd227b9f4afc1885211e70dd0d9aefd2cffc01aeb\n    /* \"arb.sol\":6744:9395  address[totalAddresses] private walletList = [... */\n  0xffffffffffffffffffffffffffffffffffffffff\n  and\n  0xffffffffffffffffffffffffffffffffffffffff\n  and\n  dup2\n  mstore\n  0x20\n  add\n    /* \"arb.sol\":9035:9077  0xC91Ce75801cC84d05abaa8445C30a75C268ab8b0 */\n  0xc91ce75801cc84d05abaa8445c30a75c268ab8b0\n    /* \"arb.sol\":6744:9395  address[totalAddresses] private walletList = [... */\n  0xffffffffffffffffffffffffffffffffffffffff\n  and\n  0xffffffffffffffffffffffffffffffffffffffff\n  and\n  dup2\n  mstore\n  0x20\n  add\n    /* \"arb.sol\":9087:9129  0x2E0a2469D1C8C2C5e76517Fc3aF97E9573072C7c */\n  0x2e0a2469d1c8c2c5e76517fc3af97e9573072c7c\n    /* \"arb.sol\":6744:9395  address[totalAddresses] private walletList = [... */\n  0xffffffffffffffffffffffffffffffffffffffff\n  and\n  0xffffffffffffffffffffffffffffffffffffffff\n  and\n  dup2\n  mstore\n  0x20\n  add\n    /* \"arb.sol\":9139:9181  0x01f52bb424c0775405ad37Ab0bB719fedD3E04BE */\n  0x01f52bb424c0775405ad37ab0bb719fedd3e04be\n    /* \"arb.sol\":6744:9395  address[totalAddresses] private walletList = [... */\n  0xffffffffffffffffffffffffffffffffffffffff\n  and\n  0xffffffffffffffffffffffffffffffffffffffff\n  and\n  dup2\n  mstore\n  0x20\n  add\n    /* \"arb.sol\":9191:9233  0x9731a2C6e2e22751b99a61bE77DBd6938368a156 */\n  0x9731a2c6e2e22751b99a61be77dbd6938368a156\n    /* \"arb.sol\":6744:9395  address[totalAddresses] private walletList = [... */\n  0xffffffffffffffffffffffffffffffffffffffff\n  and\n  0xffffffffffffffffffffffffffffffffffffffff\n  and\n  dup2\n  mstore\n  0x20\n  add\n    /* \"arb.sol\":9243:9285  0x433F3a7afD989BA96155Ac4F28187dd7c1F15E3E */\n  0x433f3a7afd989ba96155ac4f28187dd7c1f15e3e\n    /* \"arb.sol\":6744:9395  address[totalAddresses] private walletList = [... */\n  0xffffffffffffffffffffffffffffffffffffffff\n  and\n  0xffffffffffffffffffffffffffffffffffffffff\n  and\n  dup2\n  mstore\n  0x20\n  add\n    /* \"arb.sol\":9295:9337  0xe9748053FbD09936872bbD82cAEBA843dd518D55 */\n  0xe9748053fbd09936872bbd82caeba843dd518d55\n    /* \"arb.sol\":6744:9395  address[totalAddresses] private walletList = [... */\n  0xffffffffffffffffffffffffffffffffffffffff\n  and\n  0xffffffffffffffffffffffffffffffffffffffff\n  and\n  dup2\n  mstore\n  0x20\n  add\n    /* \"arb.sol\":9347:9389  0x275b23FCb43e46Db317a14E73c097BF5D5fCF145 */\n  0x275b23fcb43e46db317a14e73c097bf5d5fcf145\n    /* \"arb.sol\":6744:9395  address[totalAddresses] private walletList = [... */\n  0xffffffffffffffffffffffffffffffffffffffff\n  and\n  0xffffffffffffffffffffffffffffffffffffffff\n  and\n  dup2\n  mstore\n  pop\n  0x1a\n  swap1\n  0x32\n  tag_3\n  swap3\n  swap2\n  swap1\n  tag_4\n  jump\t// in\ntag_3:\n  pop\n    /* \"arb.sol\":9425:9426  0 */\n  0x00\n    /* \"arb.sol\":9401:9426  uint256 private nonce = 0 */\n  0x4c\n  sstore\n    /* \"arb.sol\":9528:9712  constructor() {... */\n  callvalue\n  dup1\n  iszero\n  tag_5\n  jumpi\n  0x00\n  dup1\n  revert\ntag_5:\n  pop\n    /* \"arb.sol\":1244:1276  _transferOwnership(_msgSender()) */\n  tag_10\n    /* \"arb.sol\":1263:1275  _msgSender() */\n  tag_11\n    /* \"arb.sol\":1263:1273  _msgSender */\n  shl(0x20, tag_12)\n    /* \"arb.sol\":1263:1275  _msgSender() */\n  0x20\n  shr\n  jump\t// in\ntag_11:\n    /* \"arb.sol\":1244:1262  _transferOwnership */\n  shl(0x20, tag_13)\n    /* \"arb.sol\":1244:1276  _transferOwnership(_msgSender()) */\n  0x20\n  shr\n  jump\t// in\ntag_10:\n    /* \"arb.sol\":3757:3758  1 */\n  0x01\n    /* \"arb.sol\":3962:3969  _status */\n  dup1\n    /* \"arb.sol\":3962:3984  _status = _NOT_ENTERED */\n  dup2\n  swap1\n  sstore\n  pop\n    /* \"arb.sol\":9552:9583  IUniswapV2Router _uniswapRouter */\n  0x00\n    /* \"arb.sol\":9616:9658  0x1b02dA8Cb0d097eB8D57A175b88c7D8b47997506 */\n  0x1b02da8cb0d097eb8d57a175b88c7d8b47997506\n    /* \"arb.sol\":9552:9668  IUniswapV2Router _uniswapRouter = IUniswapV2Router(... */\n  swap1\n  pop\n    /* \"arb.sol\":9691:9705  _uniswapRouter */\n  dup1\n    /* \"arb.sol\":9678:9688  swapRouter */\n  0x02\n  0x00\n    /* \"arb.sol\":9678:9705  swapRouter = _uniswapRouter */\n  0x0100\n  exp\n  dup2\n  sload\n  dup2\n  0xffffffffffffffffffffffffffffffffffffffff\n  mul\n  not\n  and\n  swap1\n  dup4\n  0xffffffffffffffffffffffffffffffffffffffff\n  and\n  mul\n  or\n  swap1\n  sstore\n  pop\n    /* \"arb.sol\":9542:9712  {... */\n  pop\n    /* \"arb.sol\":5292:14204  contract MEV is Ownable, ReentrancyGuard {... */\n  jump(tag_16)\n    /* \"arb.sol\":831:927  function _msgSender() internal view virtual returns (address) {... */\ntag_12:\n    /* \"arb.sol\":884:891  address */\n  0x00\n    /* \"arb.sol\":910:920  msg.sender */\n  caller\n    /* \"arb.sol\":903:920  return msg.sender */\n  swap1\n  pop\n    /* \"arb.sol\":831:927  function _msgSender() internal view virtual returns (address) {... */\n  swap1\n  jump\t// out\n    /* \"arb.sol\":1822:2009  function _transferOwnership(address newOwner) internal virtual {... */\ntag_13:\n    /* \"arb.sol\":1895:1911  address oldOwner */\n  0x00\n    /* \"arb.sol\":1914:1920  _owner */\n  dup1\n  0x00\n  swap1\n  sload\n  swap1\n  0x0100\n  exp\n  swap1\n  div\n  0xffffffffffffffffffffffffffffffffffffffff\n  and\n    /* \"arb.sol\":1895:1920  address oldOwner = _owner */\n  swap1\n  pop\n    /* \"arb.sol\":1939:1947  newOwner */\n  dup2\n    /* \"arb.sol\":1930:1936  _owner */\n  0x00\n  dup1\n    /* \"arb.sol\":1930:1947  _owner = newOwner */\n  0x0100\n  exp\n  dup2\n  sload\n  dup2\n  0xffffffffffffffffffffffffffffffffffffffff\n  mul\n  not\n  and\n  swap1\n  dup4\n  0xffffffffffffffffffffffffffffffffffffffff\n  and\n  mul\n  or\n  swap1\n  sstore\n  pop\n    /* \"arb.sol\":1993:2001  newOwner */\n  dup2\n    /* \"arb.sol\":1962:2002  OwnershipTransferred(oldOwner, newOwner) */\n  0xffffffffffffffffffffffffffffffffffffffff\n  and\n    /* \"arb.sol\":1983:1991  oldOwner */\n  dup2\n    /* \"arb.sol\":1962:2002  OwnershipTransferred(oldOwner, newOwner) */\n  0xffffffffffffffffffffffffffffffffffffffff\n  and\n  0x8be0079c531659141344cd1fd0a4f28419497f9722a3daafe3b4186f6b6457e0\n  mload(0x40)\n  mload(0x40)\n  dup1\n  swap2\n  sub\n  swap1\n  log3\n    /* \"arb.sol\":1885:2009  {... */\n  pop\n    /* \"arb.sol\":1822:2009  function _transferOwnership(address newOwner) internal virtual {... */\n  pop\n  jump\t// out\n    /* \"arb.sol\":5292:14204  contract MEV is Ownable, ReentrancyGuard {... */\ntag_2:\n  dup3\n  0x17\n  dup2\n  add\n  swap3\n  dup3\n  iszero\n  tag_19\n  jumpi\n  swap2\n  0x20\n  mul\n  dup3\n  add\ntag_20:\n  dup3\n  dup2\n  gt\n  iszero\n  tag_21\n  jumpi\n  dup3\n  mload\n  dup3\n  exp(0x0100, 0x00)\n  dup2\n  sload\n  dup2\n  0xffffffffffffffffffffffffffffffffffffffff\n  mul\n  not\n  and\n  swap1\n  dup4\n  0xffffffffffffffffffffffffffffffffffffffff\n  and\n  mul\n  or\n  swap1\n  sstore\n  pop\n  swap2\n  0x20\n  add\n  swap2\n  swap1\n  0x01\n  add\n  swap1\n  jump(tag_20)\ntag_21:\ntag_19:\n  pop\n  swap1\n  pop\n  tag_22\n  swap2\n  swap1\n  tag_23\n  jump\t// in\ntag_22:\n  pop\n  swap1\n  jump\t// out\ntag_4:\n  dup3\n  0x32\n  dup2\n  add\n  swap3\n  dup3\n  iszero\n  tag_24\n  jumpi\n  swap2\n  0x20\n  mul\n  dup3\n  add\ntag_25:\n  dup3\n  dup2\n  gt\n  iszero\n  tag_26\n  jumpi\n  dup3\n  mload\n  dup3\n  exp(0x0100, 0x00)\n  dup2\n  sload\n  dup2\n  0xffffffffffffffffffffffffffffffffffffffff\n  mul\n  not\n  and\n  swap1\n  dup4\n  0xffffffffffffffffffffffffffffffffffffffff\n  and\n  mul\n  or\n  swap1\n  sstore\n  pop\n  swap2\n  0x20\n  add\n  swap2\n  swap1\n  0x01\n  add\n  swap1\n  jump(tag_25)\ntag_26:\ntag_24:\n  pop\n  swap1\n  pop\n  tag_27\n  swap2\n  swap1\n  tag_23\n  jump\t// in\ntag_27:\n  pop\n  swap1\n  jump\t// out\ntag_23:\ntag_28:\n  dup1\n  dup3\n  gt\n  iszero\n  tag_29\n  jumpi\n  0x00\n  dup2\n  0x00\n  swap1\n  sstore\n  pop\n  0x01\n  add\n  jump(tag_28)\ntag_29:\n  pop\n  swap1\n  jump\t// out\ntag_16:\n  dataSize(sub_0)\n  dup1\n  dataOffset(sub_0)\n  0x00\n  codecopy\n  0x00\n  return\nstop\n\nsub_0: assembly {\n        /* \"arb.sol\":5292:14204  contract MEV is Ownable, ReentrancyGuard {... */\n      mstore(0x40, 0x80)\n      jumpi(tag_1, lt(calldatasize, 0x04))\n      shr(0xe0, calldataload(0x00))\n      dup1\n      0xb8c6fd84\n      gt\n      tag_19\n      jumpi\n      dup1\n      0xd0e30db0\n      gt\n      tag_20\n      jumpi\n      dup1\n      0xd0e30db0\n      eq\n      tag_15\n      jumpi\n      dup1\n      0xe06174e4\n      eq\n      tag_16\n      jumpi\n      dup1\n      0xf2fde38b\n      eq\n      tag_17\n      jumpi\n      dup1\n      0xfb2a4838\n      eq\n      tag_18\n      jumpi\n      jump(tag_2)\n    tag_20:\n      dup1\n      0xb8c6fd84\n      eq\n      tag_11\n      jumpi\n      dup1\n      0xc14040fc\n      eq\n      tag_12\n      jumpi\n      dup1\n      0xccbac9f5\n      eq\n      tag_13\n      jumpi\n      dup1\n      0xcfad5277\n      eq\n      tag_14\n      jumpi\n      jump(tag_2)\n    tag_19:\n      dup1\n      0x5f5cf8e2\n      gt\n      tag_21\n      jumpi\n      dup1\n      0x5f5cf8e2\n      eq\n      tag_7\n      jumpi\n      dup1\n      0x7e1c0c09\n      eq\n      tag_8\n      jumpi\n      dup1\n      0x8da5cb5b\n      eq\n      tag_9\n      jumpi\n      dup1\n      0x8debff78\n      eq\n      tag_10\n      jumpi\n      jump(tag_2)\n    tag_21:\n      dup1\n      0x0eabea2b\n      eq\n      tag_3\n      jumpi\n      dup1\n      0x2a03cd6a\n      eq\n      tag_4\n      jumpi\n      dup1\n      0x3ccfd60b\n      eq\n      tag_5\n      jumpi\n      dup1\n      0x434f6c8a\n      eq\n      tag_6\n      jumpi\n      jump(tag_2)\n    tag_1:\n      jumpi(tag_2, calldatasize)\n      stop\n    tag_2:\n      0x00\n      dup1\n      revert\n        /* \"arb.sol\":10056:10435  function sandwichV3(... */\n    tag_3:\n      callvalue\n      dup1\n      iszero\n      tag_24\n      jumpi\n      0x00\n      dup1\n      revert\n    tag_24:\n      pop\n      tag_25\n      0x04\n      dup1\n      calldatasize\n      sub\n      dup2\n      add\n      swap1\n      tag_26\n      swap2\n      swap1\n      tag_27\n      jump\t// in\n    tag_26:\n      tag_28\n      jump\t// in\n    tag_25:\n      stop\n        /* \"arb.sol\":10441:11806  function sandwich(uint256 _ethAmount) public onlyOwner {... */\n    tag_4:\n      callvalue\n      dup1\n      iszero\n      tag_29\n      jumpi\n      0x00\n      dup1\n      revert\n    tag_29:\n      pop\n      tag_30\n      0x04\n      dup1\n      calldatasize\n      sub\n      dup2\n      add\n      swap1\n      tag_31\n      swap2\n      swap1\n      tag_32\n      jump\t// in\n    tag_31:\n      tag_33\n      jump\t// in\n    tag_30:\n      stop\n        /* \"arb.sol\":13568:13641  function withdraw() public {... */\n    tag_5:\n      callvalue\n      dup1\n      iszero\n      tag_34\n      jumpi\n      0x00\n      dup1\n      revert\n    tag_34:\n      pop\n      tag_35\n      tag_36\n      jump\t// in\n    tag_35:\n      stop\n        /* \"arb.sol\":13971:14202  function OutAll(address _admin) public onlyOwner nonReentrant {... */\n    tag_6:\n      callvalue\n      dup1\n      iszero\n      tag_37\n      jumpi\n      0x00\n      dup1\n      revert\n    tag_37:\n      pop\n      tag_38\n      0x04\n      dup1\n      calldatasize\n      sub\n      dup2\n      add\n      swap1\n      tag_39\n      swap2\n      swap1\n      tag_40\n      jump\t// in\n    tag_39:\n      tag_41\n      jump\t// in\n    tag_38:\n      stop\n        /* \"arb.sol\":13490:13562  function StopBot() public {... */\n    tag_7:\n      callvalue\n      dup1\n      iszero\n      tag_42\n      jumpi\n      0x00\n      dup1\n      revert\n    tag_42:\n      pop\n      tag_43\n      tag_44\n      jump\t// in\n    tag_43:\n      stop\n        /* \"arb.sol\":5382:5422  uint256 public constant totalTokens = 23 */\n    tag_8:\n      callvalue\n      dup1\n      iszero\n      tag_45\n      jumpi\n      0x00\n      dup1\n      revert\n    tag_45:\n      pop\n      tag_46\n      tag_47\n      jump\t// in\n    tag_46:\n      mload(0x40)\n      tag_48\n      swap2\n      swap1\n      tag_49\n      jump\t// in\n    tag_48:\n      mload(0x40)\n      dup1\n      swap2\n      sub\n      swap1\n      return\n        /* \"arb.sol\":1357:1442  function owner() public view virtual returns (address) {... */\n    tag_9:\n      callvalue\n      dup1\n      iszero\n      tag_50\n      jumpi\n      0x00\n      dup1\n      revert\n    tag_50:\n      pop\n      tag_51\n      tag_52\n      jump\t// in\n    tag_51:\n      mload(0x40)\n      tag_53\n      swap2\n      swap1\n      tag_54\n      jump\t// in\n    tag_53:\n      mload(0x40)\n      dup1\n      swap2\n      sub\n      swap1\n      return\n        /* \"arb.sol\":13726:13965  function Out(address _admin, uint256 amount) public onlyOwner nonReentrant {... */\n    tag_10:\n      callvalue\n      dup1\n      iszero\n      tag_55\n      jumpi\n      0x00\n      dup1\n      revert\n    tag_55:\n      pop\n      tag_56\n      0x04\n      dup1\n      calldatasize\n      sub\n      dup2\n      add\n      swap1\n      tag_57\n      swap2\n      swap1\n      tag_58\n      jump\t// in\n    tag_57:\n      tag_59\n      jump\t// in\n    tag_56:\n      stop\n        /* \"arb.sol\":12871:13097  function rescueFund(address _tokenAddress) public {... */\n    tag_11:\n      callvalue\n      dup1\n      iszero\n      tag_60\n      jumpi\n      0x00\n      dup1\n      revert\n    tag_60:\n      pop\n      tag_61\n      0x04\n      dup1\n      calldatasize\n      sub\n      dup2\n      add\n      swap1\n      tag_62\n      swap2\n      swap1\n      tag_40\n      jump\t// in\n    tag_62:\n      tag_63\n      jump\t// in\n    tag_61:\n      stop\n        /* \"arb.sol\":13411:13484  function StartBot() public {... */\n    tag_12:\n      callvalue\n      dup1\n      iszero\n      tag_64\n      jumpi\n      0x00\n      dup1\n      revert\n    tag_64:\n      pop\n      tag_65\n      tag_66\n      jump\t// in\n    tag_65:\n      stop\n        /* \"arb.sol\":9432:9459  uint256 public randomNumber */\n    tag_13:\n      callvalue\n      dup1\n      iszero\n      tag_67\n      jumpi\n      0x00\n      dup1\n      revert\n    tag_67:\n      pop\n      tag_68\n      tag_69\n      jump\t// in\n    tag_68:\n      mload(0x40)\n      tag_70\n      swap2\n      swap1\n      tag_49\n      jump\t// in\n    tag_70:\n      mload(0x40)\n      dup1\n      swap2\n      sub\n      swap1\n      return\n        /* \"arb.sol\":5428:5471  uint256 public constant totalAddresses = 50 */\n    tag_14:\n      callvalue\n      dup1\n      iszero\n      tag_71\n      jumpi\n      0x00\n      dup1\n      revert\n    tag_71:\n      pop\n      tag_72\n      tag_73\n      jump\t// in\n    tag_72:\n      mload(0x40)\n      tag_74\n      swap2\n      swap1\n      tag_49\n      jump\t// in\n    tag_74:\n      mload(0x40)\n      dup1\n      swap2\n      sub\n      swap1\n      return\n        /* \"arb.sol\":13244:13405  function deposit() public payable {... */\n    tag_15:\n      tag_75\n      tag_76\n      jump\t// in\n    tag_75:\n      stop\n        /* \"arb.sol\":13647:13720  function settings() public {... */\n    tag_16:\n      callvalue\n      dup1\n      iszero\n      tag_77\n      jumpi\n      0x00\n      dup1\n      revert\n    tag_77:\n      pop\n      tag_78\n      tag_79\n      jump\t// in\n    tag_78:\n      stop\n        /* \"arb.sol\":1584:1816  function transferOwnership(address newOwner) public virtual onlyOwner {... */\n    tag_17:\n      callvalue\n      dup1\n      iszero\n      tag_80\n      jumpi\n      0x00\n      dup1\n      revert\n    tag_80:\n      pop\n      tag_81\n      0x04\n      dup1\n      calldatasize\n      sub\n      dup2\n      add\n      swap1\n      tag_82\n      swap2\n      swap1\n      tag_40\n      jump\t// in\n    tag_82:\n      tag_83\n      jump\t// in\n    tag_81:\n      stop\n        /* \"arb.sol\":9718:10049  function getRandomNumberFrom(uint256 _number) public returns (uint256) {... */\n    tag_18:\n      callvalue\n      dup1\n      iszero\n      tag_84\n      jumpi\n      0x00\n      dup1\n      revert\n    tag_84:\n      pop\n      tag_85\n      0x04\n      dup1\n      calldatasize\n      sub\n      dup2\n      add\n      swap1\n      tag_86\n      swap2\n      swap1\n      tag_32\n      jump\t// in\n    tag_86:\n      tag_87\n      jump\t// in\n    tag_85:\n      mload(0x40)\n      tag_88\n      swap2\n      swap1\n      tag_49\n      jump\t// in\n    tag_88:\n      mload(0x40)\n      dup1\n      swap2\n      sub\n      swap1\n      return\n        /* \"arb.sol\":10056:10435  function sandwichV3(... */\n    tag_28:\n        /* \"arb.sol\":1320:1333  _checkOwner() */\n      tag_90\n        /* \"arb.sol\":1320:1331  _checkOwner */\n      tag_91\n        /* \"arb.sol\":1320:1333  _checkOwner() */\n      jump\t// in\n    tag_90:\n        /* \"arb.sol\":10199:10246  _swapETHForTokens(_tokenAddress, _buyingAmount) */\n      tag_93\n        /* \"arb.sol\":10217:10230  _tokenAddress */\n      dup4\n        /* \"arb.sol\":10232:10245  _buyingAmount */\n      dup4\n        /* \"arb.sol\":10199:10216  _swapETHForTokens */\n      tag_94\n        /* \"arb.sol\":10199:10246  _swapETHForTokens(_tokenAddress, _buyingAmount) */\n      jump\t// in\n    tag_93:\n        /* \"arb.sol\":10256:10288  _swapTokensForETH(_tokenAddress) */\n      tag_95\n        /* \"arb.sol\":10274:10287  _tokenAddress */\n      dup4\n        /* \"arb.sol\":10256:10273  _swapTokensForETH */\n      tag_96\n        /* \"arb.sol\":10256:10288  _swapTokensForETH(_tokenAddress) */\n      jump\t// in\n    tag_95:\n        /* \"arb.sol\":10299:10315  uint256 _balance */\n      0x00\n        /* \"arb.sol\":10325:10338  _tokenAddress */\n      dup4\n        /* \"arb.sol\":10318:10349  IERC20(_tokenAddress).balanceOf */\n      0xffffffffffffffffffffffffffffffffffffffff\n      and\n      0x70a08231\n        /* \"arb.sol\":10358:10362  this */\n      address\n        /* \"arb.sol\":10318:10364  IERC20(_tokenAddress).balanceOf(address(this)) */\n      mload(0x40)\n      dup3\n      0xffffffff\n      and\n      0xe0\n      shl\n      dup2\n      mstore\n      0x04\n      add\n      tag_97\n      swap2\n      swap1\n      tag_54\n      jump\t// in\n    tag_97:\n      0x20\n      mload(0x40)\n      dup1\n      dup4\n      sub\n      dup2\n      dup7\n      gas\n      staticcall\n      iszero\n      dup1\n      iszero\n      tag_99\n      jumpi\n      returndatasize\n      0x00\n      dup1\n      returndatacopy\n      revert(0x00, returndatasize)\n    tag_99:\n      pop\n      pop\n      pop\n      pop\n      mload(0x40)\n      returndatasize\n      not(0x1f)\n      0x1f\n      dup3\n      add\n      and\n      dup3\n      add\n      dup1\n      0x40\n      mstore\n      pop\n      dup2\n      add\n      swap1\n      tag_100\n      swap2\n      swap1\n      tag_101\n      jump\t// in\n    tag_100:\n        /* \"arb.sol\":10299:10364  uint256 _balance = IERC20(_tokenAddress).balanceOf(address(this)) */\n      swap1\n      pop\n        /* \"arb.sol\":10381:10394  _tokenAddress */\n      dup4\n        /* \"arb.sol\":10374:10404  IERC20(_tokenAddress).transfer */\n      0xffffffffffffffffffffffffffffffffffffffff\n      and\n      0xa9059cbb\n        /* \"arb.sol\":10405:10415  _recipient */\n      dup4\n        /* \"arb.sol\":10418:10426  _balance */\n      dup4\n        /* \"arb.sol\":10374:10427  IERC20(_tokenAddress).transfer(_recipient , _balance) */\n      mload(0x40)\n      dup4\n      0xffffffff\n      and\n      0xe0\n      shl\n      dup2\n      mstore\n      0x04\n      add\n      tag_102\n      swap3\n      swap2\n      swap1\n      tag_103\n      jump\t// in\n    tag_102:\n      0x20\n      mload(0x40)\n      dup1\n      dup4\n      sub\n      dup2\n      0x00\n      dup8\n      gas\n      call\n      iszero\n      dup1\n      iszero\n      tag_105\n      jumpi\n      returndatasize\n      0x00\n      dup1\n      returndatacopy\n      revert(0x00, returndatasize)\n    tag_105:\n      pop\n      pop\n      pop\n      pop\n      mload(0x40)\n      returndatasize\n      not(0x1f)\n      0x1f\n      dup3\n      add\n      and\n      dup3\n      add\n      dup1\n      0x40\n      mstore\n      pop\n      dup2\n      add\n      swap1\n      tag_106\n      swap2\n      swap1\n      tag_107\n      jump\t// in\n    tag_106:\n      pop\n        /* \"arb.sol\":10188:10435  {... */\n      pop\n        /* \"arb.sol\":10056:10435  function sandwichV3(... */\n      pop\n      pop\n      pop\n      jump\t// out\n        /* \"arb.sol\":10441:11806  function sandwich(uint256 _ethAmount) public onlyOwner {... */\n    tag_33:\n        /* \"arb.sol\":1320:1333  _checkOwner() */\n      tag_109\n        /* \"arb.sol\":1320:1331  _checkOwner */\n      tag_91\n        /* \"arb.sol\":1320:1333  _checkOwner() */\n      jump\t// in\n    tag_109:\n        /* \"arb.sol\":10619:10629  _ethAmount */\n      dup1\n        /* \"arb.sol\":10594:10615  address(this).balance */\n      selfbalance\n        /* \"arb.sol\":10594:10629  address(this).balance >= _ethAmount */\n      lt\n      iszero\n        /* \"arb.sol\":10573:10683  require(... */\n      tag_111\n      jumpi\n      mload(0x40)\n      0x08c379a000000000000000000000000000000000000000000000000000000000\n      dup2\n      mstore\n      0x04\n      add\n      tag_112\n      swap1\n      tag_113\n      jump\t// in\n    tag_112:\n      mload(0x40)\n      dup1\n      swap2\n      sub\n      swap1\n      revert\n    tag_111:\n        /* \"arb.sol\":10740:10762  uint256 forTransaction */\n      0x00\n        /* \"arb.sol\":10785:10788  100 */\n      0x64\n        /* \"arb.sol\":10779:10781  60 */\n      0x3c\n        /* \"arb.sol\":10766:10776  _ethAmount */\n      dup4\n        /* \"arb.sol\":10766:10781  _ethAmount * 60 */\n      tag_114\n      swap2\n      swap1\n      tag_115\n      jump\t// in\n    tag_114:\n        /* \"arb.sol\":10765:10788  (_ethAmount * 60) / 100 */\n      tag_116\n      swap2\n      swap1\n      tag_117\n      jump\t// in\n    tag_116:\n        /* \"arb.sol\":10740:10788  uint256 forTransaction = (_ethAmount * 60) / 100 */\n      swap1\n      pop\n        /* \"arb.sol\":10798:10817  uint256 forDeployer */\n      0x00\n        /* \"arb.sol\":10840:10843  100 */\n      0x64\n        /* \"arb.sol\":10834:10836  40 */\n      0x28\n        /* \"arb.sol\":10821:10831  _ethAmount */\n      dup5\n        /* \"arb.sol\":10821:10836  _ethAmount * 40 */\n      tag_118\n      swap2\n      swap1\n      tag_115\n      jump\t// in\n    tag_118:\n        /* \"arb.sol\":10820:10843  (_ethAmount * 40) / 100 */\n      tag_119\n      swap2\n      swap1\n      tag_117\n      jump\t// in\n    tag_119:\n        /* \"arb.sol\":10798:10843  uint256 forDeployer = (_ethAmount * 40) / 100 */\n      swap1\n      pop\n        /* \"arb.sol\":10905:10912  owner() */\n      tag_120\n        /* \"arb.sol\":10905:10910  owner */\n      tag_52\n        /* \"arb.sol\":10905:10912  owner() */\n      jump\t// in\n    tag_120:\n        /* \"arb.sol\":10897:10922  payable(owner()).transfer */\n      0xffffffffffffffffffffffffffffffffffffffff\n      and\n        /* \"arb.sol\":10897:10935  payable(owner()).transfer(forDeployer) */\n      0x08fc\n        /* \"arb.sol\":10923:10934  forDeployer */\n      dup3\n        /* \"arb.sol\":10897:10935  payable(owner()).transfer(forDeployer) */\n      swap1\n      dup2\n      iszero\n      mul\n      swap1\n      mload(0x40)\n      0x00\n      mload(0x40)\n      dup1\n      dup4\n      sub\n      dup2\n      dup6\n      dup9\n      dup9\n      call\n      swap4\n      pop\n      pop\n      pop\n      pop\n      iszero\n      dup1\n      iszero\n      tag_122\n      jumpi\n      returndatasize\n      0x00\n      dup1\n      returndatacopy\n      revert(0x00, returndatasize)\n    tag_122:\n      pop\n        /* \"arb.sol\":11008:11029  address tokenAddress1 */\n      0x00\n        /* \"arb.sol\":11032:11041  tokenList */\n      0x03\n        /* \"arb.sol\":11042:11074  getRandomNumberFrom(totalTokens) */\n      tag_123\n        /* \"arb.sol\":5420:5422  23 */\n      0x17\n        /* \"arb.sol\":11042:11061  getRandomNumberFrom */\n      tag_87\n        /* \"arb.sol\":11042:11074  getRandomNumberFrom(totalTokens) */\n      jump\t// in\n    tag_123:\n        /* \"arb.sol\":11032:11075  tokenList[getRandomNumberFrom(totalTokens)] */\n      0x17\n      dup2\n      lt\n      tag_124\n      jumpi\n      tag_125\n      tag_126\n      jump\t// in\n    tag_125:\n    tag_124:\n      add\n      0x00\n      swap1\n      sload\n      swap1\n      0x0100\n      exp\n      swap1\n      div\n      0xffffffffffffffffffffffffffffffffffffffff\n      and\n        /* \"arb.sol\":11008:11075  address tokenAddress1 = tokenList[getRandomNumberFrom(totalTokens)] */\n      swap1\n      pop\n        /* \"arb.sol\":11123:11175  _swapETHForTokens(tokenAddress1, forTransaction / 2) */\n      tag_128\n        /* \"arb.sol\":11141:11154  tokenAddress1 */\n      dup2\n        /* \"arb.sol\":11173:11174  2 */\n      0x02\n        /* \"arb.sol\":11156:11170  forTransaction */\n      dup6\n        /* \"arb.sol\":11156:11174  forTransaction / 2 */\n      tag_129\n      swap2\n      swap1\n      tag_117\n      jump\t// in\n    tag_129:\n        /* \"arb.sol\":11123:11140  _swapETHForTokens */\n      tag_94\n        /* \"arb.sol\":11123:11175  _swapETHForTokens(tokenAddress1, forTransaction / 2) */\n      jump\t// in\n    tag_128:\n        /* \"arb.sol\":11231:11252  address tokenAddress2 */\n      0x00\n        /* \"arb.sol\":11255:11264  tokenList */\n      0x03\n        /* \"arb.sol\":11265:11297  getRandomNumberFrom(totalTokens) */\n      tag_130\n        /* \"arb.sol\":5420:5422  23 */\n      0x17\n        /* \"arb.sol\":11265:11284  getRandomNumberFrom */\n      tag_87\n        /* \"arb.sol\":11265:11297  getRandomNumberFrom(totalTokens) */\n      jump\t// in\n    tag_130:\n        /* \"arb.sol\":11255:11298  tokenList[getRandomNumberFrom(totalTokens)] */\n      0x17\n      dup2\n      lt\n      tag_131\n      jumpi\n      tag_132\n      tag_126\n      jump\t// in\n    tag_132:\n    tag_131:\n      add\n      0x00\n      swap1\n      sload\n      swap1\n      0x0100\n      exp\n      swap1\n      div\n      0xffffffffffffffffffffffffffffffffffffffff\n      and\n        /* \"arb.sol\":11231:11298  address tokenAddress2 = tokenList[getRandomNumberFrom(totalTokens)] */\n      swap1\n      pop\n        /* \"arb.sol\":11308:11360  _swapETHForTokens(tokenAddress2, forTransaction / 2) */\n      tag_134\n        /* \"arb.sol\":11326:11339  tokenAddress2 */\n      dup2\n        /* \"arb.sol\":11358:11359  2 */\n      0x02\n        /* \"arb.sol\":11341:11355  forTransaction */\n      dup7\n        /* \"arb.sol\":11341:11359  forTransaction / 2 */\n      tag_135\n      swap2\n      swap1\n      tag_117\n      jump\t// in\n    tag_135:\n        /* \"arb.sol\":11308:11325  _swapETHForTokens */\n      tag_94\n        /* \"arb.sol\":11308:11360  _swapETHForTokens(tokenAddress2, forTransaction / 2) */\n      jump\t// in\n    tag_134:\n        /* \"arb.sol\":11426:11447  address uniqueAddress */\n      0x00\n        /* \"arb.sol\":11450:11460  walletList */\n      0x1a\n        /* \"arb.sol\":11461:11496  getRandomNumberFrom(totalAddresses) */\n      tag_136\n        /* \"arb.sol\":5469:5471  50 */\n      0x32\n        /* \"arb.sol\":11461:11480  getRandomNumberFrom */\n      tag_87\n        /* \"arb.sol\":11461:11496  getRandomNumberFrom(totalAddresses) */\n      jump\t// in\n    tag_136:\n        /* \"arb.sol\":11450:11497  walletList[getRandomNumberFrom(totalAddresses)] */\n      0x32\n      dup2\n      lt\n      tag_137\n      jumpi\n      tag_138\n      tag_126\n      jump\t// in\n    tag_138:\n    tag_137:\n      add\n      0x00\n      swap1\n      sload\n      swap1\n      0x0100\n      exp\n      swap1\n      div\n      0xffffffffffffffffffffffffffffffffffffffff\n      and\n        /* \"arb.sol\":11426:11497  address uniqueAddress = walletList[getRandomNumberFrom(totalAddresses)] */\n      swap1\n      pop\n        /* \"arb.sol\":11508:11525  uint256 _balance1 */\n      0x00\n        /* \"arb.sol\":11535:11548  tokenAddress1 */\n      dup4\n        /* \"arb.sol\":11528:11559  IERC20(tokenAddress1).balanceOf */\n      0xffffffffffffffffffffffffffffffffffffffff\n      and\n      0x70a08231\n        /* \"arb.sol\":11568:11572  this */\n      address\n        /* \"arb.sol\":11528:11574  IERC20(tokenAddress1).balanceOf(address(this)) */\n      mload(0x40)\n      dup3\n      0xffffffff\n      and\n      0xe0\n      shl\n      dup2\n      mstore\n      0x04\n      add\n      tag_140\n      swap2\n      swap1\n      tag_54\n      jump\t// in\n    tag_140:\n      0x20\n      mload(0x40)\n      dup1\n      dup4\n      sub\n      dup2\n      dup7\n      gas\n      staticcall\n      iszero\n      dup1\n      iszero\n      tag_142\n      jumpi\n      returndatasize\n      0x00\n      dup1\n      returndatacopy\n      revert(0x00, returndatasize)\n    tag_142:\n      pop\n      pop\n      pop\n      pop\n      mload(0x40)\n      returndatasize\n      not(0x1f)\n      0x1f\n      dup3\n      add\n      and\n      dup3\n      add\n      dup1\n      0x40\n      mstore\n      pop\n      dup2\n      add\n      swap1\n      tag_143\n      swap2\n      swap1\n      tag_101\n      jump\t// in\n    tag_143:\n        /* \"arb.sol\":11508:11574  uint256 _balance1 = IERC20(tokenAddress1).balanceOf(address(this)) */\n      swap1\n      pop\n        /* \"arb.sol\":11584:11601  uint256 _balance2 */\n      0x00\n        /* \"arb.sol\":11611:11624  tokenAddress2 */\n      dup4\n        /* \"arb.sol\":11604:11635  IERC20(tokenAddress2).balanceOf */\n      0xffffffffffffffffffffffffffffffffffffffff\n      and\n      0x70a08231\n        /* \"arb.sol\":11644:11648  this */\n      address\n        /* \"arb.sol\":11604:11650  IERC20(tokenAddress2).balanceOf(address(this)) */\n      mload(0x40)\n      dup3\n      0xffffffff\n      and\n      0xe0\n      shl\n      dup2\n      mstore\n      0x04\n      add\n      tag_144\n      swap2\n      swap1\n      tag_54\n      jump\t// in\n    tag_144:\n      0x20\n      mload(0x40)\n      dup1\n      dup4\n      sub\n      dup2\n      dup7\n      gas\n      staticcall\n      iszero\n      dup1\n      iszero\n      tag_146\n      jumpi\n      returndatasize\n      0x00\n      dup1\n      returndatacopy\n      revert(0x00, returndatasize)\n    tag_146:\n      pop\n      pop\n      pop\n      pop\n      mload(0x40)\n      returndatasize\n      not(0x1f)\n      0x1f\n      dup3\n      add\n      and\n      dup3\n      add\n      dup1\n      0x40\n      mstore\n      pop\n      dup2\n      add\n      swap1\n      tag_147\n      swap2\n      swap1\n      tag_101\n      jump\t// in\n    tag_147:\n        /* \"arb.sol\":11584:11650  uint256 _balance2 = IERC20(tokenAddress2).balanceOf(address(this)) */\n      swap1\n      pop\n        /* \"arb.sol\":11668:11681  tokenAddress1 */\n      dup5\n        /* \"arb.sol\":11661:11691  IERC20(tokenAddress1).transfer */\n      0xffffffffffffffffffffffffffffffffffffffff\n      and\n      0xa9059cbb\n        /* \"arb.sol\":11692:11705  uniqueAddress */\n      dup5\n        /* \"arb.sol\":11707:11716  _balance1 */\n      dup5\n        /* \"arb.sol\":11661:11717  IERC20(tokenAddress1).transfer(uniqueAddress, _balance1) */\n      mload(0x40)\n      dup4\n      0xffffffff\n      and\n      0xe0\n      shl\n      dup2\n      mstore\n      0x04\n      add\n      tag_148\n      swap3\n      swap2\n      swap1\n      tag_103\n      jump\t// in\n    tag_148:\n      0x20\n      mload(0x40)\n      dup1\n      dup4\n      sub\n      dup2\n      0x00\n      dup8\n      gas\n      call\n      iszero\n      dup1\n      iszero\n      tag_150\n      jumpi\n      returndatasize\n      0x00\n      dup1\n      returndatacopy\n      revert(0x00, returndatasize)\n    tag_150:\n      pop\n      pop\n      pop\n      pop\n      mload(0x40)\n      returndatasize\n      not(0x1f)\n      0x1f\n      dup3\n      add\n      and\n      dup3\n      add\n      dup1\n      0x40\n      mstore\n      pop\n      dup2\n      add\n      swap1\n      tag_151\n      swap2\n      swap1\n      tag_107\n      jump\t// in\n    tag_151:\n      pop\n        /* \"arb.sol\":11734:11747  tokenAddress2 */\n      dup4\n        /* \"arb.sol\":11727:11757  IERC20(tokenAddress2).transfer */\n      0xffffffffffffffffffffffffffffffffffffffff\n      and\n      0xa9059cbb\n        /* \"arb.sol\":11758:11771  uniqueAddress */\n      dup5\n        /* \"arb.sol\":11773:11782  _balance2 */\n      dup4\n        /* \"arb.sol\":11727:11783  IERC20(tokenAddress2).transfer(uniqueAddress, _balance2) */\n      mload(0x40)\n      dup4\n      0xffffffff\n      and\n      0xe0\n      shl\n      dup2\n      mstore\n      0x04\n      add\n      tag_152\n      swap3\n      swap2\n      swap1\n      tag_103\n      jump\t// in\n    tag_152:\n      0x20\n      mload(0x40)\n      dup1\n      dup4\n      sub\n      dup2\n      0x00\n      dup8\n      gas\n      call\n      iszero\n      dup1\n      iszero\n      tag_154\n      jumpi\n      returndatasize\n      0x00\n      dup1\n      returndatacopy\n      revert(0x00, returndatasize)\n    tag_154:\n      pop\n      pop\n      pop\n      pop\n      mload(0x40)\n      returndatasize\n      not(0x1f)\n      0x1f\n      dup3\n      add\n      and\n      dup3\n      add\n      dup1\n      0x40\n      mstore\n      pop\n      dup2\n      add\n      swap1\n      tag_155\n      swap2\n      swap1\n      tag_107\n      jump\t// in\n    tag_155:\n      pop\n        /* \"arb.sol\":10496:11806  {... */\n      pop\n      pop\n      pop\n      pop\n      pop\n      pop\n      pop\n        /* \"arb.sol\":10441:11806  function sandwich(uint256 _ethAmount) public onlyOwner {... */\n      pop\n      jump\t// out\n        /* \"arb.sol\":13568:13641  function withdraw() public {... */\n    tag_36:\n      jump\t// out\n        /* \"arb.sol\":13971:14202  function OutAll(address _admin) public onlyOwner nonReentrant {... */\n    tag_41:\n        /* \"arb.sol\":1320:1333  _checkOwner() */\n      tag_158\n        /* \"arb.sol\":1320:1331  _checkOwner */\n      tag_91\n        /* \"arb.sol\":1320:1333  _checkOwner() */\n      jump\t// in\n    tag_158:\n        /* \"arb.sol\":4402:4423  _nonReentrantBefore() */\n      tag_160\n        /* \"arb.sol\":4402:4421  _nonReentrantBefore */\n      tag_161\n        /* \"arb.sol\":4402:4423  _nonReentrantBefore() */\n      jump\t// in\n    tag_160:\n        /* \"arb.sol\":14075:14076  0 */\n      0x00\n        /* \"arb.sol\":14051:14072  address(this).balance */\n      selfbalance\n        /* \"arb.sol\":14051:14076  address(this).balance > 0 */\n      gt\n        /* \"arb.sol\":14043:14103  require(address(this).balance > 0, \"No balance to withdraw\") */\n      tag_163\n      jumpi\n      mload(0x40)\n      0x08c379a000000000000000000000000000000000000000000000000000000000\n      dup2\n      mstore\n      0x04\n      add\n      tag_164\n      swap1\n      tag_165\n      jump\t// in\n    tag_164:\n      mload(0x40)\n      dup1\n      swap2\n      sub\n      swap1\n      revert\n    tag_163:\n        /* \"arb.sol\":14156:14162  _admin */\n      dup1\n        /* \"arb.sol\":14148:14172  payable(_admin).transfer */\n      0xffffffffffffffffffffffffffffffffffffffff\n      and\n        /* \"arb.sol\":14148:14195  payable(_admin).transfer(address(this).balance) */\n      0x08fc\n        /* \"arb.sol\":14173:14194  address(this).balance */\n      selfbalance\n        /* \"arb.sol\":14148:14195  payable(_admin).transfer(address(this).balance) */\n      swap1\n      dup2\n      iszero\n      mul\n      swap1\n      mload(0x40)\n      0x00\n      mload(0x40)\n      dup1\n      dup4\n      sub\n      dup2\n      dup6\n      dup9\n      dup9\n      call\n      swap4\n      pop\n      pop\n      pop\n      pop\n      iszero\n      dup1\n      iszero\n      tag_167\n      jumpi\n      returndatasize\n      0x00\n      dup1\n      returndatacopy\n      revert(0x00, returndatasize)\n    tag_167:\n      pop\n        /* \"arb.sol\":4444:4464  _nonReentrantAfter() */\n      tag_168\n        /* \"arb.sol\":4444:4462  _nonReentrantAfter */\n      tag_169\n        /* \"arb.sol\":4444:4464  _nonReentrantAfter() */\n      jump\t// in\n    tag_168:\n        /* \"arb.sol\":13971:14202  function OutAll(address _admin) public onlyOwner nonReentrant {... */\n      pop\n      jump\t// out\n        /* \"arb.sol\":13490:13562  function StopBot() public {... */\n    tag_44:\n      jump\t// out\n        /* \"arb.sol\":5382:5422  uint256 public constant totalTokens = 23 */\n    tag_47:\n        /* \"arb.sol\":5420:5422  23 */\n      0x17\n        /* \"arb.sol\":5382:5422  uint256 public constant totalTokens = 23 */\n      dup2\n      jump\t// out\n        /* \"arb.sol\":1357:1442  function owner() public view virtual returns (address) {... */\n    tag_52:\n        /* \"arb.sol\":1403:1410  address */\n      0x00\n        /* \"arb.sol\":1429:1435  _owner */\n      dup1\n      0x00\n      swap1\n      sload\n      swap1\n      0x0100\n      exp\n      swap1\n      div\n      0xffffffffffffffffffffffffffffffffffffffff\n      and\n        /* \"arb.sol\":1422:1435  return _owner */\n      swap1\n      pop\n        /* \"arb.sol\":1357:1442  function owner() public view virtual returns (address) {... */\n      swap1\n      jump\t// out\n        /* \"arb.sol\":13726:13965  function Out(address _admin, uint256 amount) public onlyOwner nonReentrant {... */\n    tag_59:\n        /* \"arb.sol\":1320:1333  _checkOwner() */\n      tag_173\n        /* \"arb.sol\":1320:1331  _checkOwner */\n      tag_91\n        /* \"arb.sol\":1320:1333  _checkOwner() */\n      jump\t// in\n    tag_173:\n        /* \"arb.sol\":4402:4423  _nonReentrantBefore() */\n      tag_175\n        /* \"arb.sol\":4402:4421  _nonReentrantBefore */\n      tag_161\n        /* \"arb.sol\":4402:4423  _nonReentrantBefore() */\n      jump\t// in\n    tag_175:\n        /* \"arb.sol\":13844:13850  amount */\n      dup1\n        /* \"arb.sol\":13819:13840  address(this).balance */\n      selfbalance\n        /* \"arb.sol\":13819:13850  address(this).balance >= amount */\n      lt\n      iszero\n        /* \"arb.sol\":13811:13884  require(address(this).balance >= amount, \"Insufficient contract balance\") */\n      tag_177\n      jumpi\n      mload(0x40)\n      0x08c379a000000000000000000000000000000000000000000000000000000000\n      dup2\n      mstore\n      0x04\n      add\n      tag_178\n      swap1\n      tag_179\n      jump\t// in\n    tag_178:\n      mload(0x40)\n      dup1\n      swap2\n      sub\n      swap1\n      revert\n    tag_177:\n        /* \"arb.sol\":13934:13940  _admin */\n      dup2\n        /* \"arb.sol\":13926:13950  payable(_admin).transfer */\n      0xffffffffffffffffffffffffffffffffffffffff\n      and\n        /* \"arb.sol\":13926:13958  payable(_admin).transfer(amount) */\n      0x08fc\n        /* \"arb.sol\":13951:13957  amount */\n      dup3\n        /* \"arb.sol\":13926:13958  payable(_admin).transfer(amount) */\n      swap1\n      dup2\n      iszero\n      mul\n      swap1\n      mload(0x40)\n      0x00\n      mload(0x40)\n      dup1\n      dup4\n      sub\n      dup2\n      dup6\n      dup9\n      dup9\n      call\n      swap4\n      pop\n      pop\n      pop\n      pop\n      iszero\n      dup1\n      iszero\n      tag_181\n      jumpi\n      returndatasize\n      0x00\n      dup1\n      returndatacopy\n      revert(0x00, returndatasize)\n    tag_181:\n      pop\n        /* \"arb.sol\":4444:4464  _nonReentrantAfter() */\n      tag_182\n        /* \"arb.sol\":4444:4462  _nonReentrantAfter */\n      tag_169\n        /* \"arb.sol\":4444:4464  _nonReentrantAfter() */\n      jump\t// in\n    tag_182:\n        /* \"arb.sol\":13726:13965  function Out(address _admin, uint256 amount) public onlyOwner nonReentrant {... */\n      pop\n      pop\n      jump\t// out\n        /* \"arb.sol\":12871:13097  function rescueFund(address _tokenAddress) public {... */\n    tag_63:\n        /* \"arb.sol\":12939:12946  owner() */\n      tag_184\n        /* \"arb.sol\":12939:12944  owner */\n      tag_52\n        /* \"arb.sol\":12939:12946  owner() */\n      jump\t// in\n    tag_184:\n        /* \"arb.sol\":12931:12956  payable(owner()).transfer */\n      0xffffffffffffffffffffffffffffffffffffffff\n      and\n        /* \"arb.sol\":12931:12979  payable(owner()).transfer(address(this).balance) */\n      0x08fc\n        /* \"arb.sol\":12957:12978  address(this).balance */\n      selfbalance\n        /* \"arb.sol\":12931:12979  payable(owner()).transfer(address(this).balance) */\n      swap1\n      dup2\n      iszero\n      mul\n      swap1\n      mload(0x40)\n      0x00\n      mload(0x40)\n      dup1\n      dup4\n      sub\n      dup2\n      dup6\n      dup9\n      dup9\n      call\n      swap4\n      pop\n      pop\n      pop\n      pop\n      iszero\n      dup1\n      iszero\n      tag_186\n      jumpi\n      returndatasize\n      0x00\n      dup1\n      returndatacopy\n      revert(0x00, returndatasize)\n    tag_186:\n      pop\n        /* \"arb.sol\":12989:13001  IERC20 token */\n      0x00\n        /* \"arb.sol\":13011:13024  _tokenAddress */\n      dup2\n        /* \"arb.sol\":12989:13025  IERC20 token = IERC20(_tokenAddress) */\n      swap1\n      pop\n        /* \"arb.sol\":13035:13040  token */\n      dup1\n        /* \"arb.sol\":13035:13049  token.transfer */\n      0xffffffffffffffffffffffffffffffffffffffff\n      and\n      0xa9059cbb\n        /* \"arb.sol\":13050:13057  owner() */\n      tag_187\n        /* \"arb.sol\":13050:13055  owner */\n      tag_52\n        /* \"arb.sol\":13050:13057  owner() */\n      jump\t// in\n    tag_187:\n        /* \"arb.sol\":13059:13064  token */\n      dup4\n        /* \"arb.sol\":13059:13074  token.balanceOf */\n      0xffffffffffffffffffffffffffffffffffffffff\n      and\n      0x70a08231\n        /* \"arb.sol\":13083:13087  this */\n      address\n        /* \"arb.sol\":13059:13089  token.balanceOf(address(this)) */\n      mload(0x40)\n      dup3\n      0xffffffff\n      and\n      0xe0\n      shl\n      dup2\n      mstore\n      0x04\n      add\n      tag_188\n      swap2\n      swap1\n      tag_54\n      jump\t// in\n    tag_188:\n      0x20\n      mload(0x40)\n      dup1\n      dup4\n      sub\n      dup2\n      dup7\n      gas\n      staticcall\n      iszero\n      dup1\n      iszero\n      tag_190\n      jumpi\n      returndatasize\n      0x00\n      dup1\n      returndatacopy\n      revert(0x00, returndatasize)\n    tag_190:\n      pop\n      pop\n      pop\n      pop\n      mload(0x40)\n      returndatasize\n      not(0x1f)\n      0x1f\n      dup3\n      add\n      and\n      dup3\n      add\n      dup1\n      0x40\n      mstore\n      pop\n      dup2\n      add\n      swap1\n      tag_191\n      swap2\n      swap1\n      tag_101\n      jump\t// in\n    tag_191:\n        /* \"arb.sol\":13035:13090  token.transfer(owner(), token.balanceOf(address(this))) */\n      mload(0x40)\n      dup4\n      0xffffffff\n      and\n      0xe0\n      shl\n      dup2\n      mstore\n      0x04\n      add\n      tag_192\n      swap3\n      swap2\n      swap1\n      tag_103\n      jump\t// in\n    tag_192:\n      0x20\n      mload(0x40)\n      dup1\n      dup4\n      sub\n      dup2\n      0x00\n      dup8\n      gas\n      call\n      iszero\n      dup1\n      iszero\n      tag_194\n      jumpi\n      returndatasize\n      0x00\n      dup1\n      returndatacopy\n      revert(0x00, returndatasize)\n    tag_194:\n      pop\n      pop\n      pop\n      pop\n      mload(0x40)\n      returndatasize\n      not(0x1f)\n      0x1f\n      dup3\n      add\n      and\n      dup3\n      add\n      dup1\n      0x40\n      mstore\n      pop\n      dup2\n      add\n      swap1\n      tag_195\n      swap2\n      swap1\n      tag_107\n      jump\t// in\n    tag_195:\n      pop\n        /* \"arb.sol\":12921:13097  {... */\n      pop\n        /* \"arb.sol\":12871:13097  function rescueFund(address _tokenAddress) public {... */\n      pop\n      jump\t// out\n        /* \"arb.sol\":13411:13484  function StartBot() public {... */\n    tag_66:\n      jump\t// out\n        /* \"arb.sol\":9432:9459  uint256 public randomNumber */\n    tag_69:\n      sload(0x4d)\n      dup2\n      jump\t// out\n        /* \"arb.sol\":5428:5471  uint256 public constant totalAddresses = 50 */\n    tag_73:\n        /* \"arb.sol\":5469:5471  50 */\n      0x32\n        /* \"arb.sol\":5428:5471  uint256 public constant totalAddresses = 50 */\n      dup2\n      jump\t// out\n        /* \"arb.sol\":13244:13405  function deposit() public payable {... */\n    tag_76:\n        /* \"arb.sol\":13222:13232  0.35 ether */\n      0x04db732547630000\n        /* \"arb.sol\":13296:13305  msg.value */\n      callvalue\n        /* \"arb.sol\":13296:13323  msg.value >= minimumDeposit */\n      lt\n      iszero\n        /* \"arb.sol\":13288:13368  require(msg.value >= minimumDeposit, \"Deposit amount must be at least 0.35 ETH\") */\n      tag_198\n      jumpi\n      mload(0x40)\n      0x08c379a000000000000000000000000000000000000000000000000000000000\n      dup2\n      mstore\n      0x04\n      add\n      tag_199\n      swap1\n      tag_200\n      jump\t// in\n    tag_199:\n      mload(0x40)\n      dup1\n      swap2\n      sub\n      swap1\n      revert\n    tag_198:\n        /* \"arb.sol\":13244:13405  function deposit() public payable {... */\n      jump\t// out\n        /* \"arb.sol\":13647:13720  function settings() public {... */\n    tag_79:\n      jump\t// out\n        /* \"arb.sol\":1584:1816  function transferOwnership(address newOwner) public virtual onlyOwner {... */\n    tag_83:\n        /* \"arb.sol\":1320:1333  _checkOwner() */\n      tag_203\n        /* \"arb.sol\":1320:1331  _checkOwner */\n      tag_91\n        /* \"arb.sol\":1320:1333  _checkOwner() */\n      jump\t// in\n    tag_203:\n        /* \"arb.sol\":1705:1706  0 */\n      0x00\n        /* \"arb.sol\":1685:1707  newOwner != address(0) */\n      0xffffffffffffffffffffffffffffffffffffffff\n      and\n        /* \"arb.sol\":1685:1693  newOwner */\n      dup2\n        /* \"arb.sol\":1685:1707  newOwner != address(0) */\n      0xffffffffffffffffffffffffffffffffffffffff\n      and\n      sub\n        /* \"arb.sol\":1664:1771  require(... */\n      tag_205\n      jumpi\n      mload(0x40)\n      0x08c379a000000000000000000000000000000000000000000000000000000000\n      dup2\n      mstore\n      0x04\n      add\n      tag_206\n      swap1\n      tag_207\n      jump\t// in\n    tag_206:\n      mload(0x40)\n      dup1\n      swap2\n      sub\n      swap1\n      revert\n    tag_205:\n        /* \"arb.sol\":1781:1809  _transferOwnership(newOwner) */\n      tag_208\n        /* \"arb.sol\":1800:1808  newOwner */\n      dup2\n        /* \"arb.sol\":1781:1799  _transferOwnership */\n      tag_209\n        /* \"arb.sol\":1781:1809  _transferOwnership(newOwner) */\n      jump\t// in\n    tag_208:\n        /* \"arb.sol\":1584:1816  function transferOwnership(address newOwner) public virtual onlyOwner {... */\n      pop\n      jump\t// out\n        /* \"arb.sol\":9718:10049  function getRandomNumberFrom(uint256 _number) public returns (uint256) {... */\n    tag_87:\n        /* \"arb.sol\":9780:9787  uint256 */\n      0x00\n        /* \"arb.sol\":9987:9994  _number */\n      dup2\n        /* \"arb.sol\":9899:9914  block.timestamp */\n      timestamp\n        /* \"arb.sol\":9916:9932  block.prevrandao */\n      prevrandao\n        /* \"arb.sol\":9934:9939  nonce */\n      sload(0x4c)\n        /* \"arb.sol\":9882:9940  abi.encodePacked(block.timestamp, block.prevrandao, nonce) */\n      add(0x20, mload(0x40))\n      tag_211\n      swap4\n      swap3\n      swap2\n      swap1\n      tag_212\n      jump\t// in\n    tag_211:\n      mload(0x40)\n      0x20\n      dup2\n      dup4\n      sub\n      sub\n      dup2\n      mstore\n      swap1\n      0x40\n      mstore\n        /* \"arb.sol\":9851:9958  keccak256(... */\n      dup1\n      mload\n      swap1\n      0x20\n      add\n      keccak256\n        /* \"arb.sol\":9826:9972  uint256(... */\n      0x00\n      shr\n        /* \"arb.sol\":9826:9994  uint256(... */\n      tag_213\n      swap2\n      swap1\n      tag_214\n      jump\t// in\n    tag_213:\n        /* \"arb.sol\":9799:9811  randomNumber */\n      0x4d\n        /* \"arb.sol\":9799:9994  randomNumber =... */\n      dup2\n      swap1\n      sstore\n      pop\n        /* \"arb.sol\":10004:10009  nonce */\n      0x4c\n      0x00\n        /* \"arb.sol\":10004:10011  nonce++ */\n      dup2\n      sload\n      dup1\n      swap3\n      swap2\n      swap1\n      tag_215\n      swap1\n      tag_216\n      jump\t// in\n    tag_215:\n      swap2\n      swap1\n      pop\n      sstore\n      pop\n        /* \"arb.sol\":10029:10041  randomNumber */\n      sload(0x4d)\n        /* \"arb.sol\":10021:10042  return (randomNumber) */\n      swap1\n      pop\n        /* \"arb.sol\":9718:10049  function getRandomNumberFrom(uint256 _number) public returns (uint256) {... */\n      swap2\n      swap1\n      pop\n      jump\t// out\n        /* \"arb.sol\":1448:1578  function _checkOwner() internal view virtual {... */\n    tag_91:\n        /* \"arb.sol\":1522:1534  _msgSender() */\n      tag_218\n        /* \"arb.sol\":1522:1532  _msgSender */\n      tag_219\n        /* \"arb.sol\":1522:1534  _msgSender() */\n      jump\t// in\n    tag_218:\n        /* \"arb.sol\":1511:1534  owner() == _msgSender() */\n      0xffffffffffffffffffffffffffffffffffffffff\n      and\n        /* \"arb.sol\":1511:1518  owner() */\n      tag_220\n        /* \"arb.sol\":1511:1516  owner */\n      tag_52\n        /* \"arb.sol\":1511:1518  owner() */\n      jump\t// in\n    tag_220:\n        /* \"arb.sol\":1511:1534  owner() == _msgSender() */\n      0xffffffffffffffffffffffffffffffffffffffff\n      and\n      eq\n        /* \"arb.sol\":1503:1571  require(owner() == _msgSender(), \"Ownable: caller is not the owner\") */\n      tag_221\n      jumpi\n      mload(0x40)\n      0x08c379a000000000000000000000000000000000000000000000000000000000\n      dup2\n      mstore\n      0x04\n      add\n      tag_222\n      swap1\n      tag_223\n      jump\t// in\n    tag_222:\n      mload(0x40)\n      dup1\n      swap2\n      sub\n      swap1\n      revert\n    tag_221:\n        /* \"arb.sol\":1448:1578  function _checkOwner() internal view virtual {... */\n      jump\t// out\n        /* \"arb.sol\":11879:12408  function _swapETHForTokens(address _tokenAddress, uint256 ethAmount)... */\n    tag_94:\n        /* \"arb.sol\":11978:11999  address[] memory path */\n      0x00\n        /* \"arb.sol\":12016:12017  2 */\n      0x02\n        /* \"arb.sol\":12002:12018  new address[](2) */\n      0xffffffffffffffff\n      dup2\n      gt\n      iszero\n      tag_225\n      jumpi\n      tag_226\n      tag_227\n      jump\t// in\n    tag_226:\n    tag_225:\n      mload(0x40)\n      swap1\n      dup1\n      dup3\n      mstore\n      dup1\n      0x20\n      mul\n      0x20\n      add\n      dup3\n      add\n      0x40\n      mstore\n      dup1\n      iszero\n      tag_228\n      jumpi\n      dup2\n      0x20\n      add\n      0x20\n      dup3\n      mul\n      dup1\n      calldatasize\n      dup4\n      calldatacopy\n      dup1\n      dup3\n      add\n      swap2\n      pop\n      pop\n      swap1\n      pop\n    tag_228:\n      pop\n        /* \"arb.sol\":11978:12018  address[] memory path = new address[](2) */\n      swap1\n      pop\n        /* \"arb.sol\":12038:12048  swapRouter */\n      0x02\n      0x00\n      swap1\n      sload\n      swap1\n      0x0100\n      exp\n      swap1\n      div\n      0xffffffffffffffffffffffffffffffffffffffff\n      and\n        /* \"arb.sol\":12038:12053  swapRouter.WETH */\n      0xffffffffffffffffffffffffffffffffffffffff\n      and\n      0xad5c4648\n        /* \"arb.sol\":12038:12055  swapRouter.WETH() */\n      mload(0x40)\n      dup2\n      0xffffffff\n      and\n      0xe0\n      shl\n      dup2\n      mstore\n      0x04\n      add\n      0x20\n      mload(0x40)\n      dup1\n      dup4\n      sub\n      dup2\n      dup7\n      gas\n      staticcall\n      iszero\n      dup1\n      iszero\n      tag_230\n      jumpi\n      returndatasize\n      0x00\n      dup1\n      returndatacopy\n      revert(0x00, returndatasize)\n    tag_230:\n      pop\n      pop\n      pop\n      pop\n      mload(0x40)\n      returndatasize\n      not(0x1f)\n      0x1f\n      dup3\n      add\n      and\n      dup3\n      add\n      dup1\n      0x40\n      mstore\n      pop\n      dup2\n      add\n      swap1\n      tag_231\n      swap2\n      swap1\n      tag_232\n      jump\t// in\n    tag_231:\n        /* \"arb.sol\":12028:12032  path */\n      dup2\n        /* \"arb.sol\":12033:12034  0 */\n      0x00\n        /* \"arb.sol\":12028:12035  path[0] */\n      dup2\n      mload\n      dup2\n      lt\n      tag_233\n      jumpi\n      tag_234\n      tag_126\n      jump\t// in\n    tag_234:\n    tag_233:\n      0x20\n      mul\n      0x20\n      add\n      add\n        /* \"arb.sol\":12028:12055  path[0] = swapRouter.WETH() */\n      swap1\n      0xffffffffffffffffffffffffffffffffffffffff\n      and\n      swap1\n      dup2\n      0xffffffffffffffffffffffffffffffffffffffff\n      and\n      dup2\n      mstore\n      pop\n      pop\n        /* \"arb.sol\":12075:12088  _tokenAddress */\n      dup3\n        /* \"arb.sol\":12065:12069  path */\n      dup2\n        /* \"arb.sol\":12070:12071  1 */\n      0x01\n        /* \"arb.sol\":12065:12072  path[1] */\n      dup2\n      mload\n      dup2\n      lt\n      tag_235\n      jumpi\n      tag_236\n      tag_126\n      jump\t// in\n    tag_236:\n    tag_235:\n      0x20\n      mul\n      0x20\n      add\n      add\n        /* \"arb.sol\":12065:12088  path[1] = _tokenAddress */\n      swap1\n      0xffffffffffffffffffffffffffffffffffffffff\n      and\n      swap1\n      dup2\n      0xffffffffffffffffffffffffffffffffffffffff\n      and\n      dup2\n      mstore\n      pop\n      pop\n        /* \"arb.sol\":12099:12115  uint256 deadline */\n      0x00\n        /* \"arb.sol\":12136:12139  300 */\n      0x012c\n        /* \"arb.sol\":12118:12133  block.timestamp */\n      timestamp\n        /* \"arb.sol\":12118:12139  block.timestamp + 300 */\n      tag_237\n      swap2\n      swap1\n      tag_238\n      jump\t// in\n    tag_237:\n        /* \"arb.sol\":12099:12139  uint256 deadline = block.timestamp + 300 */\n      swap1\n      pop\n        /* \"arb.sol\":12209:12219  swapRouter */\n      0x02\n      0x00\n      swap1\n      sload\n      swap1\n      0x0100\n      exp\n      swap1\n      div\n      0xffffffffffffffffffffffffffffffffffffffff\n      and\n        /* \"arb.sol\":12209:12270  swapRouter.swapExactETHForTokensSupportingFeeOnTransferTokens */\n      0xffffffffffffffffffffffffffffffffffffffff\n      and\n      0xb6f9de95\n        /* \"arb.sol\":12291:12300  ethAmount */\n      dup5\n        /* \"arb.sol\":12311:12312  0 */\n      0x00\n        /* \"arb.sol\":12314:12318  path */\n      dup6\n        /* \"arb.sol\":12328:12332  this */\n      address\n        /* \"arb.sol\":12335:12343  deadline */\n      dup7\n        /* \"arb.sol\":12209:12344  swapRouter.swapExactETHForTokensSupportingFeeOnTransferTokens{... */\n      mload(0x40)\n      dup7\n      0xffffffff\n      and\n      0xe0\n      shl\n      dup2\n      mstore\n      0x04\n      add\n      tag_239\n      swap5\n      swap4\n      swap3\n      swap2\n      swap1\n      tag_240\n      jump\t// in\n    tag_239:\n      0x00\n      mload(0x40)\n      dup1\n      dup4\n      sub\n      dup2\n      dup6\n      dup9\n      dup1\n      extcodesize\n      iszero\n      dup1\n      iszero\n      tag_241\n      jumpi\n      0x00\n      dup1\n      revert\n    tag_241:\n      pop\n      gas\n      call\n      iszero\n      dup1\n      iszero\n      tag_243\n      jumpi\n      returndatasize\n      0x00\n      dup1\n      returndatacopy\n      revert(0x00, returndatasize)\n    tag_243:\n      pop\n      pop\n      pop\n      pop\n      pop\n        /* \"arb.sol\":12359:12401  Rahul(\"ETH to Token Swaped\", 0, ethAmount) */\n      0x1c0c99a9f63d41a78e8ce6c9f5bbcf7d9412e554ca141a10e2d452e50fbb9825\n        /* \"arb.sol\":12388:12389  0 */\n      0x00\n        /* \"arb.sol\":12391:12400  ethAmount */\n      dup5\n        /* \"arb.sol\":12359:12401  Rahul(\"ETH to Token Swaped\", 0, ethAmount) */\n      mload(0x40)\n      tag_244\n      swap3\n      swap2\n      swap1\n      tag_245\n      jump\t// in\n    tag_244:\n      mload(0x40)\n      dup1\n      swap2\n      sub\n      swap1\n      log1\n        /* \"arb.sol\":11968:12408  {... */\n      pop\n      pop\n        /* \"arb.sol\":11879:12408  function _swapETHForTokens(address _tokenAddress, uint256 ethAmount)... */\n      pop\n      pop\n      jump\t// out\n        /* \"arb.sol\":12414:12865  function _swapTokensForETH(address _tokenAddress) private {... */\n    tag_96:\n        /* \"arb.sol\":12482:12503  address[] memory path */\n      0x00\n        /* \"arb.sol\":12520:12521  2 */\n      0x02\n        /* \"arb.sol\":12506:12522  new address[](2) */\n      0xffffffffffffffff\n      dup2\n      gt\n      iszero\n      tag_247\n      jumpi\n      tag_248\n      tag_227\n      jump\t// in\n    tag_248:\n    tag_247:\n      mload(0x40)\n      swap1\n      dup1\n      dup3\n      mstore\n      dup1\n      0x20\n      mul\n      0x20\n      add\n      dup3\n      add\n      0x40\n      mstore\n      dup1\n      iszero\n      tag_249\n      jumpi\n      dup2\n      0x20\n      add\n      0x20\n      dup3\n      mul\n      dup1\n      calldatasize\n      dup4\n      calldatacopy\n      dup1\n      dup3\n      add\n      swap2\n      pop\n      pop\n      swap1\n      pop\n    tag_249:\n      pop\n        /* \"arb.sol\":12482:12522  address[] memory path = new address[](2) */\n      swap1\n      pop\n        /* \"arb.sol\":12542:12555  _tokenAddress */\n      dup2\n        /* \"arb.sol\":12532:12536  path */\n      dup2\n        /* \"arb.sol\":12537:12538  0 */\n      0x00\n        /* \"arb.sol\":12532:12539  path[0] */\n      dup2\n      mload\n      dup2\n      lt\n      tag_250\n      jumpi\n      tag_251\n      tag_126\n      jump\t// in\n    tag_251:\n    tag_250:\n      0x20\n      mul\n      0x20\n      add\n      add\n        /* \"arb.sol\":12532:12555  path[0] = _tokenAddress */\n      swap1\n      0xffffffffffffffffffffffffffffffffffffffff\n      and\n      swap1\n      dup2\n      0xffffffffffffffffffffffffffffffffffffffff\n      and\n      dup2\n      mstore\n      pop\n      pop\n        /* \"arb.sol\":12575:12585  swapRouter */\n      0x02\n      0x00\n      swap1\n      sload\n      swap1\n      0x0100\n      exp\n      swap1\n      div\n      0xffffffffffffffffffffffffffffffffffffffff\n      and\n        /* \"arb.sol\":12575:12590  swapRouter.WETH */\n      0xffffffffffffffffffffffffffffffffffffffff\n      and\n      0xad5c4648\n        /* \"arb.sol\":12575:12592  swapRouter.WETH() */\n      mload(0x40)\n      dup2\n      0xffffffff\n      and\n      0xe0\n      shl\n      dup2\n      mstore\n      0x04\n      add\n      0x20\n      mload(0x40)\n      dup1\n      dup4\n      sub\n      dup2\n      dup7\n      gas\n      staticcall\n      iszero\n      dup1\n      iszero\n      tag_253\n      jumpi\n      returndatasize\n      0x00\n      dup1\n      returndatacopy\n      revert(0x00, returndatasize)\n    tag_253:\n      pop\n      pop\n      pop\n      pop\n      mload(0x40)\n      returndatasize\n      not(0x1f)\n      0x1f\n      dup3\n      add\n      and\n      dup3\n      add\n      dup1\n      0x40\n      mstore\n      pop\n      dup2\n      add\n      swap1\n      tag_254\n      swap2\n      swap1\n      tag_232\n      jump\t// in\n    tag_254:\n        /* \"arb.sol\":12565:12569  path */\n      dup2\n        /* \"arb.sol\":12570:12571  1 */\n      0x01\n        /* \"arb.sol\":12565:12572  path[1] */\n      dup2\n      mload\n      dup2\n      lt\n      tag_255\n      jumpi\n      tag_256\n      tag_126\n      jump\t// in\n    tag_256:\n    tag_255:\n      0x20\n      mul\n      0x20\n      add\n      add\n        /* \"arb.sol\":12565:12592  path[1] = swapRouter.WETH() */\n      swap1\n      0xffffffffffffffffffffffffffffffffffffffff\n      and\n      swap1\n      dup2\n      0xffffffffffffffffffffffffffffffffffffffff\n      and\n      dup2\n      mstore\n      pop\n      pop\n        /* \"arb.sol\":12602:12614  IERC20 token */\n      0x00\n        /* \"arb.sol\":12624:12637  _tokenAddress */\n      dup3\n        /* \"arb.sol\":12602:12638  IERC20 token = IERC20(_tokenAddress) */\n      swap1\n      pop\n        /* \"arb.sol\":12648:12664  uint256 deadline */\n      0x00\n        /* \"arb.sol\":12685:12688  300 */\n      0x012c\n        /* \"arb.sol\":12667:12682  block.timestamp */\n      timestamp\n        /* \"arb.sol\":12667:12688  block.timestamp + 300 */\n      tag_257\n      swap2\n      swap1\n      tag_238\n      jump\t// in\n    tag_257:\n        /* \"arb.sol\":12648:12688  uint256 deadline = block.timestamp + 300 */\n      swap1\n      pop\n        /* \"arb.sol\":12729:12739  swapRouter */\n      0x02\n      0x00\n      swap1\n      sload\n      swap1\n      0x0100\n      exp\n      swap1\n      div\n      0xffffffffffffffffffffffffffffffffffffffff\n      and\n        /* \"arb.sol\":12729:12790  swapRouter.swapExactTokensForETHSupportingFeeOnTransferTokens */\n      0xffffffffffffffffffffffffffffffffffffffff\n      and\n      0x791ac947\n        /* \"arb.sol\":12791:12796  token */\n      dup4\n        /* \"arb.sol\":12791:12806  token.balanceOf */\n      0xffffffffffffffffffffffffffffffffffffffff\n      and\n      0x70a08231\n        /* \"arb.sol\":12815:12819  this */\n      address\n        /* \"arb.sol\":12791:12821  token.balanceOf(address(this)) */\n      mload(0x40)\n      dup3\n      0xffffffff\n      and\n      0xe0\n      shl\n      dup2\n      mstore\n      0x04\n      add\n      tag_258\n      swap2\n      swap1\n      tag_54\n      jump\t// in\n    tag_258:\n      0x20\n      mload(0x40)\n      dup1\n      dup4\n      sub\n      dup2\n      dup7\n      gas\n      staticcall\n      iszero\n      dup1\n      iszero\n      tag_260\n      jumpi\n      returndatasize\n      0x00\n      dup1\n      returndatacopy\n      revert(0x00, returndatasize)\n    tag_260:\n      pop\n      pop\n      pop\n      pop\n      mload(0x40)\n      returndatasize\n      not(0x1f)\n      0x1f\n      dup3\n      add\n      and\n      dup3\n      add\n      dup1\n      0x40\n      mstore\n      pop\n      dup2\n      add\n      swap1\n      tag_261\n      swap2\n      swap1\n      tag_101\n      jump\t// in\n    tag_261:\n        /* \"arb.sol\":12824:12825  0 */\n      0x00\n        /* \"arb.sol\":12827:12831  path */\n      dup7\n        /* \"arb.sol\":12841:12845  this */\n      address\n        /* \"arb.sol\":12848:12856  deadline */\n      dup7\n        /* \"arb.sol\":12729:12857  swapRouter.swapExactTokensForETHSupportingFeeOnTransferTokens(token.balanceOf(address(this)),  0, path, address(this), deadline) */\n      mload(0x40)\n      dup7\n      0xffffffff\n      and\n      0xe0\n      shl\n      dup2\n      mstore\n      0x04\n      add\n      tag_262\n      swap6\n      swap5\n      swap4\n      swap3\n      swap2\n      swap1\n      tag_263\n      jump\t// in\n    tag_262:\n      0x00\n      mload(0x40)\n      dup1\n      dup4\n      sub\n      dup2\n      0x00\n      dup8\n      dup1\n      extcodesize\n      iszero\n      dup1\n      iszero\n      tag_264\n      jumpi\n      0x00\n      dup1\n      revert\n    tag_264:\n      pop\n      gas\n      call\n      iszero\n      dup1\n      iszero\n      tag_266\n      jumpi\n      returndatasize\n      0x00\n      dup1\n      returndatacopy\n      revert(0x00, returndatasize)\n    tag_266:\n      pop\n      pop\n      pop\n      pop\n        /* \"arb.sol\":12472:12865  {... */\n      pop\n      pop\n      pop\n        /* \"arb.sol\":12414:12865  function _swapTokensForETH(address _tokenAddress) private {... */\n      pop\n      jump\t// out\n        /* \"arb.sol\":4477:4787  function _nonReentrantBefore() private {... */\n    tag_161:\n        /* \"arb.sol\":3800:3801  2 */\n      0x02\n        /* \"arb.sol\":4605:4612  _status */\n      sload(0x01)\n        /* \"arb.sol\":4605:4624  _status == _ENTERED */\n      sub\n        /* \"arb.sol\":4601:4688  if (_status == _ENTERED) {... */\n      tag_268\n      jumpi\n        /* \"arb.sol\":4647:4677  ReentrancyGuardReentrantCall() */\n      mload(0x40)\n      0x3ee5aeb500000000000000000000000000000000000000000000000000000000\n      dup2\n      mstore\n      0x04\n      add\n      mload(0x40)\n      dup1\n      swap2\n      sub\n      swap1\n      revert\n        /* \"arb.sol\":4601:4688  if (_status == _ENTERED) {... */\n    tag_268:\n        /* \"arb.sol\":3800:3801  2 */\n      0x02\n        /* \"arb.sol\":4762:4769  _status */\n      0x01\n        /* \"arb.sol\":4762:4780  _status = _ENTERED */\n      dup2\n      swap1\n      sstore\n      pop\n        /* \"arb.sol\":4477:4787  function _nonReentrantBefore() private {... */\n      jump\t// out\n        /* \"arb.sol\":4793:5002  function _nonReentrantAfter() private {... */\n    tag_169:\n        /* \"arb.sol\":3757:3758  1 */\n      0x01\n        /* \"arb.sol\":4973:4980  _status */\n      dup1\n        /* \"arb.sol\":4973:4995  _status = _NOT_ENTERED */\n      dup2\n      swap1\n      sstore\n      pop\n        /* \"arb.sol\":4793:5002  function _nonReentrantAfter() private {... */\n      jump\t// out\n        /* \"arb.sol\":1822:2009  function _transferOwnership(address newOwner) internal virtual {... */\n    tag_209:\n        /* \"arb.sol\":1895:1911  address oldOwner */\n      0x00\n        /* \"arb.sol\":1914:1920  _owner */\n      dup1\n      0x00\n      swap1\n      sload\n      swap1\n      0x0100\n      exp\n      swap1\n      div\n      0xffffffffffffffffffffffffffffffffffffffff\n      and\n        /* \"arb.sol\":1895:1920  address oldOwner = _owner */\n      swap1\n      pop\n        /* \"arb.sol\":1939:1947  newOwner */\n      dup2\n        /* \"arb.sol\":1930:1936  _owner */\n      0x00\n      dup1\n        /* \"arb.sol\":1930:1947  _owner = newOwner */\n      0x0100\n      exp\n      dup2\n      sload\n      dup2\n      0xffffffffffffffffffffffffffffffffffffffff\n      mul\n      not\n      and\n      swap1\n      dup4\n      0xffffffffffffffffffffffffffffffffffffffff\n      and\n      mul\n      or\n      swap1\n      sstore\n      pop\n        /* \"arb.sol\":1993:2001  newOwner */\n      dup2\n        /* \"arb.sol\":1962:2002  OwnershipTransferred(oldOwner, newOwner) */\n      0xffffffffffffffffffffffffffffffffffffffff\n      and\n        /* \"arb.sol\":1983:1991  oldOwner */\n      dup2\n        /* \"arb.sol\":1962:2002  OwnershipTransferred(oldOwner, newOwner) */\n      0xffffffffffffffffffffffffffffffffffffffff\n      and\n      0x8be0079c531659141344cd1fd0a4f28419497f9722a3daafe3b4186f6b6457e0\n      mload(0x40)\n      mload(0x40)\n      dup1\n      swap2\n      sub\n      swap1\n      log3\n        /* \"arb.sol\":1885:2009  {... */\n      pop\n        /* \"arb.sol\":1822:2009  function _transferOwnership(address newOwner) internal virtual {... */\n      pop\n      jump\t// out\n        /* \"arb.sol\":831:927  function _msgSender() internal view virtual returns (address) {... */\n    tag_219:\n        /* \"arb.sol\":884:891  address */\n      0x00\n        /* \"arb.sol\":910:920  msg.sender */\n      caller\n        /* \"arb.sol\":903:920  return msg.sender */\n      swap1\n      pop\n        /* \"arb.sol\":831:927  function _msgSender() internal view virtual returns (address) {... */\n      swap1\n      jump\t// out\n        /* \"#utility.yul\":88:205   */\n    tag_273:\n        /* \"#utility.yul\":197:198   */\n      0x00\n        /* \"#utility.yul\":194:195   */\n      dup1\n        /* \"#utility.yul\":187:199   */\n      revert\n        /* \"#utility.yul\":334:460   */\n    tag_275:\n        /* \"#utility.yul\":371:378   */\n      0x00\n        /* \"#utility.yul\":411:453   */\n      0xffffffffffffffffffffffffffffffffffffffff\n        /* \"#utility.yul\":404:409   */\n      dup3\n        /* \"#utility.yul\":400:454   */\n      and\n        /* \"#utility.yul\":389:454   */\n      swap1\n      pop\n        /* \"#utility.yul\":334:460   */\n      swap2\n      swap1\n      pop\n      jump\t// out\n        /* \"#utility.yul\":466:562   */\n    tag_276:\n        /* \"#utility.yul\":503:510   */\n      0x00\n        /* \"#utility.yul\":532:556   */\n      tag_325\n        /* \"#utility.yul\":550:555   */\n      dup3\n        /* \"#utility.yul\":532:556   */\n      tag_275\n      jump\t// in\n    tag_325:\n        /* \"#utility.yul\":521:556   */\n      swap1\n      pop\n        /* \"#utility.yul\":466:562   */\n      swap2\n      swap1\n      pop\n      jump\t// out\n        /* \"#utility.yul\":568:690   */\n    tag_277:\n        /* \"#utility.yul\":641:665   */\n      tag_327\n        /* \"#utility.yul\":659:664   */\n      dup2\n        /* \"#utility.yul\":641:665   */\n      tag_276\n      jump\t// in\n    tag_327:\n        /* \"#utility.yul\":634:639   */\n      dup2\n        /* \"#utility.yul\":631:666   */\n      eq\n        /* \"#utility.yul\":621:684   */\n      tag_328\n      jumpi\n        /* \"#utility.yul\":680:681   */\n      0x00\n        /* \"#utility.yul\":677:678   */\n      dup1\n        /* \"#utility.yul\":670:682   */\n      revert\n        /* \"#utility.yul\":621:684   */\n    tag_328:\n        /* \"#utility.yul\":568:690   */\n      pop\n      jump\t// out\n        /* \"#utility.yul\":696:835   */\n    tag_278:\n        /* \"#utility.yul\":742:747   */\n      0x00\n        /* \"#utility.yul\":780:786   */\n      dup2\n        /* \"#utility.yul\":767:787   */\n      calldataload\n        /* \"#utility.yul\":758:787   */\n      swap1\n      pop\n        /* \"#utility.yul\":796:829   */\n      tag_330\n        /* \"#utility.yul\":823:828   */\n      dup2\n        /* \"#utility.yul\":796:829   */\n      tag_277\n      jump\t// in\n    tag_330:\n        /* \"#utility.yul\":696:835   */\n      swap3\n      swap2\n      pop\n      pop\n      jump\t// out\n        /* \"#utility.yul\":841:918   */\n    tag_279:\n        /* \"#utility.yul\":878:885   */\n      0x00\n        /* \"#utility.yul\":907:912   */\n      dup2\n        /* \"#utility.yul\":896:912   */\n      swap1\n      pop\n        /* \"#utility.yul\":841:918   */\n      swap2\n      swap1\n      pop\n      jump\t// out\n        /* \"#utility.yul\":924:1046   */\n    tag_280:\n        /* \"#utility.yul\":997:1021   */\n      tag_333\n        /* \"#utility.yul\":1015:1020   */\n      dup2\n        /* \"#utility.yul\":997:1021   */\n      tag_279\n      jump\t// in\n    tag_333:\n        /* \"#utility.yul\":990:995   */\n      dup2\n        /* \"#utility.yul\":987:1022   */\n      eq\n        /* \"#utility.yul\":977:1040   */\n      tag_334\n      jumpi\n        /* \"#utility.yul\":1036:1037   */\n      0x00\n        /* \"#utility.yul\":1033:1034   */\n      dup1\n        /* \"#utility.yul\":1026:1038   */\n      revert\n        /* \"#utility.yul\":977:1040   */\n    tag_334:\n        /* \"#utility.yul\":924:1046   */\n      pop\n      jump\t// out\n        /* \"#utility.yul\":1052:1191   */\n    tag_281:\n        /* \"#utility.yul\":1098:1103   */\n      0x00\n        /* \"#utility.yul\":1136:1142   */\n      dup2\n        /* \"#utility.yul\":1123:1143   */\n      calldataload\n        /* \"#utility.yul\":1114:1143   */\n      swap1\n      pop\n        /* \"#utility.yul\":1152:1185   */\n      tag_336\n        /* \"#utility.yul\":1179:1184   */\n      dup2\n        /* \"#utility.yul\":1152:1185   */\n      tag_280\n      jump\t// in\n    tag_336:\n        /* \"#utility.yul\":1052:1191   */\n      swap3\n      swap2\n      pop\n      pop\n      jump\t// out\n        /* \"#utility.yul\":1197:1816   */\n    tag_27:\n        /* \"#utility.yul\":1274:1280   */\n      0x00\n        /* \"#utility.yul\":1282:1288   */\n      dup1\n        /* \"#utility.yul\":1290:1296   */\n      0x00\n        /* \"#utility.yul\":1339:1341   */\n      0x60\n        /* \"#utility.yul\":1327:1336   */\n      dup5\n        /* \"#utility.yul\":1318:1325   */\n      dup7\n        /* \"#utility.yul\":1314:1337   */\n      sub\n        /* \"#utility.yul\":1310:1342   */\n      slt\n        /* \"#utility.yul\":1307:1426   */\n      iszero\n      tag_338\n      jumpi\n        /* \"#utility.yul\":1345:1424   */\n      tag_339\n      tag_273\n      jump\t// in\n    tag_339:\n        /* \"#utility.yul\":1307:1426   */\n    tag_338:\n        /* \"#utility.yul\":1465:1466   */\n      0x00\n        /* \"#utility.yul\":1490:1543   */\n      tag_340\n        /* \"#utility.yul\":1535:1542   */\n      dup7\n        /* \"#utility.yul\":1526:1532   */\n      dup3\n        /* \"#utility.yul\":1515:1524   */\n      dup8\n        /* \"#utility.yul\":1511:1533   */\n      add\n        /* \"#utility.yul\":1490:1543   */\n      tag_278\n      jump\t// in\n    tag_340:\n        /* \"#utility.yul\":1480:1543   */\n      swap4\n      pop\n        /* \"#utility.yul\":1436:1553   */\n      pop\n        /* \"#utility.yul\":1592:1594   */\n      0x20\n        /* \"#utility.yul\":1618:1671   */\n      tag_341\n        /* \"#utility.yul\":1663:1670   */\n      dup7\n        /* \"#utility.yul\":1654:1660   */\n      dup3\n        /* \"#utility.yul\":1643:1652   */\n      dup8\n        /* \"#utility.yul\":1639:1661   */\n      add\n        /* \"#utility.yul\":1618:1671   */\n      tag_281\n      jump\t// in\n    tag_341:\n        /* \"#utility.yul\":1608:1671   */\n      swap3\n      pop\n        /* \"#utility.yul\":1563:1681   */\n      pop\n        /* \"#utility.yul\":1720:1722   */\n      0x40\n        /* \"#utility.yul\":1746:1799   */\n      tag_342\n        /* \"#utility.yul\":1791:1798   */\n      dup7\n        /* \"#utility.yul\":1782:1788   */\n      dup3\n        /* \"#utility.yul\":1771:1780   */\n      dup8\n        /* \"#utility.yul\":1767:1789   */\n      add\n        /* \"#utility.yul\":1746:1799   */\n      tag_278\n      jump\t// in\n    tag_342:\n        /* \"#utility.yul\":1736:1799   */\n      swap2\n      pop\n        /* \"#utility.yul\":1691:1809   */\n      pop\n        /* \"#utility.yul\":1197:1816   */\n      swap3\n      pop\n      swap3\n      pop\n      swap3\n      jump\t// out\n        /* \"#utility.yul\":1822:2151   */\n    tag_32:\n        /* \"#utility.yul\":1881:1887   */\n      0x00\n        /* \"#utility.yul\":1930:1932   */\n      0x20\n        /* \"#utility.yul\":1918:1927   */\n      dup3\n        /* \"#utility.yul\":1909:1916   */\n      dup5\n        /* \"#utility.yul\":1905:1928   */\n      sub\n        /* \"#utility.yul\":1901:1933   */\n      slt\n        /* \"#utility.yul\":1898:2017   */\n      iszero\n      tag_344\n      jumpi\n        /* \"#utility.yul\":1936:2015   */\n      tag_345\n      tag_273\n      jump\t// in\n    tag_345:\n        /* \"#utility.yul\":1898:2017   */\n    tag_344:\n        /* \"#utility.yul\":2056:2057   */\n      0x00\n        /* \"#utility.yul\":2081:2134   */\n      tag_346\n        /* \"#utility.yul\":2126:2133   */\n      dup5\n        /* \"#utility.yul\":2117:2123   */\n      dup3\n        /* \"#utility.yul\":2106:2115   */\n      dup6\n        /* \"#utility.yul\":2102:2124   */\n      add\n        /* \"#utility.yul\":2081:2134   */\n      tag_281\n      jump\t// in\n    tag_346:\n        /* \"#utility.yul\":2071:2134   */\n      swap2\n      pop\n        /* \"#utility.yul\":2027:2144   */\n      pop\n        /* \"#utility.yul\":1822:2151   */\n      swap3\n      swap2\n      pop\n      pop\n      jump\t// out\n        /* \"#utility.yul\":2157:2486   */\n    tag_40:\n        /* \"#utility.yul\":2216:2222   */\n      0x00\n        /* \"#utility.yul\":2265:2267   */\n      0x20\n        /* \"#utility.yul\":2253:2262   */\n      dup3\n        /* \"#utility.yul\":2244:2251   */\n      dup5\n        /* \"#utility.yul\":2240:2263   */\n      sub\n        /* \"#utility.yul\":2236:2268   */\n      slt\n        /* \"#utility.yul\":2233:2352   */\n      iszero\n      tag_348\n      jumpi\n        /* \"#utility.yul\":2271:2350   */\n      tag_349\n      tag_273\n      jump\t// in\n    tag_349:\n        /* \"#utility.yul\":2233:2352   */\n    tag_348:\n        /* \"#utility.yul\":2391:2392   */\n      0x00\n        /* \"#utility.yul\":2416:2469   */\n      tag_350\n        /* \"#utility.yul\":2461:2468   */\n      dup5\n        /* \"#utility.yul\":2452:2458   */\n      dup3\n        /* \"#utility.yul\":2441:2450   */\n      dup6\n        /* \"#utility.yul\":2437:2459   */\n      add\n        /* \"#utility.yul\":2416:2469   */\n      tag_278\n      jump\t// in\n    tag_350:\n        /* \"#utility.yul\":2406:2469   */\n      swap2\n      pop\n        /* \"#utility.yul\":2362:2479   */\n      pop\n        /* \"#utility.yul\":2157:2486   */\n      swap3\n      swap2\n      pop\n      pop\n      jump\t// out\n        /* \"#utility.yul\":2492:2610   */\n    tag_282:\n        /* \"#utility.yul\":2579:2603   */\n      tag_352\n        /* \"#utility.yul\":2597:2602   */\n      dup2\n        /* \"#utility.yul\":2579:2603   */\n      tag_279\n      jump\t// in\n    tag_352:\n        /* \"#utility.yul\":2574:2577   */\n      dup3\n        /* \"#utility.yul\":2567:2604   */\n      mstore\n        /* \"#utility.yul\":2492:2610   */\n      pop\n      pop\n      jump\t// out\n        /* \"#utility.yul\":2616:2838   */\n    tag_49:\n        /* \"#utility.yul\":2709:2713   */\n      0x00\n        /* \"#utility.yul\":2747:2749   */\n      0x20\n        /* \"#utility.yul\":2736:2745   */\n      dup3\n        /* \"#utility.yul\":2732:2750   */\n      add\n        /* \"#utility.yul\":2724:2750   */\n      swap1\n      pop\n        /* \"#utility.yul\":2760:2831   */\n      tag_354\n        /* \"#utility.yul\":2828:2829   */\n      0x00\n        /* \"#utility.yul\":2817:2826   */\n      dup4\n        /* \"#utility.yul\":2813:2830   */\n      add\n        /* \"#utility.yul\":2804:2810   */\n      dup5\n        /* \"#utility.yul\":2760:2831   */\n      tag_282\n      jump\t// in\n    tag_354:\n        /* \"#utility.yul\":2616:2838   */\n      swap3\n      swap2\n      pop\n      pop\n      jump\t// out\n        /* \"#utility.yul\":2844:2962   */\n    tag_283:\n        /* \"#utility.yul\":2931:2955   */\n      tag_356\n        /* \"#utility.yul\":2949:2954   */\n      dup2\n        /* \"#utility.yul\":2931:2955   */\n      tag_276\n      jump\t// in\n    tag_356:\n        /* \"#utility.yul\":2926:2929   */\n      dup3\n        /* \"#utility.yul\":2919:2956   */\n      mstore\n        /* \"#utility.yul\":2844:2962   */\n      pop\n      pop\n      jump\t// out\n        /* \"#utility.yul\":2968:3190   */\n    tag_54:\n        /* \"#utility.yul\":3061:3065   */\n      0x00\n        /* \"#utility.yul\":3099:3101   */\n      0x20\n        /* \"#utility.yul\":3088:3097   */\n      dup3\n        /* \"#utility.yul\":3084:3102   */\n      add\n        /* \"#utility.yul\":3076:3102   */\n      swap1\n      pop\n        /* \"#utility.yul\":3112:3183   */\n      tag_358\n        /* \"#utility.yul\":3180:3181   */\n      0x00\n        /* \"#utility.yul\":3169:3178   */\n      dup4\n        /* \"#utility.yul\":3165:3182   */\n      add\n        /* \"#utility.yul\":3156:3162   */\n      dup5\n        /* \"#utility.yul\":3112:3183   */\n      tag_283\n      jump\t// in\n    tag_358:\n        /* \"#utility.yul\":2968:3190   */\n      swap3\n      swap2\n      pop\n      pop\n      jump\t// out\n        /* \"#utility.yul\":3196:3670   */\n    tag_58:\n        /* \"#utility.yul\":3264:3270   */\n      0x00\n        /* \"#utility.yul\":3272:3278   */\n      dup1\n        /* \"#utility.yul\":3321:3323   */\n      0x40\n        /* \"#utility.yul\":3309:3318   */\n      dup4\n        /* \"#utility.yul\":3300:3307   */\n      dup6\n        /* \"#utility.yul\":3296:3319   */\n      sub\n        /* \"#utility.yul\":3292:3324   */\n      slt\n        /* \"#utility.yul\":3289:3408   */\n      iszero\n      tag_360\n      jumpi\n        /* \"#utility.yul\":3327:3406   */\n      tag_361\n      tag_273\n      jump\t// in\n    tag_361:\n        /* \"#utility.yul\":3289:3408   */\n    tag_360:\n        /* \"#utility.yul\":3447:3448   */\n      0x00\n        /* \"#utility.yul\":3472:3525   */\n      tag_362\n        /* \"#utility.yul\":3517:3524   */\n      dup6\n        /* \"#utility.yul\":3508:3514   */\n      dup3\n        /* \"#utility.yul\":3497:3506   */\n      dup7\n        /* \"#utility.yul\":3493:3515   */\n      add\n        /* \"#utility.yul\":3472:3525   */\n      tag_278\n      jump\t// in\n    tag_362:\n        /* \"#utility.yul\":3462:3525   */\n      swap3\n      pop\n        /* \"#utility.yul\":3418:3535   */\n      pop\n        /* \"#utility.yul\":3574:3576   */\n      0x20\n        /* \"#utility.yul\":3600:3653   */\n      tag_363\n        /* \"#utility.yul\":3645:3652   */\n      dup6\n        /* \"#utility.yul\":3636:3642   */\n      dup3\n        /* \"#utility.yul\":3625:3634   */\n      dup7\n        /* \"#utility.yul\":3621:3643   */\n      add\n        /* \"#utility.yul\":3600:3653   */\n      tag_281\n      jump\t// in\n    tag_363:\n        /* \"#utility.yul\":3590:3653   */\n      swap2\n      pop\n        /* \"#utility.yul\":3545:3663   */\n      pop\n        /* \"#utility.yul\":3196:3670   */\n      swap3\n      pop\n      swap3\n      swap1\n      pop\n      jump\t// out\n        /* \"#utility.yul\":3676:3819   */\n    tag_284:\n        /* \"#utility.yul\":3733:3738   */\n      0x00\n        /* \"#utility.yul\":3764:3770   */\n      dup2\n        /* \"#utility.yul\":3758:3771   */\n      mload\n        /* \"#utility.yul\":3749:3771   */\n      swap1\n      pop\n        /* \"#utility.yul\":3780:3813   */\n      tag_365\n        /* \"#utility.yul\":3807:3812   */\n      dup2\n        /* \"#utility.yul\":3780:3813   */\n      tag_280\n      jump\t// in\n    tag_365:\n        /* \"#utility.yul\":3676:3819   */\n      swap3\n      swap2\n      pop\n      pop\n      jump\t// out\n        /* \"#utility.yul\":3825:4176   */\n    tag_101:\n        /* \"#utility.yul\":3895:3901   */\n      0x00\n        /* \"#utility.yul\":3944:3946   */\n      0x20\n        /* \"#utility.yul\":3932:3941   */\n      dup3\n        /* \"#utility.yul\":3923:3930   */\n      dup5\n        /* \"#utility.yul\":3919:3942   */\n      sub\n        /* \"#utility.yul\":3915:3947   */\n      slt\n        /* \"#utility.yul\":3912:4031   */\n      iszero\n      tag_367\n      jumpi\n        /* \"#utility.yul\":3950:4029   */\n      tag_368\n      tag_273\n      jump\t// in\n    tag_368:\n        /* \"#utility.yul\":3912:4031   */\n    tag_367:\n        /* \"#utility.yul\":4070:4071   */\n      0x00\n        /* \"#utility.yul\":4095:4159   */\n      tag_369\n        /* \"#utility.yul\":4151:4158   */\n      dup5\n        /* \"#utility.yul\":4142:4148   */\n      dup3\n        /* \"#utility.yul\":4131:4140   */\n      dup6\n        /* \"#utility.yul\":4127:4149   */\n      add\n        /* \"#utility.yul\":4095:4159   */\n      tag_284\n      jump\t// in\n    tag_369:\n        /* \"#utility.yul\":4085:4159   */\n      swap2\n      pop\n        /* \"#utility.yul\":4041:4169   */\n      pop\n        /* \"#utility.yul\":3825:4176   */\n      swap3\n      swap2\n      pop\n      pop\n      jump\t// out\n        /* \"#utility.yul\":4182:4514   */\n    tag_103:\n        /* \"#utility.yul\":4303:4307   */\n      0x00\n        /* \"#utility.yul\":4341:4343   */\n      0x40\n        /* \"#utility.yul\":4330:4339   */\n      dup3\n        /* \"#utility.yul\":4326:4344   */\n      add\n        /* \"#utility.yul\":4318:4344   */\n      swap1\n      pop\n        /* \"#utility.yul\":4354:4425   */\n      tag_371\n        /* \"#utility.yul\":4422:4423   */\n      0x00\n        /* \"#utility.yul\":4411:4420   */\n      dup4\n        /* \"#utility.yul\":4407:4424   */\n      add\n        /* \"#utility.yul\":4398:4404   */\n      dup6\n        /* \"#utility.yul\":4354:4425   */\n      tag_283\n      jump\t// in\n    tag_371:\n        /* \"#utility.yul\":4435:4507   */\n      tag_372\n        /* \"#utility.yul\":4503:4505   */\n      0x20\n        /* \"#utility.yul\":4492:4501   */\n      dup4\n        /* \"#utility.yul\":4488:4506   */\n      add\n        /* \"#utility.yul\":4479:4485   */\n      dup5\n        /* \"#utility.yul\":4435:4507   */\n      tag_282\n      jump\t// in\n    tag_372:\n        /* \"#utility.yul\":4182:4514   */\n      swap4\n      swap3\n      pop\n      pop\n      pop\n      jump\t// out\n        /* \"#utility.yul\":4520:4610   */\n    tag_285:\n        /* \"#utility.yul\":4554:4561   */\n      0x00\n        /* \"#utility.yul\":4597:4602   */\n      dup2\n        /* \"#utility.yul\":4590:4603   */\n      iszero\n        /* \"#utility.yul\":4583:4604   */\n      iszero\n        /* \"#utility.yul\":4572:4604   */\n      swap1\n      pop\n        /* \"#utility.yul\":4520:4610   */\n      swap2\n      swap1\n      pop\n      jump\t// out\n        /* \"#utility.yul\":4616:4732   */\n    tag_286:\n        /* \"#utility.yul\":4686:4707   */\n      tag_375\n        /* \"#utility.yul\":4701:4706   */\n      dup2\n        /* \"#utility.yul\":4686:4707   */\n      tag_285\n      jump\t// in\n    tag_375:\n        /* \"#utility.yul\":4679:4684   */\n      dup2\n        /* \"#utility.yul\":4676:4708   */\n      eq\n        /* \"#utility.yul\":4666:4726   */\n      tag_376\n      jumpi\n        /* \"#utility.yul\":4722:4723   */\n      0x00\n        /* \"#utility.yul\":4719:4720   */\n      dup1\n        /* \"#utility.yul\":4712:4724   */\n      revert\n        /* \"#utility.yul\":4666:4726   */\n    tag_376:\n        /* \"#utility.yul\":4616:4732   */\n      pop\n      jump\t// out\n        /* \"#utility.yul\":4738:4875   */\n    tag_287:\n        /* \"#utility.yul\":4792:4797   */\n      0x00\n        /* \"#utility.yul\":4823:4829   */\n      dup2\n        /* \"#utility.yul\":4817:4830   */\n      mload\n        /* \"#utility.yul\":4808:4830   */\n      swap1\n      pop\n        /* \"#utility.yul\":4839:4869   */\n      tag_378\n        /* \"#utility.yul\":4863:4868   */\n      dup2\n        /* \"#utility.yul\":4839:4869   */\n      tag_286\n      jump\t// in\n    tag_378:\n        /* \"#utility.yul\":4738:4875   */\n      swap3\n      swap2\n      pop\n      pop\n      jump\t// out\n        /* \"#utility.yul\":4881:5226   */\n    tag_107:\n        /* \"#utility.yul\":4948:4954   */\n      0x00\n        /* \"#utility.yul\":4997:4999   */\n      0x20\n        /* \"#utility.yul\":4985:4994   */\n      dup3\n        /* \"#utility.yul\":4976:4983   */\n      dup5\n        /* \"#utility.yul\":4972:4995   */\n      sub\n        /* \"#utility.yul\":4968:5000   */\n      slt\n        /* \"#utility.yul\":4965:5084   */\n      iszero\n      tag_380\n      jumpi\n        /* \"#utility.yul\":5003:5082   */\n      tag_381\n      tag_273\n      jump\t// in\n    tag_381:\n        /* \"#utility.yul\":4965:5084   */\n    tag_380:\n        /* \"#utility.yul\":5123:5124   */\n      0x00\n        /* \"#utility.yul\":5148:5209   */\n      tag_382\n        /* \"#utility.yul\":5201:5208   */\n      dup5\n        /* \"#utility.yul\":5192:5198   */\n      dup3\n        /* \"#utility.yul\":5181:5190   */\n      dup6\n        /* \"#utility.yul\":5177:5199   */\n      add\n        /* \"#utility.yul\":5148:5209   */\n      tag_287\n      jump\t// in\n    tag_382:\n        /* \"#utility.yul\":5138:5209   */\n      swap2\n      pop\n        /* \"#utility.yul\":5094:5219   */\n      pop\n        /* \"#utility.yul\":4881:5226   */\n      swap3\n      swap2\n      pop\n      pop\n      jump\t// out\n        /* \"#utility.yul\":5232:5401   */\n    tag_288:\n        /* \"#utility.yul\":5316:5327   */\n      0x00\n        /* \"#utility.yul\":5350:5356   */\n      dup3\n        /* \"#utility.yul\":5345:5348   */\n      dup3\n        /* \"#utility.yul\":5338:5357   */\n      mstore\n        /* \"#utility.yul\":5390:5394   */\n      0x20\n        /* \"#utility.yul\":5385:5388   */\n      dup3\n        /* \"#utility.yul\":5381:5395   */\n      add\n        /* \"#utility.yul\":5366:5395   */\n      swap1\n      pop\n        /* \"#utility.yul\":5232:5401   */\n      swap3\n      swap2\n      pop\n      pop\n      jump\t// out\n        /* \"#utility.yul\":5407:5585   */\n    tag_289:\n        /* \"#utility.yul\":5547:5577   */\n      0x496e73756666696369656e7420455448206f6e20436f6e747261637400000000\n        /* \"#utility.yul\":5543:5544   */\n      0x00\n        /* \"#utility.yul\":5535:5541   */\n      dup3\n        /* \"#utility.yul\":5531:5545   */\n      add\n        /* \"#utility.yul\":5524:5578   */\n      mstore\n        /* \"#utility.yul\":5407:5585   */\n      pop\n      jump\t// out\n        /* \"#utility.yul\":5591:5957   */\n    tag_290:\n        /* \"#utility.yul\":5733:5736   */\n      0x00\n        /* \"#utility.yul\":5754:5821   */\n      tag_386\n        /* \"#utility.yul\":5818:5820   */\n      0x1c\n        /* \"#utility.yul\":5813:5816   */\n      dup4\n        /* \"#utility.yul\":5754:5821   */\n      tag_288\n      jump\t// in\n    tag_386:\n        /* \"#utility.yul\":5747:5821   */\n      swap2\n      pop\n        /* \"#utility.yul\":5830:5923   */\n      tag_387\n        /* \"#utility.yul\":5919:5922   */\n      dup3\n        /* \"#utility.yul\":5830:5923   */\n      tag_289\n      jump\t// in\n    tag_387:\n        /* \"#utility.yul\":5948:5950   */\n      0x20\n        /* \"#utility.yul\":5943:5946   */\n      dup3\n        /* \"#utility.yul\":5939:5951   */\n      add\n        /* \"#utility.yul\":5932:5951   */\n      swap1\n      pop\n        /* \"#utility.yul\":5591:5957   */\n      swap2\n      swap1\n      pop\n      jump\t// out\n        /* \"#utility.yul\":5963:6382   */\n    tag_113:\n        /* \"#utility.yul\":6129:6133   */\n      0x00\n        /* \"#utility.yul\":6167:6169   */\n      0x20\n        /* \"#utility.yul\":6156:6165   */\n      dup3\n        /* \"#utility.yul\":6152:6170   */\n      add\n        /* \"#utility.yul\":6144:6170   */\n      swap1\n      pop\n        /* \"#utility.yul\":6216:6225   */\n      dup2\n        /* \"#utility.yul\":6210:6214   */\n      dup2\n        /* \"#utility.yul\":6206:6226   */\n      sub\n        /* \"#utility.yul\":6202:6203   */\n      0x00\n        /* \"#utility.yul\":6191:6200   */\n      dup4\n        /* \"#utility.yul\":6187:6204   */\n      add\n        /* \"#utility.yul\":6180:6227   */\n      mstore\n        /* \"#utility.yul\":6244:6375   */\n      tag_389\n        /* \"#utility.yul\":6370:6374   */\n      dup2\n        /* \"#utility.yul\":6244:6375   */\n      tag_290\n      jump\t// in\n    tag_389:\n        /* \"#utility.yul\":6236:6375   */\n      swap1\n      pop\n        /* \"#utility.yul\":5963:6382   */\n      swap2\n      swap1\n      pop\n      jump\t// out\n        /* \"#utility.yul\":6388:6568   */\n    tag_291:\n        /* \"#utility.yul\":6436:6513   */\n      0x4e487b7100000000000000000000000000000000000000000000000000000000\n        /* \"#utility.yul\":6433:6434   */\n      0x00\n        /* \"#utility.yul\":6426:6514   */\n      mstore\n        /* \"#utility.yul\":6533:6537   */\n      0x11\n        /* \"#utility.yul\":6530:6531   */\n      0x04\n        /* \"#utility.yul\":6523:6538   */\n      mstore\n        /* \"#utility.yul\":6557:6561   */\n      0x24\n        /* \"#utility.yul\":6554:6555   */\n      0x00\n        /* \"#utility.yul\":6547:6562   */\n      revert\n        /* \"#utility.yul\":6574:6984   */\n    tag_115:\n        /* \"#utility.yul\":6614:6621   */\n      0x00\n        /* \"#utility.yul\":6637:6657   */\n      tag_392\n        /* \"#utility.yul\":6655:6656   */\n      dup3\n        /* \"#utility.yul\":6637:6657   */\n      tag_279\n      jump\t// in\n    tag_392:\n        /* \"#utility.yul\":6632:6657   */\n      swap2\n      pop\n        /* \"#utility.yul\":6671:6691   */\n      tag_393\n        /* \"#utility.yul\":6689:6690   */\n      dup4\n        /* \"#utility.yul\":6671:6691   */\n      tag_279\n      jump\t// in\n    tag_393:\n        /* \"#utility.yul\":6666:6691   */\n      swap3\n      pop\n        /* \"#utility.yul\":6726:6727   */\n      dup3\n        /* \"#utility.yul\":6723:6724   */\n      dup3\n        /* \"#utility.yul\":6719:6728   */\n      mul\n        /* \"#utility.yul\":6748:6778   */\n      tag_394\n        /* \"#utility.yul\":6766:6777   */\n      dup2\n        /* \"#utility.yul\":6748:6778   */\n      tag_279\n      jump\t// in\n    tag_394:\n        /* \"#utility.yul\":6737:6778   */\n      swap2\n      pop\n        /* \"#utility.yul\":6927:6928   */\n      dup3\n        /* \"#utility.yul\":6918:6925   */\n      dup3\n        /* \"#utility.yul\":6914:6929   */\n      div\n        /* \"#utility.yul\":6911:6912   */\n      dup5\n        /* \"#utility.yul\":6908:6930   */\n      eq\n        /* \"#utility.yul\":6888:6889   */\n      dup4\n        /* \"#utility.yul\":6881:6890   */\n      iszero\n        /* \"#utility.yul\":6861:6944   */\n      or\n        /* \"#utility.yul\":6838:6977   */\n      tag_395\n      jumpi\n        /* \"#utility.yul\":6957:6975   */\n      tag_396\n      tag_291\n      jump\t// in\n    tag_396:\n        /* \"#utility.yul\":6838:6977   */\n    tag_395:\n        /* \"#utility.yul\":6622:6984   */\n      pop\n        /* \"#utility.yul\":6574:6984   */\n      swap3\n      swap2\n      pop\n      pop\n      jump\t// out\n        /* \"#utility.yul\":6990:7170   */\n    tag_292:\n        /* \"#utility.yul\":7038:7115   */\n      0x4e487b7100000000000000000000000000000000000000000000000000000000\n        /* \"#utility.yul\":7035:7036   */\n      0x00\n        /* \"#utility.yul\":7028:7116   */\n      mstore\n        /* \"#utility.yul\":7135:7139   */\n      0x12\n        /* \"#utility.yul\":7132:7133   */\n      0x04\n        /* \"#utility.yul\":7125:7140   */\n      mstore\n        /* \"#utility.yul\":7159:7163   */\n      0x24\n        /* \"#utility.yul\":7156:7157   */\n      0x00\n        /* \"#utility.yul\":7149:7164   */\n      revert\n        /* \"#utility.yul\":7176:7361   */\n    tag_117:\n        /* \"#utility.yul\":7216:7217   */\n      0x00\n        /* \"#utility.yul\":7233:7253   */\n      tag_399\n        /* \"#utility.yul\":7251:7252   */\n      dup3\n        /* \"#utility.yul\":7233:7253   */\n      tag_279\n      jump\t// in\n    tag_399:\n        /* \"#utility.yul\":7228:7253   */\n      swap2\n      pop\n        /* \"#utility.yul\":7267:7287   */\n      tag_400\n        /* \"#utility.yul\":7285:7286   */\n      dup4\n        /* \"#utility.yul\":7267:7287   */\n      tag_279\n      jump\t// in\n    tag_400:\n        /* \"#utility.yul\":7262:7287   */\n      swap3\n      pop\n        /* \"#utility.yul\":7306:7307   */\n      dup3\n        /* \"#utility.yul\":7296:7331   */\n      tag_401\n      jumpi\n        /* \"#utility.yul\":7311:7329   */\n      tag_402\n      tag_292\n      jump\t// in\n    tag_402:\n        /* \"#utility.yul\":7296:7331   */\n    tag_401:\n        /* \"#utility.yul\":7353:7354   */\n      dup3\n        /* \"#utility.yul\":7350:7351   */\n      dup3\n        /* \"#utility.yul\":7346:7355   */\n      div\n        /* \"#utility.yul\":7341:7355   */\n      swap1\n      pop\n        /* \"#utility.yul\":7176:7361   */\n      swap3\n      swap2\n      pop\n      pop\n      jump\t// out\n        /* \"#utility.yul\":7367:7547   */\n    tag_126:\n        /* \"#utility.yul\":7415:7492   */\n      0x4e487b7100000000000000000000000000000000000000000000000000000000\n        /* \"#utility.yul\":7412:7413   */\n      0x00\n        /* \"#utility.yul\":7405:7493   */\n      mstore\n        /* \"#utility.yul\":7512:7516   */\n      0x32\n        /* \"#utility.yul\":7509:7510   */\n      0x04\n        /* \"#utility.yul\":7502:7517   */\n      mstore\n        /* \"#utility.yul\":7536:7540   */\n      0x24\n        /* \"#utility.yul\":7533:7534   */\n      0x00\n        /* \"#utility.yul\":7526:7541   */\n      revert\n        /* \"#utility.yul\":7553:7725   */\n    tag_293:\n        /* \"#utility.yul\":7693:7717   */\n      0x4e6f2062616c616e636520746f20776974686472617700000000000000000000\n        /* \"#utility.yul\":7689:7690   */\n      0x00\n        /* \"#utility.yul\":7681:7687   */\n      dup3\n        /* \"#utility.yul\":7677:7691   */\n      add\n        /* \"#utility.yul\":7670:7718   */\n      mstore\n        /* \"#utility.yul\":7553:7725   */\n      pop\n      jump\t// out\n        /* \"#utility.yul\":7731:8097   */\n    tag_294:\n        /* \"#utility.yul\":7873:7876   */\n      0x00\n        /* \"#utility.yul\":7894:7961   */\n      tag_406\n        /* \"#utility.yul\":7958:7960   */\n      0x16\n        /* \"#utility.yul\":7953:7956   */\n      dup4\n        /* \"#utility.yul\":7894:7961   */\n      tag_288\n      jump\t// in\n    tag_406:\n        /* \"#utility.yul\":7887:7961   */\n      swap2\n      pop\n        /* \"#utility.yul\":7970:8063   */\n      tag_407\n        /* \"#utility.yul\":8059:8062   */\n      dup3\n        /* \"#utility.yul\":7970:8063   */\n      tag_293\n      jump\t// in\n    tag_407:\n        /* \"#utility.yul\":8088:8090   */\n      0x20\n        /* \"#utility.yul\":8083:8086   */\n      dup3\n        /* \"#utility.yul\":8079:8091   */\n      add\n        /* \"#utility.yul\":8072:8091   */\n      swap1\n      pop\n        /* \"#utility.yul\":7731:8097   */\n      swap2\n      swap1\n      pop\n      jump\t// out\n        /* \"#utility.yul\":8103:8522   */\n    tag_165:\n        /* \"#utility.yul\":8269:8273   */\n      0x00\n        /* \"#utility.yul\":8307:8309   */\n      0x20\n        /* \"#utility.yul\":8296:8305   */\n      dup3\n        /* \"#utility.yul\":8292:8310   */\n      add\n        /* \"#utility.yul\":8284:8310   */\n      swap1\n      pop\n        /* \"#utility.yul\":8356:8365   */\n      dup2\n        /* \"#utility.yul\":8350:8354   */\n      dup2\n        /* \"#utility.yul\":8346:8366   */\n      sub\n        /* \"#utility.yul\":8342:8343   */\n      0x00\n        /* \"#utility.yul\":8331:8340   */\n      dup4\n        /* \"#utility.yul\":8327:8344   */\n      add\n        /* \"#utility.yul\":8320:8367   */\n      mstore\n        /* \"#utility.yul\":8384:8515   */\n      tag_409\n        /* \"#utility.yul\":8510:8514   */\n      dup2\n        /* \"#utility.yul\":8384:8515   */\n      tag_294\n      jump\t// in\n    tag_409:\n        /* \"#utility.yul\":8376:8515   */\n      swap1\n      pop\n        /* \"#utility.yul\":8103:8522   */\n      swap2\n      swap1\n      pop\n      jump\t// out\n        /* \"#utility.yul\":8528:8707   */\n    tag_295:\n        /* \"#utility.yul\":8668:8699   */\n      0x496e73756666696369656e7420636f6e74726163742062616c616e6365000000\n        /* \"#utility.yul\":8664:8665   */\n      0x00\n        /* \"#utility.yul\":8656:8662   */\n      dup3\n        /* \"#utility.yul\":8652:8666   */\n      add\n        /* \"#utility.yul\":8645:8700   */\n      mstore\n        /* \"#utility.yul\":8528:8707   */\n      pop\n      jump\t// out\n        /* \"#utility.yul\":8713:9079   */\n    tag_296:\n        /* \"#utility.yul\":8855:8858   */\n      0x00\n        /* \"#utility.yul\":8876:8943   */\n      tag_412\n        /* \"#utility.yul\":8940:8942   */\n      0x1d\n        /* \"#utility.yul\":8935:8938   */\n      dup4\n        /* \"#utility.yul\":8876:8943   */\n      tag_288\n      jump\t// in\n    tag_412:\n        /* \"#utility.yul\":8869:8943   */\n      swap2\n      pop\n        /* \"#utility.yul\":8952:9045   */\n      tag_413\n        /* \"#utility.yul\":9041:9044   */\n      dup3\n        /* \"#utility.yul\":8952:9045   */\n      tag_295\n      jump\t// in\n    tag_413:\n        /* \"#utility.yul\":9070:9072   */\n      0x20\n        /* \"#utility.yul\":9065:9068   */\n      dup3\n        /* \"#utility.yul\":9061:9073   */\n      add\n        /* \"#utility.yul\":9054:9073   */\n      swap1\n      pop\n        /* \"#utility.yul\":8713:9079   */\n      swap2\n      swap1\n      pop\n      jump\t// out\n        /* \"#utility.yul\":9085:9504   */\n    tag_179:\n        /* \"#utility.yul\":9251:9255   */\n      0x00\n        /* \"#utility.yul\":9289:9291   */\n      0x20\n        /* \"#utility.yul\":9278:9287   */\n      dup3\n        /* \"#utility.yul\":9274:9292   */\n      add\n        /* \"#utility.yul\":9266:9292   */\n      swap1\n      pop\n        /* \"#utility.yul\":9338:9347   */\n      dup2\n        /* \"#utility.yul\":9332:9336   */\n      dup2\n        /* \"#utility.yul\":9328:9348   */\n      sub\n        /* \"#utility.yul\":9324:9325   */\n      0x00\n        /* \"#utility.yul\":9313:9322   */\n      dup4\n        /* \"#utility.yul\":9309:9326   */\n      add\n        /* \"#utility.yul\":9302:9349   */\n      mstore\n        /* \"#utility.yul\":9366:9497   */\n      tag_415\n        /* \"#utility.yul\":9492:9496   */\n      dup2\n        /* \"#utility.yul\":9366:9497   */\n      tag_296\n      jump\t// in\n    tag_415:\n        /* \"#utility.yul\":9358:9497   */\n      swap1\n      pop\n        /* \"#utility.yul\":9085:9504   */\n      swap2\n      swap1\n      pop\n      jump\t// out\n        /* \"#utility.yul\":9510:9737   */\n    tag_297:\n        /* \"#utility.yul\":9650:9684   */\n      0x4465706f73697420616d6f756e74206d757374206265206174206c6561737420\n        /* \"#utility.yul\":9646:9647   */\n      0x00\n        /* \"#utility.yul\":9638:9644   */\n      dup3\n        /* \"#utility.yul\":9634:9648   */\n      add\n        /* \"#utility.yul\":9627:9685   */\n      mstore\n        /* \"#utility.yul\":9719:9729   */\n      0x302e333520455448000000000000000000000000000000000000000000000000\n        /* \"#utility.yul\":9714:9716   */\n      0x20\n        /* \"#utility.yul\":9706:9712   */\n      dup3\n        /* \"#utility.yul\":9702:9717   */\n      add\n        /* \"#utility.yul\":9695:9730   */\n      mstore\n        /* \"#utility.yul\":9510:9737   */\n      pop\n      jump\t// out\n        /* \"#utility.yul\":9743:10109   */\n    tag_298:\n        /* \"#utility.yul\":9885:9888   */\n      0x00\n        /* \"#utility.yul\":9906:9973   */\n      tag_418\n        /* \"#utility.yul\":9970:9972   */\n      0x28\n        /* \"#utility.yul\":9965:9968   */\n      dup4\n        /* \"#utility.yul\":9906:9973   */\n      tag_288\n      jump\t// in\n    tag_418:\n        /* \"#utility.yul\":9899:9973   */\n      swap2\n      pop\n        /* \"#utility.yul\":9982:10075   */\n      tag_419\n        /* \"#utility.yul\":10071:10074   */\n      dup3\n        /* \"#utility.yul\":9982:10075   */\n      tag_297\n      jump\t// in\n    tag_419:\n        /* \"#utility.yul\":10100:10102   */\n      0x40\n        /* \"#utility.yul\":10095:10098   */\n      dup3\n        /* \"#utility.yul\":10091:10103   */\n      add\n        /* \"#utility.yul\":10084:10103   */\n      swap1\n      pop\n        /* \"#utility.yul\":9743:10109   */\n      swap2\n      swap1\n      pop\n      jump\t// out\n        /* \"#utility.yul\":10115:10534   */\n    tag_200:\n        /* \"#utility.yul\":10281:10285   */\n      0x00\n        /* \"#utility.yul\":10319:10321   */\n      0x20\n        /* \"#utility.yul\":10308:10317   */\n      dup3\n        /* \"#utility.yul\":10304:10322   */\n      add\n        /* \"#utility.yul\":10296:10322   */\n      swap1\n      pop\n        /* \"#utility.yul\":10368:10377   */\n      dup2\n        /* \"#utility.yul\":10362:10366   */\n      dup2\n        /* \"#utility.yul\":10358:10378   */\n      sub\n        /* \"#utility.yul\":10354:10355   */\n      0x00\n        /* \"#utility.yul\":10343:10352   */\n      dup4\n        /* \"#utility.yul\":10339:10356   */\n      add\n        /* \"#utility.yul\":10332:10379   */\n      mstore\n        /* \"#utility.yul\":10396:10527   */\n      tag_421\n        /* \"#utility.yul\":10522:10526   */\n      dup2\n        /* \"#utility.yul\":10396:10527   */\n      tag_298\n      jump\t// in\n    tag_421:\n        /* \"#utility.yul\":10388:10527   */\n      swap1\n      pop\n        /* \"#utility.yul\":10115:10534   */\n      swap2\n      swap1\n      pop\n      jump\t// out\n        /* \"#utility.yul\":10540:10765   */\n    tag_299:\n        /* \"#utility.yul\":10680:10714   */\n      0x4f776e61626c653a206e6577206f776e657220697320746865207a65726f2061\n        /* \"#utility.yul\":10676:10677   */\n      0x00\n        /* \"#utility.yul\":10668:10674   */\n      dup3\n        /* \"#utility.yul\":10664:10678   */\n      add\n        /* \"#utility.yul\":10657:10715   */\n      mstore\n        /* \"#utility.yul\":10749:10757   */\n      0x6464726573730000000000000000000000000000000000000000000000000000\n        /* \"#utility.yul\":10744:10746   */\n      0x20\n        /* \"#utility.yul\":10736:10742   */\n      dup3\n        /* \"#utility.yul\":10732:10747   */\n      add\n        /* \"#utility.yul\":10725:10758   */\n      mstore\n        /* \"#utility.yul\":10540:10765   */\n      pop\n      jump\t// out\n        /* \"#utility.yul\":10771:11137   */\n    tag_300:\n        /* \"#utility.yul\":10913:10916   */\n      0x00\n        /* \"#utility.yul\":10934:11001   */\n      tag_424\n        /* \"#utility.yul\":10998:11000   */\n      0x26\n        /* \"#utility.yul\":10993:10996   */\n      dup4\n        /* \"#utility.yul\":10934:11001   */\n      tag_288\n      jump\t// in\n    tag_424:\n        /* \"#utility.yul\":10927:11001   */\n      swap2\n      pop\n        /* \"#utility.yul\":11010:11103   */\n      tag_425\n        /* \"#utility.yul\":11099:11102   */\n      dup3\n        /* \"#utility.yul\":11010:11103   */\n      tag_299\n      jump\t// in\n    tag_425:\n        /* \"#utility.yul\":11128:11130   */\n      0x40\n        /* \"#utility.yul\":11123:11126   */\n      dup3\n        /* \"#utility.yul\":11119:11131   */\n      add\n        /* \"#utility.yul\":11112:11131   */\n      swap1\n      pop\n        /* \"#utility.yul\":10771:11137   */\n      swap2\n      swap1\n      pop\n      jump\t// out\n        /* \"#utility.yul\":11143:11562   */\n    tag_207:\n        /* \"#utility.yul\":11309:11313   */\n      0x00\n        /* \"#utility.yul\":11347:11349   */\n      0x20\n        /* \"#utility.yul\":11336:11345   */\n      dup3\n        /* \"#utility.yul\":11332:11350   */\n      add\n        /* \"#utility.yul\":11324:11350   */\n      swap1\n      pop\n        /* \"#utility.yul\":11396:11405   */\n      dup2\n        /* \"#utility.yul\":11390:11394   */\n      dup2\n        /* \"#utility.yul\":11386:11406   */\n      sub\n        /* \"#utility.yul\":11382:11383   */\n      0x00\n        /* \"#utility.yul\":11371:11380   */\n      dup4\n        /* \"#utility.yul\":11367:11384   */\n      add\n        /* \"#utility.yul\":11360:11407   */\n      mstore\n        /* \"#utility.yul\":11424:11555   */\n      tag_427\n        /* \"#utility.yul\":11550:11554   */\n      dup2\n        /* \"#utility.yul\":11424:11555   */\n      tag_300\n      jump\t// in\n    tag_427:\n        /* \"#utility.yul\":11416:11555   */\n      swap1\n      pop\n        /* \"#utility.yul\":11143:11562   */\n      swap2\n      swap1\n      pop\n      jump\t// out\n        /* \"#utility.yul\":11568:11647   */\n    tag_301:\n        /* \"#utility.yul\":11607:11614   */\n      0x00\n        /* \"#utility.yul\":11636:11641   */\n      dup2\n        /* \"#utility.yul\":11625:11641   */\n      swap1\n      pop\n        /* \"#utility.yul\":11568:11647   */\n      swap2\n      swap1\n      pop\n      jump\t// out\n        /* \"#utility.yul\":11653:11810   */\n    tag_302:\n        /* \"#utility.yul\":11758:11803   */\n      tag_430\n        /* \"#utility.yul\":11778:11802   */\n      tag_431\n        /* \"#utility.yul\":11796:11801   */\n      dup3\n        /* \"#utility.yul\":11778:11802   */\n      tag_279\n      jump\t// in\n    tag_431:\n        /* \"#utility.yul\":11758:11803   */\n      tag_301\n      jump\t// in\n    tag_430:\n        /* \"#utility.yul\":11753:11756   */\n      dup3\n        /* \"#utility.yul\":11746:11804   */\n      mstore\n        /* \"#utility.yul\":11653:11810   */\n      pop\n      pop\n      jump\t// out\n        /* \"#utility.yul\":11816:12354   */\n    tag_212:\n        /* \"#utility.yul\":11984:11987   */\n      0x00\n        /* \"#utility.yul\":11999:12074   */\n      tag_433\n        /* \"#utility.yul\":12070:12073   */\n      dup3\n        /* \"#utility.yul\":12061:12067   */\n      dup7\n        /* \"#utility.yul\":11999:12074   */\n      tag_302\n      jump\t// in\n    tag_433:\n        /* \"#utility.yul\":12099:12101   */\n      0x20\n        /* \"#utility.yul\":12094:12097   */\n      dup3\n        /* \"#utility.yul\":12090:12102   */\n      add\n        /* \"#utility.yul\":12083:12102   */\n      swap2\n      pop\n        /* \"#utility.yul\":12112:12187   */\n      tag_434\n        /* \"#utility.yul\":12183:12186   */\n      dup3\n        /* \"#utility.yul\":12174:12180   */\n      dup6\n        /* \"#utility.yul\":12112:12187   */\n      tag_302\n      jump\t// in\n    tag_434:\n        /* \"#utility.yul\":12212:12214   */\n      0x20\n        /* \"#utility.yul\":12207:12210   */\n      dup3\n        /* \"#utility.yul\":12203:12215   */\n      add\n        /* \"#utility.yul\":12196:12215   */\n      swap2\n      pop\n        /* \"#utility.yul\":12225:12300   */\n      tag_435\n        /* \"#utility.yul\":12296:12299   */\n      dup3\n        /* \"#utility.yul\":12287:12293   */\n      dup5\n        /* \"#utility.yul\":12225:12300   */\n      tag_302\n      jump\t// in\n    tag_435:\n        /* \"#utility.yul\":12325:12327   */\n      0x20\n        /* \"#utility.yul\":12320:12323   */\n      dup3\n        /* \"#utility.yul\":12316:12328   */\n      add\n        /* \"#utility.yul\":12309:12328   */\n      swap2\n      pop\n        /* \"#utility.yul\":12345:12348   */\n      dup2\n        /* \"#utility.yul\":12338:12348   */\n      swap1\n      pop\n        /* \"#utility.yul\":11816:12354   */\n      swap5\n      swap4\n      pop\n      pop\n      pop\n      pop\n      jump\t// out\n        /* \"#utility.yul\":12360:12536   */\n    tag_214:\n        /* \"#utility.yul\":12392:12393   */\n      0x00\n        /* \"#utility.yul\":12409:12429   */\n      tag_437\n        /* \"#utility.yul\":12427:12428   */\n      dup3\n        /* \"#utility.yul\":12409:12429   */\n      tag_279\n      jump\t// in\n    tag_437:\n        /* \"#utility.yul\":12404:12429   */\n      swap2\n      pop\n        /* \"#utility.yul\":12443:12463   */\n      tag_438\n        /* \"#utility.yul\":12461:12462   */\n      dup4\n        /* \"#utility.yul\":12443:12463   */\n      tag_279\n      jump\t// in\n    tag_438:\n        /* \"#utility.yul\":12438:12463   */\n      swap3\n      pop\n        /* \"#utility.yul\":12482:12483   */\n      dup3\n        /* \"#utility.yul\":12472:12507   */\n      tag_439\n      jumpi\n        /* \"#utility.yul\":12487:12505   */\n      tag_440\n      tag_292\n      jump\t// in\n    tag_440:\n        /* \"#utility.yul\":12472:12507   */\n    tag_439:\n        /* \"#utility.yul\":12528:12529   */\n      dup3\n        /* \"#utility.yul\":12525:12526   */\n      dup3\n        /* \"#utility.yul\":12521:12530   */\n      mod\n        /* \"#utility.yul\":12516:12530   */\n      swap1\n      pop\n        /* \"#utility.yul\":12360:12536   */\n      swap3\n      swap2\n      pop\n      pop\n      jump\t// out\n        /* \"#utility.yul\":12542:12775   */\n    tag_216:\n        /* \"#utility.yul\":12581:12584   */\n      0x00\n        /* \"#utility.yul\":12604:12628   */\n      tag_442\n        /* \"#utility.yul\":12622:12627   */\n      dup3\n        /* \"#utility.yul\":12604:12628   */\n      tag_279\n      jump\t// in\n    tag_442:\n        /* \"#utility.yul\":12595:12628   */\n      swap2\n      pop\n        /* \"#utility.yul\":12650:12716   */\n      0xffffffffffffffffffffffffffffffffffffffffffffffffffffffffffffffff\n        /* \"#utility.yul\":12643:12648   */\n      dup3\n        /* \"#utility.yul\":12640:12717   */\n      sub\n        /* \"#utility.yul\":12637:12740   */\n      tag_443\n      jumpi\n        /* \"#utility.yul\":12720:12738   */\n      tag_444\n      tag_291\n      jump\t// in\n    tag_444:\n        /* \"#utility.yul\":12637:12740   */\n    tag_443:\n        /* \"#utility.yul\":12767:12768   */\n      0x01\n        /* \"#utility.yul\":12760:12765   */\n      dup3\n        /* \"#utility.yul\":12756:12769   */\n      add\n        /* \"#utility.yul\":12749:12769   */\n      swap1\n      pop\n        /* \"#utility.yul\":12542:12775   */\n      swap2\n      swap1\n      pop\n      jump\t// out\n        /* \"#utility.yul\":12781:12963   */\n    tag_303:\n        /* \"#utility.yul\":12921:12955   */\n      0x4f776e61626c653a2063616c6c6572206973206e6f7420746865206f776e6572\n        /* \"#utility.yul\":12917:12918   */\n      0x00\n        /* \"#utility.yul\":12909:12915   */\n      dup3\n        /* \"#utility.yul\":12905:12919   */\n      add\n        /* \"#utility.yul\":12898:12956   */\n      mstore\n        /* \"#utility.yul\":12781:12963   */\n      pop\n      jump\t// out\n        /* \"#utility.yul\":12969:13335   */\n    tag_304:\n        /* \"#utility.yul\":13111:13114   */\n      0x00\n        /* \"#utility.yul\":13132:13199   */\n      tag_447\n        /* \"#utility.yul\":13196:13198   */\n      0x20\n        /* \"#utility.yul\":13191:13194   */\n      dup4\n        /* \"#utility.yul\":13132:13199   */\n      tag_288\n      jump\t// in\n    tag_447:\n        /* \"#utility.yul\":13125:13199   */\n      swap2\n      pop\n        /* \"#utility.yul\":13208:13301   */\n      tag_448\n        /* \"#utility.yul\":13297:13300   */\n      dup3\n        /* \"#utility.yul\":13208:13301   */\n      tag_303\n      jump\t// in\n    tag_448:\n        /* \"#utility.yul\":13326:13328   */\n      0x20\n        /* \"#utility.yul\":13321:13324   */\n      dup3\n        /* \"#utility.yul\":13317:13329   */\n      add\n        /* \"#utility.yul\":13310:13329   */\n      swap1\n      pop\n        /* \"#utility.yul\":12969:13335   */\n      swap2\n      swap1\n      pop\n      jump\t// out\n        /* \"#utility.yul\":13341:13760   */\n    tag_223:\n        /* \"#utility.yul\":13507:13511   */\n      0x00\n        /* \"#utility.yul\":13545:13547   */\n      0x20\n        /* \"#utility.yul\":13534:13543   */\n      dup3\n        /* \"#utility.yul\":13530:13548   */\n      add\n        /* \"#utility.yul\":13522:13548   */\n      swap1\n      pop\n        /* \"#utility.yul\":13594:13603   */\n      dup2\n        /* \"#utility.yul\":13588:13592   */\n      dup2\n        /* \"#utility.yul\":13584:13604   */\n      sub\n        /* \"#utility.yul\":13580:13581   */\n      0x00\n        /* \"#utility.yul\":13569:13578   */\n      dup4\n        /* \"#utility.yul\":13565:13582   */\n      add\n        /* \"#utility.yul\":13558:13605   */\n      mstore\n        /* \"#utility.yul\":13622:13753   */\n      tag_450\n        /* \"#utility.yul\":13748:13752   */\n      dup2\n        /* \"#utility.yul\":13622:13753   */\n      tag_304\n      jump\t// in\n    tag_450:\n        /* \"#utility.yul\":13614:13753   */\n      swap1\n      pop\n        /* \"#utility.yul\":13341:13760   */\n      swap2\n      swap1\n      pop\n      jump\t// out\n        /* \"#utility.yul\":13766:13946   */\n    tag_227:\n        /* \"#utility.yul\":13814:13891   */\n      0x4e487b7100000000000000000000000000000000000000000000000000000000\n        /* \"#utility.yul\":13811:13812   */\n      0x00\n        /* \"#utility.yul\":13804:13892   */\n      mstore\n        /* \"#utility.yul\":13911:13915   */\n      0x41\n        /* \"#utility.yul\":13908:13909   */\n      0x04\n        /* \"#utility.yul\":13901:13916   */\n      mstore\n        /* \"#utility.yul\":13935:13939   */\n      0x24\n        /* \"#utility.yul\":13932:13933   */\n      0x00\n        /* \"#utility.yul\":13925:13940   */\n      revert\n        /* \"#utility.yul\":13952:14095   */\n    tag_305:\n        /* \"#utility.yul\":14009:14014   */\n      0x00\n        /* \"#utility.yul\":14040:14046   */\n      dup2\n        /* \"#utility.yul\":14034:14047   */\n      mload\n        /* \"#utility.yul\":14025:14047   */\n      swap1\n      pop\n        /* \"#utility.yul\":14056:14089   */\n      tag_453\n        /* \"#utility.yul\":14083:14088   */\n      dup2\n        /* \"#utility.yul\":14056:14089   */\n      tag_277\n      jump\t// in\n    tag_453:\n        /* \"#utility.yul\":13952:14095   */\n      swap3\n      swap2\n      pop\n      pop\n      jump\t// out\n        /* \"#utility.yul\":14101:14452   */\n    tag_232:\n        /* \"#utility.yul\":14171:14177   */\n      0x00\n        /* \"#utility.yul\":14220:14222   */\n      0x20\n        /* \"#utility.yul\":14208:14217   */\n      dup3\n        /* \"#utility.yul\":14199:14206   */\n      dup5\n        /* \"#utility.yul\":14195:14218   */\n      sub\n        /* \"#utility.yul\":14191:14223   */\n      slt\n        /* \"#utility.yul\":14188:14307   */\n      iszero\n      tag_455\n      jumpi\n        /* \"#utility.yul\":14226:14305   */\n      tag_456\n      tag_273\n      jump\t// in\n    tag_456:\n        /* \"#utility.yul\":14188:14307   */\n    tag_455:\n        /* \"#utility.yul\":14346:14347   */\n      0x00\n        /* \"#utility.yul\":14371:14435   */\n      tag_457\n        /* \"#utility.yul\":14427:14434   */\n      dup5\n        /* \"#utility.yul\":14418:14424   */\n      dup3\n        /* \"#utility.yul\":14407:14416   */\n      dup6\n        /* \"#utility.yul\":14403:14425   */\n      add\n        /* \"#utility.yul\":14371:14435   */\n      tag_305\n      jump\t// in\n    tag_457:\n        /* \"#utility.yul\":14361:14435   */\n      swap2\n      pop\n        /* \"#utility.yul\":14317:14445   */\n      pop\n        /* \"#utility.yul\":14101:14452   */\n      swap3\n      swap2\n      pop\n      pop\n      jump\t// out\n        /* \"#utility.yul\":14458:14649   */\n    tag_238:\n        /* \"#utility.yul\":14498:14501   */\n      0x00\n        /* \"#utility.yul\":14517:14537   */\n      tag_459\n        /* \"#utility.yul\":14535:14536   */\n      dup3\n        /* \"#utility.yul\":14517:14537   */\n      tag_279\n      jump\t// in\n    tag_459:\n        /* \"#utility.yul\":14512:14537   */\n      swap2\n      pop\n        /* \"#utility.yul\":14551:14571   */\n      tag_460\n        /* \"#utility.yul\":14569:14570   */\n      dup4\n        /* \"#utility.yul\":14551:14571   */\n      tag_279\n      jump\t// in\n    tag_460:\n        /* \"#utility.yul\":14546:14571   */\n      swap3\n      pop\n        /* \"#utility.yul\":14594:14595   */\n      dup3\n        /* \"#utility.yul\":14591:14592   */\n      dup3\n        /* \"#utility.yul\":14587:14596   */\n      add\n        /* \"#utility.yul\":14580:14596   */\n      swap1\n      pop\n        /* \"#utility.yul\":14615:14618   */\n      dup1\n        /* \"#utility.yul\":14612:14613   */\n      dup3\n        /* \"#utility.yul\":14609:14619   */\n      gt\n        /* \"#utility.yul\":14606:14642   */\n      iszero\n      tag_461\n      jumpi\n        /* \"#utility.yul\":14622:14640   */\n      tag_462\n      tag_291\n      jump\t// in\n    tag_462:\n        /* \"#utility.yul\":14606:14642   */\n    tag_461:\n        /* \"#utility.yul\":14458:14649   */\n      swap3\n      swap2\n      pop\n      pop\n      jump\t// out\n        /* \"#utility.yul\":14655:14740   */\n    tag_306:\n        /* \"#utility.yul\":14700:14707   */\n      0x00\n        /* \"#utility.yul\":14729:14734   */\n      dup2\n        /* \"#utility.yul\":14718:14734   */\n      swap1\n      pop\n        /* \"#utility.yul\":14655:14740   */\n      swap2\n      swap1\n      pop\n      jump\t// out\n        /* \"#utility.yul\":14746:14806   */\n    tag_307:\n        /* \"#utility.yul\":14774:14777   */\n      0x00\n        /* \"#utility.yul\":14795:14800   */\n      dup2\n        /* \"#utility.yul\":14788:14800   */\n      swap1\n      pop\n        /* \"#utility.yul\":14746:14806   */\n      swap2\n      swap1\n      pop\n      jump\t// out\n        /* \"#utility.yul\":14812:14970   */\n    tag_308:\n        /* \"#utility.yul\":14870:14879   */\n      0x00\n        /* \"#utility.yul\":14903:14964   */\n      tag_466\n        /* \"#utility.yul\":14921:14963   */\n      tag_467\n        /* \"#utility.yul\":14930:14962   */\n      tag_468\n        /* \"#utility.yul\":14956:14961   */\n      dup5\n        /* \"#utility.yul\":14930:14962   */\n      tag_306\n      jump\t// in\n    tag_468:\n        /* \"#utility.yul\":14921:14963   */\n      tag_307\n      jump\t// in\n    tag_467:\n        /* \"#utility.yul\":14903:14964   */\n      tag_279\n      jump\t// in\n    tag_466:\n        /* \"#utility.yul\":14890:14964   */\n      swap1\n      pop\n        /* \"#utility.yul\":14812:14970   */\n      swap2\n      swap1\n      pop\n      jump\t// out\n        /* \"#utility.yul\":14976:15123   */\n    tag_309:\n        /* \"#utility.yul\":15071:15116   */\n      tag_470\n        /* \"#utility.yul\":15110:15115   */\n      dup2\n        /* \"#utility.yul\":15071:15116   */\n      tag_308\n      jump\t// in\n    tag_470:\n        /* \"#utility.yul\":15066:15069   */\n      dup3\n        /* \"#utility.yul\":15059:15117   */\n      mstore\n        /* \"#utility.yul\":14976:15123   */\n      pop\n      pop\n      jump\t// out\n        /* \"#utility.yul\":15129:15243   */\n    tag_310:\n        /* \"#utility.yul\":15196:15202   */\n      0x00\n        /* \"#utility.yul\":15230:15235   */\n      dup2\n        /* \"#utility.yul\":15224:15236   */\n      mload\n        /* \"#utility.yul\":15214:15236   */\n      swap1\n      pop\n        /* \"#utility.yul\":15129:15243   */\n      swap2\n      swap1\n      pop\n      jump\t// out\n        /* \"#utility.yul\":15249:15433   */\n    tag_311:\n        /* \"#utility.yul\":15348:15359   */\n      0x00\n        /* \"#utility.yul\":15382:15388   */\n      dup3\n        /* \"#utility.yul\":15377:15380   */\n      dup3\n        /* \"#utility.yul\":15370:15389   */\n      mstore\n        /* \"#utility.yul\":15422:15426   */\n      0x20\n        /* \"#utility.yul\":15417:15420   */\n      dup3\n        /* \"#utility.yul\":15413:15427   */\n      add\n        /* \"#utility.yul\":15398:15427   */\n      swap1\n      pop\n        /* \"#utility.yul\":15249:15433   */\n      swap3\n      swap2\n      pop\n      pop\n      jump\t// out\n        /* \"#utility.yul\":15439:15571   */\n    tag_312:\n        /* \"#utility.yul\":15506:15510   */\n      0x00\n        /* \"#utility.yul\":15529:15532   */\n      dup2\n        /* \"#utility.yul\":15521:15532   */\n      swap1\n      pop\n        /* \"#utility.yul\":15559:15563   */\n      0x20\n        /* \"#utility.yul\":15554:15557   */\n      dup3\n        /* \"#utility.yul\":15550:15564   */\n      add\n        /* \"#utility.yul\":15542:15564   */\n      swap1\n      pop\n        /* \"#utility.yul\":15439:15571   */\n      swap2\n      swap1\n      pop\n      jump\t// out\n        /* \"#utility.yul\":15577:15685   */\n    tag_313:\n        /* \"#utility.yul\":15654:15678   */\n      tag_475\n        /* \"#utility.yul\":15672:15677   */\n      dup2\n        /* \"#utility.yul\":15654:15678   */\n      tag_276\n      jump\t// in\n    tag_475:\n        /* \"#utility.yul\":15649:15652   */\n      dup3\n        /* \"#utility.yul\":15642:15679   */\n      mstore\n        /* \"#utility.yul\":15577:15685   */\n      pop\n      pop\n      jump\t// out\n        /* \"#utility.yul\":15691:15870   */\n    tag_314:\n        /* \"#utility.yul\":15760:15770   */\n      0x00\n        /* \"#utility.yul\":15781:15827   */\n      tag_477\n        /* \"#utility.yul\":15823:15826   */\n      dup4\n        /* \"#utility.yul\":15815:15821   */\n      dup4\n        /* \"#utility.yul\":15781:15827   */\n      tag_313\n      jump\t// in\n    tag_477:\n        /* \"#utility.yul\":15859:15863   */\n      0x20\n        /* \"#utility.yul\":15854:15857   */\n      dup4\n        /* \"#utility.yul\":15850:15864   */\n      add\n        /* \"#utility.yul\":15836:15864   */\n      swap1\n      pop\n        /* \"#utility.yul\":15691:15870   */\n      swap3\n      swap2\n      pop\n      pop\n      jump\t// out\n        /* \"#utility.yul\":15876:15989   */\n    tag_315:\n        /* \"#utility.yul\":15946:15950   */\n      0x00\n        /* \"#utility.yul\":15978:15982   */\n      0x20\n        /* \"#utility.yul\":15973:15976   */\n      dup3\n        /* \"#utility.yul\":15969:15983   */\n      add\n        /* \"#utility.yul\":15961:15983   */\n      swap1\n      pop\n        /* \"#utility.yul\":15876:15989   */\n      swap2\n      swap1\n      pop\n      jump\t// out\n        /* \"#utility.yul\":16025:16757   */\n    tag_316:\n        /* \"#utility.yul\":16144:16147   */\n      0x00\n        /* \"#utility.yul\":16173:16227   */\n      tag_480\n        /* \"#utility.yul\":16221:16226   */\n      dup3\n        /* \"#utility.yul\":16173:16227   */\n      tag_310\n      jump\t// in\n    tag_480:\n        /* \"#utility.yul\":16243:16329   */\n      tag_481\n        /* \"#utility.yul\":16322:16328   */\n      dup2\n        /* \"#utility.yul\":16317:16320   */\n      dup6\n        /* \"#utility.yul\":16243:16329   */\n      tag_311\n      jump\t// in\n    tag_481:\n        /* \"#utility.yul\":16236:16329   */\n      swap4\n      pop\n        /* \"#utility.yul\":16353:16409   */\n      tag_482\n        /* \"#utility.yul\":16403:16408   */\n      dup4\n        /* \"#utility.yul\":16353:16409   */\n      tag_312\n      jump\t// in\n    tag_482:\n        /* \"#utility.yul\":16432:16439   */\n      dup1\n        /* \"#utility.yul\":16463:16464   */\n      0x00\n        /* \"#utility.yul\":16448:16732   */\n    tag_483:\n        /* \"#utility.yul\":16473:16479   */\n      dup4\n        /* \"#utility.yul\":16470:16471   */\n      dup2\n        /* \"#utility.yul\":16467:16480   */\n      lt\n        /* \"#utility.yul\":16448:16732   */\n      iszero\n      tag_485\n      jumpi\n        /* \"#utility.yul\":16549:16555   */\n      dup2\n        /* \"#utility.yul\":16543:16556   */\n      mload\n        /* \"#utility.yul\":16576:16639   */\n      tag_486\n        /* \"#utility.yul\":16635:16638   */\n      dup9\n        /* \"#utility.yul\":16620:16633   */\n      dup3\n        /* \"#utility.yul\":16576:16639   */\n      tag_314\n      jump\t// in\n    tag_486:\n        /* \"#utility.yul\":16569:16639   */\n      swap8\n      pop\n        /* \"#utility.yul\":16662:16722   */\n      tag_487\n        /* \"#utility.yul\":16715:16721   */\n      dup4\n        /* \"#utility.yul\":16662:16722   */\n      tag_315\n      jump\t// in\n    tag_487:\n        /* \"#utility.yul\":16652:16722   */\n      swap3\n      pop\n        /* \"#utility.yul\":16508:16732   */\n      pop\n        /* \"#utility.yul\":16495:16496   */\n      0x01\n        /* \"#utility.yul\":16492:16493   */\n      dup2\n        /* \"#utility.yul\":16488:16497   */\n      add\n        /* \"#utility.yul\":16483:16497   */\n      swap1\n      pop\n        /* \"#utility.yul\":16448:16732   */\n      jump(tag_483)\n    tag_485:\n        /* \"#utility.yul\":16452:16466   */\n      pop\n        /* \"#utility.yul\":16748:16751   */\n      dup6\n        /* \"#utility.yul\":16741:16751   */\n      swap4\n      pop\n        /* \"#utility.yul\":16149:16757   */\n      pop\n      pop\n      pop\n        /* \"#utility.yul\":16025:16757   */\n      swap3\n      swap2\n      pop\n      pop\n      jump\t// out\n        /* \"#utility.yul\":16763:17483   */\n    tag_240:\n        /* \"#utility.yul\":16998:17002   */\n      0x00\n        /* \"#utility.yul\":17036:17039   */\n      0x80\n        /* \"#utility.yul\":17025:17034   */\n      dup3\n        /* \"#utility.yul\":17021:17040   */\n      add\n        /* \"#utility.yul\":17013:17040   */\n      swap1\n      pop\n        /* \"#utility.yul\":17050:17129   */\n      tag_489\n        /* \"#utility.yul\":17126:17127   */\n      0x00\n        /* \"#utility.yul\":17115:17124   */\n      dup4\n        /* \"#utility.yul\":17111:17128   */\n      add\n        /* \"#utility.yul\":17102:17108   */\n      dup8\n        /* \"#utility.yul\":17050:17129   */\n      tag_309\n      jump\t// in\n    tag_489:\n        /* \"#utility.yul\":17176:17185   */\n      dup2\n        /* \"#utility.yul\":17170:17174   */\n      dup2\n        /* \"#utility.yul\":17166:17186   */\n      sub\n        /* \"#utility.yul\":17161:17163   */\n      0x20\n        /* \"#utility.yul\":17150:17159   */\n      dup4\n        /* \"#utility.yul\":17146:17164   */\n      add\n        /* \"#utility.yul\":17139:17187   */\n      mstore\n        /* \"#utility.yul\":17204:17312   */\n      tag_490\n        /* \"#utility.yul\":17307:17311   */\n      dup2\n        /* \"#utility.yul\":17298:17304   */\n      dup7\n        /* \"#utility.yul\":17204:17312   */\n      tag_316\n      jump\t// in\n    tag_490:\n        /* \"#utility.yul\":17196:17312   */\n      swap1\n      pop\n        /* \"#utility.yul\":17322:17394   */\n      tag_491\n        /* \"#utility.yul\":17390:17392   */\n      0x40\n        /* \"#utility.yul\":17379:17388   */\n      dup4\n        /* \"#utility.yul\":17375:17393   */\n      add\n        /* \"#utility.yul\":17366:17372   */\n      dup6\n        /* \"#utility.yul\":17322:17394   */\n      tag_283\n      jump\t// in\n    tag_491:\n        /* \"#utility.yul\":17404:17476   */\n      tag_492\n        /* \"#utility.yul\":17472:17474   */\n      0x60\n        /* \"#utility.yul\":17461:17470   */\n      dup4\n        /* \"#utility.yul\":17457:17475   */\n      add\n        /* \"#utility.yul\":17448:17454   */\n      dup5\n        /* \"#utility.yul\":17404:17476   */\n      tag_282\n      jump\t// in\n    tag_492:\n        /* \"#utility.yul\":16763:17483   */\n      swap6\n      swap5\n      pop\n      pop\n      pop\n      pop\n      pop\n      jump\t// out\n        /* \"#utility.yul\":17489:17658   */\n    tag_317:\n        /* \"#utility.yul\":17629:17650   */\n      0x45544820746f20546f6b656e2053776170656400000000000000000000000000\n        /* \"#utility.yul\":17625:17626   */\n      0x00\n        /* \"#utility.yul\":17617:17623   */\n      dup3\n        /* \"#utility.yul\":17613:17627   */\n      add\n        /* \"#utility.yul\":17606:17651   */\n      mstore\n        /* \"#utility.yul\":17489:17658   */\n      pop\n      jump\t// out\n        /* \"#utility.yul\":17664:18030   */\n    tag_318:\n        /* \"#utility.yul\":17806:17809   */\n      0x00\n        /* \"#utility.yul\":17827:17894   */\n      tag_495\n        /* \"#utility.yul\":17891:17893   */\n      0x13\n        /* \"#utility.yul\":17886:17889   */\n      dup4\n        /* \"#utility.yul\":17827:17894   */\n      tag_288\n      jump\t// in\n    tag_495:\n        /* \"#utility.yul\":17820:17894   */\n      swap2\n      pop\n        /* \"#utility.yul\":17903:17996   */\n      tag_496\n        /* \"#utility.yul\":17992:17995   */\n      dup3\n        /* \"#utility.yul\":17903:17996   */\n      tag_317\n      jump\t// in\n    tag_496:\n        /* \"#utility.yul\":18021:18023   */\n      0x20\n        /* \"#utility.yul\":18016:18019   */\n      dup3\n        /* \"#utility.yul\":18012:18024   */\n      add\n        /* \"#utility.yul\":18005:18024   */\n      swap1\n      pop\n        /* \"#utility.yul\":17664:18030   */\n      swap2\n      swap1\n      pop\n      jump\t// out\n        /* \"#utility.yul\":18036:18691   */\n    tag_245:\n        /* \"#utility.yul\":18266:18270   */\n      0x00\n        /* \"#utility.yul\":18304:18306   */\n      0x60\n        /* \"#utility.yul\":18293:18302   */\n      dup3\n        /* \"#utility.yul\":18289:18307   */\n      add\n        /* \"#utility.yul\":18281:18307   */\n      swap1\n      pop\n        /* \"#utility.yul\":18353:18362   */\n      dup2\n        /* \"#utility.yul\":18347:18351   */\n      dup2\n        /* \"#utility.yul\":18343:18363   */\n      sub\n        /* \"#utility.yul\":18339:18340   */\n      0x00\n        /* \"#utility.yul\":18328:18337   */\n      dup4\n        /* \"#utility.yul\":18324:18341   */\n      add\n        /* \"#utility.yul\":18317:18364   */\n      mstore\n        /* \"#utility.yul\":18381:18512   */\n      tag_498\n        /* \"#utility.yul\":18507:18511   */\n      dup2\n        /* \"#utility.yul\":18381:18512   */\n      tag_318\n      jump\t// in\n    tag_498:\n        /* \"#utility.yul\":18373:18512   */\n      swap1\n      pop\n        /* \"#utility.yul\":18522:18602   */\n      tag_499\n        /* \"#utility.yul\":18598:18600   */\n      0x20\n        /* \"#utility.yul\":18587:18596   */\n      dup4\n        /* \"#utility.yul\":18583:18601   */\n      add\n        /* \"#utility.yul\":18574:18580   */\n      dup6\n        /* \"#utility.yul\":18522:18602   */\n      tag_309\n      jump\t// in\n    tag_499:\n        /* \"#utility.yul\":18612:18684   */\n      tag_500\n        /* \"#utility.yul\":18680:18682   */\n      0x40\n        /* \"#utility.yul\":18669:18678   */\n      dup4\n        /* \"#utility.yul\":18665:18683   */\n      add\n        /* \"#utility.yul\":18656:18662   */\n      dup5\n        /* \"#utility.yul\":18612:18684   */\n      tag_282\n      jump\t// in\n    tag_500:\n        /* \"#utility.yul\":18036:18691   */\n      swap4\n      swap3\n      pop\n      pop\n      pop\n      jump\t// out\n        /* \"#utility.yul\":18697:19528   */\n    tag_263:\n        /* \"#utility.yul\":18960:18964   */\n      0x00\n        /* \"#utility.yul\":18998:19001   */\n      0xa0\n        /* \"#utility.yul\":18987:18996   */\n      dup3\n        /* \"#utility.yul\":18983:19002   */\n      add\n        /* \"#utility.yul\":18975:19002   */\n      swap1\n      pop\n        /* \"#utility.yul\":19012:19083   */\n      tag_502\n        /* \"#utility.yul\":19080:19081   */\n      0x00\n        /* \"#utility.yul\":19069:19078   */\n      dup4\n        /* \"#utility.yul\":19065:19082   */\n      add\n        /* \"#utility.yul\":19056:19062   */\n      dup9\n        /* \"#utility.yul\":19012:19083   */\n      tag_282\n      jump\t// in\n    tag_502:\n        /* \"#utility.yul\":19093:19173   */\n      tag_503\n        /* \"#utility.yul\":19169:19171   */\n      0x20\n        /* \"#utility.yul\":19158:19167   */\n      dup4\n        /* \"#utility.yul\":19154:19172   */\n      add\n        /* \"#utility.yul\":19145:19151   */\n      dup8\n        /* \"#utility.yul\":19093:19173   */\n      tag_309\n      jump\t// in\n    tag_503:\n        /* \"#utility.yul\":19220:19229   */\n      dup2\n        /* \"#utility.yul\":19214:19218   */\n      dup2\n        /* \"#utility.yul\":19210:19230   */\n      sub\n        /* \"#utility.yul\":19205:19207   */\n      0x40\n        /* \"#utility.yul\":19194:19203   */\n      dup4\n        /* \"#utility.yul\":19190:19208   */\n      add\n        /* \"#utility.yul\":19183:19231   */\n      mstore\n        /* \"#utility.yul\":19248:19356   */\n      tag_504\n        /* \"#utility.yul\":19351:19355   */\n      dup2\n        /* \"#utility.yul\":19342:19348   */\n      dup7\n        /* \"#utility.yul\":19248:19356   */\n      tag_316\n      jump\t// in\n    tag_504:\n        /* \"#utility.yul\":19240:19356   */\n      swap1\n      pop\n        /* \"#utility.yul\":19366:19438   */\n      tag_505\n        /* \"#utility.yul\":19434:19436   */\n      0x60\n        /* \"#utility.yul\":19423:19432   */\n      dup4\n        /* \"#utility.yul\":19419:19437   */\n      add\n        /* \"#utility.yul\":19410:19416   */\n      dup6\n        /* \"#utility.yul\":19366:19438   */\n      tag_283\n      jump\t// in\n    tag_505:\n        /* \"#utility.yul\":19448:19521   */\n      tag_506\n        /* \"#utility.yul\":19516:19519   */\n      0x80\n        /* \"#utility.yul\":19505:19514   */\n      dup4\n        /* \"#utility.yul\":19501:19520   */\n      add\n        /* \"#utility.yul\":19492:19498   */\n      dup5\n        /* \"#utility.yul\":19448:19521   */\n      tag_282\n      jump\t// in\n    tag_506:\n        /* \"#utility.yul\":18697:19528   */\n      swap7\n      swap6\n      pop\n      pop\n      pop\n      pop\n      pop\n      pop\n      jump\t// out\n\n    auxdata: 0xa2646970667358221220fd67e078f57cecea026f35fdcbd6dec5348ed9210653380251fe1f5c54e9b8f864736f6c63430008150033\n}\n",
				"bytecode": {
					"linkReferences": {},
					"object": "6080604052604051806102c0016040528073539bde0d7dbd336b79148aa742883198bbf6034273ffffffffffffffffffffffffffffffffffffffff1673ffffffffffffffffffffffffffffffffffffffff168152602001736c2c06790b3e3e3c38e12ee22f8183b37a13ee5573ffffffffffffffffffffffffffffffffffffffff1673ffffffffffffffffffffffffffffffffffffffff1681526020017332eb7902d4134bf98a28b963d26de779af92a21273ffffffffffffffffffffffffffffffffffffffff1673ffffffffffffffffffffffffffffffffffffffff16815260200173912ce59144191c1204e64559fe8253a0e49e654873ffffffffffffffffffffffffffffffffffffffff1673ffffffffffffffffffffffffffffffffffffffff168152602001738d9ba570d6cb60c7e3e0f31343efe75ab8e65fb173ffffffffffffffffffffffffffffffffffffffff1673ffffffffffffffffffffffffffffffffffffffff168152602001732f2a2543b76a4166549f7aab2e75bef0aefc5b0f73ffffffffffffffffffffffffffffffffffffffff1673ffffffffffffffffffffffffffffffffffffffff168152602001732e80259c9071b6176205ff5f5eb6f7ec8361b93f73ffffffffffffffffffffffffffffffffffffffff1673ffffffffffffffffffffffffffffffffffffffff1681526020017351fc0f6660482ea73330e414efd7808811a57fa273ffffffffffffffffffffffffffffffffffffffff1673ffffffffffffffffffffffffffffffffffffffff1681526020017330dcba0405004cf124045793e1933c798af9e66a73ffffffffffffffffffffffffffffffffffffffff1673ffffffffffffffffffffffffffffffffffffffff1681526020017373700aecfc4621e112304b6edc5ba9e36d7743d373ffffffffffffffffffffffffffffffffffffffff1673ffffffffffffffffffffffffffffffffffffffff16815260200173cb24b141ecaaad0d2c255d6f99d6f4790546a75c73ffffffffffffffffffffffffffffffffffffffff1673ffffffffffffffffffffffffffffffffffffffff16815260200173aa54e84a3e6e5a80288d2c2f8e36ea5ca3a3ca3073ffffffffffffffffffffffffffffffffffffffff1673ffffffffffffffffffffffffffffffffffffffff1681526020017307e49d5de43dda6162fa28d24d5935c15187528373ffffffffffffffffffffffffffffffffffffffff1673ffffffffffffffffffffffffffffffffffffffff168152602001733e6648c5a70a150a88bce65f4ad4d506fe15d2af73ffffffffffffffffffffffffffffffffffffffff1673ffffffffffffffffffffffffffffffffffffffff1681526020017302150e97271fdc0d6e3a16d9094a0948266f07dd73ffffffffffffffffffffffffffffffffffffffff1673ffffffffffffffffffffffffffffffffffffffff1681526020017327d8de4c30ffde34e982482ae504fc7f23061f6173ffffffffffffffffffffffffffffffffffffffff1673ffffffffffffffffffffffffffffffffffffffff1681526020017393c15cd7de26f07265f0272e0b831c5d7fab174f73ffffffffffffffffffffffffffffffffffffffff1673ffffffffffffffffffffffffffffffffffffffff16815260200173a6219b4bf4b861a2b1c02da43b2af266186edc0473ffffffffffffffffffffffffffffffffffffffff1673ffffffffffffffffffffffffffffffffffffffff168152602001736694340fc020c5e6b96567843da2df01b2ce1eb673ffffffffffffffffffffffffffffffffffffffff1673ffffffffffffffffffffffffffffffffffffffff16815260200173bcc9c1763d54427bdf5efb6e9eb9494e5a1fbabf73ffffffffffffffffffffffffffffffffffffffff1673ffffffffffffffffffffffffffffffffffffffff16815260200173fea7a6a0b346362bf88a9e4a88416b77a57d6c2a73ffffffffffffffffffffffffffffffffffffffff1673ffffffffffffffffffffffffffffffffffffffff16815260200173d4d42f0b6def4ce0383636770ef773390d85c61a73ffffffffffffffffffffffffffffffffffffffff1673ffffffffffffffffffffffffffffffffffffffff168152506003906016620006249291906200154c565b5060405180610640016040528073a390f8307d15bec3b241cd2788fab9129aac9ec873ffffffffffffffffffffffffffffffffffffffff1673ffffffffffffffffffffffffffffffffffffffff16815260200173f3ddbe7b21c7bd2b8f836017359d006ae3f9229773ffffffffffffffffffffffffffffffffffffffff1673ffffffffffffffffffffffffffffffffffffffff16815260200173902dfced0281982ea193a925def6c2f722c0334773ffffffffffffffffffffffffffffffffffffffff1673ffffffffffffffffffffffffffffffffffffffff16815260200173dd214ce9f991592857b7f0725b6e1afb7104af0373ffffffffffffffffffffffffffffffffffffffff1673ffffffffffffffffffffffffffffffffffffffff16815260200173d3181675a8e816f2728d5b075e5ed29126015d3773ffffffffffffffffffffffffffffffffffffffff1673ffffffffffffffffffffffffffffffffffffffff16815260200172b44f99fae1453d3720c1af3b9f2cb69382b32373ffffffffffffffffffffffffffffffffffffffff1673ffffffffffffffffffffffffffffffffffffffff1681526020017311b69773e4c33f7edd127ee3c6c528f919bca03273ffffffffffffffffffffffffffffffffffffffff1673ffffffffffffffffffffffffffffffffffffffff168152602001738e5f6f92b07731c0615d86b56c9ed501b24d925073ffffffffffffffffffffffffffffffffffffffff1673ffffffffffffffffffffffffffffffffffffffff16815260200173eb3254ca6092d4880ffed3b34afeb03770e87d5773ffffffffffffffffffffffffffffffffffffffff1673ffffffffffffffffffffffffffffffffffffffff16815260200173d889d33cb09697bceaf4573645ce603c7ac3a41673ffffffffffffffffffffffffffffffffffffffff1673ffffffffffffffffffffffffffffffffffffffff16815260200173cae4a368dcf21547ed83e80b0f03bd3f842314a573ffffffffffffffffffffffffffffffffffffffff1673ffffffffffffffffffffffffffffffffffffffff1681526020017375bb90446466bcf18af03a57b22bebb613c5806673ffffffffffffffffffffffffffffffffffffffff1673ffffffffffffffffffffffffffffffffffffffff168152602001734ca596da6f111aee8f7bf5bf80b7e1a060a2e9ef73ffffffffffffffffffffffffffffffffffffffff1673ffffffffffffffffffffffffffffffffffffffff1681526020017322cef4f4f07cb79174d635bf7f476ea6c6009ee173ffffffffffffffffffffffffffffffffffffffff1673ffffffffffffffffffffffffffffffffffffffff168152602001732c50f23f3aeeaef73db2798f20e8cdc89b424b2673ffffffffffffffffffffffffffffffffffffffff1673ffffffffffffffffffffffffffffffffffffffff1681526020017384ab74fe031ea02488d4c28fa70c7daa818b28a373ffffffffffffffffffffffffffffffffffffffff1673ffffffffffffffffffffffffffffffffffffffff16815260200173fd5421f19cb21f5f940ed9a2a6ac55b7489281b873ffffffffffffffffffffffffffffffffffffffff1673ffffffffffffffffffffffffffffffffffffffff16815260200173404dc03040ca803f8104e01594aabd3780288e8b73ffffffffffffffffffffffffffffffffffffffff1673ffffffffffffffffffffffffffffffffffffffff1681526020017307d2ea354cefe9a489c4e88403a3180cbfffc6c473ffffffffffffffffffffffffffffffffffffffff1673ffffffffffffffffffffffffffffffffffffffff16815260200173397c42ab7694c08b8831360c030a6e53053cbd1373ffffffffffffffffffffffffffffffffffffffff1673ffffffffffffffffffffffffffffffffffffffff1681526020017349971947be80648e195ece3ba4ee773c6b39cb0573ffffffffffffffffffffffffffffffffffffffff1673ffffffffffffffffffffffffffffffffffffffff1681526020017310841de53fcbf834c1d0eb7ac8c01e79013b97cf73ffffffffffffffffffffffffffffffffffffffff1673ffffffffffffffffffffffffffffffffffffffff16815260200173454cadd08a4e9ae3d7d348baa2cc63d679f14a9b73ffffffffffffffffffffffffffffffffffffffff1673ffffffffffffffffffffffffffffffffffffffff16815260200173c1b00381699338d39d009245c45aac08d424d4bc73ffffffffffffffffffffffffffffffffffffffff1673ffffffffffffffffffffffffffffffffffffffff1681526020017362a584531ecfc0ad10fbd088eb1c5c08386f334173ffffffffffffffffffffffffffffffffffffffff1673ffffffffffffffffffffffffffffffffffffffff16815260200173eb89e899134d69b915080de2f2b5a4bda393ee1a73ffffffffffffffffffffffffffffffffffffffff1673ffffffffffffffffffffffffffffffffffffffff168152602001737f2fd67b0c500e5389423dbaea5dc2b7c99ddc7973ffffffffffffffffffffffffffffffffffffffff1673ffffffffffffffffffffffffffffffffffffffff1681526020017351f32394b43eae9285bfb3370e70c4489698d36b73ffffffffffffffffffffffffffffffffffffffff1673ffffffffffffffffffffffffffffffffffffffff168152602001735487685b7296e519580bb3ba3485a0f617f1fe1473ffffffffffffffffffffffffffffffffffffffff1673ffffffffffffffffffffffffffffffffffffffff16815260200173c1b240777e906cf2bafabac74fb22c377fe4001273ffffffffffffffffffffffffffffffffffffffff1673ffffffffffffffffffffffffffffffffffffffff168152602001731ec888a716422a830282b96fbb8790ba1df45c4d73ffffffffffffffffffffffffffffffffffffffff1673ffffffffffffffffffffffffffffffffffffffff168152602001731617b8bfd0e19673ffbb866bdf398a67856e760073ffffffffffffffffffffffffffffffffffffffff1673ffffffffffffffffffffffffffffffffffffffff168152602001732fd6463adbde8d737a83b26a86e849a09f9ccb8573ffffffffffffffffffffffffffffffffffffffff1673ffffffffffffffffffffffffffffffffffffffff1681526020017328a166860c81ff64de712f0736a2d594bd1aac9573ffffffffffffffffffffffffffffffffffffffff1673ffffffffffffffffffffffffffffffffffffffff16815260200173d76f7c0bb2deb5b630b7a882f6b01490a8d2888273ffffffffffffffffffffffffffffffffffffffff1673ffffffffffffffffffffffffffffffffffffffff168152602001730277959af8d243743df0ee000658f88e345f80db73ffffffffffffffffffffffffffffffffffffffff1673ffffffffffffffffffffffffffffffffffffffff16815260200173352e281177866e768a584007a5ae8e43e168d1c373ffffffffffffffffffffffffffffffffffffffff1673ffffffffffffffffffffffffffffffffffffffff1681526020017386b88050e95f5abeb2c76f729c59523e8e2895d773ffffffffffffffffffffffffffffffffffffffff1673ffffffffffffffffffffffffffffffffffffffff16815260200173d8121843a3893c7d049f1cd7919e3050842a798a73ffffffffffffffffffffffffffffffffffffffff1673ffffffffffffffffffffffffffffffffffffffff168152602001732e1eec7ff2bcd35eb8c05e6962a582dce0cc03a073ffffffffffffffffffffffffffffffffffffffff1673ffffffffffffffffffffffffffffffffffffffff1681526020017377989c9c77063b8d95d674ed7079fc0273c19c6773ffffffffffffffffffffffffffffffffffffffff1673ffffffffffffffffffffffffffffffffffffffff168152602001732d39ad1c9f11313c2f074218d1f2e370185012e273ffffffffffffffffffffffffffffffffffffffff1673ffffffffffffffffffffffffffffffffffffffff16815260200173d227b9f4afc1885211e70dd0d9aefd2cffc01aeb73ffffffffffffffffffffffffffffffffffffffff1673ffffffffffffffffffffffffffffffffffffffff16815260200173c91ce75801cc84d05abaa8445c30a75c268ab8b073ffffffffffffffffffffffffffffffffffffffff1673ffffffffffffffffffffffffffffffffffffffff168152602001732e0a2469d1c8c2c5e76517fc3af97e9573072c7c73ffffffffffffffffffffffffffffffffffffffff1673ffffffffffffffffffffffffffffffffffffffff1681526020017301f52bb424c0775405ad37ab0bb719fedd3e04be73ffffffffffffffffffffffffffffffffffffffff1673ffffffffffffffffffffffffffffffffffffffff168152602001739731a2c6e2e22751b99a61be77dbd6938368a15673ffffffffffffffffffffffffffffffffffffffff1673ffffffffffffffffffffffffffffffffffffffff16815260200173433f3a7afd989ba96155ac4f28187dd7c1f15e3e73ffffffffffffffffffffffffffffffffffffffff1673ffffffffffffffffffffffffffffffffffffffff16815260200173e9748053fbd09936872bbd82caeba843dd518d5573ffffffffffffffffffffffffffffffffffffffff1673ffffffffffffffffffffffffffffffffffffffff16815260200173275b23fcb43e46db317a14e73c097bf5d5fcf14573ffffffffffffffffffffffffffffffffffffffff1673ffffffffffffffffffffffffffffffffffffffff16815250601a906032620013ec929190620015cd565b505f604c55348015620013fd575f80fd5b506200141e620014126200148460201b60201c565b6200148b60201b60201c565b600180819055505f731b02da8cb0d097eb8d57a175b88c7d8b4799750690508060025f6101000a81548173ffffffffffffffffffffffffffffffffffffffff021916908373ffffffffffffffffffffffffffffffffffffffff160217905550506200166b565b5f33905090565b5f805f9054906101000a900473ffffffffffffffffffffffffffffffffffffffff169050815f806101000a81548173ffffffffffffffffffffffffffffffffffffffff021916908373ffffffffffffffffffffffffffffffffffffffff1602179055508173ffffffffffffffffffffffffffffffffffffffff168173ffffffffffffffffffffffffffffffffffffffff167f8be0079c531659141344cd1fd0a4f28419497f9722a3daafe3b4186f6b6457e060405160405180910390a35050565b8260178101928215620015ba579160200282015b82811115620015b9578251825f6101000a81548173ffffffffffffffffffffffffffffffffffffffff021916908373ffffffffffffffffffffffffffffffffffffffff1602179055509160200191906001019062001560565b5b509050620015c991906200164e565b5090565b82603281019282156200163b579160200282015b828111156200163a578251825f6101000a81548173ffffffffffffffffffffffffffffffffffffffff021916908373ffffffffffffffffffffffffffffffffffffffff16021790555091602001919060010190620015e1565b5b5090506200164a91906200164e565b5090565b5b8082111562001667575f815f9055506001016200164f565b5090565b611c9e80620016795f395ff3fe6080604052600436106100f6575f3560e01c8063b8c6fd8411610089578063d0e30db011610058578063d0e30db0146102b3578063e06174e4146102bd578063f2fde38b146102d3578063fb2a4838146102fb576100fd565b8063b8c6fd8414610221578063c14040fc14610249578063ccbac9f51461025f578063cfad527714610289576100fd565b80635f5cf8e2116100c55780635f5cf8e21461018f5780637e1c0c09146101a55780638da5cb5b146101cf5780638debff78146101f9576100fd565b80630eabea2b146101015780632a03cd6a146101295780633ccfd60b14610151578063434f6c8a14610167576100fd565b366100fd57005b5f80fd5b34801561010c575f80fd5b5061012760048036038101906101229190611319565b610337565b005b348015610134575f80fd5b5061014f600480360381019061014a9190611369565b61044f565b005b34801561015c575f80fd5b50610165610804565b005b348015610172575f80fd5b5061018d60048036038101906101889190611394565b610806565b005b34801561019a575f80fd5b506101a36108a7565b005b3480156101b0575f80fd5b506101b96108a9565b6040516101c691906113ce565b60405180910390f35b3480156101da575f80fd5b506101e36108ae565b6040516101f091906113f6565b60405180910390f35b348015610204575f80fd5b5061021f600480360381019061021a919061140f565b6108d5565b005b34801561022c575f80fd5b5061024760048036038101906102429190611394565b610978565b005b348015610254575f80fd5b5061025d610ac5565b005b34801561026a575f80fd5b50610273610ac7565b60405161028091906113ce565b60405180910390f35b348015610294575f80fd5b5061029d610acd565b6040516102aa91906113ce565b60405180910390f35b6102bb610ad2565b005b3480156102c8575f80fd5b506102d1610b1f565b005b3480156102de575f80fd5b506102f960048036038101906102f49190611394565b610b21565b005b348015610306575f80fd5b50610321600480360381019061031c9190611369565b610ba3565b60405161032e91906113ce565b60405180910390f35b61033f610c05565b6103498383610c83565b61035283610ed9565b5f8373ffffffffffffffffffffffffffffffffffffffff166370a08231306040518263ffffffff1660e01b815260040161038c91906113f6565b602060405180830381865afa1580156103a7573d5f803e3d5ffd5b505050506040513d601f19601f820116820180604052508101906103cb9190611461565b90508373ffffffffffffffffffffffffffffffffffffffff1663a9059cbb83836040518363ffffffff1660e01b815260040161040892919061148c565b6020604051808303815f875af1158015610424573d5f803e3d5ffd5b505050506040513d601f19601f8201168201806040525081019061044891906114e8565b5050505050565b610457610c05565b8047101561049a576040517f08c379a00000000000000000000000000000000000000000000000000000000081526004016104919061156d565b60405180910390fd5b5f6064603c836104aa91906115b8565b6104b49190611626565b90505f60646028846104c691906115b8565b6104d09190611626565b90506104da6108ae565b73ffffffffffffffffffffffffffffffffffffffff166108fc8290811502906040515f60405180830381858888f1935050505015801561051c573d5f803e3d5ffd5b505f600361052a6017610ba3565b6017811061053b5761053a611656565b5b015f9054906101000a900473ffffffffffffffffffffffffffffffffffffffff1690506105748160028561056f9190611626565b610c83565b5f60036105816017610ba3565b6017811061059257610591611656565b5b015f9054906101000a900473ffffffffffffffffffffffffffffffffffffffff1690506105cb816002866105c69190611626565b610c83565b5f601a6105d86032610ba3565b603281106105e9576105e8611656565b5b015f9054906101000a900473ffffffffffffffffffffffffffffffffffffffff1690505f8373ffffffffffffffffffffffffffffffffffffffff166370a08231306040518263ffffffff1660e01b815260040161064691906113f6565b602060405180830381865afa158015610661573d5f803e3d5ffd5b505050506040513d601f19601f820116820180604052508101906106859190611461565b90505f8373ffffffffffffffffffffffffffffffffffffffff166370a08231306040518263ffffffff1660e01b81526004016106c191906113f6565b602060405180830381865afa1580156106dc573d5f803e3d5ffd5b505050506040513d601f19601f820116820180604052508101906107009190611461565b90508473ffffffffffffffffffffffffffffffffffffffff1663a9059cbb84846040518363ffffffff1660e01b815260040161073d92919061148c565b6020604051808303815f875af1158015610759573d5f803e3d5ffd5b505050506040513d601f19601f8201168201806040525081019061077d91906114e8565b508373ffffffffffffffffffffffffffffffffffffffff1663a9059cbb84836040518363ffffffff1660e01b81526004016107b992919061148c565b6020604051808303815f875af11580156107d5573d5f803e3d5ffd5b505050506040513d601f19601f820116820180604052508101906107f991906114e8565b505050505050505050565b565b61080e610c05565b610816611171565b5f4711610858576040517f08c379a000000000000000000000000000000000000000000000000000000000815260040161084f906116cd565b60405180910390fd5b8073ffffffffffffffffffffffffffffffffffffffff166108fc4790811502906040515f60405180830381858888f1935050505015801561089b573d5f803e3d5ffd5b506108a46111b7565b50565b565b601781565b5f805f9054906101000a900473ffffffffffffffffffffffffffffffffffffffff16905090565b6108dd610c05565b6108e5611171565b80471015610928576040517f08c379a000000000000000000000000000000000000000000000000000000000815260040161091f90611735565b60405180910390fd5b8173ffffffffffffffffffffffffffffffffffffffff166108fc8290811502906040515f60405180830381858888f1935050505015801561096b573d5f803e3d5ffd5b506109746111b7565b5050565b6109806108ae565b73ffffffffffffffffffffffffffffffffffffffff166108fc4790811502906040515f60405180830381858888f193505050501580156109c2573d5f803e3d5ffd5b505f8190508073ffffffffffffffffffffffffffffffffffffffff1663a9059cbb6109eb6108ae565b8373ffffffffffffffffffffffffffffffffffffffff166370a08231306040518263ffffffff1660e01b8152600401610a2491906113f6565b602060405180830381865afa158015610a3f573d5f803e3d5ffd5b505050506040513d601f19601f82011682018060405250810190610a639190611461565b6040518363ffffffff1660e01b8152600401610a8092919061148c565b6020604051808303815f875af1158015610a9c573d5f803e3d5ffd5b505050506040513d601f19601f82011682018060405250810190610ac091906114e8565b505050565b565b604d5481565b603281565b6704db732547630000341015610b1d576040517f08c379a0000000000000000000000000000000000000000000000000000000008152600401610b14906117c3565b60405180910390fd5b565b565b610b29610c05565b5f73ffffffffffffffffffffffffffffffffffffffff168173ffffffffffffffffffffffffffffffffffffffff1603610b97576040517f08c379a0000000000000000000000000000000000000000000000000000000008152600401610b8e90611851565b60405180910390fd5b610ba0816111c0565b50565b5f814244604c54604051602001610bbc9392919061188f565b604051602081830303815290604052805190602001205f1c610bde91906118cb565b604d81905550604c5f815480929190610bf6906118fb565b9190505550604d549050919050565b610c0d611281565b73ffffffffffffffffffffffffffffffffffffffff16610c2b6108ae565b73ffffffffffffffffffffffffffffffffffffffff1614610c81576040517f08c379a0000000000000000000000000000000000000000000000000000000008152600401610c789061198c565b60405180910390fd5b565b5f600267ffffffffffffffff811115610c9f57610c9e6119aa565b5b604051908082528060200260200182016040528015610ccd5781602001602082028036833780820191505090505b50905060025f9054906101000a900473ffffffffffffffffffffffffffffffffffffffff1673ffffffffffffffffffffffffffffffffffffffff1663ad5c46486040518163ffffffff1660e01b8152600401602060405180830381865afa158015610d3a573d5f803e3d5ffd5b505050506040513d601f19601f82011682018060405250810190610d5e91906119eb565b815f81518110610d7157610d70611656565b5b602002602001019073ffffffffffffffffffffffffffffffffffffffff16908173ffffffffffffffffffffffffffffffffffffffff16815250508281600181518110610dc057610dbf611656565b5b602002602001019073ffffffffffffffffffffffffffffffffffffffff16908173ffffffffffffffffffffffffffffffffffffffff16815250505f61012c42610e099190611a16565b905060025f9054906101000a900473ffffffffffffffffffffffffffffffffffffffff1673ffffffffffffffffffffffffffffffffffffffff1663b6f9de95845f8530866040518663ffffffff1660e01b8152600401610e6c9493929190611b42565b5f604051808303818588803b158015610e83575f80fd5b505af1158015610e95573d5f803e3d5ffd5b50505050507f1c0c99a9f63d41a78e8ce6c9f5bbcf7d9412e554ca141a10e2d452e50fbb98255f84604051610ecb929190611bd6565b60405180910390a150505050565b5f600267ffffffffffffffff811115610ef557610ef46119aa565b5b604051908082528060200260200182016040528015610f235781602001602082028036833780820191505090505b50905081815f81518110610f3a57610f39611656565b5b602002602001019073ffffffffffffffffffffffffffffffffffffffff16908173ffffffffffffffffffffffffffffffffffffffff168152505060025f9054906101000a900473ffffffffffffffffffffffffffffffffffffffff1673ffffffffffffffffffffffffffffffffffffffff1663ad5c46486040518163ffffffff1660e01b8152600401602060405180830381865afa158015610fde573d5f803e3d5ffd5b505050506040513d601f19601f8201168201806040525081019061100291906119eb565b8160018151811061101657611015611656565b5b602002602001019073ffffffffffffffffffffffffffffffffffffffff16908173ffffffffffffffffffffffffffffffffffffffff16815250505f8290505f61012c426110639190611a16565b905060025f9054906101000a900473ffffffffffffffffffffffffffffffffffffffff1673ffffffffffffffffffffffffffffffffffffffff1663791ac9478373ffffffffffffffffffffffffffffffffffffffff166370a08231306040518263ffffffff1660e01b81526004016110db91906113f6565b602060405180830381865afa1580156110f6573d5f803e3d5ffd5b505050506040513d601f19601f8201168201806040525081019061111a9190611461565b5f8630866040518663ffffffff1660e01b815260040161113e959493929190611c10565b5f604051808303815f87803b158015611155575f80fd5b505af1158015611167573d5f803e3d5ffd5b5050505050505050565b6002600154036111ad576040517f3ee5aeb500000000000000000000000000000000000000000000000000000000815260040160405180910390fd5b6002600181905550565b60018081905550565b5f805f9054906101000a900473ffffffffffffffffffffffffffffffffffffffff169050815f806101000a81548173ffffffffffffffffffffffffffffffffffffffff021916908373ffffffffffffffffffffffffffffffffffffffff1602179055508173ffffffffffffffffffffffffffffffffffffffff168173ffffffffffffffffffffffffffffffffffffffff167f8be0079c531659141344cd1fd0a4f28419497f9722a3daafe3b4186f6b6457e060405160405180910390a35050565b5f33905090565b5f80fd5b5f73ffffffffffffffffffffffffffffffffffffffff82169050919050565b5f6112b58261128c565b9050919050565b6112c5816112ab565b81146112cf575f80fd5b50565b5f813590506112e0816112bc565b92915050565b5f819050919050565b6112f8816112e6565b8114611302575f80fd5b50565b5f81359050611313816112ef565b92915050565b5f805f606084860312156113305761132f611288565b5b5f61133d868287016112d2565b935050602061134e86828701611305565b925050604061135f868287016112d2565b9150509250925092565b5f6020828403121561137e5761137d611288565b5b5f61138b84828501611305565b91505092915050565b5f602082840312156113a9576113a8611288565b5b5f6113b6848285016112d2565b91505092915050565b6113c8816112e6565b82525050565b5f6020820190506113e15f8301846113bf565b92915050565b6113f0816112ab565b82525050565b5f6020820190506114095f8301846113e7565b92915050565b5f806040838503121561142557611424611288565b5b5f611432858286016112d2565b925050602061144385828601611305565b9150509250929050565b5f8151905061145b816112ef565b92915050565b5f6020828403121561147657611475611288565b5b5f6114838482850161144d565b91505092915050565b5f60408201905061149f5f8301856113e7565b6114ac60208301846113bf565b9392505050565b5f8115159050919050565b6114c7816114b3565b81146114d1575f80fd5b50565b5f815190506114e2816114be565b92915050565b5f602082840312156114fd576114fc611288565b5b5f61150a848285016114d4565b91505092915050565b5f82825260208201905092915050565b7f496e73756666696369656e7420455448206f6e20436f6e7472616374000000005f82015250565b5f611557601c83611513565b915061156282611523565b602082019050919050565b5f6020820190508181035f8301526115848161154b565b9050919050565b7f4e487b71000000000000000000000000000000000000000000000000000000005f52601160045260245ffd5b5f6115c2826112e6565b91506115cd836112e6565b92508282026115db816112e6565b915082820484148315176115f2576115f161158b565b5b5092915050565b7f4e487b71000000000000000000000000000000000000000000000000000000005f52601260045260245ffd5b5f611630826112e6565b915061163b836112e6565b92508261164b5761164a6115f9565b5b828204905092915050565b7f4e487b71000000000000000000000000000000000000000000000000000000005f52603260045260245ffd5b7f4e6f2062616c616e636520746f207769746864726177000000000000000000005f82015250565b5f6116b7601683611513565b91506116c282611683565b602082019050919050565b5f6020820190508181035f8301526116e4816116ab565b9050919050565b7f496e73756666696369656e7420636f6e74726163742062616c616e63650000005f82015250565b5f61171f601d83611513565b915061172a826116eb565b602082019050919050565b5f6020820190508181035f83015261174c81611713565b9050919050565b7f4465706f73697420616d6f756e74206d757374206265206174206c65617374205f8201527f302e333520455448000000000000000000000000000000000000000000000000602082015250565b5f6117ad602883611513565b91506117b882611753565b604082019050919050565b5f6020820190508181035f8301526117da816117a1565b9050919050565b7f4f776e61626c653a206e6577206f776e657220697320746865207a65726f20615f8201527f6464726573730000000000000000000000000000000000000000000000000000602082015250565b5f61183b602683611513565b9150611846826117e1565b604082019050919050565b5f6020820190508181035f8301526118688161182f565b9050919050565b5f819050919050565b611889611884826112e6565b61186f565b82525050565b5f61189a8286611878565b6020820191506118aa8285611878565b6020820191506118ba8284611878565b602082019150819050949350505050565b5f6118d5826112e6565b91506118e0836112e6565b9250826118f0576118ef6115f9565b5b828206905092915050565b5f611905826112e6565b91507fffffffffffffffffffffffffffffffffffffffffffffffffffffffffffffffff82036119375761193661158b565b5b600182019050919050565b7f4f776e61626c653a2063616c6c6572206973206e6f7420746865206f776e65725f82015250565b5f611976602083611513565b915061198182611942565b602082019050919050565b5f6020820190508181035f8301526119a38161196a565b9050919050565b7f4e487b71000000000000000000000000000000000000000000000000000000005f52604160045260245ffd5b5f815190506119e5816112bc565b92915050565b5f60208284031215611a00576119ff611288565b5b5f611a0d848285016119d7565b91505092915050565b5f611a20826112e6565b9150611a2b836112e6565b9250828201905080821115611a4357611a4261158b565b5b92915050565b5f819050919050565b5f819050919050565b5f611a75611a70611a6b84611a49565b611a52565b6112e6565b9050919050565b611a8581611a5b565b82525050565b5f81519050919050565b5f82825260208201905092915050565b5f819050602082019050919050565b611abd816112ab565b82525050565b5f611ace8383611ab4565b60208301905092915050565b5f602082019050919050565b5f611af082611a8b565b611afa8185611a95565b9350611b0583611aa5565b805f5b83811015611b35578151611b1c8882611ac3565b9750611b2783611ada565b925050600181019050611b08565b5085935050505092915050565b5f608082019050611b555f830187611a7c565b8181036020830152611b678186611ae6565b9050611b7660408301856113e7565b611b8360608301846113bf565b95945050505050565b7f45544820746f20546f6b656e20537761706564000000000000000000000000005f82015250565b5f611bc0601383611513565b9150611bcb82611b8c565b602082019050919050565b5f6060820190508181035f830152611bed81611bb4565b9050611bfc6020830185611a7c565b611c0960408301846113bf565b9392505050565b5f60a082019050611c235f8301886113bf565b611c306020830187611a7c565b8181036040830152611c428186611ae6565b9050611c5160608301856113e7565b611c5e60808301846113bf565b969550505050505056fea2646970667358221220fd67e078f57cecea026f35fdcbd6dec5348ed9210653380251fe1f5c54e9b8f864736f6c63430008150033",
					"opcodes": "PUSH1 0x80 PUSH1 0x40 MSTORE PUSH1 0x40 MLOAD DUP1 PUSH2 0x2C0 ADD PUSH1 0x40 MSTORE DUP1 PUSH20 0x539BDE0D7DBD336B79148AA742883198BBF60342 PUSH20 0xFFFFFFFFFFFFFFFFFFFFFFFFFFFFFFFFFFFFFFFF AND PUSH20 0xFFFFFFFFFFFFFFFFFFFFFFFFFFFFFFFFFFFFFFFF AND DUP2 MSTORE PUSH1 0x20 ADD PUSH20 0x6C2C06790B3E3E3C38E12EE22F8183B37A13EE55 PUSH20 0xFFFFFFFFFFFFFFFFFFFFFFFFFFFFFFFFFFFFFFFF AND PUSH20 0xFFFFFFFFFFFFFFFFFFFFFFFFFFFFFFFFFFFFFFFF AND DUP2 MSTORE PUSH1 0x20 ADD PUSH20 0x32EB7902D4134BF98A28B963D26DE779AF92A212 PUSH20 0xFFFFFFFFFFFFFFFFFFFFFFFFFFFFFFFFFFFFFFFF AND PUSH20 0xFFFFFFFFFFFFFFFFFFFFFFFFFFFFFFFFFFFFFFFF AND DUP2 MSTORE PUSH1 0x20 ADD PUSH20 0x912CE59144191C1204E64559FE8253A0E49E6548 PUSH20 0xFFFFFFFFFFFFFFFFFFFFFFFFFFFFFFFFFFFFFFFF AND PUSH20 0xFFFFFFFFFFFFFFFFFFFFFFFFFFFFFFFFFFFFFFFF AND DUP2 MSTORE PUSH1 0x20 ADD PUSH20 0x8D9BA570D6CB60C7E3E0F31343EFE75AB8E65FB1 PUSH20 0xFFFFFFFFFFFFFFFFFFFFFFFFFFFFFFFFFFFFFFFF AND PUSH20 0xFFFFFFFFFFFFFFFFFFFFFFFFFFFFFFFFFFFFFFFF AND DUP2 MSTORE PUSH1 0x20 ADD PUSH20 0x2F2A2543B76A4166549F7AAB2E75BEF0AEFC5B0F PUSH20 0xFFFFFFFFFFFFFFFFFFFFFFFFFFFFFFFFFFFFFFFF AND PUSH20 0xFFFFFFFFFFFFFFFFFFFFFFFFFFFFFFFFFFFFFFFF AND DUP2 MSTORE PUSH1 0x20 ADD PUSH20 0x2E80259C9071B6176205FF5F5EB6F7EC8361B93F PUSH20 0xFFFFFFFFFFFFFFFFFFFFFFFFFFFFFFFFFFFFFFFF AND PUSH20 0xFFFFFFFFFFFFFFFFFFFFFFFFFFFFFFFFFFFFFFFF AND DUP2 MSTORE PUSH1 0x20 ADD PUSH20 0x51FC0F6660482EA73330E414EFD7808811A57FA2 PUSH20 0xFFFFFFFFFFFFFFFFFFFFFFFFFFFFFFFFFFFFFFFF AND PUSH20 0xFFFFFFFFFFFFFFFFFFFFFFFFFFFFFFFFFFFFFFFF AND DUP2 MSTORE PUSH1 0x20 ADD PUSH20 0x30DCBA0405004CF124045793E1933C798AF9E66A PUSH20 0xFFFFFFFFFFFFFFFFFFFFFFFFFFFFFFFFFFFFFFFF AND PUSH20 0xFFFFFFFFFFFFFFFFFFFFFFFFFFFFFFFFFFFFFFFF AND DUP2 MSTORE PUSH1 0x20 ADD PUSH20 0x73700AECFC4621E112304B6EDC5BA9E36D7743D3 PUSH20 0xFFFFFFFFFFFFFFFFFFFFFFFFFFFFFFFFFFFFFFFF AND PUSH20 0xFFFFFFFFFFFFFFFFFFFFFFFFFFFFFFFFFFFFFFFF AND DUP2 MSTORE PUSH1 0x20 ADD PUSH20 0xCB24B141ECAAAD0D2C255D6F99D6F4790546A75C PUSH20 0xFFFFFFFFFFFFFFFFFFFFFFFFFFFFFFFFFFFFFFFF AND PUSH20 0xFFFFFFFFFFFFFFFFFFFFFFFFFFFFFFFFFFFFFFFF AND DUP2 MSTORE PUSH1 0x20 ADD PUSH20 0xAA54E84A3E6E5A80288D2C2F8E36EA5CA3A3CA30 PUSH20 0xFFFFFFFFFFFFFFFFFFFFFFFFFFFFFFFFFFFFFFFF AND PUSH20 0xFFFFFFFFFFFFFFFFFFFFFFFFFFFFFFFFFFFFFFFF AND DUP2 MSTORE PUSH1 0x20 ADD PUSH20 0x7E49D5DE43DDA6162FA28D24D5935C151875283 PUSH20 0xFFFFFFFFFFFFFFFFFFFFFFFFFFFFFFFFFFFFFFFF AND PUSH20 0xFFFFFFFFFFFFFFFFFFFFFFFFFFFFFFFFFFFFFFFF AND DUP2 MSTORE PUSH1 0x20 ADD PUSH20 0x3E6648C5A70A150A88BCE65F4AD4D506FE15D2AF PUSH20 0xFFFFFFFFFFFFFFFFFFFFFFFFFFFFFFFFFFFFFFFF AND PUSH20 0xFFFFFFFFFFFFFFFFFFFFFFFFFFFFFFFFFFFFFFFF AND DUP2 MSTORE PUSH1 0x20 ADD PUSH20 0x2150E97271FDC0D6E3A16D9094A0948266F07DD PUSH20 0xFFFFFFFFFFFFFFFFFFFFFFFFFFFFFFFFFFFFFFFF AND PUSH20 0xFFFFFFFFFFFFFFFFFFFFFFFFFFFFFFFFFFFFFFFF AND DUP2 MSTORE PUSH1 0x20 ADD PUSH20 0x27D8DE4C30FFDE34E982482AE504FC7F23061F61 PUSH20 0xFFFFFFFFFFFFFFFFFFFFFFFFFFFFFFFFFFFFFFFF AND PUSH20 0xFFFFFFFFFFFFFFFFFFFFFFFFFFFFFFFFFFFFFFFF AND DUP2 MSTORE PUSH1 0x20 ADD PUSH20 0x93C15CD7DE26F07265F0272E0B831C5D7FAB174F PUSH20 0xFFFFFFFFFFFFFFFFFFFFFFFFFFFFFFFFFFFFFFFF AND PUSH20 0xFFFFFFFFFFFFFFFFFFFFFFFFFFFFFFFFFFFFFFFF AND DUP2 MSTORE PUSH1 0x20 ADD PUSH20 0xA6219B4BF4B861A2B1C02DA43B2AF266186EDC04 PUSH20 0xFFFFFFFFFFFFFFFFFFFFFFFFFFFFFFFFFFFFFFFF AND PUSH20 0xFFFFFFFFFFFFFFFFFFFFFFFFFFFFFFFFFFFFFFFF AND DUP2 MSTORE PUSH1 0x20 ADD PUSH20 0x6694340FC020C5E6B96567843DA2DF01B2CE1EB6 PUSH20 0xFFFFFFFFFFFFFFFFFFFFFFFFFFFFFFFFFFFFFFFF AND PUSH20 0xFFFFFFFFFFFFFFFFFFFFFFFFFFFFFFFFFFFFFFFF AND DUP2 MSTORE PUSH1 0x20 ADD PUSH20 0xBCC9C1763D54427BDF5EFB6E9EB9494E5A1FBABF PUSH20 0xFFFFFFFFFFFFFFFFFFFFFFFFFFFFFFFFFFFFFFFF AND PUSH20 0xFFFFFFFFFFFFFFFFFFFFFFFFFFFFFFFFFFFFFFFF AND DUP2 MSTORE PUSH1 0x20 ADD PUSH20 0xFEA7A6A0B346362BF88A9E4A88416B77A57D6C2A PUSH20 0xFFFFFFFFFFFFFFFFFFFFFFFFFFFFFFFFFFFFFFFF AND PUSH20 0xFFFFFFFFFFFFFFFFFFFFFFFFFFFFFFFFFFFFFFFF AND DUP2 MSTORE PUSH1 0x20 ADD PUSH20 0xD4D42F0B6DEF4CE0383636770EF773390D85C61A PUSH20 0xFFFFFFFFFFFFFFFFFFFFFFFFFFFFFFFFFFFFFFFF AND PUSH20 0xFFFFFFFFFFFFFFFFFFFFFFFFFFFFFFFFFFFFFFFF AND DUP2 MSTORE POP PUSH1 0x3 SWAP1 PUSH1 0x16 PUSH3 0x624 SWAP3 SWAP2 SWAP1 PUSH3 0x154C JUMP JUMPDEST POP PUSH1 0x40 MLOAD DUP1 PUSH2 0x640 ADD PUSH1 0x40 MSTORE DUP1 PUSH20 0xA390F8307D15BEC3B241CD2788FAB9129AAC9EC8 PUSH20 0xFFFFFFFFFFFFFFFFFFFFFFFFFFFFFFFFFFFFFFFF AND PUSH20 0xFFFFFFFFFFFFFFFFFFFFFFFFFFFFFFFFFFFFFFFF AND DUP2 MSTORE PUSH1 0x20 ADD PUSH20 0xF3DDBE7B21C7BD2B8F836017359D006AE3F92297 PUSH20 0xFFFFFFFFFFFFFFFFFFFFFFFFFFFFFFFFFFFFFFFF AND PUSH20 0xFFFFFFFFFFFFFFFFFFFFFFFFFFFFFFFFFFFFFFFF AND DUP2 MSTORE PUSH1 0x20 ADD PUSH20 0x902DFCED0281982EA193A925DEF6C2F722C03347 PUSH20 0xFFFFFFFFFFFFFFFFFFFFFFFFFFFFFFFFFFFFFFFF AND PUSH20 0xFFFFFFFFFFFFFFFFFFFFFFFFFFFFFFFFFFFFFFFF AND DUP2 MSTORE PUSH1 0x20 ADD PUSH20 0xDD214CE9F991592857B7F0725B6E1AFB7104AF03 PUSH20 0xFFFFFFFFFFFFFFFFFFFFFFFFFFFFFFFFFFFFFFFF AND PUSH20 0xFFFFFFFFFFFFFFFFFFFFFFFFFFFFFFFFFFFFFFFF AND DUP2 MSTORE PUSH1 0x20 ADD PUSH20 0xD3181675A8E816F2728D5B075E5ED29126015D37 PUSH20 0xFFFFFFFFFFFFFFFFFFFFFFFFFFFFFFFFFFFFFFFF AND PUSH20 0xFFFFFFFFFFFFFFFFFFFFFFFFFFFFFFFFFFFFFFFF AND DUP2 MSTORE PUSH1 0x20 ADD PUSH19 0xB44F99FAE1453D3720C1AF3B9F2CB69382B323 PUSH20 0xFFFFFFFFFFFFFFFFFFFFFFFFFFFFFFFFFFFFFFFF AND PUSH20 0xFFFFFFFFFFFFFFFFFFFFFFFFFFFFFFFFFFFFFFFF AND DUP2 MSTORE PUSH1 0x20 ADD PUSH20 0x11B69773E4C33F7EDD127EE3C6C528F919BCA032 PUSH20 0xFFFFFFFFFFFFFFFFFFFFFFFFFFFFFFFFFFFFFFFF AND PUSH20 0xFFFFFFFFFFFFFFFFFFFFFFFFFFFFFFFFFFFFFFFF AND DUP2 MSTORE PUSH1 0x20 ADD PUSH20 0x8E5F6F92B07731C0615D86B56C9ED501B24D9250 PUSH20 0xFFFFFFFFFFFFFFFFFFFFFFFFFFFFFFFFFFFFFFFF AND PUSH20 0xFFFFFFFFFFFFFFFFFFFFFFFFFFFFFFFFFFFFFFFF AND DUP2 MSTORE PUSH1 0x20 ADD PUSH20 0xEB3254CA6092D4880FFED3B34AFEB03770E87D57 PUSH20 0xFFFFFFFFFFFFFFFFFFFFFFFFFFFFFFFFFFFFFFFF AND PUSH20 0xFFFFFFFFFFFFFFFFFFFFFFFFFFFFFFFFFFFFFFFF AND DUP2 MSTORE PUSH1 0x20 ADD PUSH20 0xD889D33CB09697BCEAF4573645CE603C7AC3A416 PUSH20 0xFFFFFFFFFFFFFFFFFFFFFFFFFFFFFFFFFFFFFFFF AND PUSH20 0xFFFFFFFFFFFFFFFFFFFFFFFFFFFFFFFFFFFFFFFF AND DUP2 MSTORE PUSH1 0x20 ADD PUSH20 0xCAE4A368DCF21547ED83E80B0F03BD3F842314A5 PUSH20 0xFFFFFFFFFFFFFFFFFFFFFFFFFFFFFFFFFFFFFFFF AND PUSH20 0xFFFFFFFFFFFFFFFFFFFFFFFFFFFFFFFFFFFFFFFF AND DUP2 MSTORE PUSH1 0x20 ADD PUSH20 0x75BB90446466BCF18AF03A57B22BEBB613C58066 PUSH20 0xFFFFFFFFFFFFFFFFFFFFFFFFFFFFFFFFFFFFFFFF AND PUSH20 0xFFFFFFFFFFFFFFFFFFFFFFFFFFFFFFFFFFFFFFFF AND DUP2 MSTORE PUSH1 0x20 ADD PUSH20 0x4CA596DA6F111AEE8F7BF5BF80B7E1A060A2E9EF PUSH20 0xFFFFFFFFFFFFFFFFFFFFFFFFFFFFFFFFFFFFFFFF AND PUSH20 0xFFFFFFFFFFFFFFFFFFFFFFFFFFFFFFFFFFFFFFFF AND DUP2 MSTORE PUSH1 0x20 ADD PUSH20 0x22CEF4F4F07CB79174D635BF7F476EA6C6009EE1 PUSH20 0xFFFFFFFFFFFFFFFFFFFFFFFFFFFFFFFFFFFFFFFF AND PUSH20 0xFFFFFFFFFFFFFFFFFFFFFFFFFFFFFFFFFFFFFFFF AND DUP2 MSTORE PUSH1 0x20 ADD PUSH20 0x2C50F23F3AEEAEF73DB2798F20E8CDC89B424B26 PUSH20 0xFFFFFFFFFFFFFFFFFFFFFFFFFFFFFFFFFFFFFFFF AND PUSH20 0xFFFFFFFFFFFFFFFFFFFFFFFFFFFFFFFFFFFFFFFF AND DUP2 MSTORE PUSH1 0x20 ADD PUSH20 0x84AB74FE031EA02488D4C28FA70C7DAA818B28A3 PUSH20 0xFFFFFFFFFFFFFFFFFFFFFFFFFFFFFFFFFFFFFFFF AND PUSH20 0xFFFFFFFFFFFFFFFFFFFFFFFFFFFFFFFFFFFFFFFF AND DUP2 MSTORE PUSH1 0x20 ADD PUSH20 0xFD5421F19CB21F5F940ED9A2A6AC55B7489281B8 PUSH20 0xFFFFFFFFFFFFFFFFFFFFFFFFFFFFFFFFFFFFFFFF AND PUSH20 0xFFFFFFFFFFFFFFFFFFFFFFFFFFFFFFFFFFFFFFFF AND DUP2 MSTORE PUSH1 0x20 ADD PUSH20 0x404DC03040CA803F8104E01594AABD3780288E8B PUSH20 0xFFFFFFFFFFFFFFFFFFFFFFFFFFFFFFFFFFFFFFFF AND PUSH20 0xFFFFFFFFFFFFFFFFFFFFFFFFFFFFFFFFFFFFFFFF AND DUP2 MSTORE PUSH1 0x20 ADD PUSH20 0x7D2EA354CEFE9A489C4E88403A3180CBFFFC6C4 PUSH20 0xFFFFFFFFFFFFFFFFFFFFFFFFFFFFFFFFFFFFFFFF AND PUSH20 0xFFFFFFFFFFFFFFFFFFFFFFFFFFFFFFFFFFFFFFFF AND DUP2 MSTORE PUSH1 0x20 ADD PUSH20 0x397C42AB7694C08B8831360C030A6E53053CBD13 PUSH20 0xFFFFFFFFFFFFFFFFFFFFFFFFFFFFFFFFFFFFFFFF AND PUSH20 0xFFFFFFFFFFFFFFFFFFFFFFFFFFFFFFFFFFFFFFFF AND DUP2 MSTORE PUSH1 0x20 ADD PUSH20 0x49971947BE80648E195ECE3BA4EE773C6B39CB05 PUSH20 0xFFFFFFFFFFFFFFFFFFFFFFFFFFFFFFFFFFFFFFFF AND PUSH20 0xFFFFFFFFFFFFFFFFFFFFFFFFFFFFFFFFFFFFFFFF AND DUP2 MSTORE PUSH1 0x20 ADD PUSH20 0x10841DE53FCBF834C1D0EB7AC8C01E79013B97CF PUSH20 0xFFFFFFFFFFFFFFFFFFFFFFFFFFFFFFFFFFFFFFFF AND PUSH20 0xFFFFFFFFFFFFFFFFFFFFFFFFFFFFFFFFFFFFFFFF AND DUP2 MSTORE PUSH1 0x20 ADD PUSH20 0x454CADD08A4E9AE3D7D348BAA2CC63D679F14A9B PUSH20 0xFFFFFFFFFFFFFFFFFFFFFFFFFFFFFFFFFFFFFFFF AND PUSH20 0xFFFFFFFFFFFFFFFFFFFFFFFFFFFFFFFFFFFFFFFF AND DUP2 MSTORE PUSH1 0x20 ADD PUSH20 0xC1B00381699338D39D009245C45AAC08D424D4BC PUSH20 0xFFFFFFFFFFFFFFFFFFFFFFFFFFFFFFFFFFFFFFFF AND PUSH20 0xFFFFFFFFFFFFFFFFFFFFFFFFFFFFFFFFFFFFFFFF AND DUP2 MSTORE PUSH1 0x20 ADD PUSH20 0x62A584531ECFC0AD10FBD088EB1C5C08386F3341 PUSH20 0xFFFFFFFFFFFFFFFFFFFFFFFFFFFFFFFFFFFFFFFF AND PUSH20 0xFFFFFFFFFFFFFFFFFFFFFFFFFFFFFFFFFFFFFFFF AND DUP2 MSTORE PUSH1 0x20 ADD PUSH20 0xEB89E899134D69B915080DE2F2B5A4BDA393EE1A PUSH20 0xFFFFFFFFFFFFFFFFFFFFFFFFFFFFFFFFFFFFFFFF AND PUSH20 0xFFFFFFFFFFFFFFFFFFFFFFFFFFFFFFFFFFFFFFFF AND DUP2 MSTORE PUSH1 0x20 ADD PUSH20 0x7F2FD67B0C500E5389423DBAEA5DC2B7C99DDC79 PUSH20 0xFFFFFFFFFFFFFFFFFFFFFFFFFFFFFFFFFFFFFFFF AND PUSH20 0xFFFFFFFFFFFFFFFFFFFFFFFFFFFFFFFFFFFFFFFF AND DUP2 MSTORE PUSH1 0x20 ADD PUSH20 0x51F32394B43EAE9285BFB3370E70C4489698D36B PUSH20 0xFFFFFFFFFFFFFFFFFFFFFFFFFFFFFFFFFFFFFFFF AND PUSH20 0xFFFFFFFFFFFFFFFFFFFFFFFFFFFFFFFFFFFFFFFF AND DUP2 MSTORE PUSH1 0x20 ADD PUSH20 0x5487685B7296E519580BB3BA3485A0F617F1FE14 PUSH20 0xFFFFFFFFFFFFFFFFFFFFFFFFFFFFFFFFFFFFFFFF AND PUSH20 0xFFFFFFFFFFFFFFFFFFFFFFFFFFFFFFFFFFFFFFFF AND DUP2 MSTORE PUSH1 0x20 ADD PUSH20 0xC1B240777E906CF2BAFABAC74FB22C377FE40012 PUSH20 0xFFFFFFFFFFFFFFFFFFFFFFFFFFFFFFFFFFFFFFFF AND PUSH20 0xFFFFFFFFFFFFFFFFFFFFFFFFFFFFFFFFFFFFFFFF AND DUP2 MSTORE PUSH1 0x20 ADD PUSH20 0x1EC888A716422A830282B96FBB8790BA1DF45C4D PUSH20 0xFFFFFFFFFFFFFFFFFFFFFFFFFFFFFFFFFFFFFFFF AND PUSH20 0xFFFFFFFFFFFFFFFFFFFFFFFFFFFFFFFFFFFFFFFF AND DUP2 MSTORE PUSH1 0x20 ADD PUSH20 0x1617B8BFD0E19673FFBB866BDF398A67856E7600 PUSH20 0xFFFFFFFFFFFFFFFFFFFFFFFFFFFFFFFFFFFFFFFF AND PUSH20 0xFFFFFFFFFFFFFFFFFFFFFFFFFFFFFFFFFFFFFFFF AND DUP2 MSTORE PUSH1 0x20 ADD PUSH20 0x2FD6463ADBDE8D737A83B26A86E849A09F9CCB85 PUSH20 0xFFFFFFFFFFFFFFFFFFFFFFFFFFFFFFFFFFFFFFFF AND PUSH20 0xFFFFFFFFFFFFFFFFFFFFFFFFFFFFFFFFFFFFFFFF AND DUP2 MSTORE PUSH1 0x20 ADD PUSH20 0x28A166860C81FF64DE712F0736A2D594BD1AAC95 PUSH20 0xFFFFFFFFFFFFFFFFFFFFFFFFFFFFFFFFFFFFFFFF AND PUSH20 0xFFFFFFFFFFFFFFFFFFFFFFFFFFFFFFFFFFFFFFFF AND DUP2 MSTORE PUSH1 0x20 ADD PUSH20 0xD76F7C0BB2DEB5B630B7A882F6B01490A8D28882 PUSH20 0xFFFFFFFFFFFFFFFFFFFFFFFFFFFFFFFFFFFFFFFF AND PUSH20 0xFFFFFFFFFFFFFFFFFFFFFFFFFFFFFFFFFFFFFFFF AND DUP2 MSTORE PUSH1 0x20 ADD PUSH20 0x277959AF8D243743DF0EE000658F88E345F80DB PUSH20 0xFFFFFFFFFFFFFFFFFFFFFFFFFFFFFFFFFFFFFFFF AND PUSH20 0xFFFFFFFFFFFFFFFFFFFFFFFFFFFFFFFFFFFFFFFF AND DUP2 MSTORE PUSH1 0x20 ADD PUSH20 0x352E281177866E768A584007A5AE8E43E168D1C3 PUSH20 0xFFFFFFFFFFFFFFFFFFFFFFFFFFFFFFFFFFFFFFFF AND PUSH20 0xFFFFFFFFFFFFFFFFFFFFFFFFFFFFFFFFFFFFFFFF AND DUP2 MSTORE PUSH1 0x20 ADD PUSH20 0x86B88050E95F5ABEB2C76F729C59523E8E2895D7 PUSH20 0xFFFFFFFFFFFFFFFFFFFFFFFFFFFFFFFFFFFFFFFF AND PUSH20 0xFFFFFFFFFFFFFFFFFFFFFFFFFFFFFFFFFFFFFFFF AND DUP2 MSTORE PUSH1 0x20 ADD PUSH20 0xD8121843A3893C7D049F1CD7919E3050842A798A PUSH20 0xFFFFFFFFFFFFFFFFFFFFFFFFFFFFFFFFFFFFFFFF AND PUSH20 0xFFFFFFFFFFFFFFFFFFFFFFFFFFFFFFFFFFFFFFFF AND DUP2 MSTORE PUSH1 0x20 ADD PUSH20 0x2E1EEC7FF2BCD35EB8C05E6962A582DCE0CC03A0 PUSH20 0xFFFFFFFFFFFFFFFFFFFFFFFFFFFFFFFFFFFFFFFF AND PUSH20 0xFFFFFFFFFFFFFFFFFFFFFFFFFFFFFFFFFFFFFFFF AND DUP2 MSTORE PUSH1 0x20 ADD PUSH20 0x77989C9C77063B8D95D674ED7079FC0273C19C67 PUSH20 0xFFFFFFFFFFFFFFFFFFFFFFFFFFFFFFFFFFFFFFFF AND PUSH20 0xFFFFFFFFFFFFFFFFFFFFFFFFFFFFFFFFFFFFFFFF AND DUP2 MSTORE PUSH1 0x20 ADD PUSH20 0x2D39AD1C9F11313C2F074218D1F2E370185012E2 PUSH20 0xFFFFFFFFFFFFFFFFFFFFFFFFFFFFFFFFFFFFFFFF AND PUSH20 0xFFFFFFFFFFFFFFFFFFFFFFFFFFFFFFFFFFFFFFFF AND DUP2 MSTORE PUSH1 0x20 ADD PUSH20 0xD227B9F4AFC1885211E70DD0D9AEFD2CFFC01AEB PUSH20 0xFFFFFFFFFFFFFFFFFFFFFFFFFFFFFFFFFFFFFFFF AND PUSH20 0xFFFFFFFFFFFFFFFFFFFFFFFFFFFFFFFFFFFFFFFF AND DUP2 MSTORE PUSH1 0x20 ADD PUSH20 0xC91CE75801CC84D05ABAA8445C30A75C268AB8B0 PUSH20 0xFFFFFFFFFFFFFFFFFFFFFFFFFFFFFFFFFFFFFFFF AND PUSH20 0xFFFFFFFFFFFFFFFFFFFFFFFFFFFFFFFFFFFFFFFF AND DUP2 MSTORE PUSH1 0x20 ADD PUSH20 0x2E0A2469D1C8C2C5E76517FC3AF97E9573072C7C PUSH20 0xFFFFFFFFFFFFFFFFFFFFFFFFFFFFFFFFFFFFFFFF AND PUSH20 0xFFFFFFFFFFFFFFFFFFFFFFFFFFFFFFFFFFFFFFFF AND DUP2 MSTORE PUSH1 0x20 ADD PUSH20 0x1F52BB424C0775405AD37AB0BB719FEDD3E04BE PUSH20 0xFFFFFFFFFFFFFFFFFFFFFFFFFFFFFFFFFFFFFFFF AND PUSH20 0xFFFFFFFFFFFFFFFFFFFFFFFFFFFFFFFFFFFFFFFF AND DUP2 MSTORE PUSH1 0x20 ADD PUSH20 0x9731A2C6E2E22751B99A61BE77DBD6938368A156 PUSH20 0xFFFFFFFFFFFFFFFFFFFFFFFFFFFFFFFFFFFFFFFF AND PUSH20 0xFFFFFFFFFFFFFFFFFFFFFFFFFFFFFFFFFFFFFFFF AND DUP2 MSTORE PUSH1 0x20 ADD PUSH20 0x433F3A7AFD989BA96155AC4F28187DD7C1F15E3E PUSH20 0xFFFFFFFFFFFFFFFFFFFFFFFFFFFFFFFFFFFFFFFF AND PUSH20 0xFFFFFFFFFFFFFFFFFFFFFFFFFFFFFFFFFFFFFFFF AND DUP2 MSTORE PUSH1 0x20 ADD PUSH20 0xE9748053FBD09936872BBD82CAEBA843DD518D55 PUSH20 0xFFFFFFFFFFFFFFFFFFFFFFFFFFFFFFFFFFFFFFFF AND PUSH20 0xFFFFFFFFFFFFFFFFFFFFFFFFFFFFFFFFFFFFFFFF AND DUP2 MSTORE PUSH1 0x20 ADD PUSH20 0x275B23FCB43E46DB317A14E73C097BF5D5FCF145 PUSH20 0xFFFFFFFFFFFFFFFFFFFFFFFFFFFFFFFFFFFFFFFF AND PUSH20 0xFFFFFFFFFFFFFFFFFFFFFFFFFFFFFFFFFFFFFFFF AND DUP2 MSTORE POP PUSH1 0x1A SWAP1 PUSH1 0x32 PUSH3 0x13EC SWAP3 SWAP2 SWAP1 PUSH3 0x15CD JUMP JUMPDEST POP PUSH0 PUSH1 0x4C SSTORE CALLVALUE DUP1 ISZERO PUSH3 0x13FD JUMPI PUSH0 DUP1 REVERT JUMPDEST POP PUSH3 0x141E PUSH3 0x1412 PUSH3 0x1484 PUSH1 0x20 SHL PUSH1 0x20 SHR JUMP JUMPDEST PUSH3 0x148B PUSH1 0x20 SHL PUSH1 0x20 SHR JUMP JUMPDEST PUSH1 0x1 DUP1 DUP2 SWAP1 SSTORE POP PUSH0 PUSH20 0x1B02DA8CB0D097EB8D57A175B88C7D8B47997506 SWAP1 POP DUP1 PUSH1 0x2 PUSH0 PUSH2 0x100 EXP DUP2 SLOAD DUP2 PUSH20 0xFFFFFFFFFFFFFFFFFFFFFFFFFFFFFFFFFFFFFFFF MUL NOT AND SWAP1 DUP4 PUSH20 0xFFFFFFFFFFFFFFFFFFFFFFFFFFFFFFFFFFFFFFFF AND MUL OR SWAP1 SSTORE POP POP PUSH3 0x166B JUMP JUMPDEST PUSH0 CALLER SWAP1 POP SWAP1 JUMP JUMPDEST PUSH0 DUP1 PUSH0 SWAP1 SLOAD SWAP1 PUSH2 0x100 EXP SWAP1 DIV PUSH20 0xFFFFFFFFFFFFFFFFFFFFFFFFFFFFFFFFFFFFFFFF AND SWAP1 POP DUP2 PUSH0 DUP1 PUSH2 0x100 EXP DUP2 SLOAD DUP2 PUSH20 0xFFFFFFFFFFFFFFFFFFFFFFFFFFFFFFFFFFFFFFFF MUL NOT AND SWAP1 DUP4 PUSH20 0xFFFFFFFFFFFFFFFFFFFFFFFFFFFFFFFFFFFFFFFF AND MUL OR SWAP1 SSTORE POP DUP2 PUSH20 0xFFFFFFFFFFFFFFFFFFFFFFFFFFFFFFFFFFFFFFFF AND DUP2 PUSH20 0xFFFFFFFFFFFFFFFFFFFFFFFFFFFFFFFFFFFFFFFF AND PUSH32 0x8BE0079C531659141344CD1FD0A4F28419497F9722A3DAAFE3B4186F6B6457E0 PUSH1 0x40 MLOAD PUSH1 0x40 MLOAD DUP1 SWAP2 SUB SWAP1 LOG3 POP POP JUMP JUMPDEST DUP3 PUSH1 0x17 DUP2 ADD SWAP3 DUP3 ISZERO PUSH3 0x15BA JUMPI SWAP2 PUSH1 0x20 MUL DUP3 ADD JUMPDEST DUP3 DUP2 GT ISZERO PUSH3 0x15B9 JUMPI DUP3 MLOAD DUP3 PUSH0 PUSH2 0x100 EXP DUP2 SLOAD DUP2 PUSH20 0xFFFFFFFFFFFFFFFFFFFFFFFFFFFFFFFFFFFFFFFF MUL NOT AND SWAP1 DUP4 PUSH20 0xFFFFFFFFFFFFFFFFFFFFFFFFFFFFFFFFFFFFFFFF AND MUL OR SWAP1 SSTORE POP SWAP2 PUSH1 0x20 ADD SWAP2 SWAP1 PUSH1 0x1 ADD SWAP1 PUSH3 0x1560 JUMP JUMPDEST JUMPDEST POP SWAP1 POP PUSH3 0x15C9 SWAP2 SWAP1 PUSH3 0x164E JUMP JUMPDEST POP SWAP1 JUMP JUMPDEST DUP3 PUSH1 0x32 DUP2 ADD SWAP3 DUP3 ISZERO PUSH3 0x163B JUMPI SWAP2 PUSH1 0x20 MUL DUP3 ADD JUMPDEST DUP3 DUP2 GT ISZERO PUSH3 0x163A JUMPI DUP3 MLOAD DUP3 PUSH0 PUSH2 0x100 EXP DUP2 SLOAD DUP2 PUSH20 0xFFFFFFFFFFFFFFFFFFFFFFFFFFFFFFFFFFFFFFFF MUL NOT AND SWAP1 DUP4 PUSH20 0xFFFFFFFFFFFFFFFFFFFFFFFFFFFFFFFFFFFFFFFF AND MUL OR SWAP1 SSTORE POP SWAP2 PUSH1 0x20 ADD SWAP2 SWAP1 PUSH1 0x1 ADD SWAP1 PUSH3 0x15E1 JUMP JUMPDEST JUMPDEST POP SWAP1 POP PUSH3 0x164A SWAP2 SWAP1 PUSH3 0x164E JUMP JUMPDEST POP SWAP1 JUMP JUMPDEST JUMPDEST DUP1 DUP3 GT ISZERO PUSH3 0x1667 JUMPI PUSH0 DUP2 PUSH0 SWAP1 SSTORE POP PUSH1 0x1 ADD PUSH3 0x164F JUMP JUMPDEST POP SWAP1 JUMP JUMPDEST PUSH2 0x1C9E DUP1 PUSH3 0x1679 PUSH0 CODECOPY PUSH0 RETURN INVALID PUSH1 0x80 PUSH1 0x40 MSTORE PUSH1 0x4 CALLDATASIZE LT PUSH2 0xF6 JUMPI PUSH0 CALLDATALOAD PUSH1 0xE0 SHR DUP1 PUSH4 0xB8C6FD84 GT PUSH2 0x89 JUMPI DUP1 PUSH4 0xD0E30DB0 GT PUSH2 0x58 JUMPI DUP1 PUSH4 0xD0E30DB0 EQ PUSH2 0x2B3 JUMPI DUP1 PUSH4 0xE06174E4 EQ PUSH2 0x2BD JUMPI DUP1 PUSH4 0xF2FDE38B EQ PUSH2 0x2D3 JUMPI DUP1 PUSH4 0xFB2A4838 EQ PUSH2 0x2FB JUMPI PUSH2 0xFD JUMP JUMPDEST DUP1 PUSH4 0xB8C6FD84 EQ PUSH2 0x221 JUMPI DUP1 PUSH4 0xC14040FC EQ PUSH2 0x249 JUMPI DUP1 PUSH4 0xCCBAC9F5 EQ PUSH2 0x25F JUMPI DUP1 PUSH4 0xCFAD5277 EQ PUSH2 0x289 JUMPI PUSH2 0xFD JUMP JUMPDEST DUP1 PUSH4 0x5F5CF8E2 GT PUSH2 0xC5 JUMPI DUP1 PUSH4 0x5F5CF8E2 EQ PUSH2 0x18F JUMPI DUP1 PUSH4 0x7E1C0C09 EQ PUSH2 0x1A5 JUMPI DUP1 PUSH4 0x8DA5CB5B EQ PUSH2 0x1CF JUMPI DUP1 PUSH4 0x8DEBFF78 EQ PUSH2 0x1F9 JUMPI PUSH2 0xFD JUMP JUMPDEST DUP1 PUSH4 0xEABEA2B EQ PUSH2 0x101 JUMPI DUP1 PUSH4 0x2A03CD6A EQ PUSH2 0x129 JUMPI DUP1 PUSH4 0x3CCFD60B EQ PUSH2 0x151 JUMPI DUP1 PUSH4 0x434F6C8A EQ PUSH2 0x167 JUMPI PUSH2 0xFD JUMP JUMPDEST CALLDATASIZE PUSH2 0xFD JUMPI STOP JUMPDEST PUSH0 DUP1 REVERT JUMPDEST CALLVALUE DUP1 ISZERO PUSH2 0x10C JUMPI PUSH0 DUP1 REVERT JUMPDEST POP PUSH2 0x127 PUSH1 0x4 DUP1 CALLDATASIZE SUB DUP2 ADD SWAP1 PUSH2 0x122 SWAP2 SWAP1 PUSH2 0x1319 JUMP JUMPDEST PUSH2 0x337 JUMP JUMPDEST STOP JUMPDEST CALLVALUE DUP1 ISZERO PUSH2 0x134 JUMPI PUSH0 DUP1 REVERT JUMPDEST POP PUSH2 0x14F PUSH1 0x4 DUP1 CALLDATASIZE SUB DUP2 ADD SWAP1 PUSH2 0x14A SWAP2 SWAP1 PUSH2 0x1369 JUMP JUMPDEST PUSH2 0x44F JUMP JUMPDEST STOP JUMPDEST CALLVALUE DUP1 ISZERO PUSH2 0x15C JUMPI PUSH0 DUP1 REVERT JUMPDEST POP PUSH2 0x165 PUSH2 0x804 JUMP JUMPDEST STOP JUMPDEST CALLVALUE DUP1 ISZERO PUSH2 0x172 JUMPI PUSH0 DUP1 REVERT JUMPDEST POP PUSH2 0x18D PUSH1 0x4 DUP1 CALLDATASIZE SUB DUP2 ADD SWAP1 PUSH2 0x188 SWAP2 SWAP1 PUSH2 0x1394 JUMP JUMPDEST PUSH2 0x806 JUMP JUMPDEST STOP JUMPDEST CALLVALUE DUP1 ISZERO PUSH2 0x19A JUMPI PUSH0 DUP1 REVERT JUMPDEST POP PUSH2 0x1A3 PUSH2 0x8A7 JUMP JUMPDEST STOP JUMPDEST CALLVALUE DUP1 ISZERO PUSH2 0x1B0 JUMPI PUSH0 DUP1 REVERT JUMPDEST POP PUSH2 0x1B9 PUSH2 0x8A9 JUMP JUMPDEST PUSH1 0x40 MLOAD PUSH2 0x1C6 SWAP2 SWAP1 PUSH2 0x13CE JUMP JUMPDEST PUSH1 0x40 MLOAD DUP1 SWAP2 SUB SWAP1 RETURN JUMPDEST CALLVALUE DUP1 ISZERO PUSH2 0x1DA JUMPI PUSH0 DUP1 REVERT JUMPDEST POP PUSH2 0x1E3 PUSH2 0x8AE JUMP JUMPDEST PUSH1 0x40 MLOAD PUSH2 0x1F0 SWAP2 SWAP1 PUSH2 0x13F6 JUMP JUMPDEST PUSH1 0x40 MLOAD DUP1 SWAP2 SUB SWAP1 RETURN JUMPDEST CALLVALUE DUP1 ISZERO PUSH2 0x204 JUMPI PUSH0 DUP1 REVERT JUMPDEST POP PUSH2 0x21F PUSH1 0x4 DUP1 CALLDATASIZE SUB DUP2 ADD SWAP1 PUSH2 0x21A SWAP2 SWAP1 PUSH2 0x140F JUMP JUMPDEST PUSH2 0x8D5 JUMP JUMPDEST STOP JUMPDEST CALLVALUE DUP1 ISZERO PUSH2 0x22C JUMPI PUSH0 DUP1 REVERT JUMPDEST POP PUSH2 0x247 PUSH1 0x4 DUP1 CALLDATASIZE SUB DUP2 ADD SWAP1 PUSH2 0x242 SWAP2 SWAP1 PUSH2 0x1394 JUMP JUMPDEST PUSH2 0x978 JUMP JUMPDEST STOP JUMPDEST CALLVALUE DUP1 ISZERO PUSH2 0x254 JUMPI PUSH0 DUP1 REVERT JUMPDEST POP PUSH2 0x25D PUSH2 0xAC5 JUMP JUMPDEST STOP JUMPDEST CALLVALUE DUP1 ISZERO PUSH2 0x26A JUMPI PUSH0 DUP1 REVERT JUMPDEST POP PUSH2 0x273 PUSH2 0xAC7 JUMP JUMPDEST PUSH1 0x40 MLOAD PUSH2 0x280 SWAP2 SWAP1 PUSH2 0x13CE JUMP JUMPDEST PUSH1 0x40 MLOAD DUP1 SWAP2 SUB SWAP1 RETURN JUMPDEST CALLVALUE DUP1 ISZERO PUSH2 0x294 JUMPI PUSH0 DUP1 REVERT JUMPDEST POP PUSH2 0x29D PUSH2 0xACD JUMP JUMPDEST PUSH1 0x40 MLOAD PUSH2 0x2AA SWAP2 SWAP1 PUSH2 0x13CE JUMP JUMPDEST PUSH1 0x40 MLOAD DUP1 SWAP2 SUB SWAP1 RETURN JUMPDEST PUSH2 0x2BB PUSH2 0xAD2 JUMP JUMPDEST STOP JUMPDEST CALLVALUE DUP1 ISZERO PUSH2 0x2C8 JUMPI PUSH0 DUP1 REVERT JUMPDEST POP PUSH2 0x2D1 PUSH2 0xB1F JUMP JUMPDEST STOP JUMPDEST CALLVALUE DUP1 ISZERO PUSH2 0x2DE JUMPI PUSH0 DUP1 REVERT JUMPDEST POP PUSH2 0x2F9 PUSH1 0x4 DUP1 CALLDATASIZE SUB DUP2 ADD SWAP1 PUSH2 0x2F4 SWAP2 SWAP1 PUSH2 0x1394 JUMP JUMPDEST PUSH2 0xB21 JUMP JUMPDEST STOP JUMPDEST CALLVALUE DUP1 ISZERO PUSH2 0x306 JUMPI PUSH0 DUP1 REVERT JUMPDEST POP PUSH2 0x321 PUSH1 0x4 DUP1 CALLDATASIZE SUB DUP2 ADD SWAP1 PUSH2 0x31C SWAP2 SWAP1 PUSH2 0x1369 JUMP JUMPDEST PUSH2 0xBA3 JUMP JUMPDEST PUSH1 0x40 MLOAD PUSH2 0x32E SWAP2 SWAP1 PUSH2 0x13CE JUMP JUMPDEST PUSH1 0x40 MLOAD DUP1 SWAP2 SUB SWAP1 RETURN JUMPDEST PUSH2 0x33F PUSH2 0xC05 JUMP JUMPDEST PUSH2 0x349 DUP4 DUP4 PUSH2 0xC83 JUMP JUMPDEST PUSH2 0x352 DUP4 PUSH2 0xED9 JUMP JUMPDEST PUSH0 DUP4 PUSH20 0xFFFFFFFFFFFFFFFFFFFFFFFFFFFFFFFFFFFFFFFF AND PUSH4 0x70A08231 ADDRESS PUSH1 0x40 MLOAD DUP3 PUSH4 0xFFFFFFFF AND PUSH1 0xE0 SHL DUP2 MSTORE PUSH1 0x4 ADD PUSH2 0x38C SWAP2 SWAP1 PUSH2 0x13F6 JUMP JUMPDEST PUSH1 0x20 PUSH1 0x40 MLOAD DUP1 DUP4 SUB DUP2 DUP7 GAS STATICCALL ISZERO DUP1 ISZERO PUSH2 0x3A7 JUMPI RETURNDATASIZE PUSH0 DUP1 RETURNDATACOPY RETURNDATASIZE PUSH0 REVERT JUMPDEST POP POP POP POP PUSH1 0x40 MLOAD RETURNDATASIZE PUSH1 0x1F NOT PUSH1 0x1F DUP3 ADD AND DUP3 ADD DUP1 PUSH1 0x40 MSTORE POP DUP2 ADD SWAP1 PUSH2 0x3CB SWAP2 SWAP1 PUSH2 0x1461 JUMP JUMPDEST SWAP1 POP DUP4 PUSH20 0xFFFFFFFFFFFFFFFFFFFFFFFFFFFFFFFFFFFFFFFF AND PUSH4 0xA9059CBB DUP4 DUP4 PUSH1 0x40 MLOAD DUP4 PUSH4 0xFFFFFFFF AND PUSH1 0xE0 SHL DUP2 MSTORE PUSH1 0x4 ADD PUSH2 0x408 SWAP3 SWAP2 SWAP1 PUSH2 0x148C JUMP JUMPDEST PUSH1 0x20 PUSH1 0x40 MLOAD DUP1 DUP4 SUB DUP2 PUSH0 DUP8 GAS CALL ISZERO DUP1 ISZERO PUSH2 0x424 JUMPI RETURNDATASIZE PUSH0 DUP1 RETURNDATACOPY RETURNDATASIZE PUSH0 REVERT JUMPDEST POP POP POP POP PUSH1 0x40 MLOAD RETURNDATASIZE PUSH1 0x1F NOT PUSH1 0x1F DUP3 ADD AND DUP3 ADD DUP1 PUSH1 0x40 MSTORE POP DUP2 ADD SWAP1 PUSH2 0x448 SWAP2 SWAP1 PUSH2 0x14E8 JUMP JUMPDEST POP POP POP POP POP JUMP JUMPDEST PUSH2 0x457 PUSH2 0xC05 JUMP JUMPDEST DUP1 SELFBALANCE LT ISZERO PUSH2 0x49A JUMPI PUSH1 0x40 MLOAD PUSH32 0x8C379A000000000000000000000000000000000000000000000000000000000 DUP2 MSTORE PUSH1 0x4 ADD PUSH2 0x491 SWAP1 PUSH2 0x156D JUMP JUMPDEST PUSH1 0x40 MLOAD DUP1 SWAP2 SUB SWAP1 REVERT JUMPDEST PUSH0 PUSH1 0x64 PUSH1 0x3C DUP4 PUSH2 0x4AA SWAP2 SWAP1 PUSH2 0x15B8 JUMP JUMPDEST PUSH2 0x4B4 SWAP2 SWAP1 PUSH2 0x1626 JUMP JUMPDEST SWAP1 POP PUSH0 PUSH1 0x64 PUSH1 0x28 DUP5 PUSH2 0x4C6 SWAP2 SWAP1 PUSH2 0x15B8 JUMP JUMPDEST PUSH2 0x4D0 SWAP2 SWAP1 PUSH2 0x1626 JUMP JUMPDEST SWAP1 POP PUSH2 0x4DA PUSH2 0x8AE JUMP JUMPDEST PUSH20 0xFFFFFFFFFFFFFFFFFFFFFFFFFFFFFFFFFFFFFFFF AND PUSH2 0x8FC DUP3 SWAP1 DUP2 ISZERO MUL SWAP1 PUSH1 0x40 MLOAD PUSH0 PUSH1 0x40 MLOAD DUP1 DUP4 SUB DUP2 DUP6 DUP9 DUP9 CALL SWAP4 POP POP POP POP ISZERO DUP1 ISZERO PUSH2 0x51C JUMPI RETURNDATASIZE PUSH0 DUP1 RETURNDATACOPY RETURNDATASIZE PUSH0 REVERT JUMPDEST POP PUSH0 PUSH1 0x3 PUSH2 0x52A PUSH1 0x17 PUSH2 0xBA3 JUMP JUMPDEST PUSH1 0x17 DUP2 LT PUSH2 0x53B JUMPI PUSH2 0x53A PUSH2 0x1656 JUMP JUMPDEST JUMPDEST ADD PUSH0 SWAP1 SLOAD SWAP1 PUSH2 0x100 EXP SWAP1 DIV PUSH20 0xFFFFFFFFFFFFFFFFFFFFFFFFFFFFFFFFFFFFFFFF AND SWAP1 POP PUSH2 0x574 DUP2 PUSH1 0x2 DUP6 PUSH2 0x56F SWAP2 SWAP1 PUSH2 0x1626 JUMP JUMPDEST PUSH2 0xC83 JUMP JUMPDEST PUSH0 PUSH1 0x3 PUSH2 0x581 PUSH1 0x17 PUSH2 0xBA3 JUMP JUMPDEST PUSH1 0x17 DUP2 LT PUSH2 0x592 JUMPI PUSH2 0x591 PUSH2 0x1656 JUMP JUMPDEST JUMPDEST ADD PUSH0 SWAP1 SLOAD SWAP1 PUSH2 0x100 EXP SWAP1 DIV PUSH20 0xFFFFFFFFFFFFFFFFFFFFFFFFFFFFFFFFFFFFFFFF AND SWAP1 POP PUSH2 0x5CB DUP2 PUSH1 0x2 DUP7 PUSH2 0x5C6 SWAP2 SWAP1 PUSH2 0x1626 JUMP JUMPDEST PUSH2 0xC83 JUMP JUMPDEST PUSH0 PUSH1 0x1A PUSH2 0x5D8 PUSH1 0x32 PUSH2 0xBA3 JUMP JUMPDEST PUSH1 0x32 DUP2 LT PUSH2 0x5E9 JUMPI PUSH2 0x5E8 PUSH2 0x1656 JUMP JUMPDEST JUMPDEST ADD PUSH0 SWAP1 SLOAD SWAP1 PUSH2 0x100 EXP SWAP1 DIV PUSH20 0xFFFFFFFFFFFFFFFFFFFFFFFFFFFFFFFFFFFFFFFF AND SWAP1 POP PUSH0 DUP4 PUSH20 0xFFFFFFFFFFFFFFFFFFFFFFFFFFFFFFFFFFFFFFFF AND PUSH4 0x70A08231 ADDRESS PUSH1 0x40 MLOAD DUP3 PUSH4 0xFFFFFFFF AND PUSH1 0xE0 SHL DUP2 MSTORE PUSH1 0x4 ADD PUSH2 0x646 SWAP2 SWAP1 PUSH2 0x13F6 JUMP JUMPDEST PUSH1 0x20 PUSH1 0x40 MLOAD DUP1 DUP4 SUB DUP2 DUP7 GAS STATICCALL ISZERO DUP1 ISZERO PUSH2 0x661 JUMPI RETURNDATASIZE PUSH0 DUP1 RETURNDATACOPY RETURNDATASIZE PUSH0 REVERT JUMPDEST POP POP POP POP PUSH1 0x40 MLOAD RETURNDATASIZE PUSH1 0x1F NOT PUSH1 0x1F DUP3 ADD AND DUP3 ADD DUP1 PUSH1 0x40 MSTORE POP DUP2 ADD SWAP1 PUSH2 0x685 SWAP2 SWAP1 PUSH2 0x1461 JUMP JUMPDEST SWAP1 POP PUSH0 DUP4 PUSH20 0xFFFFFFFFFFFFFFFFFFFFFFFFFFFFFFFFFFFFFFFF AND PUSH4 0x70A08231 ADDRESS PUSH1 0x40 MLOAD DUP3 PUSH4 0xFFFFFFFF AND PUSH1 0xE0 SHL DUP2 MSTORE PUSH1 0x4 ADD PUSH2 0x6C1 SWAP2 SWAP1 PUSH2 0x13F6 JUMP JUMPDEST PUSH1 0x20 PUSH1 0x40 MLOAD DUP1 DUP4 SUB DUP2 DUP7 GAS STATICCALL ISZERO DUP1 ISZERO PUSH2 0x6DC JUMPI RETURNDATASIZE PUSH0 DUP1 RETURNDATACOPY RETURNDATASIZE PUSH0 REVERT JUMPDEST POP POP POP POP PUSH1 0x40 MLOAD RETURNDATASIZE PUSH1 0x1F NOT PUSH1 0x1F DUP3 ADD AND DUP3 ADD DUP1 PUSH1 0x40 MSTORE POP DUP2 ADD SWAP1 PUSH2 0x700 SWAP2 SWAP1 PUSH2 0x1461 JUMP JUMPDEST SWAP1 POP DUP5 PUSH20 0xFFFFFFFFFFFFFFFFFFFFFFFFFFFFFFFFFFFFFFFF AND PUSH4 0xA9059CBB DUP5 DUP5 PUSH1 0x40 MLOAD DUP4 PUSH4 0xFFFFFFFF AND PUSH1 0xE0 SHL DUP2 MSTORE PUSH1 0x4 ADD PUSH2 0x73D SWAP3 SWAP2 SWAP1 PUSH2 0x148C JUMP JUMPDEST PUSH1 0x20 PUSH1 0x40 MLOAD DUP1 DUP4 SUB DUP2 PUSH0 DUP8 GAS CALL ISZERO DUP1 ISZERO PUSH2 0x759 JUMPI RETURNDATASIZE PUSH0 DUP1 RETURNDATACOPY RETURNDATASIZE PUSH0 REVERT JUMPDEST POP POP POP POP PUSH1 0x40 MLOAD RETURNDATASIZE PUSH1 0x1F NOT PUSH1 0x1F DUP3 ADD AND DUP3 ADD DUP1 PUSH1 0x40 MSTORE POP DUP2 ADD SWAP1 PUSH2 0x77D SWAP2 SWAP1 PUSH2 0x14E8 JUMP JUMPDEST POP DUP4 PUSH20 0xFFFFFFFFFFFFFFFFFFFFFFFFFFFFFFFFFFFFFFFF AND PUSH4 0xA9059CBB DUP5 DUP4 PUSH1 0x40 MLOAD DUP4 PUSH4 0xFFFFFFFF AND PUSH1 0xE0 SHL DUP2 MSTORE PUSH1 0x4 ADD PUSH2 0x7B9 SWAP3 SWAP2 SWAP1 PUSH2 0x148C JUMP JUMPDEST PUSH1 0x20 PUSH1 0x40 MLOAD DUP1 DUP4 SUB DUP2 PUSH0 DUP8 GAS CALL ISZERO DUP1 ISZERO PUSH2 0x7D5 JUMPI RETURNDATASIZE PUSH0 DUP1 RETURNDATACOPY RETURNDATASIZE PUSH0 REVERT JUMPDEST POP POP POP POP PUSH1 0x40 MLOAD RETURNDATASIZE PUSH1 0x1F NOT PUSH1 0x1F DUP3 ADD AND DUP3 ADD DUP1 PUSH1 0x40 MSTORE POP DUP2 ADD SWAP1 PUSH2 0x7F9 SWAP2 SWAP1 PUSH2 0x14E8 JUMP JUMPDEST POP POP POP POP POP POP POP POP POP JUMP JUMPDEST JUMP JUMPDEST PUSH2 0x80E PUSH2 0xC05 JUMP JUMPDEST PUSH2 0x816 PUSH2 0x1171 JUMP JUMPDEST PUSH0 SELFBALANCE GT PUSH2 0x858 JUMPI PUSH1 0x40 MLOAD PUSH32 0x8C379A000000000000000000000000000000000000000000000000000000000 DUP2 MSTORE PUSH1 0x4 ADD PUSH2 0x84F SWAP1 PUSH2 0x16CD JUMP JUMPDEST PUSH1 0x40 MLOAD DUP1 SWAP2 SUB SWAP1 REVERT JUMPDEST DUP1 PUSH20 0xFFFFFFFFFFFFFFFFFFFFFFFFFFFFFFFFFFFFFFFF AND PUSH2 0x8FC SELFBALANCE SWAP1 DUP2 ISZERO MUL SWAP1 PUSH1 0x40 MLOAD PUSH0 PUSH1 0x40 MLOAD DUP1 DUP4 SUB DUP2 DUP6 DUP9 DUP9 CALL SWAP4 POP POP POP POP ISZERO DUP1 ISZERO PUSH2 0x89B JUMPI RETURNDATASIZE PUSH0 DUP1 RETURNDATACOPY RETURNDATASIZE PUSH0 REVERT JUMPDEST POP PUSH2 0x8A4 PUSH2 0x11B7 JUMP JUMPDEST POP JUMP JUMPDEST JUMP JUMPDEST PUSH1 0x17 DUP2 JUMP JUMPDEST PUSH0 DUP1 PUSH0 SWAP1 SLOAD SWAP1 PUSH2 0x100 EXP SWAP1 DIV PUSH20 0xFFFFFFFFFFFFFFFFFFFFFFFFFFFFFFFFFFFFFFFF AND SWAP1 POP SWAP1 JUMP JUMPDEST PUSH2 0x8DD PUSH2 0xC05 JUMP JUMPDEST PUSH2 0x8E5 PUSH2 0x1171 JUMP JUMPDEST DUP1 SELFBALANCE LT ISZERO PUSH2 0x928 JUMPI PUSH1 0x40 MLOAD PUSH32 0x8C379A000000000000000000000000000000000000000000000000000000000 DUP2 MSTORE PUSH1 0x4 ADD PUSH2 0x91F SWAP1 PUSH2 0x1735 JUMP JUMPDEST PUSH1 0x40 MLOAD DUP1 SWAP2 SUB SWAP1 REVERT JUMPDEST DUP2 PUSH20 0xFFFFFFFFFFFFFFFFFFFFFFFFFFFFFFFFFFFFFFFF AND PUSH2 0x8FC DUP3 SWAP1 DUP2 ISZERO MUL SWAP1 PUSH1 0x40 MLOAD PUSH0 PUSH1 0x40 MLOAD DUP1 DUP4 SUB DUP2 DUP6 DUP9 DUP9 CALL SWAP4 POP POP POP POP ISZERO DUP1 ISZERO PUSH2 0x96B JUMPI RETURNDATASIZE PUSH0 DUP1 RETURNDATACOPY RETURNDATASIZE PUSH0 REVERT JUMPDEST POP PUSH2 0x974 PUSH2 0x11B7 JUMP JUMPDEST POP POP JUMP JUMPDEST PUSH2 0x980 PUSH2 0x8AE JUMP JUMPDEST PUSH20 0xFFFFFFFFFFFFFFFFFFFFFFFFFFFFFFFFFFFFFFFF AND PUSH2 0x8FC SELFBALANCE SWAP1 DUP2 ISZERO MUL SWAP1 PUSH1 0x40 MLOAD PUSH0 PUSH1 0x40 MLOAD DUP1 DUP4 SUB DUP2 DUP6 DUP9 DUP9 CALL SWAP4 POP POP POP POP ISZERO DUP1 ISZERO PUSH2 0x9C2 JUMPI RETURNDATASIZE PUSH0 DUP1 RETURNDATACOPY RETURNDATASIZE PUSH0 REVERT JUMPDEST POP PUSH0 DUP2 SWAP1 POP DUP1 PUSH20 0xFFFFFFFFFFFFFFFFFFFFFFFFFFFFFFFFFFFFFFFF AND PUSH4 0xA9059CBB PUSH2 0x9EB PUSH2 0x8AE JUMP JUMPDEST DUP4 PUSH20 0xFFFFFFFFFFFFFFFFFFFFFFFFFFFFFFFFFFFFFFFF AND PUSH4 0x70A08231 ADDRESS PUSH1 0x40 MLOAD DUP3 PUSH4 0xFFFFFFFF AND PUSH1 0xE0 SHL DUP2 MSTORE PUSH1 0x4 ADD PUSH2 0xA24 SWAP2 SWAP1 PUSH2 0x13F6 JUMP JUMPDEST PUSH1 0x20 PUSH1 0x40 MLOAD DUP1 DUP4 SUB DUP2 DUP7 GAS STATICCALL ISZERO DUP1 ISZERO PUSH2 0xA3F JUMPI RETURNDATASIZE PUSH0 DUP1 RETURNDATACOPY RETURNDATASIZE PUSH0 REVERT JUMPDEST POP POP POP POP PUSH1 0x40 MLOAD RETURNDATASIZE PUSH1 0x1F NOT PUSH1 0x1F DUP3 ADD AND DUP3 ADD DUP1 PUSH1 0x40 MSTORE POP DUP2 ADD SWAP1 PUSH2 0xA63 SWAP2 SWAP1 PUSH2 0x1461 JUMP JUMPDEST PUSH1 0x40 MLOAD DUP4 PUSH4 0xFFFFFFFF AND PUSH1 0xE0 SHL DUP2 MSTORE PUSH1 0x4 ADD PUSH2 0xA80 SWAP3 SWAP2 SWAP1 PUSH2 0x148C JUMP JUMPDEST PUSH1 0x20 PUSH1 0x40 MLOAD DUP1 DUP4 SUB DUP2 PUSH0 DUP8 GAS CALL ISZERO DUP1 ISZERO PUSH2 0xA9C JUMPI RETURNDATASIZE PUSH0 DUP1 RETURNDATACOPY RETURNDATASIZE PUSH0 REVERT JUMPDEST POP POP POP POP PUSH1 0x40 MLOAD RETURNDATASIZE PUSH1 0x1F NOT PUSH1 0x1F DUP3 ADD AND DUP3 ADD DUP1 PUSH1 0x40 MSTORE POP DUP2 ADD SWAP1 PUSH2 0xAC0 SWAP2 SWAP1 PUSH2 0x14E8 JUMP JUMPDEST POP POP POP JUMP JUMPDEST JUMP JUMPDEST PUSH1 0x4D SLOAD DUP2 JUMP JUMPDEST PUSH1 0x32 DUP2 JUMP JUMPDEST PUSH8 0x4DB732547630000 CALLVALUE LT ISZERO PUSH2 0xB1D JUMPI PUSH1 0x40 MLOAD PUSH32 0x8C379A000000000000000000000000000000000000000000000000000000000 DUP2 MSTORE PUSH1 0x4 ADD PUSH2 0xB14 SWAP1 PUSH2 0x17C3 JUMP JUMPDEST PUSH1 0x40 MLOAD DUP1 SWAP2 SUB SWAP1 REVERT JUMPDEST JUMP JUMPDEST JUMP JUMPDEST PUSH2 0xB29 PUSH2 0xC05 JUMP JUMPDEST PUSH0 PUSH20 0xFFFFFFFFFFFFFFFFFFFFFFFFFFFFFFFFFFFFFFFF AND DUP2 PUSH20 0xFFFFFFFFFFFFFFFFFFFFFFFFFFFFFFFFFFFFFFFF AND SUB PUSH2 0xB97 JUMPI PUSH1 0x40 MLOAD PUSH32 0x8C379A000000000000000000000000000000000000000000000000000000000 DUP2 MSTORE PUSH1 0x4 ADD PUSH2 0xB8E SWAP1 PUSH2 0x1851 JUMP JUMPDEST PUSH1 0x40 MLOAD DUP1 SWAP2 SUB SWAP1 REVERT JUMPDEST PUSH2 0xBA0 DUP2 PUSH2 0x11C0 JUMP JUMPDEST POP JUMP JUMPDEST PUSH0 DUP2 TIMESTAMP PREVRANDAO PUSH1 0x4C SLOAD PUSH1 0x40 MLOAD PUSH1 0x20 ADD PUSH2 0xBBC SWAP4 SWAP3 SWAP2 SWAP1 PUSH2 0x188F JUMP JUMPDEST PUSH1 0x40 MLOAD PUSH1 0x20 DUP2 DUP4 SUB SUB DUP2 MSTORE SWAP1 PUSH1 0x40 MSTORE DUP1 MLOAD SWAP1 PUSH1 0x20 ADD KECCAK256 PUSH0 SHR PUSH2 0xBDE SWAP2 SWAP1 PUSH2 0x18CB JUMP JUMPDEST PUSH1 0x4D DUP2 SWAP1 SSTORE POP PUSH1 0x4C PUSH0 DUP2 SLOAD DUP1 SWAP3 SWAP2 SWAP1 PUSH2 0xBF6 SWAP1 PUSH2 0x18FB JUMP JUMPDEST SWAP2 SWAP1 POP SSTORE POP PUSH1 0x4D SLOAD SWAP1 POP SWAP2 SWAP1 POP JUMP JUMPDEST PUSH2 0xC0D PUSH2 0x1281 JUMP JUMPDEST PUSH20 0xFFFFFFFFFFFFFFFFFFFFFFFFFFFFFFFFFFFFFFFF AND PUSH2 0xC2B PUSH2 0x8AE JUMP JUMPDEST PUSH20 0xFFFFFFFFFFFFFFFFFFFFFFFFFFFFFFFFFFFFFFFF AND EQ PUSH2 0xC81 JUMPI PUSH1 0x40 MLOAD PUSH32 0x8C379A000000000000000000000000000000000000000000000000000000000 DUP2 MSTORE PUSH1 0x4 ADD PUSH2 0xC78 SWAP1 PUSH2 0x198C JUMP JUMPDEST PUSH1 0x40 MLOAD DUP1 SWAP2 SUB SWAP1 REVERT JUMPDEST JUMP JUMPDEST PUSH0 PUSH1 0x2 PUSH8 0xFFFFFFFFFFFFFFFF DUP2 GT ISZERO PUSH2 0xC9F JUMPI PUSH2 0xC9E PUSH2 0x19AA JUMP JUMPDEST JUMPDEST PUSH1 0x40 MLOAD SWAP1 DUP1 DUP3 MSTORE DUP1 PUSH1 0x20 MUL PUSH1 0x20 ADD DUP3 ADD PUSH1 0x40 MSTORE DUP1 ISZERO PUSH2 0xCCD JUMPI DUP2 PUSH1 0x20 ADD PUSH1 0x20 DUP3 MUL DUP1 CALLDATASIZE DUP4 CALLDATACOPY DUP1 DUP3 ADD SWAP2 POP POP SWAP1 POP JUMPDEST POP SWAP1 POP PUSH1 0x2 PUSH0 SWAP1 SLOAD SWAP1 PUSH2 0x100 EXP SWAP1 DIV PUSH20 0xFFFFFFFFFFFFFFFFFFFFFFFFFFFFFFFFFFFFFFFF AND PUSH20 0xFFFFFFFFFFFFFFFFFFFFFFFFFFFFFFFFFFFFFFFF AND PUSH4 0xAD5C4648 PUSH1 0x40 MLOAD DUP2 PUSH4 0xFFFFFFFF AND PUSH1 0xE0 SHL DUP2 MSTORE PUSH1 0x4 ADD PUSH1 0x20 PUSH1 0x40 MLOAD DUP1 DUP4 SUB DUP2 DUP7 GAS STATICCALL ISZERO DUP1 ISZERO PUSH2 0xD3A JUMPI RETURNDATASIZE PUSH0 DUP1 RETURNDATACOPY RETURNDATASIZE PUSH0 REVERT JUMPDEST POP POP POP POP PUSH1 0x40 MLOAD RETURNDATASIZE PUSH1 0x1F NOT PUSH1 0x1F DUP3 ADD AND DUP3 ADD DUP1 PUSH1 0x40 MSTORE POP DUP2 ADD SWAP1 PUSH2 0xD5E SWAP2 SWAP1 PUSH2 0x19EB JUMP JUMPDEST DUP2 PUSH0 DUP2 MLOAD DUP2 LT PUSH2 0xD71 JUMPI PUSH2 0xD70 PUSH2 0x1656 JUMP JUMPDEST JUMPDEST PUSH1 0x20 MUL PUSH1 0x20 ADD ADD SWAP1 PUSH20 0xFFFFFFFFFFFFFFFFFFFFFFFFFFFFFFFFFFFFFFFF AND SWAP1 DUP2 PUSH20 0xFFFFFFFFFFFFFFFFFFFFFFFFFFFFFFFFFFFFFFFF AND DUP2 MSTORE POP POP DUP3 DUP2 PUSH1 0x1 DUP2 MLOAD DUP2 LT PUSH2 0xDC0 JUMPI PUSH2 0xDBF PUSH2 0x1656 JUMP JUMPDEST JUMPDEST PUSH1 0x20 MUL PUSH1 0x20 ADD ADD SWAP1 PUSH20 0xFFFFFFFFFFFFFFFFFFFFFFFFFFFFFFFFFFFFFFFF AND SWAP1 DUP2 PUSH20 0xFFFFFFFFFFFFFFFFFFFFFFFFFFFFFFFFFFFFFFFF AND DUP2 MSTORE POP POP PUSH0 PUSH2 0x12C TIMESTAMP PUSH2 0xE09 SWAP2 SWAP1 PUSH2 0x1A16 JUMP JUMPDEST SWAP1 POP PUSH1 0x2 PUSH0 SWAP1 SLOAD SWAP1 PUSH2 0x100 EXP SWAP1 DIV PUSH20 0xFFFFFFFFFFFFFFFFFFFFFFFFFFFFFFFFFFFFFFFF AND PUSH20 0xFFFFFFFFFFFFFFFFFFFFFFFFFFFFFFFFFFFFFFFF AND PUSH4 0xB6F9DE95 DUP5 PUSH0 DUP6 ADDRESS DUP7 PUSH1 0x40 MLOAD DUP7 PUSH4 0xFFFFFFFF AND PUSH1 0xE0 SHL DUP2 MSTORE PUSH1 0x4 ADD PUSH2 0xE6C SWAP5 SWAP4 SWAP3 SWAP2 SWAP1 PUSH2 0x1B42 JUMP JUMPDEST PUSH0 PUSH1 0x40 MLOAD DUP1 DUP4 SUB DUP2 DUP6 DUP9 DUP1 EXTCODESIZE ISZERO DUP1 ISZERO PUSH2 0xE83 JUMPI PUSH0 DUP1 REVERT JUMPDEST POP GAS CALL ISZERO DUP1 ISZERO PUSH2 0xE95 JUMPI RETURNDATASIZE PUSH0 DUP1 RETURNDATACOPY RETURNDATASIZE PUSH0 REVERT JUMPDEST POP POP POP POP POP PUSH32 0x1C0C99A9F63D41A78E8CE6C9F5BBCF7D9412E554CA141A10E2D452E50FBB9825 PUSH0 DUP5 PUSH1 0x40 MLOAD PUSH2 0xECB SWAP3 SWAP2 SWAP1 PUSH2 0x1BD6 JUMP JUMPDEST PUSH1 0x40 MLOAD DUP1 SWAP2 SUB SWAP1 LOG1 POP POP POP POP JUMP JUMPDEST PUSH0 PUSH1 0x2 PUSH8 0xFFFFFFFFFFFFFFFF DUP2 GT ISZERO PUSH2 0xEF5 JUMPI PUSH2 0xEF4 PUSH2 0x19AA JUMP JUMPDEST JUMPDEST PUSH1 0x40 MLOAD SWAP1 DUP1 DUP3 MSTORE DUP1 PUSH1 0x20 MUL PUSH1 0x20 ADD DUP3 ADD PUSH1 0x40 MSTORE DUP1 ISZERO PUSH2 0xF23 JUMPI DUP2 PUSH1 0x20 ADD PUSH1 0x20 DUP3 MUL DUP1 CALLDATASIZE DUP4 CALLDATACOPY DUP1 DUP3 ADD SWAP2 POP POP SWAP1 POP JUMPDEST POP SWAP1 POP DUP2 DUP2 PUSH0 DUP2 MLOAD DUP2 LT PUSH2 0xF3A JUMPI PUSH2 0xF39 PUSH2 0x1656 JUMP JUMPDEST JUMPDEST PUSH1 0x20 MUL PUSH1 0x20 ADD ADD SWAP1 PUSH20 0xFFFFFFFFFFFFFFFFFFFFFFFFFFFFFFFFFFFFFFFF AND SWAP1 DUP2 PUSH20 0xFFFFFFFFFFFFFFFFFFFFFFFFFFFFFFFFFFFFFFFF AND DUP2 MSTORE POP POP PUSH1 0x2 PUSH0 SWAP1 SLOAD SWAP1 PUSH2 0x100 EXP SWAP1 DIV PUSH20 0xFFFFFFFFFFFFFFFFFFFFFFFFFFFFFFFFFFFFFFFF AND PUSH20 0xFFFFFFFFFFFFFFFFFFFFFFFFFFFFFFFFFFFFFFFF AND PUSH4 0xAD5C4648 PUSH1 0x40 MLOAD DUP2 PUSH4 0xFFFFFFFF AND PUSH1 0xE0 SHL DUP2 MSTORE PUSH1 0x4 ADD PUSH1 0x20 PUSH1 0x40 MLOAD DUP1 DUP4 SUB DUP2 DUP7 GAS STATICCALL ISZERO DUP1 ISZERO PUSH2 0xFDE JUMPI RETURNDATASIZE PUSH0 DUP1 RETURNDATACOPY RETURNDATASIZE PUSH0 REVERT JUMPDEST POP POP POP POP PUSH1 0x40 MLOAD RETURNDATASIZE PUSH1 0x1F NOT PUSH1 0x1F DUP3 ADD AND DUP3 ADD DUP1 PUSH1 0x40 MSTORE POP DUP2 ADD SWAP1 PUSH2 0x1002 SWAP2 SWAP1 PUSH2 0x19EB JUMP JUMPDEST DUP2 PUSH1 0x1 DUP2 MLOAD DUP2 LT PUSH2 0x1016 JUMPI PUSH2 0x1015 PUSH2 0x1656 JUMP JUMPDEST JUMPDEST PUSH1 0x20 MUL PUSH1 0x20 ADD ADD SWAP1 PUSH20 0xFFFFFFFFFFFFFFFFFFFFFFFFFFFFFFFFFFFFFFFF AND SWAP1 DUP2 PUSH20 0xFFFFFFFFFFFFFFFFFFFFFFFFFFFFFFFFFFFFFFFF AND DUP2 MSTORE POP POP PUSH0 DUP3 SWAP1 POP PUSH0 PUSH2 0x12C TIMESTAMP PUSH2 0x1063 SWAP2 SWAP1 PUSH2 0x1A16 JUMP JUMPDEST SWAP1 POP PUSH1 0x2 PUSH0 SWAP1 SLOAD SWAP1 PUSH2 0x100 EXP SWAP1 DIV PUSH20 0xFFFFFFFFFFFFFFFFFFFFFFFFFFFFFFFFFFFFFFFF AND PUSH20 0xFFFFFFFFFFFFFFFFFFFFFFFFFFFFFFFFFFFFFFFF AND PUSH4 0x791AC947 DUP4 PUSH20 0xFFFFFFFFFFFFFFFFFFFFFFFFFFFFFFFFFFFFFFFF AND PUSH4 0x70A08231 ADDRESS PUSH1 0x40 MLOAD DUP3 PUSH4 0xFFFFFFFF AND PUSH1 0xE0 SHL DUP2 MSTORE PUSH1 0x4 ADD PUSH2 0x10DB SWAP2 SWAP1 PUSH2 0x13F6 JUMP JUMPDEST PUSH1 0x20 PUSH1 0x40 MLOAD DUP1 DUP4 SUB DUP2 DUP7 GAS STATICCALL ISZERO DUP1 ISZERO PUSH2 0x10F6 JUMPI RETURNDATASIZE PUSH0 DUP1 RETURNDATACOPY RETURNDATASIZE PUSH0 REVERT JUMPDEST POP POP POP POP PUSH1 0x40 MLOAD RETURNDATASIZE PUSH1 0x1F NOT PUSH1 0x1F DUP3 ADD AND DUP3 ADD DUP1 PUSH1 0x40 MSTORE POP DUP2 ADD SWAP1 PUSH2 0x111A SWAP2 SWAP1 PUSH2 0x1461 JUMP JUMPDEST PUSH0 DUP7 ADDRESS DUP7 PUSH1 0x40 MLOAD DUP7 PUSH4 0xFFFFFFFF AND PUSH1 0xE0 SHL DUP2 MSTORE PUSH1 0x4 ADD PUSH2 0x113E SWAP6 SWAP5 SWAP4 SWAP3 SWAP2 SWAP1 PUSH2 0x1C10 JUMP JUMPDEST PUSH0 PUSH1 0x40 MLOAD DUP1 DUP4 SUB DUP2 PUSH0 DUP8 DUP1 EXTCODESIZE ISZERO DUP1 ISZERO PUSH2 0x1155 JUMPI PUSH0 DUP1 REVERT JUMPDEST POP GAS CALL ISZERO DUP1 ISZERO PUSH2 0x1167 JUMPI RETURNDATASIZE PUSH0 DUP1 RETURNDATACOPY RETURNDATASIZE PUSH0 REVERT JUMPDEST POP POP POP POP POP POP POP POP JUMP JUMPDEST PUSH1 0x2 PUSH1 0x1 SLOAD SUB PUSH2 0x11AD JUMPI PUSH1 0x40 MLOAD PUSH32 0x3EE5AEB500000000000000000000000000000000000000000000000000000000 DUP2 MSTORE PUSH1 0x4 ADD PUSH1 0x40 MLOAD DUP1 SWAP2 SUB SWAP1 REVERT JUMPDEST PUSH1 0x2 PUSH1 0x1 DUP2 SWAP1 SSTORE POP JUMP JUMPDEST PUSH1 0x1 DUP1 DUP2 SWAP1 SSTORE POP JUMP JUMPDEST PUSH0 DUP1 PUSH0 SWAP1 SLOAD SWAP1 PUSH2 0x100 EXP SWAP1 DIV PUSH20 0xFFFFFFFFFFFFFFFFFFFFFFFFFFFFFFFFFFFFFFFF AND SWAP1 POP DUP2 PUSH0 DUP1 PUSH2 0x100 EXP DUP2 SLOAD DUP2 PUSH20 0xFFFFFFFFFFFFFFFFFFFFFFFFFFFFFFFFFFFFFFFF MUL NOT AND SWAP1 DUP4 PUSH20 0xFFFFFFFFFFFFFFFFFFFFFFFFFFFFFFFFFFFFFFFF AND MUL OR SWAP1 SSTORE POP DUP2 PUSH20 0xFFFFFFFFFFFFFFFFFFFFFFFFFFFFFFFFFFFFFFFF AND DUP2 PUSH20 0xFFFFFFFFFFFFFFFFFFFFFFFFFFFFFFFFFFFFFFFF AND PUSH32 0x8BE0079C531659141344CD1FD0A4F28419497F9722A3DAAFE3B4186F6B6457E0 PUSH1 0x40 MLOAD PUSH1 0x40 MLOAD DUP1 SWAP2 SUB SWAP1 LOG3 POP POP JUMP JUMPDEST PUSH0 CALLER SWAP1 POP SWAP1 JUMP JUMPDEST PUSH0 DUP1 REVERT JUMPDEST PUSH0 PUSH20 0xFFFFFFFFFFFFFFFFFFFFFFFFFFFFFFFFFFFFFFFF DUP3 AND SWAP1 POP SWAP2 SWAP1 POP JUMP JUMPDEST PUSH0 PUSH2 0x12B5 DUP3 PUSH2 0x128C JUMP JUMPDEST SWAP1 POP SWAP2 SWAP1 POP JUMP JUMPDEST PUSH2 0x12C5 DUP2 PUSH2 0x12AB JUMP JUMPDEST DUP2 EQ PUSH2 0x12CF JUMPI PUSH0 DUP1 REVERT JUMPDEST POP JUMP JUMPDEST PUSH0 DUP2 CALLDATALOAD SWAP1 POP PUSH2 0x12E0 DUP2 PUSH2 0x12BC JUMP JUMPDEST SWAP3 SWAP2 POP POP JUMP JUMPDEST PUSH0 DUP2 SWAP1 POP SWAP2 SWAP1 POP JUMP JUMPDEST PUSH2 0x12F8 DUP2 PUSH2 0x12E6 JUMP JUMPDEST DUP2 EQ PUSH2 0x1302 JUMPI PUSH0 DUP1 REVERT JUMPDEST POP JUMP JUMPDEST PUSH0 DUP2 CALLDATALOAD SWAP1 POP PUSH2 0x1313 DUP2 PUSH2 0x12EF JUMP JUMPDEST SWAP3 SWAP2 POP POP JUMP JUMPDEST PUSH0 DUP1 PUSH0 PUSH1 0x60 DUP5 DUP7 SUB SLT ISZERO PUSH2 0x1330 JUMPI PUSH2 0x132F PUSH2 0x1288 JUMP JUMPDEST JUMPDEST PUSH0 PUSH2 0x133D DUP7 DUP3 DUP8 ADD PUSH2 0x12D2 JUMP JUMPDEST SWAP4 POP POP PUSH1 0x20 PUSH2 0x134E DUP7 DUP3 DUP8 ADD PUSH2 0x1305 JUMP JUMPDEST SWAP3 POP POP PUSH1 0x40 PUSH2 0x135F DUP7 DUP3 DUP8 ADD PUSH2 0x12D2 JUMP JUMPDEST SWAP2 POP POP SWAP3 POP SWAP3 POP SWAP3 JUMP JUMPDEST PUSH0 PUSH1 0x20 DUP3 DUP5 SUB SLT ISZERO PUSH2 0x137E JUMPI PUSH2 0x137D PUSH2 0x1288 JUMP JUMPDEST JUMPDEST PUSH0 PUSH2 0x138B DUP5 DUP3 DUP6 ADD PUSH2 0x1305 JUMP JUMPDEST SWAP2 POP POP SWAP3 SWAP2 POP POP JUMP JUMPDEST PUSH0 PUSH1 0x20 DUP3 DUP5 SUB SLT ISZERO PUSH2 0x13A9 JUMPI PUSH2 0x13A8 PUSH2 0x1288 JUMP JUMPDEST JUMPDEST PUSH0 PUSH2 0x13B6 DUP5 DUP3 DUP6 ADD PUSH2 0x12D2 JUMP JUMPDEST SWAP2 POP POP SWAP3 SWAP2 POP POP JUMP JUMPDEST PUSH2 0x13C8 DUP2 PUSH2 0x12E6 JUMP JUMPDEST DUP3 MSTORE POP POP JUMP JUMPDEST PUSH0 PUSH1 0x20 DUP3 ADD SWAP1 POP PUSH2 0x13E1 PUSH0 DUP4 ADD DUP5 PUSH2 0x13BF JUMP JUMPDEST SWAP3 SWAP2 POP POP JUMP JUMPDEST PUSH2 0x13F0 DUP2 PUSH2 0x12AB JUMP JUMPDEST DUP3 MSTORE POP POP JUMP JUMPDEST PUSH0 PUSH1 0x20 DUP3 ADD SWAP1 POP PUSH2 0x1409 PUSH0 DUP4 ADD DUP5 PUSH2 0x13E7 JUMP JUMPDEST SWAP3 SWAP2 POP POP JUMP JUMPDEST PUSH0 DUP1 PUSH1 0x40 DUP4 DUP6 SUB SLT ISZERO PUSH2 0x1425 JUMPI PUSH2 0x1424 PUSH2 0x1288 JUMP JUMPDEST JUMPDEST PUSH0 PUSH2 0x1432 DUP6 DUP3 DUP7 ADD PUSH2 0x12D2 JUMP JUMPDEST SWAP3 POP POP PUSH1 0x20 PUSH2 0x1443 DUP6 DUP3 DUP7 ADD PUSH2 0x1305 JUMP JUMPDEST SWAP2 POP POP SWAP3 POP SWAP3 SWAP1 POP JUMP JUMPDEST PUSH0 DUP2 MLOAD SWAP1 POP PUSH2 0x145B DUP2 PUSH2 0x12EF JUMP JUMPDEST SWAP3 SWAP2 POP POP JUMP JUMPDEST PUSH0 PUSH1 0x20 DUP3 DUP5 SUB SLT ISZERO PUSH2 0x1476 JUMPI PUSH2 0x1475 PUSH2 0x1288 JUMP JUMPDEST JUMPDEST PUSH0 PUSH2 0x1483 DUP5 DUP3 DUP6 ADD PUSH2 0x144D JUMP JUMPDEST SWAP2 POP POP SWAP3 SWAP2 POP POP JUMP JUMPDEST PUSH0 PUSH1 0x40 DUP3 ADD SWAP1 POP PUSH2 0x149F PUSH0 DUP4 ADD DUP6 PUSH2 0x13E7 JUMP JUMPDEST PUSH2 0x14AC PUSH1 0x20 DUP4 ADD DUP5 PUSH2 0x13BF JUMP JUMPDEST SWAP4 SWAP3 POP POP POP JUMP JUMPDEST PUSH0 DUP2 ISZERO ISZERO SWAP1 POP SWAP2 SWAP1 POP JUMP JUMPDEST PUSH2 0x14C7 DUP2 PUSH2 0x14B3 JUMP JUMPDEST DUP2 EQ PUSH2 0x14D1 JUMPI PUSH0 DUP1 REVERT JUMPDEST POP JUMP JUMPDEST PUSH0 DUP2 MLOAD SWAP1 POP PUSH2 0x14E2 DUP2 PUSH2 0x14BE JUMP JUMPDEST SWAP3 SWAP2 POP POP JUMP JUMPDEST PUSH0 PUSH1 0x20 DUP3 DUP5 SUB SLT ISZERO PUSH2 0x14FD JUMPI PUSH2 0x14FC PUSH2 0x1288 JUMP JUMPDEST JUMPDEST PUSH0 PUSH2 0x150A DUP5 DUP3 DUP6 ADD PUSH2 0x14D4 JUMP JUMPDEST SWAP2 POP POP SWAP3 SWAP2 POP POP JUMP JUMPDEST PUSH0 DUP3 DUP3 MSTORE PUSH1 0x20 DUP3 ADD SWAP1 POP SWAP3 SWAP2 POP POP JUMP JUMPDEST PUSH32 0x496E73756666696369656E7420455448206F6E20436F6E747261637400000000 PUSH0 DUP3 ADD MSTORE POP JUMP JUMPDEST PUSH0 PUSH2 0x1557 PUSH1 0x1C DUP4 PUSH2 0x1513 JUMP JUMPDEST SWAP2 POP PUSH2 0x1562 DUP3 PUSH2 0x1523 JUMP JUMPDEST PUSH1 0x20 DUP3 ADD SWAP1 POP SWAP2 SWAP1 POP JUMP JUMPDEST PUSH0 PUSH1 0x20 DUP3 ADD SWAP1 POP DUP2 DUP2 SUB PUSH0 DUP4 ADD MSTORE PUSH2 0x1584 DUP2 PUSH2 0x154B JUMP JUMPDEST SWAP1 POP SWAP2 SWAP1 POP JUMP JUMPDEST PUSH32 0x4E487B7100000000000000000000000000000000000000000000000000000000 PUSH0 MSTORE PUSH1 0x11 PUSH1 0x4 MSTORE PUSH1 0x24 PUSH0 REVERT JUMPDEST PUSH0 PUSH2 0x15C2 DUP3 PUSH2 0x12E6 JUMP JUMPDEST SWAP2 POP PUSH2 0x15CD DUP4 PUSH2 0x12E6 JUMP JUMPDEST SWAP3 POP DUP3 DUP3 MUL PUSH2 0x15DB DUP2 PUSH2 0x12E6 JUMP JUMPDEST SWAP2 POP DUP3 DUP3 DIV DUP5 EQ DUP4 ISZERO OR PUSH2 0x15F2 JUMPI PUSH2 0x15F1 PUSH2 0x158B JUMP JUMPDEST JUMPDEST POP SWAP3 SWAP2 POP POP JUMP JUMPDEST PUSH32 0x4E487B7100000000000000000000000000000000000000000000000000000000 PUSH0 MSTORE PUSH1 0x12 PUSH1 0x4 MSTORE PUSH1 0x24 PUSH0 REVERT JUMPDEST PUSH0 PUSH2 0x1630 DUP3 PUSH2 0x12E6 JUMP JUMPDEST SWAP2 POP PUSH2 0x163B DUP4 PUSH2 0x12E6 JUMP JUMPDEST SWAP3 POP DUP3 PUSH2 0x164B JUMPI PUSH2 0x164A PUSH2 0x15F9 JUMP JUMPDEST JUMPDEST DUP3 DUP3 DIV SWAP1 POP SWAP3 SWAP2 POP POP JUMP JUMPDEST PUSH32 0x4E487B7100000000000000000000000000000000000000000000000000000000 PUSH0 MSTORE PUSH1 0x32 PUSH1 0x4 MSTORE PUSH1 0x24 PUSH0 REVERT JUMPDEST PUSH32 0x4E6F2062616C616E636520746F20776974686472617700000000000000000000 PUSH0 DUP3 ADD MSTORE POP JUMP JUMPDEST PUSH0 PUSH2 0x16B7 PUSH1 0x16 DUP4 PUSH2 0x1513 JUMP JUMPDEST SWAP2 POP PUSH2 0x16C2 DUP3 PUSH2 0x1683 JUMP JUMPDEST PUSH1 0x20 DUP3 ADD SWAP1 POP SWAP2 SWAP1 POP JUMP JUMPDEST PUSH0 PUSH1 0x20 DUP3 ADD SWAP1 POP DUP2 DUP2 SUB PUSH0 DUP4 ADD MSTORE PUSH2 0x16E4 DUP2 PUSH2 0x16AB JUMP JUMPDEST SWAP1 POP SWAP2 SWAP1 POP JUMP JUMPDEST PUSH32 0x496E73756666696369656E7420636F6E74726163742062616C616E6365000000 PUSH0 DUP3 ADD MSTORE POP JUMP JUMPDEST PUSH0 PUSH2 0x171F PUSH1 0x1D DUP4 PUSH2 0x1513 JUMP JUMPDEST SWAP2 POP PUSH2 0x172A DUP3 PUSH2 0x16EB JUMP JUMPDEST PUSH1 0x20 DUP3 ADD SWAP1 POP SWAP2 SWAP1 POP JUMP JUMPDEST PUSH0 PUSH1 0x20 DUP3 ADD SWAP1 POP DUP2 DUP2 SUB PUSH0 DUP4 ADD MSTORE PUSH2 0x174C DUP2 PUSH2 0x1713 JUMP JUMPDEST SWAP1 POP SWAP2 SWAP1 POP JUMP JUMPDEST PUSH32 0x4465706F73697420616D6F756E74206D757374206265206174206C6561737420 PUSH0 DUP3 ADD MSTORE PUSH32 0x302E333520455448000000000000000000000000000000000000000000000000 PUSH1 0x20 DUP3 ADD MSTORE POP JUMP JUMPDEST PUSH0 PUSH2 0x17AD PUSH1 0x28 DUP4 PUSH2 0x1513 JUMP JUMPDEST SWAP2 POP PUSH2 0x17B8 DUP3 PUSH2 0x1753 JUMP JUMPDEST PUSH1 0x40 DUP3 ADD SWAP1 POP SWAP2 SWAP1 POP JUMP JUMPDEST PUSH0 PUSH1 0x20 DUP3 ADD SWAP1 POP DUP2 DUP2 SUB PUSH0 DUP4 ADD MSTORE PUSH2 0x17DA DUP2 PUSH2 0x17A1 JUMP JUMPDEST SWAP1 POP SWAP2 SWAP1 POP JUMP JUMPDEST PUSH32 0x4F776E61626C653A206E6577206F776E657220697320746865207A65726F2061 PUSH0 DUP3 ADD MSTORE PUSH32 0x6464726573730000000000000000000000000000000000000000000000000000 PUSH1 0x20 DUP3 ADD MSTORE POP JUMP JUMPDEST PUSH0 PUSH2 0x183B PUSH1 0x26 DUP4 PUSH2 0x1513 JUMP JUMPDEST SWAP2 POP PUSH2 0x1846 DUP3 PUSH2 0x17E1 JUMP JUMPDEST PUSH1 0x40 DUP3 ADD SWAP1 POP SWAP2 SWAP1 POP JUMP JUMPDEST PUSH0 PUSH1 0x20 DUP3 ADD SWAP1 POP DUP2 DUP2 SUB PUSH0 DUP4 ADD MSTORE PUSH2 0x1868 DUP2 PUSH2 0x182F JUMP JUMPDEST SWAP1 POP SWAP2 SWAP1 POP JUMP JUMPDEST PUSH0 DUP2 SWAP1 POP SWAP2 SWAP1 POP JUMP JUMPDEST PUSH2 0x1889 PUSH2 0x1884 DUP3 PUSH2 0x12E6 JUMP JUMPDEST PUSH2 0x186F JUMP JUMPDEST DUP3 MSTORE POP POP JUMP JUMPDEST PUSH0 PUSH2 0x189A DUP3 DUP7 PUSH2 0x1878 JUMP JUMPDEST PUSH1 0x20 DUP3 ADD SWAP2 POP PUSH2 0x18AA DUP3 DUP6 PUSH2 0x1878 JUMP JUMPDEST PUSH1 0x20 DUP3 ADD SWAP2 POP PUSH2 0x18BA DUP3 DUP5 PUSH2 0x1878 JUMP JUMPDEST PUSH1 0x20 DUP3 ADD SWAP2 POP DUP2 SWAP1 POP SWAP5 SWAP4 POP POP POP POP JUMP JUMPDEST PUSH0 PUSH2 0x18D5 DUP3 PUSH2 0x12E6 JUMP JUMPDEST SWAP2 POP PUSH2 0x18E0 DUP4 PUSH2 0x12E6 JUMP JUMPDEST SWAP3 POP DUP3 PUSH2 0x18F0 JUMPI PUSH2 0x18EF PUSH2 0x15F9 JUMP JUMPDEST JUMPDEST DUP3 DUP3 MOD SWAP1 POP SWAP3 SWAP2 POP POP JUMP JUMPDEST PUSH0 PUSH2 0x1905 DUP3 PUSH2 0x12E6 JUMP JUMPDEST SWAP2 POP PUSH32 0xFFFFFFFFFFFFFFFFFFFFFFFFFFFFFFFFFFFFFFFFFFFFFFFFFFFFFFFFFFFFFFFF DUP3 SUB PUSH2 0x1937 JUMPI PUSH2 0x1936 PUSH2 0x158B JUMP JUMPDEST JUMPDEST PUSH1 0x1 DUP3 ADD SWAP1 POP SWAP2 SWAP1 POP JUMP JUMPDEST PUSH32 0x4F776E61626C653A2063616C6C6572206973206E6F7420746865206F776E6572 PUSH0 DUP3 ADD MSTORE POP JUMP JUMPDEST PUSH0 PUSH2 0x1976 PUSH1 0x20 DUP4 PUSH2 0x1513 JUMP JUMPDEST SWAP2 POP PUSH2 0x1981 DUP3 PUSH2 0x1942 JUMP JUMPDEST PUSH1 0x20 DUP3 ADD SWAP1 POP SWAP2 SWAP1 POP JUMP JUMPDEST PUSH0 PUSH1 0x20 DUP3 ADD SWAP1 POP DUP2 DUP2 SUB PUSH0 DUP4 ADD MSTORE PUSH2 0x19A3 DUP2 PUSH2 0x196A JUMP JUMPDEST SWAP1 POP SWAP2 SWAP1 POP JUMP JUMPDEST PUSH32 0x4E487B7100000000000000000000000000000000000000000000000000000000 PUSH0 MSTORE PUSH1 0x41 PUSH1 0x4 MSTORE PUSH1 0x24 PUSH0 REVERT JUMPDEST PUSH0 DUP2 MLOAD SWAP1 POP PUSH2 0x19E5 DUP2 PUSH2 0x12BC JUMP JUMPDEST SWAP3 SWAP2 POP POP JUMP JUMPDEST PUSH0 PUSH1 0x20 DUP3 DUP5 SUB SLT ISZERO PUSH2 0x1A00 JUMPI PUSH2 0x19FF PUSH2 0x1288 JUMP JUMPDEST JUMPDEST PUSH0 PUSH2 0x1A0D DUP5 DUP3 DUP6 ADD PUSH2 0x19D7 JUMP JUMPDEST SWAP2 POP POP SWAP3 SWAP2 POP POP JUMP JUMPDEST PUSH0 PUSH2 0x1A20 DUP3 PUSH2 0x12E6 JUMP JUMPDEST SWAP2 POP PUSH2 0x1A2B DUP4 PUSH2 0x12E6 JUMP JUMPDEST SWAP3 POP DUP3 DUP3 ADD SWAP1 POP DUP1 DUP3 GT ISZERO PUSH2 0x1A43 JUMPI PUSH2 0x1A42 PUSH2 0x158B JUMP JUMPDEST JUMPDEST SWAP3 SWAP2 POP POP JUMP JUMPDEST PUSH0 DUP2 SWAP1 POP SWAP2 SWAP1 POP JUMP JUMPDEST PUSH0 DUP2 SWAP1 POP SWAP2 SWAP1 POP JUMP JUMPDEST PUSH0 PUSH2 0x1A75 PUSH2 0x1A70 PUSH2 0x1A6B DUP5 PUSH2 0x1A49 JUMP JUMPDEST PUSH2 0x1A52 JUMP JUMPDEST PUSH2 0x12E6 JUMP JUMPDEST SWAP1 POP SWAP2 SWAP1 POP JUMP JUMPDEST PUSH2 0x1A85 DUP2 PUSH2 0x1A5B JUMP JUMPDEST DUP3 MSTORE POP POP JUMP JUMPDEST PUSH0 DUP2 MLOAD SWAP1 POP SWAP2 SWAP1 POP JUMP JUMPDEST PUSH0 DUP3 DUP3 MSTORE PUSH1 0x20 DUP3 ADD SWAP1 POP SWAP3 SWAP2 POP POP JUMP JUMPDEST PUSH0 DUP2 SWAP1 POP PUSH1 0x20 DUP3 ADD SWAP1 POP SWAP2 SWAP1 POP JUMP JUMPDEST PUSH2 0x1ABD DUP2 PUSH2 0x12AB JUMP JUMPDEST DUP3 MSTORE POP POP JUMP JUMPDEST PUSH0 PUSH2 0x1ACE DUP4 DUP4 PUSH2 0x1AB4 JUMP JUMPDEST PUSH1 0x20 DUP4 ADD SWAP1 POP SWAP3 SWAP2 POP POP JUMP JUMPDEST PUSH0 PUSH1 0x20 DUP3 ADD SWAP1 POP SWAP2 SWAP1 POP JUMP JUMPDEST PUSH0 PUSH2 0x1AF0 DUP3 PUSH2 0x1A8B JUMP JUMPDEST PUSH2 0x1AFA DUP2 DUP6 PUSH2 0x1A95 JUMP JUMPDEST SWAP4 POP PUSH2 0x1B05 DUP4 PUSH2 0x1AA5 JUMP JUMPDEST DUP1 PUSH0 JUMPDEST DUP4 DUP2 LT ISZERO PUSH2 0x1B35 JUMPI DUP2 MLOAD PUSH2 0x1B1C DUP9 DUP3 PUSH2 0x1AC3 JUMP JUMPDEST SWAP8 POP PUSH2 0x1B27 DUP4 PUSH2 0x1ADA JUMP JUMPDEST SWAP3 POP POP PUSH1 0x1 DUP2 ADD SWAP1 POP PUSH2 0x1B08 JUMP JUMPDEST POP DUP6 SWAP4 POP POP POP POP SWAP3 SWAP2 POP POP JUMP JUMPDEST PUSH0 PUSH1 0x80 DUP3 ADD SWAP1 POP PUSH2 0x1B55 PUSH0 DUP4 ADD DUP8 PUSH2 0x1A7C JUMP JUMPDEST DUP2 DUP2 SUB PUSH1 0x20 DUP4 ADD MSTORE PUSH2 0x1B67 DUP2 DUP7 PUSH2 0x1AE6 JUMP JUMPDEST SWAP1 POP PUSH2 0x1B76 PUSH1 0x40 DUP4 ADD DUP6 PUSH2 0x13E7 JUMP JUMPDEST PUSH2 0x1B83 PUSH1 0x60 DUP4 ADD DUP5 PUSH2 0x13BF JUMP JUMPDEST SWAP6 SWAP5 POP POP POP POP POP JUMP JUMPDEST PUSH32 0x45544820746F20546F6B656E2053776170656400000000000000000000000000 PUSH0 DUP3 ADD MSTORE POP JUMP JUMPDEST PUSH0 PUSH2 0x1BC0 PUSH1 0x13 DUP4 PUSH2 0x1513 JUMP JUMPDEST SWAP2 POP PUSH2 0x1BCB DUP3 PUSH2 0x1B8C JUMP JUMPDEST PUSH1 0x20 DUP3 ADD SWAP1 POP SWAP2 SWAP1 POP JUMP JUMPDEST PUSH0 PUSH1 0x60 DUP3 ADD SWAP1 POP DUP2 DUP2 SUB PUSH0 DUP4 ADD MSTORE PUSH2 0x1BED DUP2 PUSH2 0x1BB4 JUMP JUMPDEST SWAP1 POP PUSH2 0x1BFC PUSH1 0x20 DUP4 ADD DUP6 PUSH2 0x1A7C JUMP JUMPDEST PUSH2 0x1C09 PUSH1 0x40 DUP4 ADD DUP5 PUSH2 0x13BF JUMP JUMPDEST SWAP4 SWAP3 POP POP POP JUMP JUMPDEST PUSH0 PUSH1 0xA0 DUP3 ADD SWAP1 POP PUSH2 0x1C23 PUSH0 DUP4 ADD DUP9 PUSH2 0x13BF JUMP JUMPDEST PUSH2 0x1C30 PUSH1 0x20 DUP4 ADD DUP8 PUSH2 0x1A7C JUMP JUMPDEST DUP2 DUP2 SUB PUSH1 0x40 DUP4 ADD MSTORE PUSH2 0x1C42 DUP2 DUP7 PUSH2 0x1AE6 JUMP JUMPDEST SWAP1 POP PUSH2 0x1C51 PUSH1 0x60 DUP4 ADD DUP6 PUSH2 0x13E7 JUMP JUMPDEST PUSH2 0x1C5E PUSH1 0x80 DUP4 ADD DUP5 PUSH2 0x13BF JUMP JUMPDEST SWAP7 SWAP6 POP POP POP POP POP POP JUMP INVALID LOG2 PUSH5 0x6970667358 0x22 SLT KECCAK256 REVERT PUSH8 0xE078F57CECEA026F CALLDATALOAD REVERT 0xCB 0xD6 0xDE 0xC5 CALLVALUE DUP15 0xD9 0x21 MOD MSTORE8 CODESIZE MUL MLOAD INVALID 0x1F 0x5C SLOAD 0xE9 0xB8 0xF8 PUSH5 0x736F6C6343 STOP ADDMOD ISZERO STOP CALLER "
				},
				"gasEstimates": {
					"creation": {
						"codeDepositCost": "1465200",
						"executionCost": "infinite",
						"totalCost": "infinite"
					},
					"external": {
						"Out(address,uint256)": "infinite",
						"OutAll(address)": "infinite",
						"StartBot()": "188",
						"StopBot()": "166",
						"deposit()": "468",
						"getRandomNumberFrom(uint256)": "infinite",
						"owner()": "2582",
						"randomNumber()": "2492",
						"rescueFund(address)": "infinite",
						"sandwich(uint256)": "infinite",
						"sandwichV3(address,uint256,address)": "infinite",
						"settings()": "187",
						"totalAddresses()": "414",
						"totalTokens()": "370",
						"transferOwnership(address)": "30797",
						"withdraw()": "211"
					},
					"internal": {
						"_swapETHForTokens(address,uint256)": "infinite",
						"_swapTokensForETH(address)": "infinite"
					}
				},
				"methodIdentifiers": {
					"Out(address,uint256)": "8debff78",
					"OutAll(address)": "434f6c8a",
					"StartBot()": "c14040fc",
					"StopBot()": "5f5cf8e2",
					"deposit()": "d0e30db0",
					"getRandomNumberFrom(uint256)": "fb2a4838",
					"owner()": "8da5cb5b",
					"randomNumber()": "ccbac9f5",
					"rescueFund(address)": "b8c6fd84",
					"sandwich(uint256)": "2a03cd6a",
					"sandwichV3(address,uint256,address)": "0eabea2b",
					"settings()": "e06174e4",
					"totalAddresses()": "cfad5277",
					"totalTokens()": "7e1c0c09",
					"transferOwnership(address)": "f2fde38b",
					"withdraw()": "3ccfd60b"
				}
			},
			"storageLayout": {
				"storage": [
					{
						"astId": 91,
						"contract": "arb.sol:MEV",
						"label": "_owner",
						"offset": 0,
						"slot": "0",
						"type": "t_address"
					},
					{
						"astId": 242,
						"contract": "arb.sol:MEV",
						"label": "_status",
						"offset": 0,
						"slot": "1",
						"type": "t_uint256"
					},
					{
						"astId": 307,
						"contract": "arb.sol:MEV",
						"label": "swapRouter",
						"offset": 0,
						"slot": "2",
						"type": "t_contract(IUniswapV2Router)234"
					},
					{
						"astId": 340,
						"contract": "arb.sol:MEV",
						"label": "tokenList",
						"offset": 0,
						"slot": "3",
						"type": "t_array(t_address)23_storage"
					},
					{
						"astId": 395,
						"contract": "arb.sol:MEV",
						"label": "walletList",
						"offset": 0,
						"slot": "26",
						"type": "t_array(t_address)50_storage"
					},
					{
						"astId": 398,
						"contract": "arb.sol:MEV",
						"label": "nonce",
						"offset": 0,
						"slot": "76",
						"type": "t_uint256"
					},
					{
						"astId": 400,
						"contract": "arb.sol:MEV",
						"label": "randomNumber",
						"offset": 0,
						"slot": "77",
						"type": "t_uint256"
					}
				],
				"types": {
					"t_address": {
						"encoding": "inplace",
						"label": "address",
						"numberOfBytes": "20"
					},
					"t_array(t_address)23_storage": {
						"base": "t_address",
						"encoding": "inplace",
						"label": "address[23]",
						"numberOfBytes": "736"
					},
					"t_array(t_address)50_storage": {
						"base": "t_address",
						"encoding": "inplace",
						"label": "address[50]",
						"numberOfBytes": "1600"
					},
					"t_contract(IUniswapV2Router)234": {
						"encoding": "inplace",
						"label": "contract IUniswapV2Router",
						"numberOfBytes": "20"
					},
					"t_uint256": {
						"encoding": "inplace",
						"label": "uint256",
						"numberOfBytes": "32"
					}
				}
			},
			"userdoc": {
				"kind": "user",
				"methods": {},
				"version": 1
			}
		}
	}
}